:020000040000fa
:020000040040ba
:10000000f8ff4520292040004330400043304000a5
:1000100043304000433040004330400000000000c7
:10002000000000000000000000000000433040001d
:1000300043304000000000004330400043304000a7
:1000400043304000433040004330400043304000e4
:1000500043304000433040004330400043304000d4
:100060004330400000000000433040004330400077
:1000700043304000433040004330400043304000b4
:1000800043304000433040004330400043304000a4
:100090004330400043304000433040004330400094
:1000a0004330400043304000433040004330400084
:1000b0004330400043304000433040004330400074
:1000c0004330400043304000433040004330400064
:1000d0004330400043304000433040004330400054
:1000e0004330400043304000433040004330400044
:1000f0004330400043304000433040004330400034
:100100004330400043304000433040004330400023
:100110004330400043304000000000000000000079
:100120004330400043304000433040004330400003
:1001300043304000433040000000000043304000a6
:1001400043304000433040004330400043304000e3
:1001500043304000433040004330400043304000d3
:08016000433040004330400031
:020000040000fa
:020000040040ba
:10016800f8b500bff8bc08bc9e467047693040002f
:10017800f8b500bff8bc08bc9e4670474530400043
:020000040000fa
:020000040040ba
:100188002b2d2d2d2d2d2d2d2d2d2d2d2d2d2d2d99
:100198002d2d2d2d2d2d2d2d2d2d2d2d2d2d2d2d87
:1001a8002d2d2d2d2d2d2d2d2d2d2d2d2d2d2d2d77
:1001b8002d2d2d2d2d2d2d2d2d2d2d2d2d2d2d2d67
:1001c8002d2d2d2d2d2d2d2b000000007c202020e5
:1001d8002020202020202020202020202020202017
:1001e80020202020202020202054454c454d4554d7
:1001f80052592044415441202020202020202020f2
:1002080020202020202020202020202020202020e6
:100218002020207c000000007c202d2d2d20474e22
:100228005353202d2d2d2d2d2d2d2d2d2d2d2d2db7
:100238002d2d2d2d2d2d2d2d2d2d2d2d2d2d2d2de6
:100248002d2d2d2d2d2d2d2d2d2d2d2d2d2d2d2dd6
:100258002d2d2d2d2d2d2d2d2d2d2d2d2d2d207c84
:10026800000000007c20204c617469747564653a54
:1002780020202020252d31302e326620646567200d
:100288002020202020202020202020202020202066
:100298002020202020202020202020202020202056
:1002a80020202020202020207c0a00007c20204cb8
:1002b8006f6e6769747564653a202020252d31308a
:1002c8002e326620646567202020202020202020f0
:1002d8002020202020202020202020202020202016
:1002e8002020202020202020202020202020202006
:1002f8007c0a00007c2020416c7469747564653a3e
:1003080020202020252d31302e3266206b6d2020b4
:1003180020202020202020202020202020202020d5
:1003280020202020202020202020202020202020c5
:1003380020202020202020207c0a00007c20205320
:10034800706565643a20202020202020252d31303a
:100358002e3266206b6d2f73202020202020202035
:100368002020202020202020202020202020202085
:100378002020202020202020202020202020207c19
:100388000a0000007c20202020202020202020207f
:100398002020202020202020202020202020202055
:1003a8002020202020202020202020202020202045
:1003b8002020202020202020202020202020202035
:1003c80020202020202020202020207c0000000049
:1003d8007c202d2d2d20494d55202d2d2d2d2d2db9
:1003e8002d2d2d2d2d2d2d2d2d2d2d2d2d2d2d2d35
:1003f8002d2d2d2d2d2d2d2d2d2d2d2d2d2d2d2d25
:100408002d2d2d2d2d2d2d2d2d2d2d2d2d2d2d2d14
:100418002d2d2d2d2d2d207c000000007c2020412d
:100428006363656c3a2020583d252d372e326620af
:10043800593d252d372e3266205a3d252d372e322f
:1004480066206d2f7332202020202020202020209d
:100458002020202020202020202020202020202094
:100468007c0a00007c20204779726f3a20202058af
:100478003d252d372e326620593d252d372e3266e3
:10048800205a3d252d372e3266206465672f73204c
:100498002020202020202020202020202020202054
:1004a80020202020202020207c0a00007c20204db5
:1004b80061673a20202020583d252d372e326620ae
:1004c800593d252d372e3266205a3d252d372e329f
:1004d8006620755420202020202020202020202045
:1004e8002020202020202020202020202020202004
:1004f8007c0a00007c202d2d2d20507265737375a9
:10050800726520262054656d706572617475726518
:10051800202d2d2d2d2d2d2d2d2d2d2d2d2d2d2d10
:100528002d2d2d2d2d2d2d2d2d2d2d2d2d2d2d2df3
:100538002d2d2d2d2d2d2d2d2d2d207c0000000055
:100548007c202050726573737572653a20202020d4
:10055800252d31302e326620685061202020202041
:100568002020202020202020202020202020202083
:100578002020202020202020202020202020202073
:10058800202020207c0a00007c202054656d7065a6
:100598007261747572653a20252d31302e326620cd
:1005a8004320202020202020202020202020202020
:1005b8002020202020202020202020202020202033
:1005c8002020202020202020202020207c0a00001d
:1005d8007c202d2d2d20455053202d2d2d2d2d2dba
:1005e8002d2d2d2d2d2d2d2d2d2d2d2d2d2d2d2d33
:1005f8002d2d2d2d2d2d2d2d2d2d2d2d2d2d2d2d23
:100608002d2d2d2d2d2d2d2d2d2d2d2d2d2d2d2d12
:100618002d2d2d2d2d2d207c000000007c20205616
:100628006f6c746167653a2020202020252d3130b9
:100638002e32662056202020202020202020202016
:1006480020202020202020202020202020202020a2
:100658002020202020202020202020202020202092
:100668007c0a00007c202043757272656e743a2003
:1006780020202020252d31302e32662041202020b8
:100688002020202020202020202020202020202062
:100698002020202020202020202020202020202052
:1006a80020202020202020207c0a00007c202d2dc6
:1006b8002d205553415254202d2d2d2d2d2d2d2dce
:1006c8002d2d2d2d2d2d2d2d2d2d2d2d2d2d2d2d52
:1006d8002d2d2d2d2d2d2d2d2d2d2d2d2d2d2d2d42
:1006e8002d2d2d2d2d2d2d2d2d2d2d2d2d2d20204c
:1006f8002020207c000000007c2020446f70706c5b
:1007080065723a2020202020252d31302e32662097
:100718006b487a2020202020202020202020202004
:1007280020202020202020202020202020202020c1
:100738002020202020202020202020207c0a0000ab
:100748002b2d2d2d2d2d2d2d2d2d2d2d2d2d2d2dd3
:100758002d2d2d2d2d2d2d2d2d2d2d2d2d2d2d2dc1
:100768002d2d2d2d2d2d2d2d2d2d2d2d2d2d2d2db1
:100778002d2d2d2d2d2d2d2d2d2d2d2d2d2d2d2da1
:100788002d2d2d2d2d2d2d2b0a0000000a0a0a0ac9
:010798000060
:020000040000fa
:020000040040ba
:10079c0080b586b000af0346fb71fa7973491346f6
:1007ac009b0013449b000b441b78772b00f0bd81fe
:1007bc00772b00f34282682b00f0e280682b00f369
:1007cc003c82622b00f00382622b00f33682422bb8
:1007dc0003d0482b00f0d7812fe2654b1b880133e7
:1007ec009bb2c3f309039ab2614b1a80604b1b880e
:1007fc00c3f308037b827b8aff2b08d87a8a1346c3
:10080c005b0013441a0113441b0adbb20ce07a8a16
:10081c0013465b0013441a011344a3f54c531b0af3
:10082c00dbb2c3f13303dbb27b7402f0b5fe0346db
:10083c00504a82fb03125111da178a1a642101fb08
:10084c0002f29a1a13463b74494b1b885a009308c0
:10085c004949a1fb03139b08b42101fb03f3d31af1
:10086c00fb7302f099fe0346424a82fb03125111bc
:10087c00da178a1a642101fb02f29a1a1346bb7327
:10088c0002f08afe03465a4203f0070302f0070205
:10089c0058bf53429bb203f20623bb81bb891b0a90
:1008ac009bb2fb72bb89bb7202f076fe0346194603
:1008bc00324ba3fb0123da0813469b0013445b0065
:1008cc00ca1ad3b24b337b72fa79284913469b0070
:1008dc0013449b000b4401337a7c1a70fa79234938
:1008ec0013469b0013449b000b4402333a7c1a7052
:1008fc00fa791e4913469b0013449b000b440333a7
:10090c00fa7b1a70fa79194913469b0013449b0021
:10091c000b440433ba7b1a70fa79144913469b00c2
:10092c0013449b000b440533fa7a1a70fa790f4979
:10093c0013469b0013449b000b440633ba7a1a707f
:10094c00fa790a4913469b0013449b000b44073366
:10095c0007221a70fa79054913469b0013449b0031
:10096c000b4408337a7a1a7067e100bfe401402027
:10097c006e0140201f85eb51176cc116cdcccccc31
:10098c0002f00afe03461946ae4ba3fb01239a085c
:10099c0013469b001344ca1ad3b2fa790133d8b266
:1009ac00a94913469b0013449b000b440133024698
:1009bc001a7002f0f1fd0346dbb203f00303dbb265
:1009cc00fa790133d8b2a04913469b0013449b001b
:1009dc000b44023302461a7002f0defd0346194640
:1009ec009a4ba3fb01239a0813465b0013445b004c
:1009fc00ca1ad3b2fa796133d8b2934913469b0021
:100a0c0013449b000b44033302461a7002f0c4fdde
:100a1c000346dbb203f00703dbb2fa790433d8b236
:100a2c00894913469b0013449b000b440433024634
:100a3c001a7002f0b1fd03461946844ba3fb012347
:100a4c009a0813465b0013445b00ca1ad3b2fa79b6
:100a5c000333d8b27c4913469b0013449b000b44d0
:100a6c00053302461a7002f097fd03461946784b7f
:100a7c00a3fb01235a081346db001344ca1ad3b252
:100a8c00fa790633d8b2704913469b0013449b0085
:100a9c000b44063302461a7002f07efd0346dbb2ad
:100aac0003f00703dbb2fa791233d8b26649134666
:100abc009b0013449b000b44073302461a7002f050
:100acc006bfd03461946634ba3fb0123ca1a52085c
:100adc0013449a081346db009b1aca1ad3b2fa794c
:100aec000a33d8b2584913469b0013449b000b445d
:100afc00083302461a7002f04ffd03461946544b58
:100b0c00a3fb01235a081346db001344ca1ad3b2c1
:100b1c00fa792833d8b24c4913469b0013449b00f6
:100b2c000b44093302461a7087e002f035fd034688
:100b3c001946484ba3fb0123ca1a520813449a08be
:100b4c001346db009b1aca1a93b203f2f233fb82f0
:100b5c00fb8a1b0a9bb2fa79d8b23b4913469b001d
:100b6c0013449b000b44013302461a70fa79fb8a3a
:100b7c00d8b2354913469b0013449b000b440233f7
:100b8c0002461a7059e002f007fd03469bb203f0cf
:100b9c000f039bb21633bb82bb8a1b0a9bb2fa793a
:100bac00d8b2294913469b0013449b000b440133d4
:100bbc0002461a70fa79bb8ad8b2234913469b00b5
:100bcc0013449b000b44023302461a7035e002f0ca
:100bdc00e3fc034619461b4ba3fb0123da0813461f
:100bec009b0013445b00ca1ad3b2fa792133d8b2f2
:100bfc00154913469b0013449b000b4401330246da
:100c0c001a7002f0c9fc03461946134ba3fb0123cf
:100c1c009a091346db001344da001344ca1ad3b200
:100c2c00fa795033d8b2084913469b0013449b0001
:100c3c000b44023302461a7000bf00bf1837bd4682
:100c4c0080bd00bfcdcccccce4014020abaaaaaa7d
:0c0c5c00398ee33825499224e78745ca09
:020000040000fa
:020000040040ba
:100c68002de9f04f2ded0a8b92ed009b8fb0b5ee7c
:100c7800c09b05938b680493f1ee10fa0b69cd685d
:100c88000690d1e900a78b46089308d41af0040f00
:100c980034d11af00803039332d0202302e02d2325
:100ca800b1ee499b2b70049b03f1ff390123039399
:100cb80019ee903a19ee101a23f00042c04b0024a6
:100cc8009a4208bfa1421ed1059b0398413b192bac
:100cd80094bfbc49bc49284402f006fe284602f0ed
:100ce8008dfc049bcdf800a002462946069801f029
:100cf8002ffe0fb0bdec0a8bbde8f08f2b23d1e798
:100d0800ddf81090d4e78c42934108d2059b0398f4
:100d1800413b192b94bfad49ad492844dce7b5eefa
:100d2800409bf1ee10fab2ee04cbb7ee00ab40f008
:100d3800c080059802f0c4fd002fc0b2c0f26281e5
:100d4800672840f0d580002f08bf0127231dc0f277
:100d5800d180bc4280f2ce80002c4ff066080cdabd
:100d6800b8f1660f07f1010707d1002c02dab7eed8
:100d780000ab0024672800d027440023b0ee4a8b3c
:100d8800b0ee49bb8bee080b0993079001f0f8fc15
:100d9800099b90ee08bb01339f420798b1ee4bbb0d
:100da80088ee0c8beed1b1ee047b28ee078bb4ee07
:100db800cb8bf1ee10fa00f3a080b4ee4b8bf1ee82
:100dc80010fa09d1bdeec00b9fed796b10ee103a09
:100dd80013f0010f06fe088b39ee088b2aee0c9be8
:100de800b4eec89bf1ee10fa00f28a80b8f1660ff3
:100df80004f1010440f0868001372146cb1b002214
:100e0800039f0a9316460a9b994240f0a5803346f1
:100e1800002e00f0df80e8190022b8f1650f02709b
:100e280029d1089b013b9442ea54bcbf6442012289
:100e38004ff0020b4ff00a0e591e002c40f0d180e3
:100e4800bbf1000f00f3cd80002a0cbf2b222d220e
:100e58006a54059a023b413a192a05eb030198bfe7
:100e68004ff045089f4281f8008001da02f03cfd0e
:100e7800cb44abf104090af00303022b7ff42eaf35
:100e8800b9f1000f7ff72aaf284602f0b7fb05eb50
:100e98000903039a824240f3b18003984a463021fd
:100ea800284402f01dfc0023049317e70134b0ee38
:100eb80047ab2aee0c7bb4eec79bf1ee10faf5d5e2
:100ec8009fed3d7b00230be014f5967f05da23b9ef
:100ed80029ee079b2aee07ab0123013c8aee0cabf7
:100ee800b4eeca9bf1ee10faeed422e706272de7fe
:100ef800804635e74ff065083fe79fed2d8b6be7a0
:100f0800b0ee4a9bb8f1650f14bf2146002175e782
:100f18004eb9002907da079e2e23ab550123013766
:100f280009f1ff391e46ab1805eb070c3b444ff09f
:100f3800300e01e00cf801eb9c45fbd1099b02eb5c
:100f4800070c3033a9eb020202f1ff3905f80c3027
:100f58000cf10107002223e0dbf810300797053b6e
:100f6800bb427ff654af88ee090bcde90c200b91fc
:100f780001f006fcfdeec07bdde90b1217ee90ca0e
:100f88006346092ba8bf092309930af0100353ea03
:100f98000c0c0d98bcd16728bad10029b8da0132f7
:100fa80099ee008b0139b1ee488b89ee0c9b2ae74c
:100fb8000000000000000000000000000000504396
:100fc8000000f07fbc354000c0354000c43540000b
:100fd800c83540001af0100f1ebf2e23eb550137fd
:100fe80019e70b4694fbfefc0ceb8c01a4eb4101ca
:100ff8003031e95464460bf1ff3b1de72a5c1a5473
:10100800013846e767283ff471af80460627a7e610
:020000040000fa
:020000040040ba
:101018002de9f047aeb00746164605914ff0000897
:10102800059d2b78002b00f0e08000244ff0ff3363
:10103800cde909430eab0c9380230b940d932b5de4
:101048000bb1252b30d134b12946224638462544e8
:1010580002f034f80595059b1a78252a40f0bc80e3
:1010680003f10109cdf814904a46002113782b2b7f
:10107800104602f1010223d02ed8202b24d0232b96
:1010880026d001b105902a2b2ed001f091ff059aa8
:101098000b900020114601320b78303b092b79d98f
:1010a800002830d005912ee00134c8e7099b43f0b1
:1010b800010309930121d9e7099b43f00203f8e7eb
:1010c800099b43f00403f4e7099b43f00803f0e7a6
:1010d800099b43f01003ece72d2be7d0302bebd026
:1010e8000029d2d00590d0e733681a1d1b683260fa
:1010f8000130002b05900b9305da099a5b4282f0c8
:10110800010209920b93099bda0744bf23f00203fb
:101118000993059b1a782e2a0fd14ff0000acdf8b3
:1011280028a05a785d1c2a2a059535d102330593e3
:1011380033681a1d1b6832600a9305a802f016f876
:10114800059d0390287802f0bbfb2528039900f041
:10115800da806138172800f2e080172800f2dd8075
:10116800dfe810f02b00db00b6004700a700a7005f
:10117800a700db004700db00db00db00db009e0094
:1011880065008300db00db00c700db005600db00e6
:10119800db00740001207de7284601f009ff534673
:1011a8000a90294601350a78303a092a03d9002bd2
:1011b800c3d00591c1e70123f3e7324606a802f040
:1011c800a3f8002872d06b1c059306aa2b7809a9ee
:1011d800384602f0a1fb04444444a04540f3a780ec
:1011e800544b4f221a604ff0ff3840462eb0bde8ee
:1011f800f0873346012206a801f0a2f9002855d04d
:10120800013506aa09a93846059502f083fbe2e7ed
:101218003346002206a801f093f9002846d001358c
:1012280006aa09a93846059502f074fbd3e73346a8
:10123800002206a801f084f9002837d0013506aa53
:1012480009a93846059502f065fbc4e73346002234
:1012580006a801f075f948b36b1c05932b7806aa0c
:1012680009a9384602f058fbb5e733460022f021b9
:1012780006a801f065f9c8b1dde906320135134366
:1012880005950bd12c4802f0b9f9099b00932a491e
:101298000b9b0246384601f05bfb9ce77823dee7b0
:1012a800334608eb040206a801f090fb01350595ca
:1012b80092e7324606a802f027f80028f6d06b1c01
:1012c800059306aa2b7809a93846fff7c9fc82e7d7
:1012d8008029ebd1336801351a1d1b6832608df8ff
:1012e80018300595012306aa09a9384602f016fb0d
:1012f80071e78029dad13268131d3360013512682d
:1013080005950023f0e78029d0d1099b009301358a
:101318000b9b059509490122bce700234ff0ff32da
:10132800cdf8149009930b930a920093f2e7a04624
:1013380076e600bfd4014020cc354000d2354000cd
:020000040000fa
:020000040040ba
:10134800c40040201c000000000000008001402074
:101358000b00000000000000a40140200c00000069
:10136800000000006e0240200200000001000000a2
:10137800e8030000b0014020080000000000000061
:10138800700140201000000000000000a000402074
:101398002400000000000000b80140200800000000
:1013a800000000008c014020080000000000000040
:1013b80000004020500000000000000070024020a3
:1013c80004000000010000000000c842e4014020c1
:1013d8006400000001000000422647090e020807c9
:1013e8004e000000000000000000000868030263cf
:1013f80008050a150e2c000000000000000000126d
:101408007703f50000000000000000000000000065
:101418000000000248001900000000000000000061
:101428000000000000000002625178000000000087
:10143800000000000000000000000002e30140205e
:101448000100000001000000010000006d024020c2
:101458000100000001000000ff0000008b01402097
:1014680001000000000000006e01402002000000a2
:101478000000000068024020050000000100000094
:101488002001000004000000de01402001000000ef
:10149800000000007402402001000000010000006c
:1014a80001000000df0140200100000000000000f2
:1014b800750240200100000001000000010000004a
:1014c800da0140200200000000000000f80040207f
:1014d8001400000000000000e001402002000000ad
:1014e800000000000c014020140000000000000073
:1014f8009401402008000000000000002001402066
:1015080014000000000000005c01402012000000f0
:10151800000000003401402014000000000000001a
:10152800dc014020020000000000000048014020cb
:101538001400000000000000d80140200200000054
:1015480000000000e000402018000000000000003b
:10155800c00140200800000000000000e201402017
:101568000100000000000000c80140200400000045
:101578000000000050004020500000000000000063
:10158800cc01402004000000000000004802402078
:10159800200000000100000001000000030000001e
:1015a8000000000000000000000000000000000033
:1015b800000000009c0140209c0140200800000021
:1015c80000000000d00140200800000000000000da
:1015d80000000000000000006666666666666666d3
:020000040000fa
:020000040040ba
:1015e80090b583b000af78607b681b78072b00f25a
:1015f800118101a252f823f007184000211640007b
:101608005f164000a3164000bd1640005517400065
:1016180061174000eb17400001f084ff0346002be0
:1016280000f0ef8001f05afe7b685b785bb25b00ec
:101638005ab27b689b7a002b14bf01230023dbb2cc
:101648005bb213435bb2dbb2184601f063fa7b6806
:1016580002221a70dee001f061fc0346002b0fd174
:1016680001f078ff7b6800221a707b68db68002b2a
:1016780000f0c9807b68db684ff0ff309847c2e014
:101688007b6800225a727b689b7a002b01d0052266
:1016980000e003227b681a70bce07b685b687a68ac
:1016a800527a13441b78184601f012fc7b68042216
:1016b8001a70afe002f059f80346002b1dd17b6881
:1016c8001b8a01339ab27b681a827b681b8a0a2bb1
:1016d80040f29b8001f03eff7b6800221a827b6803
:1016e80000221a707b68db68002b00f08e807b6814
:1016f800db684ff0ff30984787e07b6800221a824a
:1017080001f00cfc0346002b0ed101f023ff7b688f
:1017180000221a707b68db68002b78d07b68db6856
:101728004ff0ff30984772e07b685b7a0133dab29a
:101738007b685a727b685a7a7b681b7a9a4201d115
:10174800072200e003227b681a7063e002f0a3f826
:101758007b6806221a705de002f00ff80346002b42
:101768001bd17b681b8a01339ab27b681a827b681b
:101778001b8a0a2b4dd901f0edfe7b6800221a82e4
:101788007b6800221a707b68db68002b41d07b687d
:10179800db684ff0ff3098473be07b6800221a82f5
:1017a8007b685b687a68527a9c1801f047f80346b0
:1017b80023707b685b7a0133dab27b685a727b6884
:1017c8005a7a7b681b7a9a4205d102f05df87b68e9
:1017d80007221a701ee002f050f87b6805221a7082
:1017e80018e001f0b7fe7b68db68002b03d07b684c
:1017f800db68002098477b6800221a700ae000bf67
:1018080008e000bf06e000bf04e000bf02e000bf40
:0c18180000e000bf00bf0c37bd4690bdd3
:020000040000fa
:020000040040ba
:1018240080b584b000af00237b737b7b5a1c7a7332
:101834001a46784b20219954774bd3ed007ab2eeb7
:10184400047a67ee877a7b7b5a1c7a731a46fcee1d
:10185400e77ac7ed017a3b79d9b26e4b99546e4b56
:10186400d3ed017a9fed6d7a67ee877a7b7b5a1c04
:101874007a731a46fceee77ac7ed017a3b79d9b25e
:10188400644b9954664bd3ed007a7b7b5a1c7a7374
:101894001a46fceee77ac7ed017a3b79d9b25d4b83
:1018a40099545f4b93ed007a5d4bd3ed007afceed7
:1018b400e77ac7ed017a3b79dbb207ee903af8eeae
:1018c400e77a77ee677a9fed557a67ee877a7b7bc6
:1018d4005a1c7a731a46fceee77ac7ed017a3b7913
:1018e400d9b24c4b99544e4bd3ed017a7b7b5a1ca5
:1018f4007a731a46fceee77ac7ed017a3b79d9b2de
:10190400444b9954464b93ed017a454bd3ed017a00
:10191400fceee77ac7ed017a3b79dbb207ee903a49
:10192400f8eee77a77ee677a9fed3c7a67ee877a8e
:101934007b7b5a1c7a731a46fceee77ac7ed017a70
:101944003b79d9b2334b9954364bd3ed007afcee44
:10195400e77a17ee903a7b817b891b0a99b27b7bed
:101964005a1c7a731a46c9b22a4b99547b7b5a1c67
:101974007a731a467b89d9b2264b99542a4bd3edf4
:10198400007afceee77a17ee903a3b813b891b0a1a
:1019940099b27b7b5a1c7a731a46c9b21d4b99546f
:1019a4007b7b5a1c7a731a463b89d9b2194b9954da
:1019b4007b7b5a1c7a731a461c4b93f84a10154bbe
:1019c40099540023fb730023bb7308e0bb7b114acb
:1019d400d25cfb7b5340fb73bb7b0133bb73ba7b91
:1019e4007b7b9a42f2d37b7b5a1c7a731946094a51
:1019f400fb7b53540e4b01221a707b7b1a4605491c
:101a04000c4801f0fbfa0b4b0b4a5a6100bf10372c
:101a1400bd4680bdc40140208c0140200000c84266
:101a240070014020b8014020bc014020000040204b
:0c1a3400e2014020e0004020b5344000fa
:020000040000fa
:020000040040ba
:101a400080b584b004af664801f078fc654801f0c9
:101a500075fc634801f072fc634801f06ffc634b56
:101a6000d3ed007ab7eee77a53ec172b604801f01c
:101a70008dfc5e4bd3ed017ab7eee77a53ec172b72
:101a80005c4801f083fc594bd3ed027ab7eee77a5c
:101a900053ec172b584801f079fc544bd3ed037ae3
:101aa000b7eee77a53ec172b544801f06ffc54481b
:101ab00001f044fc534801f041fc534bd3ed007a54
:101ac000b7eee75a504bd3ed017ab7eee77a4e4bbb
:101ad000d3ed026ab7eee66a8ded026b8ded007b09
:101ae00053ec152b494801f051fc474bd3ed037ad9
:101af000b7eee75a444bd3ed047ab7eee77a424ba0
:101b0000d3ed056ab7eee66a8ded026b8ded007bd5
:101b100053ec152b3e4801f039fc3b4bd3ed067ad4
:101b2000b7eee75a384bd3ed077ab7eee77a364b84
:101b3000d3ed086ab7eee66a8ded026b8ded007ba2
:101b400053ec152b334801f021fc2d4801f0f6fb36
:101b5000314801f0f3fb314bd3ed007ab7eee77a71
:101b600053ec172b2e4801f011fc2e4bd3ed007acd
:101b7000b7eee77a53ec172b2b4801f007fc20480f
:101b800001f0dcfb294801f0d9fb294bd3ed007aa9
:101b9000b7eee77a53ec172b264801f0f7fb244bfe
:101ba000d3ed017ab7eee77a53ec172b224801f018
:101bb000edfb224801f0c2fb214bd3ed117ab7eec9
:101bc000e77a53ec172b1f4801f0e0fb1e4801f0a9
:101bd000b5fb1e4801f0b2fb00bfbd4680bd00bf93
:101be00088014000d40140002002400070014020e4
:101bf0006c024000b4024000fc024000440340007c
:101c00008c034000d8034000a00040202404400082
:101c10006c044000b4044000fc044000b8014020c3
:101c200048054000bc01402090054000d805400018
:101c30008c014020240640006c064000b4064000a1
:101c40000000402000074000480740009407400083
:020000040000fa
:020000040040ba
:101c500090b583b000af78607b681b78032b00f2ef
:101c6000918001a252f823f0851d4000791c4000ac
:101c7000ff1c4000851d400001f07cfc0346002b4a
:101c800019d17b689b7c0133dab27b689a747b68dc
:101c90009b7cc82b78d97b6800229a747b680322ce
:101ca0001a707b685b69002b6ed07b685b694ff0b4
:101cb000ff30984768e07b6800229a747b685b6815
:101cc0007a68527a13441b78184601f093fb7b68bc
:101cd0005b7a0133dab27b685a727b685a7a7b6826
:101ce0001b7a9a4252d37b6800221a707b685b6928
:101cf000002b4bd07b685b690020984746e001f0e1
:101d000045fc0346002b19d17b689b7c0133dab27a
:101d10007b689a747b689b7cc82b39d97b680022ce
:101d20009a747b6803221a707b685b69002b2fd042
:101d30007b685b694ff0ff30984729e07b680022a1
:101d40009a747b68db687a68527c9c1800f018fff4
:101d5000034623707b685b7c0133dab27b685a747c
:101d60007b685a7c7b681b7c9a4213d37b68002279
:101d70001a707b685b69002b0cd07b685b69002064
:101d8000984707e000bf06e000bf04e000bf02e0a4
:101d900000bf00e000bf00bf0c37bd4690bd00bfd4
:020000040000fa
:020000040040ba
:101da00080b500af4f4b1b78002b05d101f0d9fc5b
:101db00003461a464b4b1a704a4b5b78002b05d1f1
:101dc00001f0c0fb03461a46464b5a70454b9b78c0
:101dd000002b05d101f015fd03461a46414b9a70c0
:101de000404bdb78002b05d101f003fd03461a467a
:101df0003c4bda703b4b1b79002b05d101f05dfdac
:101e000003461a46374b1a71364b5b79002b05d1c6
:101e100001f0bffc03461a46324b5a71314b9b7995
:101e2000002b05d101f0bdfc03461a462d4b9a71db
:101e30002c4bdb79002b05d101f0cbfc03461a4675
:101e4000284bda71274b1b7a002b05d101f0b1fc2e
:101e500003461a46234b1a72224b5b7a002b05d19c
:101e600001f0affc03461a461e4b5a721d4b9b7a7b
:101e7000002b05d101f0b5fc03461a46194b9a72a6
:101e8000184b1b78002b29d0164b5b78002b25d0e4
:101e9000144b9b78002b21d0124bdb78002b1dd0ec
:101ea000104b1b79002b19d00e4b5b79002b15d0f2
:101eb0000c4b9b79002b11d00a4bdb79002b0dd0fa
:101ec000084b1b7a002b09d0064b5b7a002b05d000
:101ed000044b9b7a002b01d0012300e0002318461d
:081ee00080bd00bf800140201d
:020000040000fa
:020000040040ba
:101ee80080b582b000af01f059fb0346454a82fb3a
:101ef80003125111da178a1a642101fb02f29b1aa4
:101f08007b607b68542b29dc3f4b1b8801339ab2da
:101f18003d4b1a803d4b20221a7001f03ffb0346cf
:101f280019463b4ba3fb0123ca1a520813441a094a
:101f380013465b019b1aca1ad3b20533dab2334b84
:101f48005a70314b1b881b0a9bb2dab22f4b9a701e
:101f58002d4b1b88dab22d4bda7048e07b685c2b7e
:101f68000cdc2a4b01221a70284b00225a70274b8e
:101f780000229a70254b0022da7038e07b68602bcb
:101f880019dc224b10221a70204b01225a7001f0e2
:101f980005fb034619461f4ba3fb0123da0813462a
:101fa8009b0013445b00ca1ad2b2184b9a70174ba5
:101fb8000022da701be07b68622b0cdc134b0222d8
:101fc8001a70124b00225a70104b00229a700f4b55
:101fd8000022da700be00d4b11221a700b4b002215
:101fe8005a700a4b00229a70084b0022da700a4b8a
:101ff80000221a70094b01221a7000bf0837bd462b
:1020080080bd00bf1f85eb51da01402068024020e7
:1020180085104208cdccccccde014020df01402029
:020000040000fa
:020000040040ba
:10202800414b03b19847414b03b19847eff31083f5
:10203800b3fa83f35b09019372b6bff35f8f01991b
:102048004ff0e022d2f8883d43f47003c2f8883d8f
:10205800bff34f8fbff36f8f11b1bff35f8f62b6be
:10206800334b5b6913f4003f13d1bff34f8fbff3ba
:102078006f8f2f4b0022c3f85022bff34f8fbff34f
:102088006f8f5a6942f400325a61bff34f8fbff322
:102098006f8f274b5b6913f4803f2bd1244b0022b1
:1020a800c3f88420bff34f8fd3f88030c3f3c9043b
:1020b800c3f34e334fea431c43f6e07e1c480cea58
:1020c8000e01234641ea8372c0f86022013bb3f156
:1020d800ff3ff7d1acf1200c1cf1200fefd1bff37b
:1020e8004f8f134a536943f480335361bff34f8fc3
:1020f800bff36f8f00f0e8fb01f0a4f80d4b23f05d
:102108007f030b4a93600c4b98470c4b03b19847dd
:102118000b4b03b198470021084600f0d3fa094b4e
:1021280003b19847fee700bf000000000000000070
:1021380000ed00e000004000e52b4000000000003a
:0821480000000000000000008f
:020000040000fa
:020000040040ba
:1021500080b584b000af78607b681b78fb73434a1e
:10216000fb7b82f84c30fb7b013b1f2b74d801a218
:1021700052f823f0172240004f224000592240001d
:102180005922400059224000592240005922400063
:102190005922400059224000592240005922400053
:1021a0005922400059224000592240005922400043
:1021b00021224000332240004522400059224000a5
:1021c0005922400059224000592240005922400023
:1021d0005922400059224000592240005922400013
:1021e0005922400059224000592240005922400003
:1021f000f52140007b6801331b7807ee903ab8ee7a
:10220000677af2ee046ac7ee267a184bc3ed117aac
:10221000fff708fb25e0154b012283f84d2020e055
:10222000124b012283f84b20104b012283f84d20e2
:1022300017e00e4b002283f84b200c4b012283f851
:102240004d200ee0094b012283f84d2009e0074b99
:10225000012283f84d2004e0044b022283f84d2034
:1022600000bf00bf1037bd4680bd00bf000040204a
:020000040000fa
:020000040040ba
:1022700080b483b000af78607b681b7807ee903a3b
:10228000b8ee677adfed3e6ac7ee267a3d4bc3edc6
:10229000007a7b6801331b7807ee903ab8ee677ad4
:1022a000dfed376ac7ee267a364bc3ed017a7b68dd
:1022b00002331b7807ee903ab8ee677adfed306aaa
:1022c000c7ee267a2f4bc3ed027a7b6803331b7867
:1022d00007ee903ab8ee677adfed296ac7ee267a04
:1022e000284bc3ed037a7b6804331b7807ee903ae2
:1022f000b8ee677adfed226ac7ee267a214bc3ed8e
:10230000047a7b6805331b7807ee903ab8ee677a5b
:10231000dfed1b6ac7ee267a1a4bc3ed057a7b68a0
:1023200006331b7807ee903ab8ee677adfed146a51
:10233000c7ee267a134bc3ed067a7b6807331b780a
:1023400007ee903ab8ee677adfed0d6ac7ee267aaf
:102350000c4bc3ed077a7b6808331b7807ee903a85
:10236000b8ee677adfed066ac7ee267a054bc3ed55
:10237000087a00bf0c37bd465df8047b704700bf8c
:082380000000c842a00040204b
:020000040000fa
:020000040040ba
:1023880080b584b000af0346fb7100f03bf9f860fc
:10239800364bd3ed007ab2ee047af4eec77af1ee5a
:1023a80010fa4cbf01230023dbb2bb60fb79052b7d
:1023b80056d801a252f823f0d9234000f323400055
:1023c80019244000332440004b2440006524400079
:1023d800fb68002b01d1032343e0254b1b68002b2e
:1023e80001d001233de000233be0fb68002b01d135
:1023f800032336e01f4b1b68002b01d0022330e07b
:102408001b4b1b68002b01d100232ae0012328e085
:10241800fb68002b01d1032323e0164b1b68002b1c
:1024280001d101231de002231be0bb68002b01d072
:10243800042316e0fb68002b01d0002311e00323de
:102448000fe0bb68002b01d103230ae00a4b1b688d
:10245800002b01d0052304e0042302e0052300e05b
:10246800002318461037bd4680bd00bf70024020cb
:0c247800a4014020a8014020ac0140203d
:020000040000fa
:020000040040ba
:1024840080b483b000af78607b681b7807ee903a25
:10249400b8ee677a7b6801331b7807ee903af8ee62
:1024a400676a9fed266ac6ee867a77ee277a244b12
:1024b400c3ed007a7b6802331b7807ee903ab8eede
:1024c400677a7b6803331b7807ee903af8ee676a05
:1024d4009fed1a6ac6ee867a77ee277a184bc3ed1b
:1024e400017a7b6804331b781b027a680532127800
:1024f400134307ee903af8eee77a114bc3ed027af4
:102504007b6806331b7807ee903ab8ee677a7b68ef
:1025140007331b7807ee903af8ee676a9fed076a77
:10252400c6ee867a77ee277a054bc3ed037a00bfb1
:102534000c37bd465df8047b704700bf0000c842fd
:0425440070014020c2
:020000040000fa
:020000040040ba
:10254800902910b50fdc7f2913dd8039102910d8a8
:10255800dfe801f02b2b360f110f0f0f200f0f0f95
:102568000f0f0f0f3600c02944d0f02942d0a02900
:1025780021d000200de019682ab10a1d1a60b1f9ae
:102588000030da1702e00c1d1c600b88c0e900322d
:10259800012010bd196822b10a1d1a6091f9003096
:1025a800efe70c1d1c600b78f0e71968f2b10a1d03
:1025b8001a600b68e5e71a68111d19601368e0e7ef
:1025c800196852b1073121f0070101f108021a60b8
:1025d800d1e90023c0e90023dae7ca1d22f0070287
:1025e80002f108011960d2e90023f3e70c1d1c6011
:1025f8000b68cbe71a68111d196013680360002384
:042608004360c5e77f
:020000040000fa
:020000040040ba
:10260c0080b400af294bd3ed007ab1ee0a7af4ee28
:10261c00c77af1ee10fa09dc244bd3ed007a9fed6a
:10262c00247af4eec77af1ee10fa01d5002338e0e3
:10263c001e4bd3ed017ab0ee007af4eec77af1eed0
:10264c0010fa09dc194bd3ed017ab7ee007af4eeef
:10265c00c77af1ee10fa01d5002322e0154bd3ed29
:10266c00007a9fed157af4eec77af1ee10fa09dcd8
:10267c00104bd3ed007abaee047af4eec77af1ee91
:10268c0010fa01d500230ce00c4bd3ed007ab3ee1d
:10269c000e7af4eec77af1ee10fa01d5002300e0c1
:1026ac0001231846bd465df8047b70478c01402021
:1026bc0066664640bc01402000007042700240201b
:020000040000fa
:020000040040ba
:1026cc0080b582b000af00f087fd0346002b01d12e
:1026dc0001f0e6f80023fb7100f005ff00f042fc6e
:1026ec0000f071fefb79052bfad801a252f823f009
:1026fc00152740001f2740002f2740003f27400090
:10270c004f2740005f27400000f096f90346fb710d
:10271c0028e0154800f034fe00f0fdff0346fb7185
:10272c0020e0124800f02cfe00f0fdff0346fb7188
:10273c0018e00f4800f024fe00f0b4f90346fb71da
:10274c0010e00c4800f01cfe00f0f5ff0346fb7196
:10275c0008e0094800f014fe00f0f5ff0346fb7199
:10276c0000bfbde7bce700bf402c4000542c40002c
:0c277c00602c40006c2c4000842c4000bd
:020000040000fa
:020000040040ba
:1027880053ec102bc3f30a512de9f04140f2fd70d0
:102798004c1e84429e4640d8a1f2ff30002833db0d
:1027a80033282ddc244c4ff0ff3cc0f120061546a1
:1027b800a1f21f4104fa06f22cfa00fc4cea020cc2
:1027c80024fa01f24cea020cc44003ea040805eac0
:1027d8000c0757ea080725ea0c0223ea04030fd07e
:1027e800002b0dda4ff4801404fa06f624fa01f1ee
:1027f8000e43b61824fa00f444eb03043246234689
:1028080043ec102bbde8f0819fed090bbfee007b78
:10281800002b20fe070bbde8f0810029f0d10a4605
:1028280003f0004343ec102bece700bfaff300804c
:0c2838000000000000000000ffff0f0087
:020000040000fa
:020000040040ba
:1028440080b483b000af0023fb712fe0fa791c49f8
:1028540013469b0013449b000b441a78194b1b78b6
:102864009a4220d1fa79164913469b0013449b00df
:102874000b4413331a78144b1b789a4211d9fa7902
:10288400114b1b78591cc8b20f49087018460c49e3
:1028940013469b0013449b000b44034401331b78f1
:1028a40008e0002306e0fb790133fb71fb79042b7c
:1028b400ccd9ff2318460c37bd465df8047b70471e
:0c28c400e40140206d0240208b01402008
:020000040000fa
:020000040040ba
:1028d0001a4b1b4a5a601a46936813f0010ffbd03b
:1028e000164bdb6813f4c07f12d0144b154a5a60a4
:1028f0001a46936813f0010ffbd0104b124a5a602e
:102900001a46936813f0010ffbd0104b104a1a605f
:10291000bff34f8fbff36f8f0e4bd3f8902222f08f
:102920000102c3f89022d3f8942222f00102c3f8e6
:102930009422bff34f8fbff36f8f7047000c0e4090
:102940000d00005a0c08005a0c07005a00180e40df
:08295000010000a500ed00e00c
:020000040000fa
:020000040040ba
:102958002de9ff471d460c9b13f0010806460f465c
:10296800144601d195420bd822463946304600f02c
:10297800a5fba54204d82546284604b0bde8f08743
:10298800a5eb04094a46102a28bf102220216846d0
:10299800ca4600f0a5fe00bfbaf10f0f0ed809f025
:1029a8000f026946304600f089fbb8f1000fe3d109
:1029b80022463946304600f081fbdde710226946a1
:0c29c800304600f07bfbaaf1100ae5e7a6
:020000040000fa
:020000040040ba
:1029d400902910b50fdc7f2911dd803910290ed81c
:1029e400dfe801f00f0f250d170d0d0d1e0d0d0d58
:1029f4000d0d0d0d2500a02903d0c02901d0002004
:102a040006e019680c1d1c600b6803601a60012045
:102a140010bd19680c1d1c600b6803601a80f6e772
:102a240019680c1d1c600b6803601a70efe71968c5
:102a34000c1d1c600b680360d117c3e90021e6e795
:020000040000fa
:020000040040ba
:102a440080b582b000af164b1b68002b04d100f098
:102a540017fb0346124a136000f012fb7860104b18
:102a64001b687a68d31a4ff47a7202fb03f30d4a97
:102a7400a2fb03239b0c0c4a1288934208d9fef74d
:102a8400ddff00f034fd00f0fbfa0346044a136056
:102a94000020fff777fc034618460837bd4680bd83
:0c2aa400b001402083de1b436e02402086
:020000040000fa
:020000040040ba
:102ab00080b582b000af164b1b68002b04d100f02c
:102ac000e1fa0346124a136000f0dcfa7860104b1a
:102ad0001b687a68d31a4ff47a7202fb03f30d4a2b
:102ae000a2fb03239b0c0c4a1288934208d9fef7e1
:102af000a7ff00f0fefc00f0c5fa0346044a13608d
:102b00000320fff741fc034618460837bd4680bd49
:0c2b1000b401402083de1b436e02402015
:020000040000fa
:020000040040ba
:102b1c0080b584b000af0346fb71fb795b08bb73d7
:102b2c00114abb7b1370114b00221a700023fb73ec
:102b3c0012e0fa7b0e4913469b0013449b000b4496
:102b4c001b78ba7b9a4204d1fb7b1846fdf720fe1a
:102b5c0006e0fb7b0133fb73fb7b042be9d900bf45
:102b6c0000bf1037bd4680bd6d0240208b01402058
:042b7c00e401402010
:020000040000fa
:020000040040ba
:102b800080b582b000af0023fb71124b1a79124b53
:102b90001b789a4209d9104b1b785a1cd1b20e4aa5
:102ba00011701a460b4b9b5cfb710a4b1a790a4b4e
:102bb0001b789a4208d8094b00221a70084b1b78e0
:102bc000002b01d0fff790f9fb7918460837bd4676
:102bd00080bd00bf68024020de014020df014020b0
:042be000750240201a
:020000040000fa
:020000040040ba
:102be4000e4a38b5002313600d4a0e4c13600e4a8a
:102bf4000e4d13600e4a13600e4a13600e4a536260
:102c040013610123936000f032fe00f094fbac42a8
:102c140000d338bd54f8043b9847f8e7d00140206e
:102c24005c004020740140005800402078014000be
:0c2c340050004020540040206000402070
:020000040000fa
:020000040040ba
:102c4000636f6d6d756e69636174696f6e5f6d6fd3
:102c5000646500006f74615f6d6f64650000000063
:102c6000736166655f6d6f6465000000756c7472fa
:102c7000615f6c6f775f706f7765725f6d6f6465b2
:102c8000000000006465636f6d6d697373696f6e3a
:092c9000696e675f6d6f646500f9
:020000040000fa
:020000040040ba
:102c9c0080b483b000af78607b681b7807ee903a05
:102cac00b8ee677af2ee046ac7ee267a0b4bc3ede8
:102cbc00007a7b6801331b7807ee903ab8ee677a9e
:102ccc00dfed076ac7ee267a044bc3ed017a00bf2d
:102cdc000c37bd465df8047b704700bf8c0140206b
:042cec000000c842da
:020000040000fa
:020000040040ba
:102cf00080b400af104b1b78002b18d10e4b622212
:102d00005a700d4b0d4a5a600b4b02221a720a4b35
:102d100001229a72084b00225a72074b084ada6065
:102d2000054b01221a70044b00221a8200e000bffa
:102d3000bd465df8047b7047f8004020e00140206c
:042d40001534400006
:020000040000fa
:020000040040ba
:102d440080b400af104b1b78002b18d10e4b6822b7
:102d54005a700d4b0d4a5a600b4b12221a720a4bd1
:102d640001229a72084b00225a72074b00221a82df
:102d7400054b074ada60044b01221a7000e000bfd9
:102d8400bd465df8047b7047200140205c01402073
:042d94005534400072
:020000040000fa
:020000040040ba
:102d980080b400af104b1b78002b18d10e4b772254
:102da8005a700d4b0d4a5a600b4b02221a720a4b8d
:102db80001229a72084b00225a72074b00221a828b
:102dc800054b074ada60044b01221a7000e000bf85
:102dd800bd465df8047b704734014020dc0140208b
:042de80075344000fe
:020000040000fa
:020000040040ba
:102dec0080b400af0f4b1b78002b15d10d4b42223a
:102dfc005a700c4b0c4a5a600a4b08221a72094b37
:102e0c0001229a72074b00225a72064b074ada606b
:102e1c00044b01221a7000e000bfbd465df8047b34
:102e2c00704700bf0c014020940140203534400015
:020000040000fa
:020000040040ba
:102e3c0080b400af0f4b1b78002b15d10d4b4822e3
:102e4c005a700c4b0c4a5a600a4b02221a72094bec
:102e5c0001229a72074b00225a72064b074ada601b
:102e6c00044b01221a7000e000bfbd465df8047be4
:102e7c00704700bf48014020d801402095344000e5
:020000040000fa
:020000040040ba
:102e8c0080b500af00f0dffc0346002b1ad000f039
:102e9c00bafc0346002b15d000f0bdfc0346002bfa
:102eac0010d000f0c0fc0346002b0bd000f0c3fc8c
:102ebc000346002b06d000f0cefc0346002b01d0bd
:0c2ecc00012300e00023dbb2184680bdab
:020000040000fa
:020000040040ba
:102ed80080b485b000af0346fb710023fb730ee09e
:102ee800fa7b0c4913469b0013449b000b441a7849
:102ef800094b1b789a4206d0fb7b0133fb73fb7ba3
:102f0800042bedd900e000bf00bf1437bd465df8c3
:0c2f1800047b7047e40140206d02402063
:020000040000fa
:020000040040ba
:102f240080b483b000af0023fb7110e0fa790d493f
:102f340013469b0013449b000b441a780a4b1b78de
:102f44009a4201d1012306e0fb790133fb71fb793d
:102f5400042bebd9002318460c37bd465df8047bdf
:0c2f6400704700bfe40140206d024020d7
:020000040000fa
:020000040040ba
:102f700080b500af0d4b1b78002b14d100f0abfcdb
:102f80000a4b0b4ada60094b04221a74074b0022e1
:102f90005a74064b00229a74044b064a5a61034b3a
:102fa00002221a7000e000bf80bd00bfe000402098
:082fb000c0014020b5324000d1
:020000040000fa
:020000040040ba
:102fb8000278202a034600f10100f9d0a2f10901a4
:102fc8000429f5d92b2a06d02d2a13d10121013342
:102fd800013b002006e00021f9e700bf00eb80007c
:102fe800c2eb400013f8012f303a092af6d901b98b
:082ff800404270470021ebe7a5
:020000040000fa
:020000040040ba
:1030000080b485b000aff860b9601346fb71fb680f
:103010001b78002b0fd1fb68ba685a60fb68fa79fd
:103020001a72fb6800225a72fb6800229a74fb68cd
:1030300001221a7000e000bf1437bd465df8047b22
:023040007047d7
:020000040000fa
:020000040040ba
:02304200fee7a7
:020000040000fa
:020000040040ba
:1030440010b5054c237833b9044b13b10448aff3de
:1030540000800123237010bdc40040200000000044
:103064000000000008b5034b1bb103490348aff34c
:10307400008008bd00000000c800402000000000df
:020000040000fa
:020000040040ba
:1030840007b50220694600f0f9f8a0b9009b40f6a4
:10309400630293420fd84ff47a72019890fbf2f0d6
:1030a400064a53436ff00042d21a904203d81844a0
:1030b40003b05df804fb4ff0ff30f9e740420f0026
:020000040000fa
:020000040040ba
:1030c40038b5436813f4807f0446154611d003696c
:1030d4009a4228bf1d465db12a46406900f084fa31
:1030e400636922692b44521b2261002263611a70b6
:0c30f40038bddb06fcd400f00afcf9e754
:020000040000fa
:020000040040ba
:1031000007b54a680346dbb2d20508468df807309a
:1031100007d54a69511c41611370184603b05df828
:1031200004fb01220df1070100f0f3fb10b19df843
:0a3130000700f3e74ff0ff30f0e76f
:020000040000fa
:020000040040ba
:02313a007047dc
:020000040000fa
:020000040040ba
:10313c0080b485b000af78607b681b781b027a681e
:10314c0001321278134307ee903af8eee77ac7eda6
:10315c00037a044afb68136000bf1437bd465df860
:08316c00047b7047b80140200c
:020000040000fa
:020000040040ba
:1031740030b50c4a0146002012f810301bb902eb9e
:103184004002507830bd0c6825789d4209bf02eb9f
:103194004003431c5878013414bfd8b20c600a2889
:0831a400ead9efe71c364000f8
:020000040000fa
:020000040040ba
:1031ac0070b514460d4699b13ab1022805d8094bb1
:1031bc002bb111462846aff30080204609e00e469d
:1031cc0016f8010b00f00ff92b199e42f8d1f4e719
:0831dc00084670bd0000000070
:020000040000fa
:020000040040ba
:1031e40080b582b000af0023fb7107e0fb790133a7
:1031f400fb71fb79042b01d9002307e0fef7cefd18
:103204000346002bf2d0fff73ffe0346184608376b
:04321400bd4680bd76
:020000040000fa
:020000040040ba
:1032180080b483b000af78607b681b781b027a6843
:1032280001321278134307ee903af8eee77a044b2e
:10323800c3ed007a00bf0c37bd465df8047b7047cc
:04324800bc01402065
:020000040000fa
:020000040040ba
:10324c0038b50a480a4d016821b9436813b9fff72c
:10325c006eff38bd0389426855f8233000f10c0429
:10326c002046984704eb8000ede700bf4813400070
:04327c00c036400018
:020000040000fa
:020000040040ba
:1032800013b50c46014670b9684600f03ffb30b9f3
:10329000019b4ff47a7253436360009b236000f0fc
:1032a00099f902b010bd6ff0150002b0bde81040f2
:0432b00000f090b9e1
:020000040000fa
:020000040040ba
:1032b40080b582b000af78607b68002b02d10648ed
:1032c400fef744ff054b1b78002b01d1fff74efea0
:1032d40000bf0837bd4680bdc0014020e201402048
:020000040000fa
:020000040040ba
:1032e40080b400af064b00221a70064bff221a70fe
:1032f400054b00221a7000bfbd465df8047b704781
:0c330400e30140206d0240208b014020be
:020000040000fa
:020000040040ba
:10331000812903dc7f2903dc002070478329fbd14e
:103320001368073323f0070303f108011160d3e9a1
:0a3330000023c0e9002301207047cc
:020000040000fa
:020000040040ba
:02333a007047da
:020000040000fa
:020000040040ba
:10333c0010b5084c2368196800f034f8002807db36
:10334c0023680a20196800f0d7fac00f404210bd5c
:08335c000120fbe764024020a0
:020000040000fa
:020000040040ba
:1033640070b502fb01f6144600290d4632460146ab
:10337400184608bf002400f0cafa864218bfb0fb02
:06338400f5f4204670bdc7
:020000040000fa
:020000040040ba
:02338a0070478a
:020000040000fa
:020000040040ba
:10338c000fb407b5064b04aa1b6852f8041b186847
:10339c00019200f0b6f803b05df804eb04b070478e
:0433ac006402402057
:020000040000fa
:020000040040ba
:1033b00070b50e46054600f025f933460446024630
:1033c00001212846fff7ceff001b18bf4ff0ff304a
:0233d00070bdce
:020000040000fa
:020000040040ba
:1033d20080b500af00f037f900f03ff900f047f98f
:1033e20000f04ff900f057f900f05ff900bf80bd1f
:020000040000fa
:020000040040ba
:0233f200704722
:020000040000fa
:020000040040ba
:1033f40080b483b000af0346fb71044b01221a7002
:1034040000bf0c37bd465df8047b70477402402052
:020000040000fa
:020000040040ba
:1034140080b582b000af78607b68002b02d103488e
:10342400fff73afc00bf0837bd4680bde0014020ed
:020000040000fa
:020000040040ba
:1034340080b582b000af78607b68002b02d103486e
:10344400fff71ef800bf0837bd4680bd9401402039
:020000040000fa
:020000040040ba
:1034540080b582b000af78607b68002b02d103484e
:10346400fef704ff00bf0837bd4680bd5c01402065
:020000040000fa
:020000040040ba
:1034740080b582b000af78607b68002b02d103482e
:10348400fff75afe00bf0837bd4680bddc0140206f
:020000040000fa
:020000040040ba
:1034940080b582b000af78607b68002b02d103480e
:1034a400fff7b8fe00bf0837bd4680bdd8014020f5
:020000040000fa
:020000040040ba
:1034b40080b582b000af7860044b00221a70fff729
:1034c40055fd00bf0837bd4680bd00bfe201402066
:020000040000fa
:020000040040ba
:1034d40010b50023934206d113f0030018bf012056
:0e34e40000eb930010bdc45ccc540133f2e742
:020000040000fa
:020000040040ba
:1034f20080b500affff779fcfff723fcfff74bfc29
:0c350200fff79bfcfff7f3fb00bf80bd50
:020000040000fa
:020000040040ba
:10350e0013b50446019201aafdf77ffd636813f01f
:0c351e00100f18bf4ff0ff3002b010bdbe
:020000040000fa
:020000040040ba
:10352c0080b400af034b1b781846bd465df8047b96
:08353c00704700bfe3014020cd
:020000040000fa
:020000040040ba
:1035440080b500af002000f072f80346184600f082
:08355400c7f90123184680bdf0
:020000040000fa
:020000040040ba
:10355c0080b400af034b01221a7000bfbd465df86a
:08356c00047b7047e3014020dd
:020000040000fa
:020000040040ba
:1035740080b400af034b1b781846bd465df8047b4e
:08358400704700bf74024020f3
:020000040000fa
:020000040040ba
:10358c0080b400af034b1b781846bd465df8047b36
:08359c00704700bfdf01402071
:020000040000fa
:020000040040ba
:1035a400034b044a1868504301301860400c7047bc
:0835b400cc0140202d7f954c55
:020000040000fa
:020000040040ba
:1035bc00494e4600696e66004e414e006e616e00cb
:0835cc00286e696c290025003e
:020000040000fa
:020000040040ba
:1035d40010f5805f81bf034b404218604ff0ff300d
:0835e400704700bfd401402034
:020000040000fa
:020000040040ba
:1035ec004ab1431e84460a4411f8010b03f8010f3b
:0835fc009142f9d160467047cd
:020000040000fa
:020000040040ba
:1036040003783bb1034600bf13f8012f002afbd116
:08361400181a704718467047b0
:020000040000fa
:020000040040ba
:10361c0068076c094c836a9074a07ac00080688833
:06362c0000846c820081a5
:020000040000fa
:020000040040ba
:1036320013b5044669460020fff721fe009804b145
:06364200206002b010bd83
:020000040000fa
:020000040040ba
:1036480080b500af0248fdf7cbff00bf80bd00bfcb
:04365800f800402016
:020000040000fa
:020000040040ba
:10365c0080b500af0248fdf7c1ff00bf80bd00bfc1
:04366c000c014020ed
:020000040000fa
:020000040040ba
:1036700080b500af0248fdf7b7ff00bf80bd00bfb7
:0436800020014020c5
:020000040000fa
:020000040040ba
:1036840080b500af0248fdf7adff00bf80bd00bfad
:04369400340140209d
:020000040000fa
:020000040040ba
:1036980080b500af0248fdf7a3ff00bf80bd00bfa3
:0436a8004801402075
:020000040000fa
:020000040040ba
:1036ac0080b500af0248fef7cdfa00bf80bd00bf69
:0436bc00e0004020ca
:020000040000fa
:020000040040ba
:1036c00011374000d5344000193940001939400005
:0436d0001939400064
:020000040000fa
:020000040040ba
:1036d40008b500f011f9024b1860586008bd00bf2e
:0436e4009c014020e5
:020000040000fa
:020000040040ba
:1036e80032b1c9b20244034603f8011b9a42fbd126
:0436f800704700bf58
:020000040000fa
:020000040040ba
:1036fc00034600bf11f8012b184603f8012b002ad2
:04370c00f8d1704739
:020000040000fa
:020000040040ba
:103710000a440023914201d10020704701f8013b87
:02372000f8e7c8
:020000040000fa
:020000040040ba
:1037220080b500af0120fef72efe0346184680bd8d
:020000040000fa
:020000040040ba
:1037320080b500af0220fef726fe0346184680bd84
:020000040000fa
:020000040040ba
:1037420080b500af0420fef71efe0346184680bd7a
:020000040000fa
:020000040040ba
:1037520080b500af0520fef716fe0346184680bd71
:020000040000fa
:020000040040ba
:1037620080b400af01231846bd465df8047b704764
:020000040000fa
:020000040040ba
:1037720080b400af01231846bd465df8047b704754
:020000040000fa
:020000040040ba
:1037820080b400af01231846bd465df8047b704744
:020000040000fa
:020000040040ba
:1037920080b400af01231846bd465df8047b704734
:020000040000fa
:020000040040ba
:1037a20080b400af01231846bd465df8047b704724
:020000040000fa
:020000040040ba
:1037b20080b400af01231846bd465df8047b704714
:020000040000fa
:020000040040ba
:1037c20080b400af01231846bd465df8047b704704
:020000040000fa
:020000040040ba
:1037d20080b400af01231846bd465df8047b7047f4
:020000040000fa
:020000040040ba
:1037e20080b400af01231846bd465df8047b7047e4
:020000040000fa
:020000040040ba
:1037f20080b400af01231846bd465df8047b7047d4
:020000040000fa
:020000040040ba
:1038020080b400af01231846bd465df8047b7047c3
:020000040000fa
:020000040040ba
:1038120080b400af01231846bd465df8047b7047b3
:020000040000fa
:020000040040ba
:1038220080b400af01231846bd465df8047b7047a3
:020000040000fa
:020000040040ba
:1038320080b400af01231846bd465df8047b704793
:020000040000fa
:020000040040ba
:1038420080b400af01231846bd465df8047b704783
:020000040000fa
:020000040040ba
:1038520080b400af01231846bd465df8047b704773
:020000040000fa
:020000040040ba
:1038620080b400af01231846bd465df8047b704763
:020000040000fa
:020000040040ba
:1038720008b5fff72efffff787fdfff785fd08bdaf
:020000040000fa
:020000040040ba
:0e38820080b400af00bfbd465df8047b704708
:020000040000fa
:020000040040ba
:0e38900080b400af00bfbd465df8047b7047fa
:020000040000fa
:020000040040ba
:0e389e0080b400af00bfbd465df8047b7047ec
:020000040000fa
:020000040040ba
:0e38ac0080b400af00bfbd465df8047b7047de
:020000040000fa
:020000040040ba
:0e38ba0080b500affef713fb0123184680bd5a
:020000040000fa
:020000040040ba
:0e38c800a0f14103192b98bf40f0200070477b
:020000040000fa
:020000040040ba
:0c38d60080b500affef705fb00bf80bd11
:020000040000fa
:020000040040ba
:0c38e400014b013818607047cc014020f7
:020000040000fa
:020000040040ba
:0c38f00010b50446fff702ff204610bd93
:020000040000fa
:020000040040ba
:0838fc0000487047480240201b
:020000040000fa
:020000040040ba
:0839040008b5fff7fbfb08bd4d
:020000040000fa
:020000040040ba
:06390c004ff0ff30704790
:020000040000fa
:020000040040ba
:063912000068fff74abc4b
:020000040000fa
:020000040040ba
:0439180000207047d4
:020000040000fa
:020000040040ba
:04391c0000207047d0
:020000040000fa
:020000040040ba
:0439200000207047cc
:020000040000fa
:020000040040ba
:0439240000207047c8
:00000001FF
