:020000040000fa
:020000040040ba
:10000000f8ff45209d184000232a4000232a400085
:10001000232a4000232a4000232a40000000000039
:10002000000000000000000000000000232a400043
:10003000232a400000000000232a4000a92d400090
:10004000232a4000232a4000232a4000232a40007c
:10005000232a4000232a4000232a4000232a40006c
:10006000232a400000000000232a4000232a4000e9
:10007000232a4000232a4000232a4000232a40004c
:10008000232a4000232a4000232a4000232a40003c
:10009000232a4000232a4000232a4000232a40002c
:1000a000232a4000232a4000232a4000232a40001c
:1000b000232a4000232a4000232a4000232a40000c
:1000c000232a4000232a4000232a4000232a4000fc
:1000d000232a4000232a4000232a4000232a4000ec
:1000e000232a4000232a4000232a4000232a4000dc
:1000f000232a4000232a4000232a4000232a4000cc
:10010000232a4000232a4000232a4000232a4000bb
:10011000232a4000232a40000000000000000000c5
:10012000232a4000232a4000232a4000232a40009b
:10013000232a4000232a400000000000232a400018
:10014000232a4000232a4000232a4000232a40007b
:10015000232a4000232a4000232a4000232a40006b
:08016000232a4000232a40007d
:020000040000fa
:020000040040ba
:10016800f8b500bff8bc08bc9e467047c5264000dd
:10017800f8b500bff8bc08bc9e467047a1264000f1
:020000040000fa
:020000040040ba
:08018800680d000001000000f9
:020000040000fa
:020000040040ba
:100190002b2d2d2d2d2d2d2d2d2d2d2d2d2d2d2d91
:1001a0002d2d2d2d2d2d2d2d2d2d2d2d2d2d2d2d7f
:1001b0002d2d2d2d2d2d2d2d2d2d2d2d2d2d2d2d6f
:1001c0002d2d2d2d2d2d2d2d2d2d2d2d2d2d2d2d5f
:1001d0002d2d2d2d2d2d2d2b000000007c202020dd
:1001e000202020202020202020202020202020200f
:1001f00020202020202020202054454c454d4554cf
:1002000052592044415441202020202020202020e9
:1002100020202020202020202020202020202020de
:100220002020207c000000007c202d2d2d20474e1a
:100230005353202d2d2d2d2d2d2d2d2d2d2d2d2daf
:100240002d2d2d2d2d2d2d2d2d2d2d2d2d2d2d2dde
:100250002d2d2d2d2d2d2d2d2d2d2d2d2d2d2d2dce
:100260002d2d2d2d2d2d2d2d2d2d2d2d2d2d207c7c
:10027000000000007c20204c617469747564653a4c
:1002800020202020252d31302e3266206465672005
:10029000202020202020202020202020202020205e
:1002a000202020202020202020202020202020204e
:1002b00020202020202020207c0a00007c20204cb0
:1002c0006f6e6769747564653a202020252d313082
:1002d0002e326620646567202020202020202020e8
:1002e000202020202020202020202020202020200e
:1002f00020202020202020202020202020202020fe
:100300007c0a00007c2020416c7469747564653a35
:1003100020202020252d31302e3266206b6d2020ac
:1003200020202020202020202020202020202020cd
:1003300020202020202020202020202020202020bd
:1003400020202020202020207c0a00007c20205318
:10035000706565643a20202020202020252d313032
:100360002e3266206b6d2f7320202020202020202d
:10037000202020202020202020202020202020207d
:100380002020202020202020202020202020207c11
:100390000a0000007c202020202020202020202077
:1003a000202020202020202020202020202020204d
:1003b000202020202020202020202020202020203d
:1003c000202020202020202020202020202020202d
:1003d00020202020202020202020207c0000000041
:1003e0007c202d2d2d20494d55202d2d2d2d2d2db1
:1003f0002d2d2d2d2d2d2d2d2d2d2d2d2d2d2d2d2d
:100400002d2d2d2d2d2d2d2d2d2d2d2d2d2d2d2d1c
:100410002d2d2d2d2d2d2d2d2d2d2d2d2d2d2d2d0c
:100420002d2d2d2d2d2d207c000000007c20204125
:100430006363656c3a2020583d252d372e326620a7
:10044000593d252d372e3266205a3d252d372e3227
:1004500066206d2f73322020202020202020202095
:10046000202020202020202020202020202020208c
:100470007c0a00007c20204779726f3a20202058a7
:100480003d252d372e326620593d252d372e3266db
:10049000205a3d252d372e3266206465672f732044
:1004a000202020202020202020202020202020204c
:1004b00020202020202020207c0a00007c20204dad
:1004c00061673a20202020583d252d372e326620a6
:1004d000593d252d372e3266205a3d252d372e3297
:1004e000662075542020202020202020202020203d
:1004f00020202020202020202020202020202020fc
:100500007c0a00007c202d2d2d20507265737375a0
:10051000726520262054656d706572617475726510
:10052000202d2d2d2d2d2d2d2d2d2d2d2d2d2d2d08
:100530002d2d2d2d2d2d2d2d2d2d2d2d2d2d2d2deb
:100540002d2d2d2d2d2d2d2d2d2d207c000000004d
:100550007c202050726573737572653a20202020cc
:10056000252d31302e326620685061202020202039
:10057000202020202020202020202020202020207b
:10058000202020202020202020202020202020206b
:10059000202020207c0a00007c202054656d70659e
:1005a0007261747572653a20252d31302e326620c5
:1005b0004320202020202020202020202020202018
:1005c000202020202020202020202020202020202b
:1005d0002020202020202020202020207c0a000015
:1005e0007c202d2d2d20455053202d2d2d2d2d2db2
:1005f0002d2d2d2d2d2d2d2d2d2d2d2d2d2d2d2d2b
:100600002d2d2d2d2d2d2d2d2d2d2d2d2d2d2d2d1a
:100610002d2d2d2d2d2d2d2d2d2d2d2d2d2d2d2d0a
:100620002d2d2d2d2d2d207c000000007c2020560e
:100630006f6c746167653a2020202020252d3130b1
:100640002e3266205620202020202020202020200e
:10065000202020202020202020202020202020209a
:10066000202020202020202020202020202020208a
:100670007c0a00007c202043757272656e743a20fb
:1006800020202020252d31302e32662041202020b0
:10069000202020202020202020202020202020205a
:1006a000202020202020202020202020202020204a
:1006b00020202020202020207c0a00007c202d2dbe
:1006c0002d205553415254202d2d2d2d2d2d2d2dc6
:1006d0002d2d2d2d2d2d2d2d2d2d2d2d2d2d2d2d4a
:1006e0002d2d2d2d2d2d2d2d2d2d2d2d2d2d2d2d3a
:1006f0002d2d2d2d2d2d2d2d2d2d2d2d2d2d202044
:100700002020207c000000007c2020446f70706c52
:1007100065723a2020202020252d31302e3266208f
:100720006b487a20202020202020202020202020fc
:1007300020202020202020202020202020202020b9
:100740002020202020202020202020207c0a0000a3
:100750002b2d2d2d2d2d2d2d2d2d2d2d2d2d2d2dcb
:100760002d2d2d2d2d2d2d2d2d2d2d2d2d2d2d2db9
:100770002d2d2d2d2d2d2d2d2d2d2d2d2d2d2d2da9
:100780002d2d2d2d2d2d2d2d2d2d2d2d2d2d2d2d99
:100790002d2d2d2d2d2d2d2b0a0000000a0a0a0ac1
:1007a00000000000474e5353207261773a0000006a
:1007b0002025303258000000474e53533a206c61d8
:1007c000743d252e3266206c6f6e3d252e326620dc
:1007d000616c743d252e3266207370643d252e3287
:1007e000660a0000474e53533a204932432065724f
:1007f000726f3d25640a000073656e736f72735fdc
:0c080000726561645f616c6c204f4b00fe
:020000040000fa
:020000040040ba
:04080c000120704710
:020000040000fa
:020000040040ba
:100810002de9f04f2ded0a8b92ed009b8fb0b5eed8
:10082000c09b05938b680493f1ee10fa0b69cd68b9
:100830000690d1e900a78b46089308d41af0040f5c
:1008400034d11af00803039332d0202302e02d2381
:10085000b1ee499b2b70049b03f1ff3901230393f5
:1008600019ee903a19ee101a23f00042c04b002402
:100870009a4208bfa1421ed1059b0398413b192b08
:1008800094bfbc49bc49284402f0d2fa284602f081
:10089000e3f9049bcdf800a002462946069801f032
:1008a000b7fd0fb0bdec0a8bbde8f08f2b23d1e76d
:1008b000ddf81090d4e78c42934108d2059b039851
:1008c000413b192b94bfad49ad492844dce7b5ee57
:1008d000409bf1ee10fab2ee04cbb7ee00ab40f065
:1008e000c080059802f078fa002fc0b2c0f2628191
:1008f000672840f0d580002f08bf0127231dc0f2d4
:10090000d180bc4280f2ce80002c4ff066080cda19
:10091000b8f1660f07f1010707d1002c02dab7ee34
:1009200000ab0024672800d027440023b0ee4a8b98
:10093000b0ee49bb8bee080b0993079001f044fb26
:10094000099b90ee08bb01339f420798b1ee4bbb69
:1009500088ee0c8beed1b1ee047b28ee078bb4ee63
:10096000cb8bf1ee10fa00f3a080b4ee4b8bf1eede
:1009700010fa09d1bdeec00b9fed796b10ee103a65
:1009800013f0010f06fe088b39ee088b2aee0c9b44
:10099000b4eec89bf1ee10fa00f28a80b8f1660f4f
:1009a00004f1010440f0868001372146cb1b002270
:1009b000039f0a9316460a9b994240f0a58033464e
:1009c000002e00f0df80e8190022b8f1650f0270f8
:1009d00029d1089b013b9442ea54bcbf64420122e6
:1009e0004ff0020b4ff00a0e591e002c40f0d18040
:1009f000bbf1000f00f3cd80002a0cbf2b222d226b
:100a00006a54059a023b413a192a05eb030198bf43
:100a10004ff045089f4281f8008001da02f008faa1
:100a2000cb44abf104090af00303022b7ff42eaf91
:100a3000b9f1000f7ff72aaf284602f00df905eb58
:100a40000903039a824240f3b18003984a46302159
:100a5000284402f04bf90023049317e70134b0ee69
:100a600047ab2aee0c7bb4eec79bf1ee10faf5d53e
:100a70009fed3d7b00230be014f5967f05da23b94b
:100a800029ee079b2aee07ab0123013c8aee0cab53
:100a9000b4eeca9bf1ee10faeed422e706272de75a
:100aa000804635e74ff065083fe79fed2d8b6be7fc
:100ab000b0ee4a9bb8f1650f14bf2146002175e7df
:100ac0004eb9002907da079e2e23ab5501230137c3
:100ad00009f1ff391e46ab1805eb070c3b444ff0fc
:100ae000300e01e00cf801eb9c45fbd1099b02ebb9
:100af000070c3033a9eb020202f1ff3905f80c3084
:100b00000cf10107002223e0dbf810300797053bca
:100b1000bb427ff654af88ee090bcde90c200b9158
:100b200001f052fafdeec07bdde90b1217ee90ca20
:100b30006346092ba8bf092309930af0100353ea5f
:100b40000c0c0d98bcd16728bad10029b8da013253
:100b500099ee008b0139b1ee488b89ee0c9b2ae7a8
:100b600000000000000000000000000000005043f2
:100b70000000f07f282c40002c2c4000302c40003e
:100b8000342c40001af0100f1ebf2e23eb550137f6
:100b900019e70b4694fbfefc0ceb8c01a4eb410126
:100ba0003031e95464460bf1ff3b1de72a5c1a54cf
:100bb000013846e767283ff471af80460627a7e66d
:020000040000fa
:020000040040ba
:100bc0002de9f047aeb00746164605914ff00008f4
:100bd000059d2b78002b00f0e08000244ff0ff33c0
:100be000cde909430eab0c9380230b940d932b5d41
:100bf0000bb1252b30d134b1294622463846254445
:100c000001f06efd0595059b1a78252a40f0bc8001
:100c100003f10109cdf814904a46002113782b2bdb
:100c2000104602f1010223d02ed8202b24d0232bf2
:100c300026d001b105902a2b2ed001f0c9fc059acf
:100c40000b900020114601320b78303b092b79d9eb
:100c5000002830d005912ee00134c8e7099b43f00d
:100c6000010309930121d9e7099b43f00203f8e747
:100c7000099b43f00403f4e7099b43f00803f0e702
:100c8000099b43f01003ece72d2be7d0302bebd082
:100c90000029d2d00590d0e733681a1d1b68326056
:100ca0000130002b05900b9305da099a5b4282f024
:100cb000010209920b93099bda0744bf23f0020358
:100cc0000993059b1a782e2a0fd14ff0000acdf810
:100cd00028a05a785d1c2a2a059535d10233059340
:100ce00033681a1d1b6832600a9305a801f050fd95
:100cf000059d0390287802f06ff82528039900f0ed
:100d0000da806138172800f2e080172800f2dd80d1
:100d1000dfe810f02b00db00b6004700a700a700bb
:100d2000a700db004700db00db00db00db009e00f0
:100d300065008300db00db00c700db005600db0042
:100d4000db00740001207de7284601f041fc53469a
:100d50000a90294601350a78303a092a03d9002b2e
:100d6000c3d00591c1e70123f3e7324606a801f09d
:100d700043fe002872d06b1c059306aa2b7809a9a4
:100d8000384602f09ef804444444a04540f3a7804e
:100d9000544b4f221a604ff0ff3840462eb0bde84a
:100da000f0873346012206a800f08eff002855d0b8
:100db000013506aa09a93846059501f013fae2e7bc
:100dc0003346002206a800f07fff002846d00135f8
:100dd00006aa09a93846059502f071f8d3e733460b
:100de000002206a800f070ff002837d0013506aabf
:100df00009a93846059502f062f8c4e73346002297
:100e000006a800f061ff48b36b1c05932b7806aa77
:100e100009a9384600f0d6fdb5e733460022f02197
:100e200006a800f051ffc8b1dde9063201351343d1
:100e300005950bd12c4801f00fff099b00932a491f
:100e40000b9b0246384601f0e3fa9ce77823dee785
:100e5000334608eb040206a801f054fb0135059562
:100e600092e7324606a801f0c7fd0028f6d06b1cb9
:100e7000059306aa2b7809a93846fff7c9fc82e733
:100e80008029ebd1336801351a1d1b6832608df85b
:100e900018300595012306aa09a9384602f013f86f
:100ea00071e78029dad13268131d33600135126889
:100eb00005950023f0e78029d0d1099b00930135e7
:100ec0000b9b059509490122bce700234ff0ff3237
:100ed000cdf8149009930b930a920093f2e7a04681
:100ee00076e600bf10024020382c40003e2c400027
:020000040000fa
:020000040040ba
:100ef0002de9f04786468c460846089e15467446fe
:100f00001946002b40f0c2808242b2fa82f245d9e3
:100f10004ab1c2f1200300fa02fc2efa03f3954015
:100f200043ea0c0c94404fea154ea8b2bcfbfef805
:100f3000230c0efb18cc08fb00f943ea0c4399453f
:100f400028d9eb1808f1ff3704d2994502d9a8f146
:100f500002072b44a3eb0903a4b2b3fbfefc0efb78
:100f60001c330cfb00f044ea0344a04214d92c19b2
:100f70000cf1ff3304d2a04202d9acf102032c449d
:100f8000241a43ea07401eb1d44000233460736042
:100f9000bde8f0874746dde76346f1e792bb431bb8
:100fa00001214fea154eafb2b3fbfefc200c0efb45
:100fb0001c330cfb07f840ea0343984562d9eb1851
:100fc0000cf1ff3004d2984502d9acf102002b4459
:100fd000a3eb0803a4b2b3fbfefc0efb1c330cfb1b
:100fe00007f744ea0344a7424ed92c190cf1ff330a
:100ff00004d2a74202d9acf102032c44e41b43ea19
:101000000040c0e7c2f1200320fa03f19540904070
:101010002efa03f303434fea154eafb2b1fbfefcc9
:101020000efb1c10190c0cfb07f841ea0041884527
:1010300004fa02f422d969180cf1ff3004d2884571
:1010400002d9acf102002944a1eb08019bb2b1fb2b
:10105000fefc0efb1c110cfb07f743ea01439f4209
:101060000ed9eb180cf1ff3104d29f4202d9acf13a
:1010700002012b44db1b41ea004192e76046e3e7b3
:101080006146f7e76046a3e76346b7e7834206d9c0
:1010900016b9002108467be7c6e900e0f9e7b3fa94
:1010a00083f78fb9834201d3724508d8beeb02049f
:1010b00060eb030301209c461eb9002168e7384617
:1010c000fae7c6e9004cf8e7c7f1200cbb4022fa6a
:1010d0000cf41c432efa0cf120fa0cf3b840014337
:1010e0004fea14490efa07f5b3fbf9f81ffa84fe2c
:1010f00009fb18300b0c08fb0efa43ea00439a4533
:1011000002fa07f240d9e31808f1ff3004d29a45f9
:1011100002d9a8f102002344a3eb0a0389b2b3fb6e
:10112000f9f809fb183308fb0efe41ea03418e452e
:101130002cd9611808f1ff3304d28e4502d9a8f1e9
:101140000203214443ea0040a0fb0298a1eb0e01f8
:101150004145ce46434602d306d14d4504d2b9ebb4
:10116000020e68eb04030138002ea6d0b5eb0e0288
:1011700061eb030101fa0cfc22fa07f34cea0303ca
:10118000f940c6e9003198e74046c5e74346d9e74c
:020000040000fa
:020000040040ba
:1011900070b504460378013b082b00f28a80dfe833
:1011a00013f0090025008100890044006f00b90098
:1011b000be00eb0001f068fd00287ad001f01afeb5
:1011c000237b43b16078400000f0fe0001f0b0fcea
:1011d000022323706de06378a07a003818bf0120e5
:1011e00040ea4300c0b201f0a3fcf1e701f056fd74
:1011f00050b100236372237b8bb9a37a002b0cbf01
:1012000003230723237054e001f0e0fb0023237045
:101210002369002b4dd04ff0ff30984749e0e07a2a
:1012200001f0eefd0523237043e001f085fd80b958
:10123000a38a01339bb2a3820a2b3ad901f0c6fbe1
:101240000023a382237023699bb34ff0ff3098479c
:101250002fe00023a38201f021fd48b901f0b6fb85
:1012600000232370236923b34ff0ff30984720e019
:10127000607801f0c1fc002323730623237018e07b
:1012800001f00cfd20b1002363720723237010e0ee
:1012900001f09cfb00232370236953b14ff0ff3012
:1012a000984706e0437a4268d05c01f0a9fd042328
:1012b000237070bd01f040fd88b9a38a01339bb251
:1012c000a3820a2bf5d901f081fb0023a3822370ae
:1012d0002369002bedd04ff0ff309847e9e700235a
:1012e000a38201f0dbfc50b1637a0133dbb263729d
:1012f000227a9a4214bf032309232370d9e701f00d
:1013000065fb002323702369002bd2d04ff0ff3000
:101310009847cee700f039f808232370c9e701f0b9
:1013200013fd88b9a38a01339bb2a3820a2bc0d9cb
:1013300001f04cfb0023a38223702369002bb8d05b
:101340004ff0ff309847b4e70023a382657a6668c0
:1013500001f05cfd7055637a0133dbb26372227a6f
:101360009a4204d000f0bffb07232370a1e701f0ed
:1013700053fd092323709ce701f028fb23690bb17f
:0a138000002098470023237093e734
:020000040000fa
:020000040040ba
:02138a007047aa
:020000040000fa
:020000040040ba
:10138c0030b585b0604c204601f06efb5f4801f033
:10139c006bfb204601f068fb5d4801f065fb5d4c82
:1013ac00d4ed007ab7eee77a53ec172b5a4801f0dc
:1013bc0095fbd4ed017ab7eee77a53ec172b57482f
:1013cc0001f08cfbd4ed027ab7eee77a53ec172bd5
:1013dc00534801f083fbd4ed037ab7eee77a53ec74
:1013ec00172b504801f07afb4f4d284601f03cfb7f
:1013fc004e4801f039fb4e4cd4ed006a94ed027a64
:10140c00b7eec77a8ded027b94ed017ab7eec77a11
:10141c008ded007bb7eee67a53ec172b454801f0c7
:10142c005dfbd4ed036a94ed057ab7eec77a8dedca
:10143c00027b94ed047ab7eec77a8ded007bb7eea4
:10144c00e67a53ec172b3c4801f048fbd4ed066ac6
:10145c0094ed087ab7eec77a8ded027b94ed077a9e
:10146c00b7eec77a8ded007bb7eee67a53ec172b0f
:10147c00324801f033fb284601f0f6fa304801f00f
:10148c00f3fa304bd3ed007ab7eee77a53ec172b27
:10149c002d4801f023fb2d4bd3ed007ab7eee77a04
:1014ac0053ec172b2a4801f019fb284601f0dcfa03
:1014bc00284801f0d9fa284cd4ed007ab7eee77a37
:1014cc0053ec172b254801f009fbd4ed017ab7ee4c
:1014dc00e77a53ec172b224801f000fb214801f06e
:1014ec00c3fa214bd3ed117ab7eee77a53ec172bf5
:1014fc001e4801f0f3fa1e4801f0b6fa1d4801f03f
:10150c00b3fa05b030bd00bf90014000dc014000d3
:10151c00280240009801402074024000bc024000a8
:10152c00040340004c03400094034000e0034000df
:10153c00a00040202c04400074044000bc04400077
:10154c0004054000fc01402050054000f8014020fb
:10155c0098054000e0054000d40140202c064000d6
:10156c0074064000bc064000000040200807400004
:08157c00500740009c074000ed
:020000040000fa
:020000040040ba
:10158400c40040201c00000000000000c8014020ee
:101594000b000000000000001a02402002000000be
:1015a4000100000010270000e401402014000000a6
:1015b400000000005402402004000000010000006c
:1015c4000000c8420000402050000000000000005d
:1015d400d40140200800000000000000f801402071
:1015e4000800000000000000a000402024000000cb
:1015f40000000000980140201000000000000000de
:10160400820140200200000000000000d3014020bd
:1016140001000000000000009601402001000000cd
:101624000000000040024020110000000100000002
:101634002001000000000000000000000000000085
:101644000400000097014020010000000000000099
:101654001c0240200200000000000000e0004020c6
:10166400180000000000000070014020120000007b
:1016740000000000f80040201800000000000000f6
:1016840084014020120000000000000010014020ee
:1016940018000000000000001802402002000000b2
:1016a4000000000028014020180000000000000095
:1016b400140240200200000000000000400140200d
:1016c4001800000000000000160240200100000085
:1016d40000000000a80140202000000000000000dd
:1016e40058014020180000000000000000024020c3
:1016f40008000000000000005000402050000000de
:101704000000000008024020040000000000000067
:101714002002402020000000010000000100000021
:1017240003000000000000000000000000000000b2
:101734000000000000000000dc014020dc0140202b
:1017440008000000000000000c0240200800000017
:1017540000000000000000000000000066666666ed
:020000040000fa
:020000040040ba
:1017640038b505254b4c04e06b1e13f0ff0500f063
:101774008e8001f09bfa2378002b5cd06378002bd9
:101784005dd0a378002b5ed0e378002b5fd0237963
:10179400002b60d06379002b61d0a379002b62d039
:1017a400e379002b63d0237a002b64d0637a002b77
:1017b40065d0a37a002b66d02378002bd4d063782d
:1017c400002bd1d0a378002bced0324bdb78002b6a
:1017d400cad0304b1b79002bc6d02e4b5b79002b23
:1017e400c2d02c4b9b79002bbed02a4bdb79002b2b
:1017f400bad0284b1b7a002bb6d0264b5b7a002b31
:10180400b2d0244b9b7a002baed001f050fb0028c1
:101814003ed001f044fbd8b301f043fbc0b301f068
:1018240042fba8b301f041fb90b301f042fb003846
:1018340018bf01202ce0fef7e7ff20709ee700f0c0
:10184400e9fe60709de701f028fba0709ce701f0c1
:1018540022fbe0709be701f003fb20719ae700f0a4
:10186400affb607199e701f00cfba07198e701f000
:101874000efbe07197e701f006fb207296e701f09a
:1018840004fb607295e701f004fba07294e700206a
:0818940038bd00bfc80140206f
:020000040000fa
:020000040040ba
:10189c00414b03b19847414b03b19847eff3108389
:1018ac00b3fa83f35b09019372b6bff35f8f0199af
:1018bc004ff0e022d2f8883d43f47003c2f8883d23
:1018cc00bff34f8fbff36f8f11b1bff35f8f62b652
:1018dc00334b5b6913f4003f13d1bff34f8fbff34e
:1018ec006f8f2f4b0022c3f85022bff34f8fbff3e3
:1018fc006f8f5a6942f400325a61bff34f8fbff3b6
:10190c006f8f274b5b6913f4803f2bd1244b002244
:10191c00c3f88420bff34f8fd3f88030c3f3c904ce
:10192c00c3f34e334fea431c43f6e07e1c480ceaeb
:10193c000e01234641ea8372c0f86022013bb3f1e9
:10194c00ff3ff7d1acf1200c1cf1200fefd1bff30e
:10195c004f8f134a536943f480335361bff34f8f56
:10196c00bff36f8f00f08afc00f0e0ff0d4b23f00b
:10197c007f030b4a93600c4b98470c4b03b1984771
:10198c000b4b03b198470021084600f0fdfc094bb6
:10199c0003b19847fee700bf000000000000000004
:1019ac0000ed00e000004000752540000000000044
:0819bc00000000000000000023
:020000040000fa
:020000040040ba
:1019c4002de9f04f8bb00d460493d1e901132f6834
:1019d400d5f80c9003900029a8bf27f0020792467f
:1019e400b8bf012117f010020592dae9006232d083
:1019f40056ea02002fd0a3f1020b2c69029617f0cd
:101a0400080004f1ff3418bf0bf1ff3b904600229d
:101a140009f8042006905a46012c1edc059a002a77
:101a240051d1069a1ab1013c202209f804202a69ee
:101a340003980097013a121b09eb040100f0e6fc3d
:101a4400039b5b68db0503d56b689842b8bf1846f7
:101a54000bb0bde8f08f9b46cfe7029850ea080030
:101a640008d1a1eb0b001044002803dc002ad5ddcb
:101a7400b807d3d50298049e00f00f000928a6f1f8
:101a8400410cd4bf30305730bcf1190f04f1ff348e
:101a94000ed840f0200cacf1610cbcf1190f07d842
:101aa400cde90813079201f09cf9dde90813079ac0
:101ab40009f804000298060946ea0870013a0290ff
:101ac4004fea1818a8e7dae900210a43a9d009eb7c
:101ad4000402049902f8011c023c302209f8042093
:021ae4009fe77a
:020000040000fa
:020000040040ba
:021ae600704747
:020000040000fa
:020000040040ba
:101ae80000b583b03a4a202313703a49d1ed007a01
:101af800b2ee047a67ee877afceee77a17ee903a50
:101b08005370d1ed017adfed346a67eea67afcee08
:101b1800e77a17ee903a93703049d1ed007abcee2f
:101b2800e77a8ded017a9df80430d37007ee103a0c
:101b3800b8eec77a77eec77a67eea67afceee77a50
:101b480017ee903a1371d1ed017abceee77a8ded7c
:101b5800017a9df80430537107ee103ab8eec77a4f
:101b680077eec77a67eea67afceee77a17ee903a38
:101b780093711b4bd3ed007afceee77a17ee903a9f
:101b8800c3f30721d1711372164bd3ed007afcee23
:101b9800e77a17ee903ac3f3072151729372124b0a
:101ba80093f84a30d37213460c32002013f8011b05
:101bb80048409342fad1064908730c4b01221a7027
:101bc8000d220b4801f0a2f803b05df804fb00bf3a
:101bd800a8014020d40140200000c84298014020bc
:101be800fc014020f801402000004020160240205f
:041bf8005801402030
:020000040000fa
:020000040040ba
:101bfc0038b501f007f82a4a82fb0032c317c3eb51
:101c0c006213642202fb1303542b11dd5c2b28dcc2
:101c1c00244a01231370002353701946214a9170f2
:101c2c00d370214b00221a70204b01221a7038bd40
:101c3c001f4c2388013323801a4d20232b7000f076
:101c4c00e1ff1c4ba3fb0023c21a03eb52031b093d
:101c5c00c3eb4313c01a053068702388190adbb232
:101c6c00dce7602b09dd622b0e4ad4bf0223112363
:101c7c001370002353701946d0e70a4b10221a70c8
:101c8c0001225a7000f0beff0b4ba3fb0023db08b4
:101c9c0003eb8303a0eb4300c1b20023bee700bffc
:101cac001f85eb514002402096014020d30140207b
:0c1cbc008201402085104208cdcccccc29
:020000040000fa
:020000040040ba
:101cc800902910b50fdc7f2913dd8039102910d831
:101cd800dfe801f02b2b360f110f0f0f200f0f0f1e
:101ce8000f0f0f0f3600c02944d0f02942d0a02989
:101cf80021d000200de019682ab10a1d1a60b1f937
:101d08000030da1702e00c1d1c600b88c0e90032b5
:101d1800012010bd196822b10a1d1a6091f900301e
:101d2800efe70c1d1c600b78f0e71968f2b10a1d8b
:101d38001a600b68e5e71a68111d19601368e0e777
:101d4800196852b1073121f0070101f108021a6040
:101d5800d1e90023c0e90023dae7ca1d22f007020f
:101d680002f108011960d2e90023f3e70c1d1c6099
:101d78000b68cbe71a68111d19601368036000230c
:041d88004360c5e708
:020000040000fa
:020000040040ba
:101d8c0070b52ded048b86b0002845d1254800f0a8
:101d9c00a5fe254c04f11206244d14f8011f28460b
:101dac0000f09cfeb442f8d10a2000f0ffff204d59
:101dbc00284600f0c7feb0ee409a1e4c84ed000a97
:101dcc00281d00f0bffeb0ee408a84ed010a05f13b
:101ddc00080000f0b7fef0ee408a84ed020a05f12f
:101dec000c0000f0affe84ed030ab7eec00a8dedd7
:101dfc00040bb7eee87a8ded027bb7eec88a8ded59
:101e0c00008bb7eec97a53ec172b0b4800f066fe2b
:101e1c0006b0bdec048b70bd0146084800f05efeb8
:101e2c00f6e700bfa40740006f014020b007400058
:101e3c007001402098014020b8074000e4074000a2
:020000040000fa
:020000040040ba
:101e4c0000b170472a4b2b4a117807ee101ab8eee6
:101e5c00477adfed297ac7ee276ac3ed006a51781d
:101e6c0007ee101ab8ee477ac7ee276ac3ed016a7f
:101e7c00917807ee101ab8ee477ac7ee276ac3edd1
:101e8c00026ad17807ee101ab8ee477ac7ee276ac5
:101e9c00c3ed036a117907ee101ab8ee477ac7ee54
:101eac00276ac3ed046a517907ee101ab8ee477a27
:101ebc00c7ee276ac3ed056a917907ee101ab8eee2
:101ecc00477ac7ee276ac3ed066ad17907ee101a76
:101edc00b8ee477ac7ee276ac3ed076a127a07eea7
:101eec00102ab8ee477ac7ee276ac3ed086aa8e74e
:0c1efc00a0004020840140200000c842eb
:020000040000fa
:020000040040ba
:101f080008b5012804d02a4b1b78002b4dd008bdfa
:101f1800284b1b78284a82f84c30013b1f2b3fd8ae
:101f2800dfe803f020393e3e3e3e3e3e3e3e3e3e2a
:101f38003e3e3e252c343e3e3e3e3e3e3e3e3e3eee
:101f48003e3e3e101b4b5b7807ee903af8ee677a00
:101f5800f2ee046a87eea67a174b83ed117afff743
:101f6800bffdd0e7144b012283f84d20cbe7124b7d
:101f7800012283f84b2083f84d20c4e70e4b002242
:101f880083f84b20012283f84d20bce70a4b01223d
:101f980083f84d20b7e7084b012283f84d20b2e7bc
:101fa800054b022283f84d20ade700f087fdaee730
:0c1fb80016024020b8014020000040202c
:020000040000fa
:020000040040ba
:041fc4000120704741
:020000040000fa
:020000040040ba
:101fc80053ec102bc3f30a512de9f04140f2fd7098
:101fd8004c1e84429e4640d8a1f2ff30002833dbd5
:101fe80033282ddc244c4ff0ff3cc0f12006154669
:101ff800a1f21f4104fa06f22cfa00fc4cea020c8a
:1020080024fa01f24cea020cc44003ea040805ea87
:102018000c0757ea080725ea0c0223ea04030fd045
:10202800002b0dda4ff4801404fa06f624fa01f1b5
:102038000e43b61824fa00f444eb03043246234650
:1020480043ec102bbde8f0819fed090bbfee007b40
:10205800002b20fe070bbde8f0810029f0d10a46cd
:1020680003f0004343ec102bece700bfaff3008014
:0c2078000000000000000000ffff0f004f
:020000040000fa
:020000040040ba
:1020840010b5044600f056f8264bd3ed007a052c23
:102094003ad8dfe804f0050d171f2b03204610bdc6
:1020a400002833d0204b1868003818bf0120f6e709
:1020b40070b31e4b1b686bbb1b4b1868003818bff2
:1020c4000120ece740b3194b1b68002b14bf2046da
:1020d4000120e4e7b2ee047af4eec77af1ee10fae6
:1020e4001cd400280cbf20460020d8e7b2ee047aa6
:1020f400f4eec77af1ee10fa12d50d4b1b68002be3
:102104000cbf20460520cae70020c8e70320c6e725
:102114000320c4e70220c2e70320c0e70420bee78f
:102124000320bce754024020ec014020e801402099
:04213400e401402062
:020000040000fa
:020000040040ba
:10213800254bd3ed007ab1ee0a7af4eec77af1eec8
:1021480010fa34dc9fed217af4eec77af1ee10fa3a
:102158002fd4d3ed017ab0ee007af4eec77af1ee1f
:1021680010fa28dcb7ee007af4eec77af1ee10fa2e
:1021780023d4174bd3ed007a9fed167af4eec77a85
:10218800f1ee10fa1bdcbaee047af4eec77af1ee3f
:1021980010fa16d4104b93ed007af3ee0e7ab4eee3
:1021a800e77af1ee10fa54bf0120002070470020b2
:1021b80070470020704700207047002070470020bb
:1021c80070470020704700bfd40140206666464033
:0c21d800f801402000007042540240203a
:020000040000fa
:020000040040ba
:1021e4002de9f041d2e900230c4686b005465feaaa
:1021f400d378d1e901060968e76805913fd05242d6
:1022040063eb4303002808db21f002010591b8f1d8
:10221400000f02d10599480722d5711e05a8029026
:102224000a20cde90010204600f02ef9b8f1000f85
:102234001ad001382d233b542269059b0093013a9f
:102244003346121a3918284600f0e0f86b68db05ab
:1022540003d563689842b8bf184606b0bde8f0815c
:102264000807dad43146d9e7059b590702d5013866
:102274002b23e0e71a07dfd501382023dbe700280a
:04228400c2dac7e70c
:020000040000fa
:020000040040ba
:102288001a4b1b4a5a601a46936813f0010ffbd089
:10229800164bdb6813f4c07f12d0144b154a5a60f2
:1022a8001a46936813f0010ffbd0104b124a5a607c
:1022b8001a46936813f0010ffbd0104b104a1a60ae
:1022c800bff34f8fbff36f8f0e4bd3f8902222f0de
:1022d8000102c3f89022d3f8942222f00102c3f835
:1022e8009422bff34f8fbff36f8f7047000c0e40df
:1022f8000d00005a0c08005a0c07005a00180e402e
:08230800010000a500ed00e05a
:020000040000fa
:020000040040ba
:102310001c4b4ff40042c3f854281b49d1f8142138
:1023200042f01002c1f81421184a4ff49841c2f843
:1023300010164ff40011c2f8041ed2f8701e21f4da
:102340000011c2f8701ed2f8741e21f40011c2f8f8
:10235000741e10225a601a6f42f010021a675a6fe8
:1023600042f010025a67a3f539230c221a604ff489
:102370000c625a604e221a6250221a60044b0122eb
:102380001a70704700100e400080084000000e4098
:042390009701402051
:020000040000fa
:020000040040ba
:1023940010b5fff7bbfffff7e3f940b100f01dfcf8
:1023a400194800f065fb00f08bfb002405e000f009
:1023b400d0f9f3e700f022fa044600f002fc052c01
:1023c400fbd801a353f824f0b9234000e5234000cf
:1023d400ed234000f5234000fd2340000524400088
:1023e40000f02afd0446e8e700f02bfd0446e4e78c
:1023f40000f01efa0446e0e700f028fd0446dce79e
:0c24040000f029fd0446d8e7f80740006e
:020000040000fa
:020000040040ba
:102410002de9ff471d460c9b13f0010806460f46a9
:10242000144601d195420bd822463946304600f079
:1024300057f9a54204d82546284604b0bde8f087e0
:10244000a5eb04094a46102a28bf1022202168461d
:10245000ca4600f04bfc00bfbaf10f0f0ed809f0ce
:102460000f026946304600f03bf9b8f1000fe3d1a6
:1024700022463946304600f033f9dde7102269463e
:0c248000304600f02df9aaf1100ae5e743
:020000040000fa
:020000040040ba
:10248c002de9f84f0446dde90a9a6668d4f80c8009
:10249c0024690c9f013c1946002e4ff00003d7f81d
:1024ac0000b008f804301046b8bf01264d46012391
:1024bc00002c03dcdbb12046bde8f88f50ea0102aa
:1024cc0009d1a6eb09022a44002a04dc002df1dd17
:1024dc001bf0020feed052464feaea7300f058faa6
:1024ec00013c1346303208f80420013de0e73b681c
:0824fc0023f010033b60dee752
:020000040000fa
:020000040040ba
:10250400902910b50fdc7f2911dd803910290ed8f0
:10251400dfe801f00f0f250d170d0d0d1e0d0d0d2c
:102524000d0d0d0d2500a02903d0c02901d00020d8
:1025340006e019680c1d1c600b6803601a6001201a
:1025440010bd19680c1d1c600b6803601a80f6e747
:1025540019680c1d1c600b6803601a70efe719689a
:102564000c1d1c600b680360d117c3e90021e6e76a
:020000040000fa
:020000040040ba
:102574000e4a38b5002313600d4a0e4c13600e4a00
:102584000e4d13600e4a13600e4a13600e4a5362d6
:1025940013610123936000f015fc00f0c6faac420d
:1025a40000d338bd54f8043b9847f8e70c024020a8
:1025b4005c00402074014000580040207801400035
:0c25c400500040205400402060004020e7
:020000040000fa
:020000040040ba
:1025d0000278202a034600f10100f9d0a2f1090196
:1025e0000429f5d92b2a06d02d2a13d10121013334
:1025f000013b002006e00021f9e700bf00eb80006e
:10260000c2eb400013f8012f303a092af6d901b97c
:08261000404270470021ebe796
:020000040000fa
:020000040040ba
:102618000f4b4ff40022c3f810261822c3f8042edb
:10262800d3f8702e22f01802c3f8702ed3f8742e47
:1026380022f01802c3f8742ea3f5482380221a60ea
:1026480024221a601a6a41f211121a610120704795
:0426580000000e4030
:020000040000fa
:020000040040ba
:10265c0000b170470c4b0d4a117807ee901af8ee4a
:10266c00677af2ee046a87eea67a83ed007a5278e6
:10267c0007ee902af8ee677adfed056a87eea67a08
:10268c0083ed017ae5e700bfd40140201c02402015
:04269c000000c84230
:020000040000fa
:020000040040ba
:1026a00010b5054c237833b9044b13b10448aff38c
:1026b00000800123237010bdc400402000000000f2
:1026c0000000000008b5034b1bb103490348aff3fa
:1026d000008008bd00000000c8004020000000008d
:020000040000fa
:020000040040ba
:1026e00038b5436813f4807f0446154611d003695a
:1026f0009a4228bf1d465db12a46406900f0a0fa03
:10270000636922692b44521b2261002263611a70a3
:0c27100038bddb06fcd400f0b3fbf9e799
:020000040000fa
:020000040040ba
:10271c0007b54a680346dbb2d20508468df8073088
:10272c0007d54a69511c41611370184603b05df816
:10273c0004fb01220df1070100f09cfb10b19df888
:0a274c000700f3e74ff0ff30f0e75d
:020000040000fa
:020000040040ba
:022756007047ca
:020000040000fa
:020000040040ba
:102758000a4b1b788bb9094b42225a70084a5a60b7
:1027680012221a7201229a72ff21d9721a73002159
:1027780059729982034919611a707047f80040200c
:08278800700140208d1d40008e
:020000040000fa
:020000040040ba
:1027900030b50c4a0146002012f810301bb902eb8c
:1027a0004002507830bd0c6825789d4209bf02eb8d
:1027b0004003431c5878013414bfd8b20c600a2877
:0827c000ead9efe7702c40009c
:020000040000fa
:020000040040ba
:1027c80070b514460d4699b13ab1022805d8094b9f
:1027d8002bb111462846aff30080204609e00e468b
:1027e80016f8010b00f03cf82b199e42f8d1f4e7db
:0827f800084670bd000000005e
:020000040000fa
:020000040040ba
:1028000010b500f00ffb094b1b68c31a084a128869
:10281000934203d20020fff735fc10bd0446fef7bb
:10282000b5fd00f0dcf9014b1c60f3e7f40140203a
:042830001a02402028
:020000040000fa
:020000040040ba
:1028340010b500f0f5fa094b1b68c31a084a128850
:10284400934203d20320fff71bfc10bd0446fef79e
:102854009bfd00f0c2f9014b1c60f3e7f00140203e
:042864001a024020f4
:020000040000fa
:020000040040ba
:102868000a4b1b7843b10a2807d0094a536913f069
:10287800020ffbd0064bd8617047054a536913f025
:10288800020ffbd0024b0d22da61eee797014020e0
:04289800008002407a
:020000040000fa
:020000040040ba
:10289c00094b1b7873b9084b62225a70074a5a606d
:1028ac0002221a720121997200225a72044818618c
:1028bc0019709a82704700bfe00040201c02402033
:0428cc005d26400045
:020000040000fa
:020000040040ba
:1028d000094b1b7873b9084b68225a70074a5a6033
:1028e00012221a7201229a720021597299820449a5
:1028f00019611a70704700bf100140208401402008
:042900004d1e400028
:020000040000fa
:020000040040ba
:10290400094b1b7873b9084b77225a70074a5a60ef
:1029140002221a7201229a72002159729982044980
:1029240019611a70704700bf280140201802402026
:04293400252a400010
:020000040000fa
:020000040040ba
:1029380038b50a480a4d016821b9436813b900f04f
:10294800bcf838bd0389426855f8233000f10c04ff
:102958002046984704eb8000ede700bf841540004f
:04296800c42c40003b
:020000040000fa
:020000040040ba
:10296c00084b1b786bb9074b48225a70064a5a60c1
:10297c0002221a7201229a720021597203491961ba
:10298c001a70704740014020140240204d2a40002c
:020000040000fa
:020000040040ba
:10299c0053b94ab9002908bf00281cbf4ff0ff31ba
:1029ac004ff0ff3000f08cbaadf1080c6de904ce9d
:1029bc00fef798faddf804e0dde9022304b0704775
:020000040000fa
:020000040040ba
:1029cc00084b02221a60084b06490a6a12f0010fe2
:1029dc0007d1013bf9d1034b80221a6024221a60e3
:0c29ec007047704700800140a086010089
:020000040000fa
:020000040040ba
:1029f800812903dc7f2903dc002070478329fbd170
:102a08001368073323f0070303f108011160d3e9c2
:0a2a18000023c0e9002301207047ed
:020000040000fa
:020000040040ba
:022a2200fee7cd
:020000040000fa
:020000040040ba
:102a240000b17047064b1a785b7843ea022307ee3d
:102a3400903af8eee77a034bc3ed007af1e700bf72
:082a440018024020fc014020b3
:020000040000fa
:020000040040ba
:102a4c0000b17047064b1a785b7843ea022307ee15
:102a5c00903af8eee77a034bc3ed007af1e700bf4a
:082a6c0014024020f801402093
:020000040000fa
:020000040040ba
:102a740010b5084c2368196800f046f8002807dbf5
:102a840023680a20196800f0f5f9c00f404210bd10
:082a94000120fbe73c02402099
:020000040000fa
:020000040040ba
:102a9c0070b502fb01f6144600290d46324601467c
:102aac00184608bf002400f0e5f9864218bfb0fbb9
:062abc00f5f4204670bd98
:020000040000fa
:020000040040ba
:022ac20070475b
:020000040000fa
:020000040040ba
:102ac40008b5054b1b7803b108bd044b102204491b
:102ad400014800f05af8f7e758014020091f400068
:042ae400b8014020d5
:020000040000fa
:020000040040ba
:102ae8000fb407b5064b04aa1b6852f8041b1868f4
:102af800019200f056f803b05df804eb04b070479b
:042b08003c0240202b
:020000040000fa
:020000040040ba
:102b0c0070b50e46054600f0a1f833460446024661
:102b1c0001212846fff7bcff001b18bf4ff0ff3008
:022b2c0070bd7a
:020000040000fa
:020000040040ba
:022b2e007047ee
:020000040000fa
:020000040040ba
:102b3000430810f001004fea003040ea0340034b25
:102b4000586001d001221a60704700bf0080014028
:020000040000fa
:020000040040ba
:102b50000278002362f31f63427862f3174382789e
:102b600062f30f23c27862f3070300ee103a704756
:020000040000fa
:020000040040ba
:102b700010b50023934206d113f0030018bf0120c3
:0e2b800000eb930010bdc45ccc540133f2e7af
:020000040000fa
:020000040040ba
:102b8e0010b404783cb9c16002740022427482749d
:0c2b9e004361012303705df8044b704795
:020000040000fa
:020000040040ba
:102baa0013b50446019201aafef705f8636813f00b
:0c2bba00100f18bf4ff0ff3002b010bd2c
:020000040000fa
:020000040040ba
:102bc60008b500f0c6f800f0ccf800f0d2f800f036
:082bd600d8f800f0def808bd9c
:020000040000fa
:020000040040ba
:102bde0008b5fff7bafdfff774fefff78cfefff79f
:082bee00befefff754fe08bd16
:020000040000fa
:020000040040ba
:022bf600704726
:020000040000fa
:020000040040ba
:102bf800044b1a6b000440f48050586001221a609c
:082c0800704700bf008001408d
:020000040000fa
:020000040040ba
:102c1000034b044a1868504301301860400c704759
:082c2000080240202d7f954cb5
:020000040000fa
:020000040040ba
:102c2800494e4600696e66004e414e006e616e0068
:082c3800286e696c29002500db
:020000040000fa
:020000040040ba
:102c40004ab1431e84460a4411f8010b03f8010ff0
:082c50009142f9d16046704782
:020000040000fa
:020000040040ba
:102c580003783bb1034600bf13f8012f002afbd1cc
:082c6800181a70471846704766
:020000040000fa
:020000040040ba
:102c700068076c094c836a9074a07ac000806888e9
:062c800000846c8200815b
:020000040000fa
:020000040040ba
:102c8800034b1b6a13f0050f14bf01200020704787
:042c98000080014077
:020000040000fa
:020000040040ba
:102c9c00034b186a80f48070c0f30020704700bfab
:042cac000080014063
:020000040000fa
:020000040040ba
:102cb0004ff0e02340f69f725a6100229a6107228a
:042cc0001a617047de
:020000040000fa
:020000040040ba
:102cc400272d4000712b4000bb2e4000bb2e40003e
:042cd400bb2e4000d3
:020000040000fa
:020000040040ba
:102cd80008b500f0c9f8024b1860586008bd00bf7d
:042ce800dc014020ab
:020000040000fa
:020000040040ba
:102cec0032b1c9b20244034603f8011b9a42fbd12c
:042cfc00704700bf5e
:020000040000fa
:020000040040ba
:102d0000034600bf11f8012b184603f8012b002ad7
:042d1000f8d170473f
:020000040000fa
:020000040040ba
:102d140043782bb941600272437283740123437078
:022d24007047f6
:020000040000fa
:020000040040ba
:102d26000a440023914201d10020704701f8013b7b
:022d3600f8e7bc
:020000040000fa
:020000040040ba
:102d3800024b186ac0f38000704700bf0080014052
:020000040000fa
:020000040040ba
:102d4800024b186ac0f34000704700bf0080014082
:020000040000fa
:020000040040ba
:102d580008b50248fef718fa08bd00bfe000402099
:020000040000fa
:020000040040ba
:102d680008b50248fef710fa08bd00bff800402079
:020000040000fa
:020000040040ba
:102d780008b50248fef708fa08bd00bf1001402058
:020000040000fa
:020000040040ba
:102d880008b50248fef700fa08bd00bf2801402038
:020000040000fa
:020000040040ba
:102d980008b50248fef7f8f908bd00bf4001402019
:020000040000fa
:020000040040ba
:102da800024a136801331360704700bf00024020d5
:020000040000fa
:020000040040ba
:102db800024b1b68196800f05bb800bf3c0240205a
:020000040000fa
:020000040040ba
:102dc80008b5fff785fffff712fffff710ff08bdf3
:020000040000fa
:020000040040ba
:0e2dd800a0f14103192b98bf40f02000704776
:020000040000fa
:020000040040ba
:0e2de600a0f16103192b98bf00f05f00704749
:020000040000fa
:020000040040ba
:0c2df400014b1a6b1b6a70470080014005
:020000040000fa
:020000040040ba
:0c2e0000014b5863704700bf0080014088
:020000040000fa
:020000040040ba
:0c2e0c00014b186bc0b270470080014001
:020000040000fa
:020000040040ba
:0c2e1800014b02221a607047008001404c
:020000040000fa
:020000040040ba
:0c2e2400014b1868704700bf00024020fe
:020000040000fa
:020000040040ba
:0c2e300010b50446fff764ff204610bdfb
:020000040000fa
:020000040040ba
:0a2e3c0008b50120fff720f908bdda
:020000040000fa
:020000040040ba
:0a2e460008b50220fff71bf908bdd4
:020000040000fa
:020000040040ba
:0a2e500008b50420fff716f908bdcd
:020000040000fa
:020000040040ba
:0a2e5a0008b50520fff711f908bdc7
:020000040000fa
:020000040040ba
:0a2e640008b5fef7c9fe012008bd05
:020000040000fa
:020000040040ba
:082e70000048704720024020d9
:020000040000fa
:020000040040ba
:082e780008b5fff74ffc08bd8f
:020000040000fa
:020000040040ba
:062e80000068fff7a1bc91
:020000040000fa
:020000040040ba
:042e86000120704770
:020000040000fa
:020000040040ba
:042e8a00012070476c
:020000040000fa
:020000040040ba
:042e8e000120704768
:020000040000fa
:020000040040ba
:042e92000120704764
:020000040000fa
:020000040040ba
:042e96000120704760
:020000040000fa
:020000040040ba
:042e9a00012070475c
:020000040000fa
:020000040040ba
:042e9e000120704758
:020000040000fa
:020000040040ba
:042ea2000120704754
:020000040000fa
:020000040040ba
:042ea6000120704750
:020000040000fa
:020000040040ba
:042eaa00012070474c
:020000040000fa
:020000040040ba
:042eae000120704748
:020000040000fa
:020000040040ba
:042eb2000120704744
:020000040000fa
:020000040040ba
:042eb6000120704740
:020000040000fa
:020000040040ba
:042eba00002070473d
:020000040000fa
:020000040040ba
:042ebe000020704739
:020000040000fa
:020000040040ba
:042ec2000020704735
:020000040000fa
:020000040040ba
:042ec6000020704731
:020000040000fa
:020000040040ba
:042ecc00704700bf8c
:00000001FF
