:020000040000fa
:020000040040ba
:10000000f8ff4520e91340007f2740007f2740008c
:100010007f2740007f2740007f274000000000002e
:100020000000000000000000000000007f274000ea
:100030007f274000000000007f274000592a400031
:100040007f2740007f2740007f2740007f27400018
:100050007f2740007f2740007f2740007f27400008
:100060007f274000000000007f2740007f274000de
:100070007f2740007f2740007f2740007f274000e8
:100080007f2740007f2740007f2740007f274000d8
:100090007f2740007f2740007f2740007f274000c8
:1000a0007f2740007f2740007f2740007f274000b8
:1000b0007f2740007f2740007f2740007f274000a8
:1000c0007f2740007f2740007f2740007f27400098
:1000d0007f2740007f2740007f2740007f27400088
:1000e0007f2740007f2740007f2740007f27400078
:1000f0007f2740007f2740007f2740007f27400068
:100100007f2740007f2740007f2740007f27400057
:100110007f2740007f274000000000000000000013
:100120007f2740007f2740007f2740007f27400037
:100130007f2740007f274000000000007f2740000d
:100140007f2740007f2740007f2740007f27400017
:100150007f2740007f2740007f2740007f27400007
:080160007f2740007f274000cb
:020000040000fa
:020000040040ba
:10016800f8b500bff8bc08bc9e46704705234000a0
:10017800f8b500bff8bc08bc9e467047e1224000b5
:020000040000fa
:020000040040ba
:08018800e80600000100000080
:020000040000fa
:020000040040ba
:100190002de9f04f2ded0a8b92ed009b8fb0b5ee5f
:1001a000c09b05938b680493f1ee10fa0b69cd6840
:1001b0000690d1e900a78b46089308d41af0040fe3
:1001c00034d11af00803039332d0202302e02d2308
:1001d000b1ee499b2b70049b03f1ff39012303937c
:1001e00019ee903a19ee101a23f00042c04b002489
:1001f0009a4208bfa1421ed1059b0398413b192b8f
:1002000094bfbc49bc49284402f06efc284602f069
:1002100073fb049bcdf800a002462946069801f026
:1002200015fe0fb0bdec0a8bbde8f08f2b23d1e794
:10023000ddf81090d4e78c42934108d2059b0398d7
:10024000413b192b94bfad49ad492844dce7b5eedd
:10025000409bf1ee10fab2ee04cbb7ee00ab40f0eb
:10026000c080059802f008fc002fc0b2c0f2628185
:10027000672840f0d580002f08bf0127231dc0f25a
:10028000d180bc4280f2ce80002c4ff066080cdaa0
:10029000b8f1660f07f1010707d1002c02dab7eebb
:1002a00000ab0024672800d027440023b0ee4a8b1f
:1002b000b0ee49bb8bee080b0993079001f004fbed
:1002c000099b90ee08bb01339f420798b1ee4bbbf0
:1002d00088ee0c8beed1b1ee047b28ee078bb4eeea
:1002e000cb8bf1ee10fa00f3a080b4ee4b8bf1ee65
:1002f00010fa09d1bdeec00b9fed796b10ee103aec
:1003000013f0010f06fe088b39ee088b2aee0c9bca
:10031000b4eec89bf1ee10fa00f28a80b8f1660fd5
:1003200004f1010440f0868001372146cb1b0022f6
:10033000039f0a9316460a9b994240f0a5803346d4
:10034000002e00f0df80e8190022b8f1650f02707e
:1003500029d1089b013b9442ea54bcbf644201226c
:100360004ff0020b4ff00a0e591e002c40f0d180c6
:10037000bbf1000f00f3cd80002a0cbf2b222d22f1
:100380006a54059a023b413a192a05eb030198bfca
:100390004ff045089f4281f8008001da02f0a4fb8b
:1003a000cb44abf104090af00303022b7ff42eaf18
:1003b000b9f1000f7ff72aaf284602f09dfa05eb4e
:1003c0000903039a824240f3b18003984a463021e0
:1003d000284402f0dbfa0023049317e70134b0ee5f
:1003e00047ab2aee0c7bb4eec79bf1ee10faf5d5c5
:1003f0009fed3d7b00230be014f5967f05da23b9d2
:1004000029ee079b2aee07ab0123013c8aee0cabd9
:10041000b4eeca9bf1ee10faeed422e706272de7e0
:10042000804635e74ff065083fe79fed2d8b6be782
:10043000b0ee4a9bb8f1650f14bf2146002175e765
:100440004eb9002907da079e2e23ab550123013749
:1004500009f1ff391e46ab1805eb070c3b444ff082
:10046000300e01e00cf801eb9c45fbd1099b02eb3f
:10047000070c3033a9eb020202f1ff3905f80c300a
:100480000cf10107002223e0dbf810300797053b51
:10049000bb427ff654af88ee090bcde90c200b91df
:1004a00001f012fafdeec07bdde90b1217ee90cae7
:1004b0006346092ba8bf092309930af0100353eae6
:1004c0000c0c0d98bcd16728bad10029b8da0132da
:1004d00099ee008b0139b1ee488b89ee0c9b2ae72f
:1004e0000000000000000000000000000000504379
:1004f0000000f07fc8284000cc284000d0284000f1
:10050000d42840001af0100f1ebf2e23eb550137e0
:1005100019e70b4694fbfefc0ceb8c01a4eb4101ac
:100520003031e95464460bf1ff3b1de72a5c1a5455
:10053000013846e767283ff471af80460627a7e6f3
:020000040000fa
:020000040040ba
:100540002de9f047aeb00746164605914ff000087a
:10055000059d2b78002b00f0e08000244ff0ff3346
:10056000cde909430eab0c9380230b940d932b5dc7
:100570000bb1252b30d134b12946224638462544cb
:1005800001f0eefe0595059b1a78252a40f0bc8007
:1005900003f10109cdf814904a46002113782b2b62
:1005a000104602f1010223d02ed8202b24d0232b79
:1005b00026d001b105902a2b2ed001f029fe059af4
:1005c0000b900020114601320b78303b092b79d972
:1005d000002830d005912ee00134c8e7099b43f094
:1005e000010309930121d9e7099b43f00203f8e7ce
:1005f000099b43f00403f4e7099b43f00803f0e789
:10060000099b43f01003ece72d2be7d0302bebd008
:100610000029d2d00590d0e733681a1d1b683260dc
:100620000130002b05900b9305da099a5b4282f0aa
:10063000010209920b93099bda0744bf23f00203de
:100640000993059b1a782e2a0fd14ff0000acdf896
:1006500028a05a785d1c2a2a059535d102330593c6
:1006600033681a1d1b6832600a9305a801f040ff29
:10067000059d0390287802f0fff92528039900f0e2
:10068000da806138172800f2e080172800f2dd8058
:10069000dfe810f02b00db00b6004700a700a70042
:1006a000a700db004700db00db00db00db009e0077
:1006b00065008300db00db00c700db005600db00c9
:1006c000db00740001207de7284601f0a1fd5346c0
:1006d0000a90294601350a78303a092a03d9002bb5
:1006e000c3d00591c1e70123f3e7324606a801f024
:1006f000e1ff002872d06b1c059306aa2b7809a98c
:10070000384602f034fa04444444a04540f3a7803c
:10071000544b4f221a604ff0ff3840462eb0bde8d0
:10072000f0873346012206a801f00ef8002855d0c4
:10073000013506aa09a93846059501f027fae2e72e
:100740003346002206a800f0ffff002846d00135fe
:1007500006aa09a93846059502f007fad3e73346f9
:10076000002206a800f0f0ff002837d0013506aac5
:1007700009a93846059502f0f8f9c4e73346002286
:1007800006a800f0e1ff48b36b1c05932b7806aa7e
:1007900009a9384600f0bcfeb5e733460022f02137
:1007a00006a800f0d1ffc8b1dde9063201351343d8
:1007b00005950bd12c4802f09ff8099b00932a491c
:1007c0000b9b0246384601f041fb9ce77823dee7ad
:1007d000334608eb040206a801f0b2fb013505958b
:1007e00092e7324606a801f065ff0028f6d06b1ca0
:1007f000059306aa2b7809a93846fff7c9fc82e7ba
:100800008029ebd1336801351a1d1b6832608df8e1
:1008100018300595012306aa09a9384602f0a9f95e
:1008200071e78029dad13268131d3360013512680f
:1008300005950023f0e78029d0d1099b009301356d
:100840000b9b059509490122bce700234ff0ff32bd
:10085000cdf8149009930b930a920093f2e7a04607
:1008600076e600bf8c024020d8284000de284000f9
:020000040000fa
:020000040040ba
:100870002de9f04786468c460846089e1546744684
:100880001946002b40f0c2808242b2fa82f245d96a
:100890004ab1c2f1200300fa02fc2efa03f395409c
:1008a00043ea0c0c94404fea154ea8b2bcfbfef88c
:1008b000230c0efb18cc08fb00f943ea0c439945c6
:1008c00028d9eb1808f1ff3704d2994502d9a8f1cd
:1008d00002072b44a3eb0903a4b2b3fbfefc0efbff
:1008e0001c330cfb00f044ea0344a04214d92c1939
:1008f0000cf1ff3304d2a04202d9acf102032c4424
:10090000241a43ea07401eb1d440002334607360c8
:10091000bde8f0874746dde76346f1e792bb431b3e
:1009200001214fea154eafb2b3fbfefc200c0efbcb
:100930001c330cfb07f840ea0343984562d9eb18d7
:100940000cf1ff3004d2984502d9acf102002b44df
:10095000a3eb0803a4b2b3fbfefc0efb1c330cfba1
:1009600007f744ea0344a7424ed92c190cf1ff3390
:1009700004d2a74202d9acf102032c44e41b43ea9f
:100980000040c0e7c2f1200320fa03f195409040f7
:100990002efa03f303434fea154eafb2b1fbfefc50
:1009a0000efb1c10190c0cfb07f841ea00418845ae
:1009b00004fa02f422d969180cf1ff3004d28845f8
:1009c00002d9acf102002944a1eb08019bb2b1fbb2
:1009d000fefc0efb1c110cfb07f743ea01439f4290
:1009e0000ed9eb180cf1ff3104d29f4202d9acf1c1
:1009f00002012b44db1b41ea004192e76046e3e73a
:100a00006146f7e76046a3e76346b7e7834206d946
:100a100016b9002108467be7c6e900e0f9e7b3fa1a
:100a200083f78fb9834201d3724508d8beeb020425
:100a300060eb030301209c461eb9002168e738469d
:100a4000fae7c6e9004cf8e7c7f1200cbb4022faf0
:100a50000cf41c432efa0cf120fa0cf3b8400143bd
:100a60004fea14490efa07f5b3fbf9f81ffa84feb2
:100a700009fb18300b0c08fb0efa43ea00439a45b9
:100a800002fa07f240d9e31808f1ff3004d29a4580
:100a900002d9a8f102002344a3eb0a0389b2b3fbf5
:100aa000f9f809fb183308fb0efe41ea03418e45b5
:100ab0002cd9611808f1ff3304d28e4502d9a8f170
:100ac0000203214443ea0040a0fb0298a1eb0e017f
:100ad0004145ce46434602d306d14d4504d2b9eb3b
:100ae000020e68eb04030138002ea6d0b5eb0e020f
:100af00061eb030101fa0cfc22fa07f34cea030351
:100b0000f940c6e9003198e74046c5e74346d9e7d2
:020000040000fa
:020000040040ba
:100b100010b582b004460146724801f031fe012c46
:100b200006d0714b1b78002b00f0d88002b010bdae
:100b30006e4b1b787bb36e4b1a78597841ea0221d1
:100b40004af65523994215d1694b9a78d97841eaea
:100b500002214ff6ff73994210d0654b1a795b79e9
:100b600043ea0222634801f00bfe634b012283f843
:100b70004d20d6e7614801f003fed2e7604801f05e
:100b8000d7fd0022594b1a705b4b83f84b20012292
:100b900083f84d20c5e7564ce3780093a37862783c
:100ba0002178584801f0ecfd2378534a82f84c3004
:100bb000202b00f28e8001a252f823f0230b40007c
:100bc000670c4000c30c4000d30c4000d30c400025
:100bd000d30c4000d30c4000d30c4000d30c400099
:100be000d30c4000d30c4000d30c4000d30c400089
:100bf000d30c4000d30c4000d30c4000770c4000d5
:100c0000ad0c4000d30c4000d30c4000d30c40008e
:100c1000d30c4000d30c4000d30c4000d30c400058
:100c2000d30c4000d30c4000d30c4000d30c400048
:100c3000d30c4000d30c4000d30c4000410c4000ca
:100c4000314801f075fd2a4b5b7807ee903af8eedb
:100c5000677af2ee046a87eea67a274b83ed117a63
:100c600000f0e8fc5de7294801f062fd224b01221b
:100c700083f84d2055e7264801f05afd1e4a01230e
:100c800082f84b3082f84d30184a137021491022f7
:100c90000a70ac224a704b228a700022ca70124a33
:100ca000137004221c4801f085fe3ae71b4801f04e
:100cb0003ffd114b002283f84b20012283f84d2089
:100cc0002fe7174801f034fd0b4b012283f84d202c
:100cd00027e7094b022283f84d2022e701f0a4fc0c
:100ce00024e700bfb80d40000e02402087004020de
:100cf00000004020180e400088004020c80d400031
:100d0000e80d4000400e4000640e40006c0e4000b4
:100d1000740e40007c02402068014020a00e40007c
:040d2000b80e4000c9
:020000040000fa
:020000040040ba
:100d2400696e69745f7374617475732e757361721f
:100d340074206265666f726520696e697420636fe2
:100d440064653a202564000000000000696e69743f
:100d54005f7374617475732e757361727420636f3d
:100d6400646520616674657220696e69743a202036
:100d740025640000627573207265636f766572790d
:100d840020666f7220616464723d30782530325879
:100d94000a0000005b5454432054585d2041434be7
:100da4002073656e74202825642062797465732924
:100db4000a000000726573756c74207474632025d6
:100dc400640000005b4f54415d20426164207379ec
:100dd4006e6320776f72643a203078253034580a75
:100de400000000005b4f54415d20454e44206d617e
:100df400726b657220726563656976656420e28052
:100e040094207472616e7366657220636f6d706c8a
:100e1400657465005b4f54415d205061636b65747c
:100e2400207365713d25642c207061796c6f616459
:100e34003d25642062797465730a000070617273e1
:100e4400653a2030782530325820307825303258b1
:100e540020307825303258203078253032580a0036
:100e6400636d643000000000636d643100000000b5
:100e74005b5454435d2053544152545f4f544120ba
:100e8400726563656976656420e280942073656e9b
:100e940064696e672041434b00000000636d643356
:100ea40020e28094204f5441206d6f6465204f46aa
:100eb40046000000636d6435000000005553415244
:100ec40054305f4353523a20203078253038580a42
:100ed400000000005553415254305f4d523a2020d7
:100ee400203078253038580a00000000555341520c
:100ef40054305f425247523a203078253038580aed
:100f04000000000073656e736f72735f72656164d5
:080f14005f616c6c204f4b0083
:020000040000fa
:020000040040ba
:100f1c004c0140201c000000000000004402402056
:100f2c000b00000000000000220240200200000024
:100f3c000100000010270000600240201400000097
:100f4c0000000000bc024020040000000100000072
:100f5c000000c84288004020500000000000000043
:100f6c0050024020080000000000000074024020e5
:100f7c0008000000000000002801402024000000b0
:100f8c0000000000240240201000000000000000bf
:100f9c004f024020010000000000000086004020ad
:100fac000100000000000000980240200200000038
:100fbc000000000084014020180000000000000028
:100fcc00fc01402012000000000000009c014020a9
:100fdc001800000000000000100240201200000069
:100fec0000000000b40140201800000000000000c8
:100ffc00940240200200000000000000cc014020c0
:10100c0018000000000000009002402002000000c8
:10101c0000000000e4014020180000000000000067
:10102c008700402001000000000000000e0240205c
:10103c0001000000000000007c02402004000000c1
:10104c0000000000340240201000000000000000ee
:10105c0000004020860000000000000068014020d5
:10106c001c0000000000000080024020080000006e
:10107c0000000000d80040205000000000000000dc
:10108c009c02402020000000010000000100000034
:10109c000300000000000000000000000000000041
:1010ac0000000000000000005802402058024020c0
:1010bc00080000000000000088024020080000002a
:1010cc00000000000000000000000000666666667c
:020000040000fa
:020000040040ba
:1010dc0070b504460378013b082b73d8dfe803f0a6
:1010ec0005286b73405f959ac00001f017fc00282f
:1010fc0068d0624b1b78002b64d1604b01221a70b4
:10110c0001f0c2fc237b43b16078400000f0fe008c
:10111c0001f054fb0223237054e06378a07a00386a
:10112c0018bf012040ea4300c0b201f047fbf1e7d1
:10113c0001f0fefb50b100236372237b53b9a37af9
:10114c00002b0cbf0323072323703be0204601f048
:10115c0011f837e0e07a01f09dfc0523237031e0b3
:10116c0001f034fc50b9a38a01339bb2a382b3f5ce
:10117c007a7f27d9204600f0fdff23e00023a382cd
:10118c0001f0d6fb38b1607801f08cfb002323739f
:10119c000623237016e0204600f0ecff12e001f06d
:1011ac00c7fb20b100236372072323700ae020469b
:1011bc0000f0e0ff06e0437a4268d05c01f06afc84
:1011cc000423237070bd01f001fc50b9a38a0133d4
:1011dc009bb2a382b3f57a7ff4d9204600f0caff04
:1011ec00f0e70023a38201f0a3fb50b1637a013333
:1011fc00dbb26372227a9a4214bf03230923237051
:10120c00e0e7204600f0b6ffdce700f00cfa08231c
:10121c002370d7e701f0e2fb50b9a38a01339bb2ec
:10122c00a382b3f57a7fcdd9204600f0a3ffc9e79e
:10123c000023a382657a666801f032fc7055637aec
:10124c000133dbb26372227a9a4204d001f0bdf80a
:10125c0007232370b6e701f029fc09232370b1e7bb
:10126c0001f00cfa00232370a375044a1370236950
:10127c00002ba7d000209847a4e700bf4f024020c6
:020000040000fa
:020000040040ba
:10128c00f8b50525524c534e534f04e06b1e13f02a
:10129c00ff0500f09a8001f055fb2378002b62d0fb
:1012ac006378002b63d0a378002b66d0e378002bf7
:1012bc0067d02179304601f05dfa2379002b64d098
:1012cc006379002b69d0a379002b6ad0e379002bca
:1012dc006bd0237a002b6cd0637a002b6dd0a37a61
:1012ec00002b6ed02378002bd0d06378002bcdd080
:1012fc00a378002bcad0364bdb78002bc6d0344bee
:10130c001b79002bc2d0324b5b79002bbed0304bfb
:10131c009b79002bbad02e4bdb79002bb6d02c4b03
:10132c001b7a002bb2d02a4b5b7a002baed0284b09
:10133c009b7a002baad001f00cfc002846d001f0bf
:10134c0000fc002842d001f0fefb00283ed001f04a
:10135c00fcfbd8b301f0fbfbc0b301f0fcfb003885
:10136c0018bf012032e001f0defb207098e700f09e
:10137c006dff607000f0e0fc95e700f073fea0706c
:10138c0094e700f0cbfee07093e700f03bfe0146e3
:10139c002071384601f0eef992e701f0c6fb60715e
:1013ac0091e701f0c4fba07190e701f0c6fbe0717e
:1013bc008fe701f0befb20728ee701f0bcfb607280
:1013cc008de701f0bcfba0728ce70020f8bd00bfdc
:0c13dc0044024020240d4000500d400051
:020000040000fa
:020000040040ba
:1013e800414b03b19847414b03b19847eff3108342
:1013f800b3fa83f35b09019372b6bff35f8f019968
:101408004ff0e022d2f8883d43f47003c2f8883ddb
:10141800bff34f8fbff36f8f11b1bff35f8f62b60a
:10142800334b5b6913f4003f13d1bff34f8fbff306
:101438006f8f2f4b0022c3f85022bff34f8fbff39b
:101448006f8f5a6942f400325a61bff34f8fbff36e
:101458006f8f274b5b6913f4803f2bd1244b0022fd
:10146800c3f88420bff34f8fd3f88030c3f3c90487
:10147800c3f34e334fea431c43f6e07e1c480ceaa4
:101488000e01234641ea8372c0f86022013bb3f1a2
:10149800ff3ff7d1acf1200c1cf1200fefd1bff3c7
:1014a8004f8f134a536943f480335361bff34f8f0f
:1014b800bff36f8f00f0fefb01f068f80d4b23f0cf
:1014c8007f030b4a93600c4b98470c4b03b198472a
:1014d8000b4b03b198470021084600f0fffa094b6f
:1014e80003b19847fee700bf0000000000000000bd
:1014f80000ed00e000004000cd20400000000000aa
:081508000000000000000000db
:020000040000fa
:020000040040ba
:101510002de9f04f8bb00d460493d1e901132f68ec
:10152000d5f80c9003900029a8bf27f00207924637
:10153000b8bf012117f010020592dae9006232d03b
:1015400056ea02002fd0a3f1020b2c69029617f085
:10155000080004f1ff3418bf0bf1ff3b9046002256
:1015600009f8042006905a46012c1edc059a002a30
:1015700051d1069a1ab1013c202209f804202a69a7
:1015800003980097013a121b09eb040100f05efc7e
:10159000039b5b68db0503d56b689842b8bf1846b0
:1015a0000bb0bde8f08f9b46cfe7029850ea0800e9
:1015b00008d1a1eb0b001044002803dc002ad5dd84
:1015c000b807d3d50298049e00f00f000928a6f1b1
:1015d000410cd4bf30305730bcf1190f04f1ff3447
:1015e0000ed840f0200cacf1610cbcf1190f07d8fb
:1015f000cde90813079201f046fadde90813079ace
:1016000009f804000298060946ea0870013a0290b7
:101610004fea1818a8e7dae900210a43a9d009eb34
:101620000402049902f8011c023c302209f804204b
:021630009fe732
:020000040000fa
:020000040040ba
:021632007047ff
:020000040000fa
:020000040040ba
:1016340000b583b03a4a202313703a49d1ed007ab9
:10164400b2ee047a67ee877afceee77a17ee903a08
:101654005370d1ed017adfed346a67eea67afceec1
:10166400e77a17ee903a93703049d1ed007abceee8
:10167400e77a8ded017a9df80430d37007ee103ac5
:10168400b8eec77a77eec77a67eea67afceee77a09
:1016940017ee903a1371d1ed017abceee77a8ded35
:1016a400017a9df80430537107ee103ab8eec77a08
:1016b40077eec77a67eea67afceee77a17ee903af1
:1016c40093711b4bd3ed007afceee77a17ee903a58
:1016d400c3f30721d1711372164bd3ed007afceedc
:1016e400e77a17ee903ac3f3072151729372124bc3
:1016f40093f84a30d37213460c32002013f8011bbe
:1017040048409342fad1064908730c4b01221a70df
:101714000d220b4801f04cf903b05df804fb00bf47
:1017240034024020500240200000c84224024020dd
:101734007802402074024020880040200e0240209d
:0417440068014020d8
:020000040000fa
:020000040040ba
:10174800902910b50fdc7f2913dd8039102910d8b6
:10175800dfe801f02b2b360f110f0f0f200f0f0fa3
:101768000f0f0f0f3600c02944d0f02942d0a0290e
:1017780021d000200de019682ab10a1d1a60b1f9bc
:101788000030da1702e00c1d1c600b88c0e900323b
:10179800012010bd196822b10a1d1a6091f90030a4
:1017a800efe70c1d1c600b78f0e71968f2b10a1d11
:1017b8001a600b68e5e71a68111d19601368e0e7fd
:1017c800196852b1073121f0070101f108021a60c6
:1017d800d1e90023c0e90023dae7ca1d22f0070295
:1017e80002f108011960d2e90023f3e70c1d1c601f
:1017f8000b68cbe71a68111d196013680360002392
:041808004360c5e78d
:020000040000fa
:020000040040ba
:10180c0000b170472a4b2b4a117807ee101ab8ee2c
:10181c00477adfed297ac7ee276ac3ed006a517863
:10182c0007ee101ab8ee477ac7ee276ac3ed016ac5
:10183c00917807ee101ab8ee477ac7ee276ac3ed17
:10184c00026ad17807ee101ab8ee477ac7ee276a0b
:10185c00c3ed036a117907ee101ab8ee477ac7ee9a
:10186c00276ac3ed046a517907ee101ab8ee477a6d
:10187c00c7ee276ac3ed056a917907ee101ab8ee28
:10188c00477ac7ee276ac3ed066ad17907ee101abc
:10189c00b8ee477ac7ee276ac3ed076a127a07eeed
:1018ac00102ab8ee477ac7ee276ac3ed086aa8e794
:0c18bc0028014020100240200000c8421b
:020000040000fa
:020000040040ba
:1018c80053ec102bc3f30a512de9f04140f2fd709f
:1018d8004c1e84429e4640d8a1f2ff30002833dbdc
:1018e80033282ddc244c4ff0ff3cc0f12006154670
:1018f800a1f21f4104fa06f22cfa00fc4cea020c91
:1019080024fa01f24cea020cc44003ea040805ea8e
:101918000c0757ea080725ea0c0223ea04030fd04c
:10192800002b0dda4ff4801404fa06f624fa01f1bc
:101938000e43b61824fa00f444eb03043246234657
:1019480043ec102bbde8f0819fed090bbfee007b47
:10195800002b20fe070bbde8f0810029f0d10a46d4
:1019680003f0004343ec102bece700bfaff300801b
:0c1978000000000000000000ffff0f0056
:020000040000fa
:020000040040ba
:1019840010b5044600f056f8264bd3ed007a052c2a
:101994003ad8dfe804f0050d171f2b03204610bdcd
:1019a400002833d0204b1868003818bf0120f6e710
:1019b40070b31e4b1b686bbb1b4b1868003818bff9
:1019c4000120ece740b3194b1b68002b14bf2046e1
:1019d4000120e4e7b2ee047af4eec77af1ee10faed
:1019e4001cd400280cbf20460020d8e7b2ee047aad
:1019f400f4eec77af1ee10fa12d50d4b1b68002bea
:101a04000cbf20460520cae70020c8e70320c6e72c
:101a14000320c4e70220c2e70320c0e70420bee796
:101a24000320bce7bc02402068024020640240203e
:041a340060024020ec
:020000040000fa
:020000040040ba
:101a3800254bd3ed007ab1ee0a7af4eec77af1eecf
:101a480010fa34dc9fed217af4eec77af1ee10fa41
:101a58002fd4d3ed017ab0ee007af4eec77af1ee26
:101a680010fa28dcb7ee007af4eec77af1ee10fa35
:101a780023d4174bd3ed007a9fed167af4eec77a8c
:101a8800f1ee10fa1bdcbaee047af4eec77af1ee46
:101a980010fa16d4104b93ed007af3ee0e7ab4eeea
:101aa800e77af1ee10fa54bf0120002070470020b9
:101ab80070470020704700207047002070470020c2
:101ac80070470020704700bf5002402066664640bd
:0c1ad8007402402000007042bc0240205c
:020000040000fa
:020000040040ba
:101ae40010b500f06ff9fff7cffba8b1214c616985
:101af400214800f043fe6168204800f03ffe216a5f
:101b04001f4800f03bfe00f0c5fe1e4800f00efe2c
:101b140000f088fd002405e000f0dffde6e700f0ba
:101b240051fd044600f07dfe052cfbd801a353f8bb
:101b340024f000bf231b4000511b4000591b4000f0
:101b4400611b4000691b4000711b400000f0d0ff86
:101b54000446e7e700f0d1ff0446e3e700f04afd5e
:101b64000446dfe700f0ceff0446dbe700f0cfffda
:101b74000446d7e700400240c00e4000d80e4000a3
:081b8400f00e4000080f4000c4
:020000040000fa
:020000040040ba
:101b8c002de9f041d2e900230c4686b005465fea08
:101b9c00d378d1e901060968e76805913fd0524234
:101bac0063eb4303002808db21f002010591b8f137
:101bbc00000f02d10599480722d5711e05a8029085
:101bcc000a20cde90010204600f078f9b8f1000f9a
:101bdc001ad001382d233b542269059b0093013afe
:101bec003346121a3918284600f02af96b68db05bf
:101bfc0003d563689842b8bf184606b0bde8f081bb
:101c0c000807dad43146d9e7059b590702d50138c4
:101c1c002b23e0e71a07dfd501382023dbe7002868
:041c2c00c2dac7e76a
:020000040000fa
:020000040040ba
:101c300070b504460378012b0dd0022b2ed0002b5b
:101c400036d100f00dfe002831d00023638263619d
:101c5000012323702be000f003fe50b9638a33b3f5
:101c6000636901336361144a934220d902232370cc
:101c70001de0658ae66800f02bff7055638a01332a
:101c80009bb2638200226261228a9a420fd80023ab
:101c90002370a3695bb10120984708e083690bb109
:101ca000002098470023638223826361237070bd04
:0c1cb00000230370fbe700bf3f420f0061
:020000040000fa
:020000040040ba
:101cbc001a4b1b4a5a601a46936813f0010ffbd05b
:101ccc00164bdb6813f4c07f12d0144b154a5a60c4
:101cdc001a46936813f0010ffbd0104b124a5a604e
:101cec001a46936813f0010ffbd0104b104a1a6080
:101cfc00bff34f8fbff36f8f0e4bd3f8902222f0b0
:101d0c000102c3f89022d3f8942222f00102c3f806
:101d1c009422bff34f8fbff36f8f7047000c0e40b0
:101d2c000d00005a0c08005a0c07005a00180e40ff
:081d3c00010000a500ed00e02c
:020000040000fa
:020000040040ba
:101d440010b483b01d4b80221a6003f5482310227f
:101d5400c3f8002ec3f8102e09221c4610200021bf
:101d640001e0013a18d0c4f8340e0091009b632bb3
:101d740005dc009b01330093009b632bf9ddc4f861
:101d8400300e0191019b632bebdc019b013301932a
:101d9400019b632bf9dde4e7094b1822c3f8042ef9
:101da400a3f5482380221a6024221a601a6a49f68d
:101db4009d521a6103b05df8044b704700800140e6
:041dc40000000e40cd
:020000040000fa
:020000040040ba
:101dc8001c4b4ff40042c3f854281b49d1f8142186
:101dd80042f01002c1f81421184a4ff49841c2f891
:101de80010164ff40011c2f8041ed2f8701e21f428
:101df8000011c2f8701ed2f8741e21f40011c2f846
:101e0800741e10225a601a6f42f010021a675a6f35
:101e180042f010025a67a3f539230c221a604ff4d6
:101e28000c625a604e221a6250221a60044b012238
:101e38001a70704700100e400080084000000e40e5
:041e480086004020b0
:020000040000fa
:020000040040ba
:101e4c002de9ff471d460c9b13f0010806460f4673
:101e5c00144601d195420bd822463946304600f043
:101e6c0079faa54204d82546284604b0bde8f08787
:101e7c00a5eb04094a46102a28bf102220216846e7
:101e8c00ca4600f07dfd00bfbaf10f0f0ed809f065
:101e9c000f026946304600f05dfab8f1000fe3d14d
:101eac0022463946304600f055fadde710226946e5
:0c1ebc00304600f04ffaaaf1100ae5e7ea
:020000040000fa
:020000040040ba
:101ec8002de9f84f0446dde90a9a6668d4f80c80d3
:101ed80024690c9f013c1946002e4ff00003d7f8e7
:101ee80000b008f804301046b8bf01264d4601235b
:101ef800002c03dcdbb12046bde8f88f50ea010274
:101f080009d1a6eb09022a44002a04dc002df1dde0
:101f18001bf0020feed052464feaea7300f098fb2e
:101f2800013c1346303208f80420013de0e73b68e5
:081f380023f010033b60dee71b
:020000040000fa
:020000040040ba
:101f4000902910b50fdc7f2911dd803910290ed8ba
:101f5000dfe801f00f0f250d170d0d0d1e0d0d0df6
:101f60000d0d0d0d2500a02903d0c02901d00020a2
:101f700006e019680c1d1c600b6803601a600120e4
:101f800010bd19680c1d1c600b6803601a80f6e711
:101f900019680c1d1c600b6803601a70efe7196864
:101fa0000c1d1c600b680360d117c3e90021e6e734
:020000040000fa
:020000040040ba
:101fb00010b504464378012b05d0022b20d023b363
:101fc0000023437021e000f017fd40b9636901333d
:101fd00063610e4a934218d90223637015e0637a55
:101fe0006268d05c00f06efd637a0133dbb263722d
:101ff00000226261227a9a4207d80023637004e0cb
:102000000023437203724361437010bd3f420f00cf
:020000040000fa
:020000040040ba
:10201000154b4ff42052c3f8102603f580530322ca
:102020005a601a6f22f003021a675a6f42f00302d5
:102030005a67a3f53d23ac221a604ff40c625a6034
:102040004e221a6250221a604ff480721a605b6945
:1020500013f0010f05d0054b9a695a6912f0010f70
:10206000fad10120704700bf00000e40004002403e
:020000040000fa
:020000040040ba
:10207000154b4ff40412c3f8102603f580534ff4a8
:10208000e002c3f80424d3f8702442f4e002c3f859
:102090007024d3f8742422f4e002c3f874244ff0bf
:1020a0000072c3f80024c3f81024c3f83024a3f549
:1020b000592380221a6011225a604ff440621a6339
:0c20c00001201860704700bf00000e40b7
:020000040000fa
:020000040040ba
:1020cc000e4a38b5002313600d4a0e4c13600e4aad
:1020dc000e4d13600e4a13600e4a13600e4a536283
:1020ec0013610123936000f0b9fc00f0b2fbac4229
:1020fc0000d338bd54f8043b9847f8e788024020d9
:10210c00e400402074014000e000402078014000d1
:0c211c00d8004020dc004020e8004020fb
:020000040000fa
:020000040040ba
:10212800134b4ff40062c3f800274ff41e32c3f874
:10213800042ed3f8702e22f41e32c3f8702ed3f872
:10214800742e22f41e32c3f8742ea3f5c8238022fd
:102158001a60084a5a604ff400721a6201221a6023
:102168001a46136913f0807ffbd00120704700bf27
:0821780000000e4011000001ff
:020000040000fa
:020000040040ba
:1021800010b5044600f080fa00232370a382a37ddb
:102190000133dbb2a375022b08d8094b00221a7059
:1021a000236913b14ff0ff30984710bd617805489f
:1021b00000f0e6fafff7c6fd0023a375ede700bfc8
:0821c0004f024020780d4000a1
:020000040000fa
:020000040040ba
:1021c80010b50e4c2046fff7effe2046fff72cfd1a
:1021d8000b4b1b783bb163782bb9217a4b1e627a83
:1021e800dbb29a4200d810bd064800f0c5fa044b8d
:1021f80000221a7000f014faf5e700bf68014020c9
:082208000e024020980d400079
:020000040000fa
:020000040040ba
:102210000278202a034600f10100f9d0a2f1090159
:102220000429f5d92b2a06d02d2a13d101210133f7
:10223000013b002006e00021f9e700bf00eb800031
:10224000c2eb400013f8012f303a092af6d901b940
:08225000404270470021ebe75a
:020000040000fa
:020000040040ba
:102258000f4b4ff40022c3f810261822c3f8042e9f
:10226800d3f8702e22f01802c3f8702ed3f8742e0b
:1022780022f01802c3f8742ea3f5482380221a60ae
:1022880024221a601a6a49f69d521a610120704781
:0422980000000e40f4
:020000040000fa
:020000040040ba
:10229c0000b170470c4b0d4a117807ee901af8ee0e
:1022ac00677af2ee046a87eea67a83ed007a5278aa
:1022bc0007ee902af8ee677adfed056a87eea67acc
:1022cc0083ed017ae5e700bf5002402098024020e0
:0422dc000000c842f4
:020000040000fa
:020000040040ba
:1022e00010b5054c237833b9044b13b10448aff350
:1022f00000800123237010bd4c014020000000002d
:102300000000000008b5034b1bb103490348aff3bd
:10231000008008bd000000005001402000000000c7
:020000040000fa
:020000040040ba
:1023200000b1704738b50c4d284600f05dfa0b4cf3
:1023300084ed000a281d00f057fa84ed010a05f12a
:10234000080000f051fa84ed020a05f10c0000f0db
:102350004bfa84ed030a38bdfc01402024024020e2
:020000040000fa
:020000040040ba
:1023600038b5436813f4807f0446154611d00369dd
:102370009a4228bf1d465db12a46406900f0b0fa76
:10238000636922692b44521b2261002263611a7027
:0c23900038bddb06fcd400f0c9fbf9e707
:020000040000fa
:020000040040ba
:10239c0007b54a680346dbb2d20508468df807300c
:1023ac0007d54a69511c41611370184603b05df89a
:1023bc0004fb01220df1070100f0b2fb10b19df8f6
:0a23cc000700f3e74ff0ff30f0e7e1
:020000040000fa
:020000040040ba
:0223d60070474e
:020000040000fa
:020000040040ba
:1023d8000a4b1b788bb9094b60225a70084a5a601d
:1023e80002221a7201229a720921d9721a730021e3
:1023f80059729982034919611a7070478401402003
:08240800980240209d224000d3
:020000040000fa
:020000040040ba
:102410000a4b1b788bb9094b42225a70084a5a6002
:1024200012221a7201229a72ff21d9721a730021a4
:1024300059729982034919611a7070479c014020b2
:08244000fc01402021234000b3
:020000040000fa
:020000040040ba
:102448000a4b1b788bb9094b68225a70084a5a60a4
:1024580006221a7201229a723b21d9721a7300213c
:1024680059729982034919611a707047b401402062
:08247800100240200d18400085
:020000040000fa
:020000040040ba
:102480000a4b1b788bb9094b77225a70084a5a605d
:1024900002221a7201229a72f721d9721a7300214c
:1024a00059729982034919611a707047cc01402012
:0824b00094024020e1264000e7
:020000040000fa
:020000040040ba
:1024b8000a4b1b7883b9094b48225a70084a5a605c
:1024c80002221a7201229a720021d9721a73597261
:1024d8009982044919611a70704700bfe4014020cd
:0824e80090024020092740008a
:020000040000fa
:020000040040ba
:1024f00030b50c4a0146002012f810301bb902eb2f
:102500004002507830bd0c6825789d4209bf02eb2f
:102510004003431c5878013414bfd8b20c600a2819
:08252000ead9efe710294000a1
:020000040000fa
:020000040040ba
:1025280070b514460d4699b13ab1022805d8094b41
:102538002bb111462846aff30080204609e00e462d
:1025480016f8010b00f008f82b199e42f8d1f4e7b1
:08255800084670bd0000000000
:020000040000fa
:020000040040ba
:102560000a4b1b7843b10a2807d0094a536913f074
:10257000020ffbd0064bd8617047054a536913f030
:10258000020ffbd0024b0d22da61eee786004020fd
:042590000080024085
:020000040000fa
:020000040040ba
:1025940038b50a480a4d016821b9436813b900f0f7
:1025a40010f938bd0389426855f8233000f10c0452
:1025b4002046984704eb8000ede700bf1c0f400065
:0425c4006429400046
:020000040000fa
:020000040040ba
:1025c80010b500f087fa084b1b68c31a074a12882f
:1025d800934203d20020fff7d1f910bd044600f062
:1025e80057f9014b1c60f5e7700240202202402099
:020000040000fa
:020000040040ba
:1025f80010b500f06ffa084b1b68c31a074a128817
:10260800934203d20320fff7b9f910bd044600f046
:102618003ff9014b1c60f5e76c0240202202402084
:020000040000fa
:020000040040ba
:1026280008b5074b1b7853b9064b1b78002b064b94
:102638000cbf042286220549014800f0fef808bdb7
:102648006801402087004020110b40000000402016
:020000040000fa
:020000040040ba
:1026580053b94ab9002908bf00281cbf4ff0ff3101
:102668004ff0ff3000f084baadf1080c6de904ceec
:10267800fef7faf8ddf804e0dde9022304b070475c
:020000040000fa
:020000040040ba
:10268800084b02221a60084b06490a6a12f0010f29
:1026980007d1013bf9d1034b80221a6024221a602a
:0c26a8007047704700800140a0860100d0
:020000040000fa
:020000040040ba
:1026b400812903dc7f2903dc002070478329fbd1b7
:1026c4001368073323f0070303f108011160d3e90a
:0a26d4000023c0e900230120704735
:020000040000fa
:020000040040ba
:0226de00704743
:020000040000fa
:020000040040ba
:1026e00000b17047064b1a785b7843ea022307ee85
:1026f000903af8eee77a034bc3ed007af1e700bfba
:08270000940240207802402001
:020000040000fa
:020000040040ba
:1027080000b17047064b1a785b7843ea022307ee5c
:10271800903af8eee77a034bc3ed007af1e700bf91
:082728009002402074024020e1
:020000040000fa
:020000040040ba
:1027300010b5084c2368196800f034f8002807db4e
:1027400023680a20196800f0edf9c00f404210bd5f
:082750000120fbe7b802402064
:020000040000fa
:020000040040ba
:1027580070b502fb01f6144600290d4632460146c3
:10276800184608bf002400f0ddf9864218bfb0fb08
:06277800f5f4204670bddf
:020000040000fa
:020000040040ba
:02277e00fee774
:020000040000fa
:020000040040ba
:102780000fb407b5064b04aa1b6852f8041b18685f
:10279000019200f073f803b05df804eb04b07047e9
:0427a000b80240201b
:020000040000fa
:020000040040ba
:1027a40070b50e46054600f0a5f8334604460246c9
:1027b40001212846fff7ceff001b18bf4ff0ff3062
:0227c40070bde6
:020000040000fa
:020000040040ba
:0227c60070475a
:020000040000fa
:020000040040ba
:1027c800430810f001004fea003040ea0340034b91
:1027d800586001d001221a60704700bf0080014094
:020000040000fa
:020000040040ba
:1027e8000278002362f31f63427862f3174382780a
:1027f80062f30f23c27862f3070300ee103a7047c2
:020000040000fa
:020000040040ba
:1028080010b50023934206d113f0030018bf01202e
:0e28180000eb930010bdc45ccc540133f2e71a
:020000040000fa
:020000040040ba
:1028260008b500f0eef800f0f4f800f0faf800f061
:0c28360000f900f006f9fff7c4fc08bd33
:020000040000fa
:020000040040ba
:1028420010b404783cb9c160028200224282426123
:0c2852008361012303705df8044b7047a4
:020000040000fa
:020000040040ba
:02285e007047c1
:020000040000fa
:020000040040ba
:10286000054b586910f0e00f03d04ff480721a60e6
:0c2870009b6900f001007047004002402e
:020000040000fa
:020000040040ba
:10287c0013b50446019201aafdf75cfe636813f0e0
:0c288c00100f18bf4ff0ff3002b010bd5d
:020000040000fa
:020000040040ba
:1028980008b5fff79dfdfff7b7fdfff7d1fdfff77f
:0828a800ebfdfff705fe08bd82
:020000040000fa
:020000040040ba
:1028b000044b1a6b000440f48050586001221a60e7
:0828c000704700bf00800140d9
:020000040000fa
:020000040040ba
:1028c800494e4600696e66004e414e006e616e00cc
:0828d800286e696c290025003f
:020000040000fa
:020000040040ba
:1028e0004ab1431e84460a4411f8010b03f8010f54
:0828f0009142f9d160467047e6
:020000040000fa
:020000040040ba
:1028f80003783bb1034600bf13f8012f002afbd130
:08290800181a704718467047c9
:020000040000fa
:020000040040ba
:1029100068076c094c836a9074a07ac0008068884c
:0629200000846c820081be
:020000040000fa
:020000040040ba
:022926007047f8
:020000040000fa
:020000040040ba
:10292800034b1b6a13f0050f14bf012000207047ea
:0429380000800140da
:020000040000fa
:020000040040ba
:10293c00034b186a80f48070c0f30020704700bf0e
:04294c0000800140c6
:020000040000fa
:020000040040ba
:102950004ff0e02340f69f725a6100229a610722ed
:042960001a61704741
:020000040000fa
:020000040040ba
:10296400c729400009284000672b4000672b40001e
:04297400672b40008d
:020000040000fa
:020000040040ba
:1029780008b500f0cff8024b1860586008bd00bfda
:042988005802402091
:020000040000fa
:020000040040ba
:10298c0032b1c9b20244034603f8011b9a42fbd18f
:04299c00704700bfc1
:020000040000fa
:020000040040ba
:1029a000034600bf11f8012b184603f8012b002a3b
:0429b000f8d17047a3
:020000040000fa
:020000040040ba
:1029b40043782bb94160027243724361012343702f
:0229c40070475a
:020000040000fa
:020000040040ba
:1029c6000a440023914201d10020704701f8013bdf
:0229d600f8e720
:020000040000fa
:020000040040ba
:1029d800024b186ac0f38000704700bf00800140b6
:020000040000fa
:020000040040ba
:1029e800024b186ac0f34000704700bf00800140e6
:020000040000fa
:020000040040ba
:1029f800024b5869c0f34000704700bf00400240d6
:020000040000fa
:020000040040ba
:102a080008b50248fef766fb08bd00bf84014020f8
:020000040000fa
:020000040040ba
:102a180008b50248fef75efb08bd00bf9c014020d8
:020000040000fa
:020000040040ba
:102a280008b50248fef756fb08bd00bfb4014020b8
:020000040000fa
:020000040040ba
:102a380008b50248fef74efb08bd00bfcc01402098
:020000040000fa
:020000040040ba
:102a480008b50248fef746fb08bd00bfe401402078
:020000040000fa
:020000040040ba
:102a5800024a136801331360704700bf80024020a8
:020000040000fa
:020000040040ba
:102a680008b5fff785fffff75afffff758ff08bdc6
:020000040000fa
:020000040040ba
:0e2a7800a0f14103192b98bf40f020007047d9
:020000040000fa
:020000040040ba
:0e2a8600a0f16103192b98bf00f05f007047ac
:020000040000fa
:020000040040ba
:0c2a9400014b1a6b1b6a70470080014068
:020000040000fa
:020000040040ba
:0c2aa000014b5863704700bf00800140ec
:020000040000fa
:020000040040ba
:0c2aac00014b186bc0b270470080014065
:020000040000fa
:020000040040ba
:0c2ab800014b02221a60704700800140b0
:020000040000fa
:020000040040ba
:0c2ac400014bd861704700bf0040024089
:020000040000fa
:020000040040ba
:0c2ad000014b9869c0b270470040024002
:020000040000fa
:020000040040ba
:0c2adc00014b1868704700bf80024020ca
:020000040000fa
:020000040040ba
:0c2ae80010b50446fff758ff204610bd53
:020000040000fa
:020000040040ba
:0a2af40008b50120fef744ff08bdfd
:020000040000fa
:020000040040ba
:0a2afe0008b50220fef73fff08bdf7
:020000040000fa
:020000040040ba
:0a2b080008b50420fef73aff08bdef
:020000040000fa
:020000040040ba
:0a2b120008b50520fef735ff08bde9
:020000040000fa
:020000040040ba
:082b1c00004870479c024020b4
:020000040000fa
:020000040040ba
:082b240008b5fff739fc08bdfc
:020000040000fa
:020000040040ba
:062b2c000068fff7fbbc8e
:020000040000fa
:020000040040ba
:042b320001207047c7
:020000040000fa
:020000040040ba
:042b360001207047c3
:020000040000fa
:020000040040ba
:042b3a0001207047bf
:020000040000fa
:020000040040ba
:042b3e0001207047bb
:020000040000fa
:020000040040ba
:042b420001207047b7
:020000040000fa
:020000040040ba
:042b460001207047b3
:020000040000fa
:020000040040ba
:042b4a0001207047af
:020000040000fa
:020000040040ba
:042b4e0001207047ab
:020000040000fa
:020000040040ba
:042b520001207047a7
:020000040000fa
:020000040040ba
:042b560001207047a3
:020000040000fa
:020000040040ba
:042b5a00012070479f
:020000040000fa
:020000040040ba
:042b5e00012070479b
:020000040000fa
:020000040040ba
:042b62000120704797
:020000040000fa
:020000040040ba
:042b66000020704794
:020000040000fa
:020000040040ba
:042b6a000020704790
:020000040000fa
:020000040040ba
:042b6e00002070478c
:020000040000fa
:020000040040ba
:042b72000020704788
:020000040000fa
:020000040040ba
:042b7800704700bfe3
:00000001FF
