:020000040000fa
:020000040041b9
:10000000f8ff4520cd2941005b4241005b424100a1
:100010005b4241005b4241005b4241000000000046
:100020000000000000000000000000005b424100f2
:100030005b424100000000005b424100c9464100b4
:100040005b4241005b4241005b4241005b42410038
:100050005b4241005b4241005b4241005b42410028
:100060005b424100000000005b4241005b424100f6
:100070005b4241005b4241005b4241005b42410008
:100080005b4241005b4241005b4241005b424100f8
:100090005b4241005b4241005b4241005b424100e8
:1000a0005b4241005b4241005b4241005b424100d8
:1000b0005b4241005b4241005b4241005b424100c8
:1000c0005b4241005b4241005b4241005b424100b8
:1000d0005b4241005b4241005b4241005b424100a8
:1000e0005b4241005b4241005b4241005b42410098
:1000f0005b4241005b4241005b4241005b42410088
:100100005b4241005b4241005b4241005b42410077
:100110005b4241005b424100000000000000000023
:100120005b4241005b4241005b4241005b42410057
:100130005b4241005b424100000000005b42410025
:100140005b4241005b4241005b4241005b42410037
:100150005b4241005b4241005b4241005b42410027
:080160005b4241005b424100db
:020000040000fa
:020000040041b9
:10016800f8b500bff8bc08bc9e467047c13d4100c9
:10017800f8b500bff8bc08bc9e4670479d3d4100dd
:020000040000fa
:020000040041b9
:08018800cc1e00000100000084
:020000040000fa
:020000040041b9
:100190005b4f54415d20496e6963696f20646f2035
:1001a0006d6f646f204f5441000000005b4f54415d
:1001b0005d204552524f206e6f206572617365203d
:1001c00028616464723d3078256c58290a0000006b
:1001d0005b4f54415d2046696d20646120747261fb
:1001e0006e73666572656e6369613a20256c752071
:1001f00062797465732c204352433d307825303842
:100200006c582c2076256c750a0000005b4f544119
:100210005d204552524f206e6f20657261736520dc
:10022000646f20736563746f722064652066697201
:100230006d776172650000005b4f54415d2045524f
:10024000524f206e61206573637269746120646f20
:10025000207061636f7465207365713d25750a00b8
:100260005b4f54415d204552524f206e6f206572a6
:1002700061736520646f73206d6574616461646f80
:10028000730000005b4f54415d204d6574616461f3
:10029000646f73206772617661646f732e204120f2
:1002a0007265696e69636961722e2e2e000000000e
:1002b0005b4f54415d204552524f206e6120657363
:1002c000637269746120646f73206d657461646129
:1002d000646f73005b4f54415d2041626f727461c3
:1002e000646f20706f72206572726f2e20566f6c73
:1002f00074616e646f20616f206d6f646f20636f37
:100300006d756e69636163616f2e000062757320a5
:100310007265636f7665727920666f7220616464be
:10032000723d3078253032580a0000005b53504946
:100330005d204552524f523a2054582054696d6501
:100340006f757421000000005b5350495d204552d9
:10035000524f523a2052582054696d656f7574217e
:10036000000000005b5454435d2053796e63204fbe
:100370004b20e28094206120656e76696172205284
:100380004541445900000000726573756c74207417
:10039000746320256400000070617273653a203038
:1003a0007825303258203078253032582030782562
:1003b000303258203078253032580a00636d64316d
:1003c000000000005b5454435d2053544152545f7d
:1003d0004f544120726563656976656420e28094bc
:1003e0002073656e64696e672041434b0000000016
:1003f000636d643320e28094204f5441206d6f641c
:1004000065204f4646000000636d64350000000023
:1004100020202b3d3d3d3d3d3d3d3d3d3d3d3d3d58
:100420003d3d3d3d3d3d3d3d3d3d3d3d3d3d3d3dfc
:100430003d3d3d3d3d3d3d3d3d3d3d3d3d3d3d3dec
:100440003d3d3d3d3d3d3d2b0d00000020207c20ed
:1004500020202020202054455354455320554e49f8
:10046000544152494f532048494c20e28094204f38
:1004700042432043756265536174204953454c20c3
:1004800020202020207c0d000d0a20202d2d20472b
:100490007275706f20313a205379735469636b2001
:1004a0002d2d0d00543031205379735469636b2026
:1004b0006176616e6361000020205b504153535da3
:1004c00020252d3435730d0a00000000636f6e7413
:1004d00061646f72206e616f206176616e636f750b
:1004e00020656d203130206d7300000020205b46b8
:1004f00041494c5d20252d34357320202825732952
:100500000d0a0000543032205379735469636b2014
:10051000707265636973616f20313030206d7300d4
:100520006d656469646f3d256c75206d7300000016
:100530000d0a20202d2d20477275706f20323a2031
:1005400053656e736f726573202d2d0d00000000d2
:10055000543033204550532074656e73616f2065ad
:100560006d2072616e6765205b302e2e3130205613
:100570005d00000076616c6f7220666f72612064ae
:100580006f2072616e6765005430342045505320ef
:10059000636f7272656e746520656d2072616e673f
:1005a00065205b302e2e3520415d00005430352013
:1005b00054656d706572617475726120656d20722d
:1005c000616e6765205b2d35302e2e31303020670f
:1005d000726175735d00000054303620507265738f
:1005e00073616f20656d2072616e6765205b302ed0
:1005f0002e31313030206850615d00000d0a20201e
:100600002d2d20477275706f20333a20697353790e
:100610007374656d536166652829202d2d0d0000ca
:1006200054303720697353797374656d536166650f
:10063000282920636f6d2076616c6f726573206e60
:100640006f6d696e616973007265746f726e6f753c
:1006500020302028756e736166652900543038207b
:10066000697353797374656d5361666528292064d5
:10067000657465746120736f62726574656e736111
:100680006f0000007265746f726e6f7520312028e4
:100690007361666529206572726f6e65616d656e46
:1006a0007465000054303920697353797374656d33
:1006b00053616665282920646574657461207375cb
:1006c0006274656e73616f005431302069735379c1
:1006d0007374656d5361666528292064657465745b
:1006e0006120736f62726574656d70657261747597
:1006f0007261000054313120697353797374656df0
:10070000536166652829206465746574612062619f
:100710007465726961206261697861000d0a202048
:100720002d2d20477275706f20343a2046534d208e
:100730006765744d6f64652829202d2d0d0000001c
:100740005431322046534d206e6f6d696e616c20be
:1007500073656d20636f6d6d202d3e206e6f6d692a
:100760006e616c007472616e736963616f20696e93
:10077000657370657261646100000000543133205c
:1007800046534d206e6f6d696e616c202b20636f38
:100790006d6d5f77696e646f77202d3e20636f6d9e
:1007a0006d0000005431342046534d206e6f6d694a
:1007b0006e616c202b20756e73616665202d3e2066
:1007c00073616665000000005431352046534d20aa
:1007d000636f6d6d202b204f54415f52455155453d
:1007e00053544544202d3e206f746100543136200f
:1007f00046534d20636f6d6d2073656d2077696e74
:10080000646f77202d3e206e6f6d696e616c000005
:100810005431372046534d2073616665202b207379
:10082000697374656d61204f4b202d3e206e6f6d96
:10083000696e616c000000005431382046534d2031
:1008400073616665202b2062617465726961206343
:10085000726974696361202d3e20554c5000000080
:100860005431392046534d20554c50202b20626185
:100870007465726961204f4b202d3e20736166655f
:10088000000000005432302046534d206465636ff1
:100890006d6d697373696f6e696e672066696361f8
:1008a00020656d206465636f6d6d697373696f6e2c
:1008b000696e67000d0a20202d2d20477275706f1c
:1008c00020353a20415049204f5441205454432070
:1008d0002d2d0d00543231204f54412041504920dc
:1008e00073656d207061636f7465206e6f20617237
:1008f00072616e71756500007061636b65745f7223
:10090000656164793d312073656d206461646f7346
:1009100000000000543232204f5441204150492001
:10092000636c6561725f7265616479206170616793
:100930006120666c61670000666c6167207065729b
:100940006d616e6563652061203100005432332093
:100950004f544120415049207061796c6f6164208f
:10096000707472206e616f2065204e554c4c0000f3
:100970007265746f726e6f75204e554c4c0000009e
:100980000d0a20202d2d20477275706f20363a20d9
:100990004578744d656d6f7279206520466c61678e
:1009a00073202d2d0d000000543234204578744df5
:1009b000656d2049444c452061706f7320696e69f4
:1009c0007400000073746174757320213d204558d4
:1009d000545f4d454d5f49444c450000543235202d
:1009e000466c616773206465206d697373616f2065
:1009f000696e696369616d2061203000666c6167b2
:100a000020696e65737065726164616d656e746591
:100a100020213d203000000020207c2020526573e2
:100a2000756c7461646f3a202532752f25327520fc
:100a300074657374657320706173736172616d2086
:100a400020202020202020202020202020202020a6
:100a5000207c0d0a0000000020207c2020546f64c0
:100a60006f73206f73207465737465732070617386
:100a7000736172616d202020202020202020202002
:100a8000202020202020205b4f4b5d202020207c38
:100a90000d00000020207c20202532752074657315
:100aa00074652873292066616c686172616d20e24b
:100ab00080942076657269666963617220686172ec
:100ac0006477617265205b21215d2020207c0d0a06
:100ad000000000003d3d3d204f424320424f4f5417
:0d0ae000203d3d3d0d0000006f6c61610088
:020000040000fa
:020000040041b9
:100af0002de9f0478ab00023b54a1370b54a137048
:100b0000b54803f0e7fbb54c204603f0e3fbb448df
:100b100003f0e0fb204603f0ddfbb24803f0dafb14
:100b200003f066fe054603f063fe044603f060fe34
:100b3000031b092bfad903f05bfe854280f0a582e6
:100b4000a949aa4803f012fca14a13780133137093
:100b500003f04efe054603f04bfe044603f048fe4c
:100b6000031b632bfad903f043fe431ba3f15f027f
:100b70000a2a00f294829e499c4803f0f7fb944aab
:100b80001378013313709b4803f0a4fb03f0a0f922
:100b9000c82403f0a1fd013cfbd1974bd3ed007ab3
:100ba000f5eec07af1ee10fa07dbb2ee047af4ee5d
:100bb000c77af1ee10fa40f28182904a904991484a
:100bc00003f0d4fb834a1378013313708a4bd3edbf
:100bd000017af5eec07af1ee10fa07dbb1ee047a95
:100be000f4eec77af1ee10fa40f27182834a864938
:100bf000844803f0bbfb774a13780133137003f08a
:100c0000d7f9c82403f090fd013cfbd17f4bd3ed15
:100c1000007a9fed7f7af4eec77af1ee10fa07dbe7
:100c20009fed7c7af4eec77af1ee10fa40f258822a
:100c3000724a7949734803f099fb664a1378013385
:100c4000137003f099f9c82403f05efd013cfbd159
:100c5000724bd3ed007af5eec07af1ee10fa07dbb5
:100c60009fed6f7af4eec77af1ee10fa40f241820e
:100c7000624a6c49634803f079fb564a13780133a2
:100c80001370694803f026fb5b4cd4f800a0d4f83d
:100c900004905e4ed6f80080644d2f684ff081437b
:100ca00023604ff07f536360614b3360614b2b6077
:100cb00002f0b6fac4f800a0c4f80490c6f80080a8
:100cc0002f60012800f01e825b4a5c494d4803f00a
:100cd0004dfb404a137801331370474c2568584b3d
:100ce000236002f09dfa2560002840f06982554992
:100cf0003e4803f03bfb364a1378013313703e4cf9
:100d00002568514b236002f08bfa2560002840f0e3
:100d100061824e49354803f029fb2d4a137801338f
:100d200013703a4c25684a4b236002f079fa25602b
:100d3000002840f0598247492c4803f017fb244a09
:100d4000137801331370394c2568394b236002f056
:100d500067fa2560002840f051823f49234803f09c
:100d600005fb1b4a1378013313703c4803f0b2fab9
:100d70003b4c256803f0ecf90020206002f0f6f906
:100d80002560002840f044823649184803f0eefa06
:100d90000f4a137801331370314c256803f0d8f9ea
:100da00001232360002002f0e1f92560012800f012
:100db00039822d4a2d49134803f0d8fa054a137891
:100dc000013313700c4c2568294b2360002051e03f
:100dd0000105402000054020480441001004410066
:100de0004c04410088044100a4044100b8044100bf
:100df0000405410030054100ac0440207405410069
:100e000050054100ec04410088054100d804402011
:100e1000000048c20000c842ac054100dc0440208c
:100e200000808944d8054100fc054100240540208c
:100e30000000c8410000a0424806410020064100d1
:100e40000000e0405c06410066662640a4064100c2
:100e500000008242c8064100f40641001c07410020
:100e6000c404402040074100640741007c07410062
:100e70000000f040a84b186002f078f925600328c4
:100e800000f0d981a54aa649a64803f06ffaa64a00
:100e9000137801331370a54d2f689f4c266803f01b
:100ea00057f901202060286002f060f92f60266069
:100eb000022800f0c981994a9d499a4803f056fae0
:100ec000994a137801331370934d2f68974c266815
:100ed00003f03ef900232b602360012002f046f965
:100ee0002f602660002840f0b8819249924803f0b4
:100ef0003dfa924a137801331370914c256803f040
:100f000027f9904b2360032002f030f92560002878
:100f100040f0ad818c49884803f028fa874a13785d
:100f200001331370864d2f68884c2668884b2360e8
:100f3000884b2b60032002f019f92f6026600428eb
:100f400000f09f81754a8449764803f00ffa764a8b
:100f50001378013313707a4d2f68804c2668804bcc
:100f60002b6000232360042002f000f92f6026602c
:100f7000032800f08f81694a7a496a4803f0f6f93c
:100f8000694a137801331370052002f0eff8052841
:100f900000f08981614a7449624803f0e7f9624ac6
:100fa000137801331370714803f094f903f026fcb1
:100fb000002840f081816e495f4803f0d7f95f4a0d
:100fc00013780133137003f02bfc03f017fc002897
:100fd00040f07c816749584803f0c8f9574a1378b4
:100fe0000133137003f042fc002800f0798162495c
:100ff000514803f0bbf9514a1378013313705f482d
:1010000003f068f903f060fa03f010fc002840f0e8
:1010100071815b49484803f0a9f9484a13780133c4
:101020001370424b1b683c4a126813434b4a1268c8
:10103000134300f06981534a53493a4803f096f943
:10104000394a1378013313703c4e374d34782b787e
:101050001c44e4b24d4803f03df94d4803f03af921
:10106000224631784b4803f081f92978002940f075
:101070005481494803f02ef9454803f02bf94348c1
:1010800003f028f90ab0bde8f087444a44492548ee
:1010900003f06cf9244a13780133137058e5414a80
:1010a0002821684603f02cfa6a463f491d4803f0a0
:1010b0005df91d4a13780133137064e53b491e48fe
:1010c00003f054f91d4a1378013313707ee5384953
:1010d000194803f04bf9194a1378013313708ee560
:1010e0003449154803f042f9144a13780133137058
:1010f000a7e53149104803f039f9104a1378013354
:101100001370bee52d490c4803f030f90b4a1378f3
:1011100001331370e1e500bfc404402064074100bf
:10112000a4074100ec04410000054020c004402019
:10113000c8074100ec074100b80441000105402008
:10114000240540200000a04210084100ac044020cb
:101150000000f0400000104138084100bc0440206d
:10116000000070416008410084084100b40841005b
:10117000d4084100140941004c0941008009410094
:10118000a8094100fc094100dc0941004804410074
:1011900010044100180a4100580a4100cc044100e3
:1011a000a404410020054100040541005005410010
:1011b00088054100ac054100d805410020064100ea
:1011c000584a5949594803f0d1f8594a137801331c
:1011d000137094e5534a5749544803f0c7f8544aea
:1011e0001378013313709ce54e4a53494f4803f07e
:1011f000bdf84f4a137801331370a4e5494a4f49ab
:101200004a4803f0b3f84a4a137801331370ace547
:101210004b4a4c49454803f0a9f8454a1378013335
:101220001370b9e54849494803f0a0f8484a1378d3
:1012300001331370c6e54749444803f097f8444a20
:1012400013780133137026e64349404803f08ef8c3
:101250003f4a13780133137036e6394a3f49334821
:1012600003f084f8324a13780133137045e6344aa8
:101270003b492e4803f07af82d4a13780133137056
:1012800050e63849314803f071f8314a1378013398
:10129000137060e634492d4803f068f82c4a13783f
:1012a0000133137070e63149284803f05ff8284a8b
:1012b00013780133137076e62d4a2e491b4803f04c
:1012c00055f81b4a1378013313707ce62a4a2b49e0
:1012d000164803f04bf8164a13780133137081e671
:1012e000274a2849114803f041f8114a137801337d
:1012f000137084e6244a25490c4803f037f80c4a59
:101300001378013313708ce62149104803f02ef84e
:101310000f4a13780133137096e61e4803f026f83f
:10132000aae600bf840641005c064100ec044100cf
:1013300000054020a4064100c8064100f406410013
:1013400064074100400741007c074100b8044100a8
:1013500001054020a4074100c8074100ec074100f7
:10136000100841003808410060084100840841002d
:10137000f8084100d408410038094100140941002f
:10138000700941004c094100c4094100a80941000d
:08139000dc094100940a410050
:020000040000fa
:020000040041b9
:101398002de9f04f2ded0a8b92ed009b8fb0b5ee45
:1013a800c09b05938b680493f1ee10fa0b69cd6826
:1013b8000690d1e900a78b46089308d41af0040fc9
:1013c80034d11af00803039332d0202302e02d23ee
:1013d800b1ee499b2b70049b03f1ff390123039362
:1013e80019ee903a19ee101a23f00042c04b00246f
:1013f8009a4208bfa1421ed1059b0398413b192b75
:1014080094bfbc49bc49284403f012fa284603f0ab
:10141800a5f8049bcdf800a002462946069802f0dc
:1014280003f90fb0bdec0a8bbde8f08f2b23d1e791
:10143800ddf81090d4e78c42934108d2059b0398bd
:10144800413b192b94bfad49ad492844dce7b5eec3
:10145800409bf1ee10fab2ee04cbb7ee00ab40f0d1
:10146800c080059803f07cf9002fc0b2c0f26281f9
:10147800672840f0d580002f08bf0127231dc0f240
:10148800d180bc4280f2ce80002c4ff066080cda86
:10149800b8f1660f07f1010707d1002c02dab7eea1
:1014a80000ab0024672800d027440023b0ee4a8b05
:1014b800b0ee49bb8bee080b0993079001f0f4fde1
:1014c800099b90ee08bb01339f420798b1ee4bbbd6
:1014d80088ee0c8beed1b1ee047b28ee078bb4eed0
:1014e800cb8bf1ee10fa00f3a080b4ee4b8bf1ee4b
:1014f80010fa09d1bdeec00b9fed796b10ee103ad2
:1015080013f0010f06fe088b39ee088b2aee0c9bb0
:10151800b4eec89bf1ee10fa00f28a80b8f1660fbb
:1015280004f1010440f0868001372146cb1b0022dc
:10153800039f0a9316460a9b994240f0a5803346ba
:10154800002e00f0df80e8190022b8f1650f027064
:1015580029d1089b013b9442ea54bcbf6442012252
:101568004ff0020b4ff00a0e591e002c40f0d180ac
:10157800bbf1000f00f3cd80002a0cbf2b222d22d7
:101588006a54059a023b413a192a05eb030198bfb0
:101598004ff045089f4281f8008001da03f048f9ce
:1015a800cb44abf104090af00303022b7ff42eaffe
:1015b800b9f1000f7ff72aaf284602f0cfff05ebfd
:1015c8000903039a824240f3b18003984a463021c6
:1015d800284403f00df80023049317e70134b0ee14
:1015e80047ab2aee0c7bb4eec79bf1ee10faf5d5ab
:1015f8009fed3d7b00230be014f5967f05da23b9b8
:1016080029ee079b2aee07ab0123013c8aee0cabbf
:10161800b4eeca9bf1ee10faeed422e706272de7c6
:10162800804635e74ff065083fe79fed2d8b6be768
:10163800b0ee4a9bb8f1650f14bf2146002175e74b
:101648004eb9002907da079e2e23ab55012301372f
:1016580009f1ff391e46ab1805eb070c3b444ff068
:10166800300e01e00cf801eb9c45fbd1099b02eb25
:10167800070c3033a9eb020202f1ff3905f80c30f0
:101688000cf10107002223e0dbf810300797053b37
:10169800bb427ff654af88ee090bcde90c200b91c5
:1016a80001f002fdfdeec07bdde90b1217ee90cada
:1016b8006346092ba8bf092309930af0100353eacc
:1016c8000c0c0d98bcd16728bad10029b8da0132c0
:1016d80099ee008b0139b1ee488b89ee0c9b2ae715
:1016e800000000000000000000000000000050435f
:1016f8000000f07f34444100384441003c4441003c
:10170800404441001af0100f1ebf2e23eb5501373d
:1017180019e70b4694fbfefc0ceb8c01a4eb410192
:101728003031e95464460bf1ff3b1de72a5c1a543b
:10173800013846e767283ff471af80460627a7e6d9
:020000040000fa
:020000040041b9
:101748002de9f047aeb00746164605914ff0000860
:10175800059d2b78002b00f0e08000244ff0ff332c
:10176800cde909430eab0c9380230b940d932b5dad
:101778000bb1252b30d134b12946224638462544b1
:1017880002f066fb0595059b1a78252a40f0bc8077
:1017980003f10109cdf814904a46002113782b2b48
:1017a800104602f1010223d02ed8202b24d0232b5f
:1017b80026d001b105902a2b2ed002f083fa059a83
:1017c8000b900020114601320b78303b092b79d958
:1017d800002830d005912ee00134c8e7099b43f07a
:1017e800010309930121d9e7099b43f00203f8e7b4
:1017f800099b43f00403f4e7099b43f00803f0e76f
:10180800099b43f01003ece72d2be7d0302bebd0ee
:101818000029d2d00590d0e733681a1d1b683260c2
:101828000130002b05900b9305da099a5b4282f090
:10183800010209920b93099bda0744bf23f00203c4
:101848000993059b1a782e2a0fd14ff0000acdf87c
:1018580028a05a785d1c2a2a059535d102330593ac
:1018680033681a1d1b6832600a9305a802f0b8fb9a
:10187800059d0390287802f073ff2528039900f04e
:10188800da806138172800f2e080172800f2dd803e
:10189800dfe810f02b00db00b6004700a700a70028
:1018a800a700db004700db00db00db00db009e005d
:1018b80065008300db00db00c700db005600db00af
:1018c800db00740001207de7284602f0fbf953464f
:1018d8000a90294601350a78303a092a03d9002b9b
:1018e800c3d00591c1e70123f3e7324606a802f009
:1018f80087fc002872d06b1c059306aa2b7809a9cf
:10190800384602f0dbff04444444a04540f3a78076
:10191800544b4f221a604ff0ff3840462eb0bde8b6
:10192800f0873346012206a801f0fcfa002855d0ba
:10193800013506aa09a93846059501f0c3fce2e776
:101948003346002206a801f0edfa002846d00135fa
:1019580006aa09a93846059502f02cf8d3e73346bc
:10196800002206a801f0defa002837d0013506aac1
:1019780009a93846059502f09fffc4e733460022bf
:1019880006a801f0cffa48b36b1c05932b7806aa7a
:1019980009a9384601f0aaf8b5e733460022f02134
:1019a80006a801f0bffac8b1dde9063201351343d4
:1019b80005950bd12c4802f0d1fd099b00932a49cb
:1019c8000b9b0246384601f02ffe9ce77823dee7a2
:1019d800334608eb040206a801f0a0fe0135059580
:1019e80092e7324606a802f00bfc0028f6d06b1ce2
:1019f800059306aa2b7809a93846fff7c9fc82e7a0
:101a08008029ebd1336801351a1d1b6832608df8c7
:101a180018300595012306aa09a9384601f09eff4a
:101a280071e78029dad13268131d336001351268f5
:101a380005950023f0e78029d0d1099b0093013553
:101a48000b9b059509490122bce700234ff0ff32a3
:101a5800cdf8149009930b930a920093f2e7a046ed
:101a680076e600bff00440204b4441005144410059
:020000040000fa
:020000040041b9
:101a780010b5a84b1b780c2b00f27d81dfe813f022
:101a88000d007b012b005800c200de00f0007b0136
:101a98000a0124012f01440172019f4b1b68002b8e
:101aa80000f0da809d4802f011fc9d4b00221a607c
:101ab8009c4b9d4a1a604ff48072ff219b4802f0ac
:101ac80097fd4ff480109a4b186002f0ebfb914b96
:101ad80002221a70c0e002f0a5fed8b9944b1b6828
:101ae800b3f5801f07d0934a934240f2b580894be3
:101af80003221a70b0e08a4b1b68002b40f0ac80c0
:101b080089488b4b186002f0cdfb864b4ff481124d
:101b18001a60a1e002f086fe022840f09d80844b06
:101b28001968854802f01efc7a4b0c221a7093e063
:101b380002f060fe002800f08f8002f061fe7f4c0a
:101b4800208002f063fe7e4b188022884ff6ff73d8
:101b58009a4213d0734b186842f220031344b0eb37
:101b6800c31f41d8724b186000f580526d4b1a6044
:101b780002f098fb674b04221a706de002f072fec7
:101b88006a4c027843781b0443ea0263c278134321
:101b9800827843ea02236360027943791b0443eaab
:101ba8000263c2791343827943ea0223a360027a6b
:101bb800437a1b0443ea0263c27a1343827a43eaf4
:101bc8000223e36002f028fee368a26861685d48ca
:101bd80002f0c8fb4ff48010554b186002f062fb0e
:101be8004c4b08221a7037e002f03cfe0146544b79
:101bf8001a88554802f0a6fc02f00efe454b052255
:101c08001a7029e002f00efe68b902f02bfe0146b8
:101c18004b4b1a884c4802f095fc02f0fdfd3d4bf9
:101c280005221a7018e002f0fdfd022814d1474879
:101c380002f04cfb374b0c221a700de03f4b1b880f
:101c480042f2200018443e4b1a883f49c00101f077
:101c5800f1ff304b06221a70022001f083fa10bd02
:101c680002f0e0fd48b92e4a354b1b8811680b4439
:101c78001360284b03221a70eee702f0d3fd022806
:101c8800ead12e4b1988324802f06cfb214b0c220a
:101c98001a70e1e702f0c6fd58b924482d4b40f808
:101ca800103bf022ff2102f0a3fc1a4b09221a7004
:101cb800d2e702f0b7fd0228ced1274802f006fb92
:101cc800144b0c221a70c7e74ff4807217494ff46f
:101cd800801001f0afff0f4b0a221a70bce702f028
:101ce800a1fd30b91d4802f0f1fa0a4b0b221a7017
:101cf800b2e702f097fd0228aed1194802f0e6fae1
:101d0800044b0c221a70a7e7034b00221a6002f05a
:101d1800daf8a1e7fa044020c0044020900141000d
:101d2800d0044020cc0440200010100000004020c7
:101d3800c8044020ff0f1000ac01410052044020ad
:101d480086014020d0014100880140200c0241005a
:101d58003802410034cd12ab6002410084024100d8
:101d6800b00241000023064a1360064a1370064871
:101d780002f0acfa70e7034b00221a706ce700bf60
:0c1d8800c0044020fa044020d4024100b6
:020000040000fa
:020000040041b9
:101d94004c0340201c000000000000008804402088
:101da4000b000000000000000205402002000000bb
:101db4000100000010270000bc0440200c000000bb
:101dc4000000000093044020010000000000000017
:101dd40088014020800000000000000086014020af
:101de4000200000000000000520440200200000035
:101df40000000000c80440200400000000000000af
:101e0400000040200001000000000000cc0440203d
:101e14000800000000000000fa0440200100000057
:101e240000000000d4044020040000000000000072
:101e3400fb044020010000000000000024054020b5
:101e440004000000010000000000c8421804402003
:101e54001400000000000000880240205000000030
:101e640000000000ac044020080000000000000056
:101e7400d80440200800000000000000280340208f
:101e8400240000000000000068044020100000004e
:101e9400000000009d04402002000000000000003b
:101ea400e00440200400000000000000fc04402086
:101eb4000200000000000000a00340201800000001
:101ec4000000000040044020120000000000000058
:101ed400b803402018000000000000005404402013
:101ee4001200000000000000d00340201800000091
:101ef40000000000f8044020020000000000000080
:101f0400e803402018000000000000009404402072
:101f14000900000000000000a004402009000000a7
:101f2400000000002c044020140000000000000009
:101f3400f4044020020000000000000000044020df
:101f4400180000000000000008024020800000008b
:101f540000000000660440200200000000000000b1
:101f6400f604402002000000000000009f0440200e
:101f74000100000000000000a9044020030000004c
:101f840000000000fe0440200100000000000000ea
:101f9400e404402004000000000000007804402015
:101fa4001000000000000000000140208600000036
:101fb40000000000680340201c0000000000000036
:101fc400ff044020010000000000000084034020c2
:101fd4001c0000000000000000054020020000007a
:101fe40000000000e804402004000000000000009d
:101ff400d8024020500000000000000004054020ea
:1020040020000000010000000100000003000000a7
:1020140000000000000000000000000000000000bc
:1020240000000000b4044020b40440200800000074
:1020340000000000ec044020080000000000000044
:10204400000000000000000066666666666666665c
:020000040000fa
:020000040041b9
:102054002de9f04786468c460846089e1546744688
:102064001946002b40f0c2808242b2fa82f245d96e
:102074004ab1c2f1200300fa02fc2efa03f39540a0
:1020840043ea0c0c94404fea154ea8b2bcfbfef890
:10209400230c0efb18cc08fb00f943ea0c439945ca
:1020a40028d9eb1808f1ff3704d2994502d9a8f1d1
:1020b40002072b44a3eb0903a4b2b3fbfefc0efb03
:1020c4001c330cfb00f044ea0344a04214d92c193d
:1020d4000cf1ff3304d2a04202d9acf102032c4428
:1020e400241a43ea07401eb1d440002334607360cd
:1020f400bde8f0874746dde76346f1e792bb431b43
:1021040001214fea154eafb2b3fbfefc200c0efbcf
:102114001c330cfb07f840ea0343984562d9eb18db
:102124000cf1ff3004d2984502d9acf102002b44e3
:10213400a3eb0803a4b2b3fbfefc0efb1c330cfba5
:1021440007f744ea0344a7424ed92c190cf1ff3394
:1021540004d2a74202d9acf102032c44e41b43eaa3
:102164000040c0e7c2f1200320fa03f195409040fb
:102174002efa03f303434fea154eafb2b1fbfefc54
:102184000efb1c10190c0cfb07f841ea00418845b2
:1021940004fa02f422d969180cf1ff3004d28845fc
:1021a40002d9acf102002944a1eb08019bb2b1fbb6
:1021b400fefc0efb1c110cfb07f743ea01439f4294
:1021c4000ed9eb180cf1ff3104d29f4202d9acf1c5
:1021d40002012b44db1b41ea004192e76046e3e73e
:1021e4006146f7e76046a3e76346b7e7834206d94b
:1021f40016b9002108467be7c6e900e0f9e7b3fa1f
:1022040083f78fb9834201d3724508d8beeb020429
:1022140060eb030301209c461eb9002168e73846a1
:10222400fae7c6e9004cf8e7c7f1200cbb4022faf4
:102234000cf41c432efa0cf120fa0cf3b8400143c1
:102244004fea14490efa07f5b3fbf9f81ffa84feb6
:1022540009fb18300b0c08fb0efa43ea00439a45bd
:1022640002fa07f240d9e31808f1ff3004d29a4584
:1022740002d9a8f102002344a3eb0a0389b2b3fbf9
:10228400f9f809fb183308fb0efe41ea03418e45b9
:102294002cd9611808f1ff3304d28e4502d9a8f174
:1022a4000203214443ea0040a0fb0298a1eb0e0183
:1022b4004145ce46434602d306d14d4504d2b9eb3f
:1022c400020e68eb04030138002ea6d0b5eb0e0213
:1022d40061eb030101fa0cfc22fa07f34cea030355
:1022e400f940c6e9003198e74046c5e74346d9e7d7
:020000040000fa
:020000040041b9
:1022f40010b582b0044601468a4802f035f8012c34
:1023040006d0894b1b78002b00f0088102b010bd69
:10231400864b1b78002b57d0854b1a785b7843eaa1
:1023240002231bb2834a9342ebd1814b9978da782a
:1023340042ea012219795b7943ea01234ff6ff71de
:102344008a421ed07c490978b1b97c490a801c466e
:10235400802b28bf80247a4a148053b179497a4a61
:10236400002311f8010f02f8010b01339bb29c42c8
:10237400f7d8714b01221a70744b012283f84d2057
:10238400bfe70021694a1170704a82f84b1001219d
:1023940082f84d10694a4ff6ff7111801c46802b5c
:1023a40028bf8024664a148053b16649664a0023d4
:1023b40011f8010f02f8010b01339bb29c42f7d8cc
:1023c4005d4b01221a709ce7594ce3780093a37883
:1023d400627821785e4801f0c7ff23785b4a82f86f
:1023e4004c30202b00f2958001a252f823f000bf5c
:1023f400072341009f244100072541001725410080
:1024040017254100172541001725410017254100d4
:1024140017254100172541001725410017254100c4
:1024240017254100172541001725410017254100b4
:10243400af244100ed244100172541001725410038
:102444001725410017254100172541001725410094
:102454001725410017254100172541001725410084
:102464001725410017254100172541001725410074
:1024740079244100374b01221a602d4b5b7807ee1b
:10248400903af8ee677af2ee046a87eea67a2f4b5a
:1024940083ed117a00f0befb33e72f4801f018fffb
:1024a4002a4b012283f84d202be72c4801f010ff22
:1024b4000123284a13602a4a1360244a82f84b30c5
:1024c40082f84d30194a1370264910220a70ac2242
:1024d4004a704b228a700022ca70134a1370042275
:1024e400214802f0a5f80ce7204801f0f1fe002293
:1024f4001b4b1a60154b83f84b20012283f84d20a7
:10250400ffe61b4801f0e4fe104b012283f84d2046
:10251400f7e60e4b022283f84d20f2e601f0f2fac0
:10252400f4e600bf88034100fe044020ab044020d1
:102534000001402055aaffff9f044020f6044020dc
:102544006604402005014020080240208802402003
:1025540098034100c4044020bc034100c40341006b
:10256400c0044020e404402068034020f0034100fc
:042574000804410016
:020000040000fa
:020000040041b9
:1025780070b504460378013b082b73d8dfe803f0f5
:1025880005286b73405f959ac00001f0ffff002893
:1025980068d0624b1b78002b64d1604b01221a7003
:1025a80002f0ecf8237b43b16078400000f0fe00b5
:1025b80001f00cff0223237054e06378a07a0038fe
:1025c80018bf012040ea4300c0b201f0fffef1e766
:1025d80001f0e6ff50b100236372237b53b9a37a5d
:1025e800002b0cbf0323072323703be0204601f098
:1025f800fdfa37e0e07a02f0c7f80523237031e0ee
:1026080002f026f850b9a38a01339bb2a382b3f52e
:102618007a7f27d9204601f0e9fa23e00023a38234
:1026280001f0beff38b1607801f074ff0023237316
:102638000623237016e0204601f0d8fa12e001f0d4
:10264800afff20b100236372072323700ae02046fe
:1026580001f0ccfa06e0437a4268d05c02f094f8c4
:102668000423237070bd01f0f3ff50b9a38a01332e
:102678009bb2a382b3f57a7ff4d9204601f0b6fa6b
:10268800f0e70023a38201f08bff50b1637a013396
:10269800dbb26372227a9a4214bf032309232370a0
:1026a800e0e7204601f0a2fadce700f0b0fa0823e0
:1026b8002370d7e701f0d4ff50b9a38a01339bb246
:1026c800a382b3f57a7fcdd9204601f08ffac9e706
:1026d8000023a382657a666802f05cf87055637a15
:1026e8000133dbb26372227a9a4204d001f08df989
:1026f80007232370b6e702f053f809232370b1e7e4
:1027080001f052fd00232370a375044a1370236956
:10271800002ba7d000209847a4e700bf9d044020c5
:020000040000fa
:020000040041b9
:1027280010b504460378072b00f2a180dfe803f018
:102738000b040c224b647a93062001f0a5fe0023bb
:10274800a3820223237010bd01f044fd10f0020f94
:1027580004d00023a38203232370f4e7a37d01336d
:10276800dbb2a375022b4ff0010384bfe375072387
:102778002370e8e74378022b0dd0032b15d0012beb
:102788001cd1c2684168806801f06af9e368236176
:1027980004232370d7e7c2684168806801f088f98c
:1027a800e368236105232370cde78168202001f0c9
:1027b8001dfe062323700023a382c4e70223c375ea
:1027c80007230370bfe70269c3689a4207d300234f
:1027d80003708369002bb6d001209847b3e7838a3a
:1027e80001339bb2838241f287329342abd90323f0
:1027f800c37507230370a6e70269c3689a4204d326
:1028080000238382062303709de7838a01339bb2ea
:10281800838241f28732934295d90423c3750723f3
:10282800037090e701f0c2ff38b900232370a36951
:10283800002b88d00120984785e7a38a01339bb2f3
:10284800a38241f2873293427ff67daf0523e37579
:102858000723237077e783690bb10020984700238b
:102868002361e360a382a375637023706be7002381
:04287800037068e79a
:020000040000fa
:020000040041b9
:10287c0038b50025514c06e000f052fa0135edb2a6
:10288c00052d00f0968001f093fe2378002b46d0a6
:10289c006378002b47d0a378002b48d0e378002b2b
:1028ac0049d02379002b4ad06379002b4bd0a379e4
:1028bc00002b4cd0e379002b4dd0237a002b4ed03b
:1028cc00637a002b4fd0a37a002b50d02378002ba7
:1028dc00d2d06378002bcfd0a378002bccd0374b41
:1028ec00db78002bc8d0354b1b79002bc4d0334b75
:1028fc005b79002bc0d0314b9b79002bbcd02f4b7c
:10290c00db79002bb8d02d4b1b7a002bb4d02b4b82
:10291c005b7a002bb0d0294b9b7a83bbace700f0e1
:10292c00bffb2070b4e701f0eff96070b3e700f083
:10293c008bffa070b2e700f0e3ffe070b1e700f0ae
:10294c0053ff2071b0e701f09aff6071afe701f01f
:10295c0098ffa071aee701f09affe071ade701f0ce
:10296c0092ff2072ace701f090ff6072abe701f0d0
:10297c0072ffa072aae70135edb2052d1bd001f054
:10298c0090ff0028f7d001f084ff0028f3d001f06d
:10299c0082ff0028efd001f080ff0028ebd001f07f
:1029ac007eff0028e7d001f07eff0028e3d0012055
:1029bc0000e0002038bd0020fce700bf8804402068
:020000040000fa
:020000040041b9
:1029cc00414b03b19847414b03b19847eff3108348
:1029dc00b3fa83f35b09019372b6bff35f8f01996e
:1029ec004ff0e022d2f8883d43f47003c2f8883de2
:1029fc00bff34f8fbff36f8f11b1bff35f8f62b611
:102a0c00334b5b6913f4003f13d1bff34f8fbff30c
:102a1c006f8f2f4b0022c3f85022bff34f8fbff3a1
:102a2c006f8f5a6942f400325a61bff34f8fbff374
:102a3c006f8f274b5b6913f4803f2bd1244b002203
:102a4c00c3f88420bff34f8fd3f88030c3f3c9048d
:102a5c00c3f34e334fea431c43f6e07e1c480ceaaa
:102a6c000e01234641ea8372c0f86022013bb3f1a8
:102a7c00ff3ff7d1acf1200c1cf1200fefd1bff3cd
:102a8c004f8f134a536943f480335361bff34f8f15
:102a9c00bff36f8f00f040fd01f0f2fa0d4b23f005
:102aac007f030b4a93600c4b98470c4b03b1984730
:102abc000b4b03b198470021084601f0ddf8094b98
:102acc0003b19847fee700bf0000000000000000c3
:102adc0000ed00e000004100b138410000000000b2
:082aec000000000000000000e2
:020000040000fa
:020000040041b9
:102af4002de9f04f8bb00d460493d1e901132f68f3
:102b0400d5f80c9003900029a8bf27f0020792463d
:102b1400b8bf012117f010020592dae9006232d041
:102b240056ea02002fd0a3f1020b2c69029617f08b
:102b3400080004f1ff3418bf0bf1ff3b904600225c
:102b440009f8042006905a46012c1edc059a002a36
:102b540051d1069a1ab1013c202209f804202a69ad
:102b640003980097013a121b09eb040100f05efd83
:102b7400039b5b68db0503d56b689842b8bf1846b6
:102b84000bb0bde8f08f9b46cfe7029850ea0800ef
:102b940008d1a1eb0b001044002803dc002ad5dd8a
:102ba400b807d3d50298049e00f00f000928a6f1b7
:102bb400410cd4bf30305730bcf1190f04f1ff344d
:102bc4000ed840f0200cacf1610cbcf1190f07d801
:102bd400cde90813079201f0ccfddde90813079a4b
:102be40009f804000298060946ea0870013a0290be
:102bf4004fea1818a8e7dae900210a43a9d009eb3b
:102c04000402049902f8011c023c302209f8042051
:022c14009fe738
:020000040000fa
:020000040041b9
:022c1600704705
:020000040000fa
:020000040041b9
:102c180000b583b03a4a202313703a49d1ed007abf
:102c2800b2ee047a67ee877afceee77a17ee903a0e
:102c38005370d1ed017adfed346a67eea67afceec7
:102c4800e77a17ee903a93703049d1ed007abceeee
:102c5800e77a8ded017a9df80430d37007ee103acb
:102c6800b8eec77a77eec77a67eea67afceee77a0f
:102c780017ee903a1371d1ed017abceee77a8ded3b
:102c8800017a9df80430537107ee103ab8eec77a0e
:102c980077eec77a67eea67afceee77a17ee903af7
:102ca80093711b4bd3ed007afceee77a17ee903a5e
:102cb800c3f30721d1711372164bd3ed007afceee2
:102cc800e77a17ee903ac3f3072151729372124bc9
:102cd80093f84a30d37213460c32002013f8011bc4
:102ce80048409342fad1064908730c4b01221a70e6
:102cf8000d220b4801f09afc03b05df804fb00bffd
:102d080078044020ac0440200000c84268044020f9
:102d1800dc044020d804402088024020fe044020e3
:042d280068034020dc
:020000040000fa
:020000040041b9
:102d2c0030b486b03f4b80221a6003f5482318223a
:102d3c00c3f8002e1022c3f8102e0822c3f8142e4c
:102d4c00092019461025002442f20f72c1f8345e96
:102d5c000194019b934205dc019b01330193019b80
:102d6c009342f9ddc1f8305e0294029b934205dc7c
:102d7c00029b01330293029b9342f9ddd1f83c3e56
:102d8c0013f0080f01d10138e0d1274b0822c3f80a
:102d9c00102e1021c3f8341ec3f8342e00230393d5
:102dac00039a42f20f739a4206dc1a46039b0133d4
:102dbc000393039b9342f9dd1b4b1022c3f8302e77
:102dcc0000230493049a42f20f739a4206dc1a46cb
:102ddc00049b01330493049b9342f9dd124b0822ac
:102dec00c3f8302e00230593059a42f20f739a42d2
:102dfc0006dc1a46059b01330593059b9342f9ddce
:102e0c00094b1822c3f8042ea3f5482380221a601c
:102e1c0024221a601a6a49f69d521a6106b030bc17
:0c2e2c00704700bf0080014000000e4015
:020000040000fa
:020000040041b9
:102e380070b504460378013b052b09d8dfe803f099
:102e4800030914326167407801f070fb0223237094
:102e580070bd436833b1427b985c01f021fc0323c9
:102e68002370f5e7ff20f8e701f002fca8b9a37b7f
:102e78000133dbb2a373c82bead9284801f026fa3c
:102e8800607801f005fc0023a37323702369002bed
:102e9800ded04ff0ff309847dae70023a37304230e
:102ea8002370d5e701f0ecfba8b9a37b0133dbb2b3
:102eb800a373c82bccd91a4801f008fa607801f03e
:102ec800e7fb0023a37323702369002bc0d04ff0c6
:102ed800ff309847bce70023a373a56875b1667bec
:102ee80001f06afca855637b0133dbb26373227b74
:102ef8009a428cbf022305232370a9e701f05cfcea
:102f0800f1e7407801f0c4fb06232370a0e70369ca
:102f18000bb1002098470023237099e72c03410048
:042f28004803410019
:020000040000fa
:020000040041b9
:102f2c00902910b50fdc7f2913dd8039102910d8ba
:102f3c00dfe801f02b2b360f110f0f0f200f0f0fa7
:102f4c000f0f0f0f3600c02944d0f02942d0a02912
:102f5c0021d000200de019682ab10a1d1a60b1f9c0
:102f6c000030da1702e00c1d1c600b88c0e900323f
:102f7c00012010bd196822b10a1d1a6091f90030a8
:102f8c00efe70c1d1c600b78f0e71968f2b10a1d15
:102f9c001a600b68e5e71a68111d19601368e0e701
:102fac00196852b1073121f0070101f108021a60ca
:102fbc00d1e90023c0e90023dae7ca1d22f0070299
:102fcc0002f108011960d2e90023f3e70c1d1c6023
:102fdc000b68cbe71a68111d196013680360002396
:042fec004360c5e792
:020000040000fa
:020000040041b9
:102ff00000b170472a4b2b4a117807ee101ab8ee31
:10300000477adfed297ac7ee276ac3ed006a517867
:1030100007ee101ab8ee477ac7ee276ac3ed016ac9
:10302000917807ee101ab8ee477ac7ee276ac3ed1b
:10303000026ad17807ee101ab8ee477ac7ee276a0f
:10304000c3ed036a117907ee101ab8ee477ac7ee9e
:10305000276ac3ed046a517907ee101ab8ee477a71
:10306000c7ee276ac3ed056a917907ee101ab8ee2c
:10307000477ac7ee276ac3ed066ad17907ee101ac0
:10308000b8ee477ac7ee276ac3ed076a127a07eef1
:10309000102ab8ee477ac7ee276ac3ed086aa8e798
:0c30a00028034020540440200000c842d7
:020000040000fa
:020000040041b9
:0430ac000120704748
:020000040000fa
:020000040041b9
:1030b00053ec102bc3f30a512de9f04140f2fd709f
:1030c0004c1e84429e4640d8a1f2ff30002833dbdc
:1030d00033282ddc244c4ff0ff3cc0f12006154670
:1030e000a1f21f4104fa06f22cfa00fc4cea020c91
:1030f00024fa01f24cea020cc44003ea040805ea8f
:103100000c0757ea080725ea0c0223ea04030fd04c
:10311000002b0dda4ff4801404fa06f624fa01f1bc
:103120000e43b61824fa00f444eb03043246234657
:1031300043ec102bbde8f0819fed090bbfee007b47
:10314000002b20fe070bbde8f0810029f0d10a46d4
:1031500003f0004343ec102bece700bfaff300801b
:0c3160000000000000000000ffff0f0056
:020000040000fa
:020000040041b9
:10316c0010b5044600f056f8264bd3ed007a052c2a
:10317c003ad8dfe804f0050d171f2b03204610bdcd
:10318c00002833d0204b1868003818bf0120f6e710
:10319c0070b31e4b1b686bbb1b4b1868003818bff9
:1031ac000120ece740b3194b1b68002b14bf2046e1
:1031bc000120e4e7b2ee047af4eec77af1ee10faed
:1031cc001cd400280cbf20460020d8e7b2ee047aad
:1031dc00f4eec77af1ee10fa12d50d4b1b68002bea
:1031ec000cbf20460520cae70020c8e70320c6e72d
:1031fc000320c4e70220c2e70320c0e70420bee797
:10320c000320bce724054020c4044020c004402017
:04321c00bc0440208e
:020000040000fa
:020000040041b9
:10322000254bd3ed007ab1ee0a7af4eec77af1eecf
:1032300010fa34dc9fed217af4eec77af1ee10fa41
:103240002fd4d3ed017ab0ee007af4eec77af1ee26
:1032500010fa28dcb7ee007af4eec77af1ee10fa35
:1032600023d4174bd3ed007a9fed167af4eec77a8c
:10327000f1ee10fa1bdcbaee047af4eec77af1ee46
:1032800010fa16d4104b93ed007af3ee0e7ab4eeea
:10329000e77af1ee10fa54bf0120002070470020b9
:1032a00070470020704700207047002070470020c2
:1032b00070470020704700bfac044020666646405f
:0c32c000d804402000007042240540208b
:020000040000fa
:020000040041b9
:1032cc002de9f041d2e900230c4686b005465feab1
:1032dc00d378d1e901060968e76805913fd05242dd
:1032ec0063eb4303002808db21f002010591b8f1e0
:1032fc00000f02d10599480722d5711e05a802902e
:10330c000a20cde90010204600f0caf9b8f1000ff0
:10331c001ad001382d233b542269059b0093013aa6
:10332c003346121a3918284600f07cf96b68db0515
:10333c0003d563689842b8bf184606b0bde8f08163
:10334c000807dad43146d9e7059b590702d501386d
:10335c002b23e0e71a07dfd501382023dbe7002811
:04336c00c2dac7e713
:020000040000fa
:020000040041b9
:1033700010b501280fd1204b1b78032b38d8dfe87c
:1033800003f0020d17201d4b1b78aa2b14bf00233e
:103390000123194a137000f0b7fb10bd174b1b78bf
:1033a000552b14bf002301235b00134a1370f2e76f
:1033b000124b1b78aa2b14bf002203220e4b1a704b
:1033c000e9e70e4b1b78552b03d00b4b00221a70ec
:1033d000e1e70424084b1c70094800f07bff094b0f
:1033e00001221a7022460849084801f023f9d4e75f
:1033f000014b00221a70cee7aa044020a904402005
:1034000064034100fe044020b848410068034020a6
:020000040000fa
:020000040041b9
:1034100070b504460378012b0dd0022b2ed0002b63
:1034200036d101f043f8002831d000236382636174
:10343000012323702be001f039f850b9638a33b3cc
:10344000636901336361144a934220d902232370d4
:103450001de0658ae66801f0c5f97055638a01339d
:103460009bb2638200226261228a9a420fd80023b3
:103470002370a3695bb10120984708e083690bb111
:10348000002098470023638223826361237070bd0c
:0c34900000230370fbe700bf3f420f0069
:020000040000fa
:020000040041b9
:10349c0000b170471d4b03f10800002213f8011f07
:1034ac004a408342fad1194b5b7a9342f1d1184ac4
:1034bc00164b597811709878d97841ea002107eeab
:1034cc00901af8eee77adfed136a87eea67a82edb2
:1034dc00017a1879597941ea002107ee901af8ee31
:1034ec00e77ab2ee047ac7ee876ac2ed026a98797f
:1034fc00d97941ea002107ee901af8eee77ac7ee87
:10350c00876ac2ed036a1b7a1374c2e794044020e5
:08351c00180440200000c84221
:020000040000fa
:020000040041b9
:103524001a4b1b4a5a601a46936813f0010ffbd0da
:10353400164bdb6813f4c07f12d0144b154a5a6043
:103544001a46936813f0010ffbd0104b124a5a60cd
:103554001a46936813f0010ffbd0104b104a1a60ff
:10356400bff34f8fbff36f8f0e4bd3f8902222f02f
:103574000102c3f89022d3f8942222f00102c3f886
:103584009422bff34f8fbff36f8f7047000c0e4030
:103594000d00005a0c08005a0c07005a00180e407f
:0835a400010000a500ed00e0ac
:020000040000fa
:020000040041b9
:1035ac001c4b4ff40042c3f854281b49d1f814218a
:1035bc0042f01002c1f81421184a4ff49841c2f895
:1035cc0010164ff40011c2f8041ed2f8701e21f42c
:1035dc000011c2f8701ed2f8741e21f40011c2f84a
:1035ec00741e10225a601a6f42f010021a675a6f3a
:1035fc0042f010025a67a3f539230c221a604ff4db
:10360c000c625a604e221a6250221a60044b01223c
:10361c001a70704700100e400080084000000e40e9
:04362c009e04402098
:020000040000fa
:020000040041b9
:103630002de9ff471d460c9b13f0010806460f4677
:10364000144601d195420bd822463946304600f047
:1036500003fca54204d82546284604b0bde8f087ff
:10366000a5eb04094a46102a28bf102220216846eb
:10367000ca4600f0c1ff00bfbaf10f0f0ed809f023
:103680000f026946304600f0e7fbb8f1000fe3d1c6
:1036900022463946304600f0dffbdde7102269465e
:0c36a000304600f0d9fbaaf1100ae5e763
:020000040000fa
:020000040041b9
:1036ac002de9f84f0446dde90a9a6668d4f80c80d7
:1036bc0024690c9f013c1946002e4ff00003d7f8eb
:1036cc0000b008f804301046b8bf01264d4601235f
:1036dc00002c03dcdbb12046bde8f88f50ea010278
:1036ec0009d1a6eb09022a44002a04dc002df1dde5
:1036fc001bf0020feed052464feaea7300f03afd8f
:10370c00013c1346303208f80420013de0e73b68e9
:08371c0023f010033b60dee71f
:020000040000fa
:020000040041b9
:10372400902910b50fdc7f2911dd803910290ed8be
:10373400dfe801f00f0f250d170d0d0d1e0d0d0dfa
:103744000d0d0d0d2500a02903d0c02901d00020a6
:1037540006e019680c1d1c600b6803601a600120e8
:1037640010bd19680c1d1c600b6803601a80f6e715
:1037740019680c1d1c600b6803601a70efe7196868
:103784000c1d1c600b680360d117c3e90021e6e738
:020000040000fa
:020000040041b9
:1037940010b504464378012b05d0022b20d023b367
:1037a4000023437021e000f085ff40b963690133d1
:1037b40063610e4a934218d90223637015e0637a59
:1037c4006268d05c01f006f8637a0133dbb263729d
:1037d40000226261227a9a4207d80023637004e0cf
:1037e4000023437203724361437010bd3f420f00d4
:020000040000fa
:020000040041b9
:1037f400154b4ff42052c3f8102603f580530322cf
:103804005a601a6f22f003021a675a6f42f00302d9
:103814005a67a3f53d23ac221a604ff40c625a6038
:103824004e221a6250221a604ff480721a605b6949
:1038340013f0010f05d0054b9a695a6912f0010f74
:10384400fad10120704700bf00000e400040024042
:020000040000fa
:020000040041b9
:10385400154b4ff40412c3f8102603f580534ff4ac
:10386400e002c3f80424d3f8702442f4e002c3f85d
:103874007024d3f8742422f4e002c3f874244ff0c3
:103884000072c3f80024c3f81024c3f83024a3f54d
:10389400592380221a6011225a604ff47f421a631e
:0c38a40001201860704700bf00000e40bb
:020000040000fa
:020000040041b9
:1038b0000e4a38b5002313600d4a0e4c13600e4ab1
:1038c0000e4d13600e4a13600e4a13600e4a536287
:1038d00013610123936000f03fff00f0d8fdac427c
:1038e00000d338bd54f8043b9847f8e7ec04402077
:1038f000e402402074014100e002402078014100d0
:0c390000d8024020dc024020e8024020f9
:020000040000fa
:020000040041b9
:10390c00134b4ff40062c3f800274ff41e32c3f878
:10391c00042ed3f8702e22f41e32c3f8702ed3f876
:10392c00742e22f41e32c3f8742ea3f5c823802201
:10393c001a60084a5a604ff400721a6201221a6027
:10394c001a46136913f0807ffbd00120704700bf2b
:08395c0000000e401100000103
:020000040000fa
:020000040041b9
:103964002de9ff41134ed1f80080b788adf80c70f3
:1039740005463068029002acb0798df80e00002a3a
:1039840018bf1446d1e901671a461bb9204600f056
:10399400e7fd0246002e02dbb24228bf3246cdf8d4
:1039a40000803b4621462846fff740fe04b0bde8b0
:0839b400f08100bf4444410012
:020000040000fa
:020000040041b9
:1039bc00f0b50c46d1e9011687b0236805930029b0
:1039cc00a4bf23f00203059305abe76802930a2317
:1039dc00cde900630546d2e900232046fff760fedf
:1039ec002269059b0093013a3346121a391828466e
:1039fc00fff718fe6b68db0503d563689842b8bf08
:063a0c00184607b0f0bdf2
:020000040000fa
:020000040041b9
:023a12007047fb
:020000040000fa
:020000040041b9
:103a140008b5134b1b78052b08d8dfe803f003081f
:103a24000d12171c00f04afb0d4b187008bd00f076
:103a340007ff0b4b1870f9e7fef71cf8084b1870da
:103a4400f4e700f053fb064b1870efe700f0fdfebf
:103a5400034b1870eae700f0fdfe014b1870e5e730
:043a64009304402067
:020000040000fa
:020000040041b9
:103a680010b4104b18630b245c630f4c9c639b6b66
:103a780062b194464b1e8c440cf1ff3c401a0b4932
:103a88000144ca5c03f8012f6345fad1054b4ff096
:103a980080721a601a46136913f4806ffbd05df8c0
:103aa800044b704700c00740b010080001000080b8
:020000040000fa
:020000040041b9
:103ab80010b4114b186302245c6343f2b0049c6396
:103ac8009b6b6ab194464b1e8c440cf1ff3c421a26
:103ad8000a481044c21813f8011f11706345f9d140
:103ae800054b4ff080721a601a46136913f4806f01
:103af800fbd05df8044b704700c007400100008010
:020000040000fa
:020000040041b9
:103b080008b50c4b1b786bb90b4b1a78042a0ad1f1
:103b18000a4b1b78002b0a4b18bf86220949054817
:103b280000f0a3fc08bd084b01220849014800f039
:103b38009cfcf7e768034020aa044020ab0440201f
:103b4800f52241000001402071334100a9044020c2
:020000040000fa
:020000040041b9
:103b580010b54ff0ff3c88b00c4611461a464ff49a
:103b68008173cde901c300b96846cde9030454b1b6
:103b7800631e002c059308da084b4f221a604ff099
:103b8800ff3008b010bd2346f3e70023cde9060057
:103b9800037001a800f0a2fcf3e700bff004402086
:020000040000fa
:020000040041b9
:103ba8000e4b1b78cbb900b583b00d4a01231370b7
:103bb800002353709370d370137153719371d37141
:103bc8001372084b019309230093074b19210348eb
:103bd80000f090fb03b05df804fb70472c04402014
:0c3be800a00440209d34410094044020c3
:020000040000fa
:020000040041b9
:103bf40010b5044600f0dafa00232370a382a37df3
:103c04000133dbb2a375022b08d8094b00221a70ca
:103c1400236913b14ff0ff30984710bd6178054810
:103c240000f0a2fbfff780f80023a375ede700bfc7
:083c34009d0440200c03410037
:020000040000fa
:020000040041b9
:103c3c000e4b1b78c3b9531eff2b03d90b4b02221f
:103c4c001a70704700b583b0084b4ff0010c83f825
:103c5c0000c0074b009313460a460146054800f086
:103c6c00e2fa03b05df804fb704700bfff0440208c
:083c7c00d14541008403402002
:020000040000fa
:020000040041b9
:103c840038b5fff791fc0e4800f022fbfef7f4fd77
:103c940090b1fcf72bfffff735ff0a242546284691
:103ca40000f050fd013cfad1064800f05dfb00f045
:103cb40049fbfff7adfefae700f007f9e9e700bfbb
:083cc400d40a4100e80a4100a6
:020000040000fa
:020000040041b9
:103ccc000278202a034600f10100f9d0a2f1090183
:103cdc000429f5d92b2a06d02d2a13d10121013321
:103cec00013b002006e00021f9e700bf00eb80005b
:103cfc00c2eb400013f8012f303a092af6d901b96a
:083d0c00404270470021ebe783
:020000040000fa
:020000040041b9
:103d14000f4b4ff40022c3f810261822c3f8042ec8
:103d2400d3f8702e22f01802c3f8702ed3f8742e34
:103d340022f01802c3f8742ea3f5482380221a60d7
:103d440024221a601a6a49f69d521a6101207047aa
:043d540000000e401d
:020000040000fa
:020000040041b9
:103d580000b170470c4b0d4a117807ee901af8ee37
:103d6800677af2ee046a87eea67a83ed007a5278d3
:103d780007ee902af8ee677adfed056a87eea67af5
:103d880083ed017ae5e700bfac044020fc04402045
:043d98000000c8421d
:020000040000fa
:020000040041b9
:103d9c0010b5054c237833b9044b13b10448aff379
:103dac0000800123237010bd4c0340200000000054
:103dbc000000000008b5034b1bb103490348aff3e7
:103dcc00008008bd000000005003402000000000ef
:020000040000fa
:020000040041b9
:103ddc0000b1704738b50c4d284600f015fb0b4c64
:103dec0084ed000a281d00f00ffb84ed010a05f19b
:103dfc00080000f009fb84ed020a05f10c0000f04c
:103e0c0003fb84ed030a38bd4004402068044020c5
:020000040000fa
:020000040041b9
:103e1c0010b50c4c2046fff7b7fc2046fff7f2fa22
:103e2c00094b1b783bb163782bb9237a013b627a3f
:103e3c00dbb29a4200d810bd034b00221a70fff778
:0c3e4c005dfef8e768034020fe04402003
:020000040000fa
:020000040041b9
:103e580038b5436813f4807f0446154611d00369ca
:103e68009a4228bf1d465db12a46406900f06afba8
:103e7800636922692b44521b2261002263611a7014
:0c3e880038bddb06fcd400f0f9fcf9e7c3
:020000040000fa
:020000040041b9
:103e940007b54a680346dbb2d20508468df80730f9
:103ea40007d54a69511c41611370184603b05df887
:103eb40004fb01220df1070100f0e2fc10b19df8b2
:0a3ec4000700f3e74ff0ff30f0e7ce
:020000040000fa
:020000040041b9
:023ece0070473b
:020000040000fa
:020000040041b9
:103ed0000a4b1b788bb9094b60225a70084a5a600a
:103ee00002221a7201229a720921d9721a730021d0
:103ef00059729982034919611a707047a0034020d2
:083f0000fc044020593d410082
:020000040000fa
:020000040041b9
:103f08000a4b1b788bb9094b42225a70084a5a60ef
:103f180012221a7201229a72ff21d9721a73002191
:103f280059729982034919611a707047b803402081
:083f380040044020dd3d410082
:020000040000fa
:020000040041b9
:103f40000a4b1b788bb9094b68225a70084a5a6091
:103f500006221a7201229a723b21d9721a73002129
:103f600059729982034919611a707047d003402031
:083f700054044020f12f410030
:020000040000fa
:020000040041b9
:103f78000a4b1b788bb9094b77225a70084a5a604a
:103f880002221a7201229a72f721d9721a73002139
:103f980059729982034919611a707047e8034020e1
:083fa800f80440205d424100d5
:020000040000fa
:020000040041b9
:103fb0000a4b1b7883b9094b48225a70084a5a6049
:103fc00002221a7201229a720021d9721a7359724e
:103fd0009982044919611a70704700bf000440209b
:083fe000f40440208542410079
:020000040000fa
:020000040041b9
:103fe80030b50c4a0146002012f810301bb902eb1c
:103ff8004002507830bd0c6825789d4209bf02eb1d
:104008004003431c5878013414bfd8b20c600a2806
:08401800ead9efe77c45410005
:020000040000fa
:020000040041b9
:1040200070b514460d4699b13ab1022805d8094b2e
:104030002bb111462846aff30080204609e00e461a
:1040400016f8010b00f008f82b199e42f8d1f4e79e
:08405000084670bd00000000ed
:020000040000fa
:020000040041b9
:104058000a4b1b7843b10a2807d0094a536913f061
:10406800020ffbd0064bd8617047054a536913f01d
:10407800020ffbd0024b0d22da61eee79e044020ce
:044088000080024072
:020000040000fa
:020000040041b9
:10408c0038b50a480a4d016821b9436813b900f0e4
:10409c009af938bd0389426855f8233000f10c04b5
:1040ac002046984704eb8000ede700bf941d4100cb
:0440bc00e445410096
:020000040000fa
:020000040041b9
:1040c00010b500f095fb084b1b68c31a074a12880d
:1040d000934203d20020fff749f810bd044600f0d8
:1040e0001ff8014b1c60f5e7d40440200205402076
:020000040000fa
:020000040041b9
:1040f00010b500f07dfb084b1b68c31a074a1288f5
:10410000934203d20320fff731f810bd044600f0bc
:1041100007f8014b1c60f5e7d4044020020540205d
:020000040000fa
:020000040041b9
:1041200008b50a4b1b782bb1fff73efd0022074b69
:104130001a7008bdfff7ccfefff7e6fefff700ffa1
:10414000fff71afffff734ff0122f0e7fb044020de
:020000040000fa
:020000040041b9
:10415000064b4ff081421a604ff07f525a60044b79
:10416000044a1a60044b054a1a607047ac044020a8
:10417000d80440200000c841240540200000a0428f
:020000040000fa
:020000040041b9
:1041800053b94ab9002908bf00281cbf4ff0ff31be
:104190004ff0ff3000f098bbadf1080c6de904ce94
:1041a000fdf758ffddf804e0dde9022304b07047b5
:020000040000fa
:020000040041b9
:1041b000084b02221a60084b06490a6a12f0010fe6
:1041c00007d1013bf9d1034b80221a6024221a60e7
:0c41d0007047704700800140a08601008d
:020000040000fa
:020000040041b9
:1041dc00094b05225a6390229a639a6b4ff0004266
:1041ec001078c0b24ff080721a601a46136913f43b
:0c41fc00806ffbd0704700bf00c0074080
:020000040000fa
:020000040041b9
:10420800812903dc7f2903dc002070478329fbd147
:104218001368073323f0070303f108011160d3e99a
:0a4228000023c0e9002301207047c5
:020000040000fa
:020000040041b9
:1042320010b404786cb90224447081604260c36097
:104242000023036183828375c375019b836101230c
:0842520003705df8044b704796
:020000040000fa
:020000040041b9
:02425a00fee77d
:020000040000fa
:020000040041b9
:10425c0000b17047064b1a785b7843ea022307eeed
:10426c00903af8eee77a034bc3ed007af1e700bf22
:08427c00f8044020dc0440209e
:020000040000fa
:020000040041b9
:1042840000b17047064b1a785b7843ea022307eec5
:10429400903af8eee77a034bc3ed007af1e700bffa
:0842a400f4044020d80440207e
:020000040000fa
:020000040041b9
:1042ac0008b5064b1b7803b108bd044b01221a70ec
:1042bc00034a0146034800f076f8f5e7ff04402076
:0842cc00d145410084034020ac
:020000040000fa
:020000040041b9
:1042d40010b5084c2368196800f058f8002807db6b
:1042e40023680a20196800f0c7fac00f404210bdc5
:0842f4000120fbe7200540203a
:020000040000fa
:020000040041b9
:1042fc0010b4047864b94170426083609df8043056
:10430c000373002343738373029b036101230370c4
:06431c005df8044b704740
:020000040000fa
:020000040041b9
:1043220070b502fb01f6144600290d4632460146dd
:10433200184608bf002400f0a4fa864218bfb0fb5a
:06434200f5f4204670bdf9
:020000040000fa
:020000040041b9
:1043480008b500f0c5f900f0cbf900f0d1f900f09c
:10435800d7f900f0e5f9fff75dfd00f0d9f900f0b5
:04436800e7f908bdac
:020000040000fa
:020000040041b9
:10436c000fb407b5064b04aa1b6852f8041b186857
:10437c00019200f0b1f803b05df804eb04b07047a3
:04438c0020054020a8
:020000040000fa
:020000040041b9
:1043900070b50e46054600f0e5f833460446024681
:1043a00001212846fff7bdff001b18bf4ff0ff306b
:0243b00070bdde
:020000040000fa
:020000040041b9
:1043b200037863b903234370816000234360c360c1
:1043c200036183828375c375826101230370704721
:020000040000fa
:020000040041b9
:0243d200704732
:020000040000fa
:020000040041b9
:1043d400430810f001004fea003040ea0340034b69
:1043e400586001d001221a60704700bf008001406c
:020000040000fa
:020000040041b9
:1043f400064b1963586342f230029a639b6b034a7b
:10440400136913f4806ffbd0704700bf00c00740ee
:020000040000fa
:020000040041b9
:104414000278002362f31f63427862f317438278c1
:1044240062f30f23c27862f3070300ee103a704779
:020000040000fa
:020000040041b9
:10443400494e4600696e66004e414e006e616e0044
:0f444400286e756c6c2900286e696c29002500a4
:020000040000fa
:020000040041b9
:1044540010b50023934206d113f0030018bf0120c6
:0e44640000eb930010bdc45ccc540133f2e7b2
:020000040000fa
:020000040041b9
:1044720010b404783cb9c1600282002242824261d7
:0c4482008361012303705df8044b704758
:020000040000fa
:020000040041b9
:02448e00704775
:020000040000fa
:020000040041b9
:10449000054b586310229a639b6b034a136913f40c
:0c44a000806ffbd0704700bf00c00740d9
:020000040000fa
:020000040041b9
:1044ac00054b586910f0e00f03d04ff480721a607e
:0c44bc009b6900f00100704700400240c6
:020000040000fa
:020000040041b9
:1044c80008b5fff71ffa034a002313705370024a16
:0c44d800137008bd84034020ff04402046
:020000040000fa
:020000040041b9
:1044e40013b50446019201aafdf72cf9636813f091
:0c44f400100f18bf4ff0ff3002b010bdd9
:020000040000fa
:020000040041b9
:104500000cb407b504ab53f8042b0193fff724fb5d
:0a45100003b05df804eb02b0704741
:020000040000fa
:020000040041b9
:02451a007047e8
:020000040000fa
:020000040041b9
:10451c00044b1a6b000440f48050586001221a605e
:08452c00704700bf0080014050
:020000040000fa
:020000040041b9
:1045340008b500f049f9034b4ff00072c3f8342476
:0845440008bd00bf00100e408d
:020000040000fa
:020000040041b9
:10454c004ab1431e84460a4411f8010b03f8010fcb
:08455c009142f9d1604670475d
:020000040000fa
:020000040041b9
:1045640003783bb1034600bf13f8012f002afbd1a7
:08457400181a70471846704741
:020000040000fa
:020000040041b9
:10457c0068076c094c836a9074a07ac000806888c4
:06458c0000846c82008136
:020000040000fa
:020000040041b9
:10459400034b1b6a13f0050f14bf01200020704762
:0445a4000080014052
:020000040000fa
:020000040041b9
:1045a800034b186a80f48070c0f30020704700bf86
:0445b800008001403e
:020000040000fa
:020000040041b9
:1045bc004ff0e02340f69f725a6100229a61072265
:0445cc001a617047b9
:020000040000fa
:020000040041b9
:1045d000013818bf01204000014b1870704700bf20
:0445e000ff04402074
:020000040000fa
:020000040041b9
:1045e4004746410055444100bd484100bd48410093
:0445f400bd4841007d
:020000040000fa
:020000040041b9
:1045f80032b1c9b20244034603f8011b9a42fbd107
:04460800704700bf38
:020000040000fa
:020000040041b9
:10460c0008b500f031f9024b1860586008bd00bfc6
:04461c00b404402082
:020000040000fa
:020000040041b9
:10462000034600bf11f8012b184603f8012b002a9e
:04463000f8d1704706
:020000040000fa
:020000040041b9
:1046340043782bb941600272437243610123437092
:024644007047bd
:020000040000fa
:020000040041b9
:104646000a440023914201d10020704701f8013b42
:02465600f8e783
:020000040000fa
:020000040041b9
:10465800024b186ac0f38000704700bf0080014019
:020000040000fa
:020000040041b9
:10466800024b186ac0f34000704700bf0080014049
:020000040000fa
:020000040041b9
:10467800024b1869c0f34000704700bf008000403b
:020000040000fa
:020000040041b9
:10468800024b186900f00100704700bf008000402d
:020000040000fa
:020000040041b9
:10469800024b4ff00072c3f83024704700100e40f0
:020000040000fa
:020000040041b9
:1046a80040f46020014bd860704700bf0080004094
:020000040000fa
:020000040041b9
:1046b800024b5869c0f34000704700bf00400240f9
:020000040000fa
:020000040041b9
:1046c800024a136801331360704700bfe0044020ba
:020000040000fa
:020000040041b9
:1046d80008b50248fdf74cff08bd00bfa003402005
:020000040000fa
:020000040041b9
:1046e80008b50248fdf744ff08bd00bfb8034020e5
:020000040000fa
:020000040041b9
:1046f80008b50248fdf73cff08bd00bfd0034020c5
:020000040000fa
:020000040041b9
:1047080008b50248fdf734ff08bd00bfe8034020a4
:020000040000fa
:020000040041b9
:1047180008b50248fef78cfb08bd00bf2c044020fa
:020000040000fa
:020000040041b9
:1047280008b50248fdf724ff08bd00bf000440207b
:020000040000fa
:020000040041b9
:1047380008b50248fdf7f4ff08bd00bf8403402018
:020000040000fa
:020000040041b9
:10474800024b1b68196800f095b800bf200540208f
:020000040000fa
:020000040041b9
:1047580008b5fff757fffff7dcfefff7dafe08bde5
:020000040000fa
:020000040041b9
:0e476800a0f14103192b98bf40f020007047cc
:020000040000fa
:020000040041b9
:0e477600a0f16103192b98bf00f05f0070479f
:020000040000fa
:020000040041b9
:0c478400014b1a6b1b6a7047008001405b
:020000040000fa
:020000040041b9
:0c479000014b5863704700bf00800140df
:020000040000fa
:020000040041b9
:0c479c00014b186bc0b270470080014058
:020000040000fa
:020000040041b9
:0c47a800014b02221a60704700800140a3
:020000040000fa
:020000040041b9
:0c47b40008b5fff711fd00f0010008bd82
:020000040000fa
:020000040041b9
:0c47c000014b9868c0b2704700800040b8
:020000040000fa
:020000040041b9
:0c47cc00014b1a699b6870470080004098
:020000040000fa
:020000040041b9
:0c47d800014bd861704700bf0040024058
:020000040000fa
:020000040041b9
:0c47e400014b9869c0b2704700400240d1
:020000040000fa
:020000040041b9
:0c47f000014b1868704700bfe004402037
:020000040000fa
:020000040041b9
:0c47fc00014b1878704700bf9f0440205c
:020000040000fa
:020000040041b9
:0c480800014b1888704700bff6044020e8
:020000040000fa
:020000040041b9
:0c481400014b1888704700bf660440206c
:020000040000fa
:020000040041b9
:0c482000014b00221a7070479f044020da
:020000040000fa
:020000040041b9
:0c482c00014b1878704700bfff044020cb
:020000040000fa
:020000040041b9
:0c48380010b50446fff7f0fe204610bd4e
:020000040000fa
:020000040041b9
:0a48440008b50120fef790fc08bd46
:020000040000fa
:020000040041b9
:0a484e0008b50420fef78bfc08bd3e
:020000040000fa
:020000040041b9
:0a48580008b50520fef786fc08bd38
:020000040000fa
:020000040041b9
:0848620008b5fff730fe08bda8
:020000040000fa
:020000040041b9
:08486c000048704708024020db
:020000040000fa
:020000040041b9
:084874000048704704054020d4
:020000040000fa
:020000040041b9
:08487c0008b5fff709fb08bdb8
:020000040000fa
:020000040041b9
:064884000068fff7cbbb4a
:020000040000fa
:020000040041b9
:04488a000120704752
:020000040000fa
:020000040041b9
:04488e00012070474e
:020000040000fa
:020000040041b9
:04489200012070474a
:020000040000fa
:020000040041b9
:044896000120704746
:020000040000fa
:020000040041b9
:04489a000120704742
:020000040000fa
:020000040041b9
:04489e00012070473e
:020000040000fa
:020000040041b9
:0448a200012070473a
:020000040000fa
:020000040041b9
:0448a6000120704736
:020000040000fa
:020000040041b9
:0448aa000120704732
:020000040000fa
:020000040041b9
:0448ae00012070472e
:020000040000fa
:020000040041b9
:0448b200012070472a
:020000040000fa
:020000040041b9
:0448b80055aa55aafe
:020000040000fa
:020000040041b9
:0448bc000020704721
:020000040000fa
:020000040041b9
:0448c000002070471d
:020000040000fa
:020000040041b9
:0448c4000020704719
:020000040000fa
:020000040041b9
:0448c800704700bf76
:00000001FF
