:020000040000fa
:020000040042b8
:10000000f8ff452031274200ab414200ab4142009e
:10001000ab414200ab414200ab4142000000000056
:10002000000000000000000000000000ab414200a2
:10003000ab41420000000000ab414200f9494200e0
:10004000ab414200ab414200ab414200ab414200f8
:10005000ab414200ab414200ab414200ab414200e8
:10006000ab41420000000000ab414200ab41420006
:10007000ab414200093a4200ab414200ab41420071
:10008000ab414200ab414200ab414200ab414200b8
:10009000ab414200ab414200ab414200ab414200a8
:1000a000ab414200ab414200ab414200ab41420098
:1000b000ab414200ab414200ab414200ab41420088
:1000c000ab414200ab414200ab414200ab41420078
:1000d000ab414200ab414200ab414200ab41420068
:1000e000ab414200ab414200ab414200ab41420058
:1000f000ab414200ab414200ab414200ab41420048
:10010000ab414200ab414200ab414200ab41420037
:10011000ab414200ab414200000000000000000083
:10012000ab414200ab41420081454200ab4142003d
:10013000ab414200ab41420000000000ab41420035
:10014000ab414200ab414200ab414200ab414200f7
:10015000ab414200ab414200ab414200ab414200e7
:08016000ab414200ab4142003b
:020000040000fa
:020000040042b8
:10016800f8b500bff8bc08bc9e467047a53f4200e2
:10017800f8b500bff8bc08bc9e467047813f4200f6
:020000040000fa
:020000040042b8
:08018800681b000001000000eb
:020000040000fa
:020000040042b8
:10019000627573207265636f7665727920666f721f
:1001a00020616464723d3078253032580a000000c6
:1001b0000d0a5b51535049204452495645525d2027
:1001c00046534d2061626f72746f752120657272a3
:1001d0006f725f636f6465203d2025750a00000023
:1001e0005b5350495d204552524f523a205458209b
:1001f00054696d656f757421000000005b535049b0
:100200005d204552524f523a2052582054696d6534
:100210006f757421000000007072657373757265ec
:1002200020646f6e65207374617475733a20256461
:100230000000000066696e616c2074656d703a2084
:10024000256600005b5454435d2053796e6320742f
:10025000696d656f757420282575206279746573e2
:100260002920e28094206d6f646f206e6f726d6143
:100270006c206469726563746f0a00005b545443b8
:100280005d2053796e63204f4b20e28094206120e3
:10029000656e766961722052454144590000000044
:1002a0005b4f54412052585d2073796e6320696e14
:1002b00076616c69646f3a20307825303458202894
:1002c000657370657261646f203078253034582909
:1002d0000a0000005b4f54412052585d20454e44b7
:1002e000206d61726b657220e280942073697a657b
:1002f0003d256c75206372633d30782530386c582d
:100300000a0000005b4f54412052585d20706b740e
:10031000207365713d2575206c656e3d25752072d5
:10032000656164793d25750a000000005b4f54410a
:100330002052585d2044726f70207365713d2575a1
:100340002028466c6173682062757379290a000061
:10035000726573756c7420747463202564000000ea
:1003600070617273653a20307825303258203078c9
:1003700025303258203078253032582030782530da
:1003800032580a00636d6431000000005b5454432e
:100390005d2053544152545f4f5441207265636550
:1003a0006269646f20e280942061207072657061e0
:1003b000726172206d656d6f7269612e2e2e000064
:1003c000636d643320e28094204f5441206d6f644c
:1003d00065204f4646000000636d64350000000054
:1003e0000d0a2020202020202d3e205b4445425530
:1003f000475d2054494d454f555421205374617435
:1004000075732052656720626c6f71756561646fea
:1004100020656d3a203078253032582000000000e9
:1004200020205b54325d20457363726974612070d3
:10043000616472616f20307841352f30783541200a
:100440002e2e2e200000000054494d454f555420bb
:100450005b4641494c5d0d000d0a20205b54325d26
:10046000202020627974655b256c755d3a20657388
:10047000637269746f3d307825303258206c69643e
:100480006f3d307825303258000000004f4b205b24
:10049000504153535d0d00000d0a20205b54325d26
:1004a00020256c75206572726f73205b4641494c44
:1004b0005d0d0a0020205b54335d20457261736539
:1004c0002054494d454f5554205b4641494c5d0de4
:1004d0000000000020205b54335d20457363726987
:1004e000746120636f6e7461646f72203078303095
:1004f0002e2e30784646202e2e2e20000d0a20204b
:100500005b54335d202020627974655b256c755dda
:100510003a206573637269746f3d307825303258c4
:10052000206c69646f3d307825303258000000003f
:100530000d0a20205b54335d20256c752065727296
:100540006f73205b4641494c5d0d0a000d000000b1
:1005500020202b2d2d2d2d2d2d2d2d2d2d2d2d2de7
:100560002d2d2d2d2d2d2d2d2d2d2d2d2d2d2d2dbb
:100570002d2d2d2d2d2d2d2d2d2d2d2d2d2d2d2dab
:100580002d2d2d2d2d2b0d0020207c20205445536a
:10059000544520515350493a20533235464c31315d
:1005a000364b20e28094204c454954555241202f2f
:1005b0002045534352495441202020202020207cb4
:1005c0000d00000020207c2020536563746f722092
:1005d00064652074657374653a2030782530366c14
:1005e0005820202872656769616f206c6f677329d6
:1005f00020202020202020207c0d0a0020205b5479
:10060000315d20457261736520736563746f72207c
:1006100030782530366c58202e2e2e200000000019
:10062000627974655b256c755d3d30782530325894
:1006300020213d2030784646205b4641494c5d0de7
:100640000a00000020207c2020526573756c7461c4
:10065000646f3a2025752f25752074657374657352
:1006600020706173736172616d2020202020202032
:1006700020202020202020207c0d0a0020207c200b
:100680002051535049204f4b20e2809420666c61ea
:100690007368206f7065726163696f6e616c202092
:1006a000202020202020202020205b504153535d1b
:1006b00020207c0d0000000020207c202046414ca2
:1006c000484120656d202575207465737465287315
:1006d0002920e280942076657269666963617220e0
:1006e00068772020205b4641494c5d20207c0d0a24
:1006f000000000000a203d3d3d204f424320424f74
:100700004f54203d3d3d2046572076332e39310051
:1007100077652061726520746865206368616d701b
:10072000696f6e7361736461736461736461736430
:100730006173647364616461730000000a2062691c
:10074000672077696e6e65723f2020666f72207237
:1007500065616c000a206269672077696e6e657258
:100760003f20666f72207265616c00005b4f5441e0
:100770005d206669726d776172655f73697a652065
:10078000696e76616c69646f2028256c752920e29a
:10079000809420612061626f727461720a000000af
:1007a0005b4f54415d2046575b305d3a2025303227
:1007b00058202530325820253032582025303258e4
:1007c000202530325820253032582025303258200c
:1007d000253032580a0000005b4f54415d204657d7
:1007e0005b3132385d3a202530325820253032587e
:1007f00020253032582025303258202530325820dc
:1008000025303258202530325820253032580a0001
:100810005b44454255475d204120636f6d706172b6
:100820006172206f73207072696d6569726f7320d9
:100830003420627974657320646f20636f6d707506
:10084000746564204352433a2025303258202530c5
:100850003258202530325820253032580a00000006
:100860005b4f54415d20466c6173685b3078253086
:10087000356c585d3a2025303258202530325820ca
:100880002530325820253032580a00005b4f544141
:100890005d20435243204f4b202830782530386c60
:1008a000582920e280942061206573637265766523
:1008b00072206d6574616461646f730a00000000ea
:1008c0005b4f54415d204552524f206e6f20657240
:1008d00061736520646f73206d6574616461646f1a
:1008e000730000005b4f54415d205352313d30781e
:1008f0002530325820e280942061206c696d70614f
:10090000722077726974652d70726f746563746993
:100910006f6e2e2e2e0a00005b4f54415d20535205
:10092000312061706f7320575253523d307825301b
:10093000325820e2809420496e6963696f204f54d9
:10094000410a00005b4f54415d20496e6963696f45
:1009500020e280942061206170616761722073657c
:1009600063746f72206465206d6574616461746185
:10097000000000005b4f54415d20574149545f45e2
:10098000524153452023256c7520616464723d30cb
:1009900078256c58207374617475733d25640a0062
:1009a0005b4f54415d204d657461646174612061e9
:1009b00070616761646120e28094206120617061f0
:1009c00067617220736563746f7220667720307878
:1009d000256c580a000000005b4f54415d204572b1
:1009e000617365206e616f20636f6e6669726d6101
:1009f000646f20616464723d3078256c58207661a4
:100a00006c3d30782530325820e28094206120619e
:100a1000677561726461720a000000005b4f5441a7
:100a20005d204572617365204f4b20636f6e666970
:100a3000726d61646f20e28094206120616775614e
:100a400072646172207061636f74657300000000ee
:100a50005b4f54415d204552524f206e6f206572ae
:100a60006173652028616464723d3078256c582973
:100a70000a0000005b4f54415d20574149545f50cc
:100a80004b5420e280942072656164793d25642096
:100a900062797465735f7772697474656e3d256cf5
:100aa000750a00005b4f54415d2046696d2064610a
:100ab000207472616e73666572656e6369613a2057
:100ac000256c752062797465732c204352433d3048
:100ad000782530386c582c2076256c750a0000007b
:100ae0005b4f54415d20417669736f3a20506163da
:100af0006f74652066616e7461736d6120286c652a
:100b00006e3d30292069676e6f7261646f2e000040
:100b10005b4f54415d204552524f206e6f206572ed
:100b200061736520646f20736563746f7220646500
:100b3000206669726d776172650000005b4f5441f9
:100b40005d204552524f206e612065736372697457
:100b50006120646f207061636f7465207365713dff
:100b600025750a005b4f54415d204d6574616461d9
:100b7000646f73206772617661646f732e20412009
:100b80007265696e69636961722e2e2e0000000025
:100b90005b4f54415d204552524f206e612065737a
:100ba000637269746120646f73206d657461646140
:100bb000646f73005b4f54415d2041626f727461da
:100bc000646f20706f72206572726f2e20566f6c8a
:100bd00074616e646f20616f206d6f646f20636f4e
:0b0be0006d756e69636163616f2e002c
:020000040000fa
:020000040042b8
:100bec0010b582b003f028fda44b1b780c2b00f23f
:100bfc00e581dfe813f00d00e3013e00a8003101b0
:100c0c0082019501e301af01b201bd01d201d8010e
:100c1c009b4b1b68002b00f07e8103f0a1ff00288a
:100c2c0040f0798103f044fa0146964803f028fd20
:100c3c0002f0aefe03f03cfa0146934803f020fdaf
:100c4c00924803f0bffc924b00221a60914b924adf
:100c5c001a604ff48072ff21904803f05ffe4ff44e
:100c6c0080108f4b186003f099fc844b02221a7091
:100c7c0051e103f075ff04468a4b196841b18a4a69
:100c8c00a2fb0132120b41f2883303fb12122ab978
:100c9c002346834a1268854803f0f2fc814a1368a4
:100cac0001331360002c42d1134600221a607c4b96
:100cbc001868b0f5801f11d07d4b984240f22b8103
:100ccc00012201a902f0fcfe9df80420ff2a25d088
:100cdc00734b1968774803f0d3fc1ce16c4b1b6811
:100cec00002b40f018816c49734803f0c9fc0023b9
:100cfc000193019a714b9a4206dc1a46019b01330f
:100d0c000193019b9342f9dd6348654b186003f036
:100d1c0045fc604b4ff481121a60fce0684803f00c
:100d2c0051fc03f005f9554b03221a70f3e0022c29
:100d3c0040f0f1805a4b1968624803f0a1fc4f4b0c
:100d4c000c221a70e7e0604b1b6801335b4a93423c
:100d5c002cd85d4a136003f0ebfe002800f0db801a
:100d6c00594b00221a6003f0e9fe584c208003f026
:100d7c00ebfe574b188022884ff6ff739a4221d016
:100d8c00002855d0434b186842f220031344b0ebb3
:100d9c00c31f53d8424b186000f580523d4b1a606c
:100dac0003f0fcfb354b04221a70b4e0464b0022d6
:100dbc001a6003f0bdfe0146354b1a68454803f036
:100dcc005ffcc8e703f0e2fe344c027843781b0466
:100ddc0043ea0263c2781343827843ea02236360d6
:100dec00027943791b0443ea0263c2791343827983
:100dfc0043ea0223a360027a437a1b0443ea0263a8
:100e0c00c27a1343827a43ea0223e36003f0a2fe20
:100e1c00e368a2686168304803f032fc4ff480103c
:100e2c001f4b186003f0bafb144b08221a7072e0c7
:100e3c002a4803f0c7fb03f08dfe6ce003f0a6fe1e
:100e4c000146234b1a88264803f008fd03f082fe66
:100e5c000a4b05221a705ee003f082fe002841d195
:100e6c0003f094fe01461a4b1a881d4803f0f6fc59
:100e7c0003f070fe014b05221a704ce00f06402067
:100e8c00c0054020e4084200180942004409420011
:100e9c00e0054020e4054020001010000001402037
:100eac00e8054020dc0540205917b7d174094200f1
:100ebc00ff0f1000d8094200a00942009f860100d4
:100ecc001c0a4200500a4200d8054020aa054020c6
:100edc009e054020740a4200a40a4200e00a420027
:100eec000803402003f03cfe022814d1354803f0df
:100efc0069fb354b0c221a700de0344b1b8842f207
:100f0c0020001844324b1a883249c00102f084ff89
:100f1c002d4b06221a70022001f0a6ff02b010bd64
:100f2c0003f01efe48b92c4a294b1b8811680b4450
:100f3c001360254b03221a70ede703f011fe022813
:100f4c00e9d1224b1988254803f09afb1e4b0c2241
:100f5c001a70e0e701f016f8dde74ff480722049d3
:100f6c004ff4801002f058ff174b0a221a70d2e788
:100f7c0003f0f6fd30b91b4803f024fb124b0b2297
:100f8c001a70c8e703f0ecfd0228c4d1164803f030
:100f9c0019fb0d4b0c221a70bde7144b00221a6082
:100fac0003f050fcb7e70023104a1360064a137095
:100fbc0003f006fc0e4803f005fbace7024b0022e5
:100fcc001a70a8e7100b42000f064020aa0540201b
:100fdc009e05402008034020e00540203c0b4200c9
:100fec0000014020640b4200900b4200c0054020e1
:040ffc00b40b4200f0
:020000040000fa
:020000040042b8
:101000002de9f04f2ded0a8b92ed009b8fb0b5eee0
:10101000c09b05938b680493f1ee10fa0b69cd68c1
:101020000690d1e900a78b46089308d41af0040f64
:1010300034d11af00803039332d0202302e02d2389
:10104000b1ee499b2b70049b03f1ff3901230393fd
:1010500019ee903a19ee101a23f00042c04b00240a
:101060009a4208bfa1421ed1059b0398413b192b10
:1010700094bfbc49bc49284403f07efd284603f0d8
:10108000fffb049bcdf800a002462946069802f01b
:101090009bfb0fb0bdec0a8bbde8f08f2b23d1e793
:1010a000ddf81090d4e78c42934108d2059b039859
:1010b000413b192b94bfad49ad492844dce7b5ee5f
:1010c000409bf1ee10fab2ee04cbb7ee00ab40f06d
:1010d000c080059803f0eefc002fc0b2c0f2628120
:1010e000672840f0d580002f08bf0127231dc0f2dc
:1010f000d180bc4280f2ce80002c4ff066080cda22
:10110000b8f1660f07f1010707d1002c02dab7ee3c
:1011100000ab0024672800d027440023b0ee4a8ba0
:10112000b0ee49bb8bee080b0993079002f0a8f8cc
:10113000099b90ee08bb01339f420798b1ee4bbb71
:1011400088ee0c8beed1b1ee047b28ee078bb4ee6b
:10115000cb8bf1ee10fa00f3a080b4ee4b8bf1eee6
:1011600010fa09d1bdeec00b9fed796b10ee103a6d
:1011700013f0010f06fe088b39ee088b2aee0c9b4c
:10118000b4eec89bf1ee10fa00f28a80b8f1660f57
:1011900004f1010440f0868001372146cb1b002278
:1011a000039f0a9316460a9b994240f0a580334656
:1011b000002e00f0df80e8190022b8f1650f027000
:1011c00029d1089b013b9442ea54bcbf64420122ee
:1011d0004ff0020b4ff00a0e591e002c40f0d18048
:1011e000bbf1000f00f3cd80002a0cbf2b222d2273
:1011f0006a54059a023b413a192a05eb030198bf4c
:101200004ff045089f4281f8008001da03f0b4fcfa
:10121000cb44abf104090af00303022b7ff42eaf99
:10122000b9f1000f7ff72aaf284603f029fb05eb41
:101230000903039a824240f3b18003984a46302161
:10124000284403f071fb0023049317e70134b0ee48
:1012500047ab2aee0c7bb4eec79bf1ee10faf5d546
:101260009fed3d7b00230be014f5967f05da23b953
:1012700029ee079b2aee07ab0123013c8aee0cab5b
:10128000b4eeca9bf1ee10faeed422e706272de762
:10129000804635e74ff065083fe79fed2d8b6be704
:1012a000b0ee4a9bb8f1650f14bf2146002175e7e7
:1012b0004eb9002907da079e2e23ab5501230137cb
:1012c00009f1ff391e46ab1805eb070c3b444ff004
:1012d000300e01e00cf801eb9c45fbd1099b02ebc1
:1012e000070c3033a9eb020202f1ff3905f80c308c
:1012f0000cf10107002223e0dbf810300797053bd3
:10130000bb427ff654af88ee090bcde90c200b9160
:1013100001f0b6fffdeec07bdde90b1217ee90cabf
:101320006346092ba8bf092309930af0100353ea67
:101330000c0c0d98bcd16728bad10029b8da01325b
:1013400099ee008b0139b1ee488b89ee0c9b2ae7b0
:1013500000000000000000000000000000005043fa
:101360000000f07f54474200584742005c4742006b
:10137000604742001af0100f1ebf2e23eb550137b5
:1013800019e70b4694fbfefc0ceb8c01a4eb41012e
:101390003031e95464460bf1ff3b1de72a5c1a54d7
:1013a000013846e767283ff471af80460627a7e675
:020000040000fa
:020000040042b8
:1013b0002de9f047aeb00746164605914ff00008fc
:1013c000059d2b78002b00f0e08000244ff0ff33c8
:1013d000cde909430eab0c9380230b940d932b5d49
:1013e0000bb1252b30d134b129462246384625444d
:1013f00002f0a0fe0595059b1a78252a40f0bc80d6
:1014000003f10109cdf814904a46002113782b2be3
:10141000104602f1010223d02ed8202b24d0232bfa
:1014200026d001b105902a2b2ed002f01ffd059a7f
:101430000b900020114601320b78303b092b79d9f3
:10144000002830d005912ee00134c8e7099b43f015
:10145000010309930121d9e7099b43f00203f8e74f
:10146000099b43f00403f4e7099b43f00803f0e70a
:10147000099b43f01003ece72d2be7d0302bebd08a
:101480000029d2d00590d0e733681a1d1b6832605e
:101490000130002b05900b9305da099a5b4282f02c
:1014a000010209920b93099bda0744bf23f0020360
:1014b0000993059b1a782e2a0fd14ff0000acdf818
:1014c00028a05a785d1c2a2a059535d10233059348
:1014d00033681a1d1b6832600a9305a802f02affc0
:1014e000059d0390287803f0e5fa2528039900f07c
:1014f000da806138172800f2e080172800f2dd80da
:10150000dfe810f02b00db00b6004700a700a700c3
:10151000a700db004700db00db00db00db009e00f8
:1015200065008300db00db00c700db005600db004a
:10153000db00740001207de7284602f097fc53464b
:101540000a90294601350a78303a092a03d9002b36
:10155000c3d00591c1e70123f3e7324606a802f0a4
:10156000e5ff002872d06b1c059306aa2b7809a909
:10157000384603f03dfb04444444a04540f3a780b3
:10158000544b4f221a604ff0ff3840462eb0bde852
:10159000f0873346012206a801f0b0fd002855d09f
:1015a000013506aa09a93846059501f01dffe2e7b5
:1015b0003346002206a801f0a1fd002846d00135df
:1015c00006aa09a93846059502f062fbd3e733461f
:1015d000002206a801f092fd002837d0013506aaa6
:1015e00009a93846059503f001fbc4e733460022fc
:1015f00006a801f083fd48b36b1c05932b7806aa5f
:1016000009a9384601f028f9b5e733460022f02150
:1016100006a801f073fdc8b1dde9063201351343b8
:1016200005950bd12c4803f02bf9099b00932a490f
:101630000b9b0246384602f0c7f89ce77823dee7aa
:10164000334608eb040206a802f070f9013505954f
:1016500092e7324606a802f069ff0028f6d06b1c1c
:10166000059306aa2b7809a93846fff7c9fc82e73b
:101670008029ebd1336801351a1d1b6832608df863
:1016800018300595012306aa09a9384602f0d4fab4
:1016900071e78029dad13268131d33600135126891
:1016a00005950023f0e78029d0d1099b00930135ef
:1016b0000b9b059509490122bce700234ff0ff323f
:1016c000cdf8149009930b930a920093f2e7a04689
:1016d00076e600bff80540206b47420071474200a4
:020000040000fa
:020000040042b8
:1016e000f0b583b0012806d0a94b1b78002b00f081
:1016f0004b8103b0f0bda74b1b78002b00f0a180fd
:10170000a54b1a78597841ea02214af655239942a5
:1017100038d1a14b9a78dd7845ea02251a795e79ad
:1017200046ea02264ff6ff739d4246d03446802e8d
:1017300028bf8024994f3b7822462946984802f0da
:10174000a5ff3b78002b77d1964b1d80964b1c80d4
:1017500056b19649964a002311f8010f02f8010b81
:1017600001339bb29c42f7d88c4b01221a70284659
:1017700002f018fe8f4b012283f84d208e4b002281
:101780001a70b1e71a468d4802f080ff854b1b881e
:1017900001338b494e220a70c3f307224a70dbb231
:1017a0008b705a4082f04e02ca70794b01221a7037
:1017b0000422844803f0d6f8e0e7774b997ada7a86
:1017c000120442ea0162597b0a43187b9c79d97959
:1017d000090441ea04615c7a21431b7a42ea00224f
:1017e00041ea0321784802f051ff0022694b1a7048
:1017f000704b83f84b20012283f84d20694b4ff644
:10180000ff721a803446802e28bf8024664b1c80cd
:1018100056b16649664a002311f8010f02f8010b20
:1018200001339bb29c42f7d85c4b01221a704ff6f1
:10183000ff7002f0b7fda1e72946644802f026ffd9
:1018400098e70121624802f021ff534ce3780093ae
:10185000a378627821785f4802f018ff2378202b64
:1018600000f28d8001a252f823f000bfe916420079
:10187000171942006f1942007f1942007f19420078
:101880007f1942007f1942007f1942007f194200f0
:101890007f1942007f1942007f1942007f194200e0
:1018a0007f1942007f1942007f1942002719420028
:1018b0004d1942007f1942007f1942007f194200f2
:1018c0007f1942007f1942007f1942007f194200b0
:1018d0007f1942007f1942007f1942007f194200a0
:1018e0007f1942007f1942007f194200f11842001f
:1018f000394b01221a60284b5b7807ee903af8eedc
:10190000677af2ee046a87eea67a2a4b83ed117aa3
:1019100001f034f8e8e6314802f05afe254b012286
:1019200083f84d20e0e602f051ff1e4b00221a80a2
:101930002b4802f04dfe0123274a1360294a136009
:101940001c4a82f84b3082f84d30cde6264802f032
:101950003ffe0023234a1360164a82f84b300121d0
:1019600082f84d100b4a1370134a1370bce61f48df
:1019700002f02efe0f4b012283f84d20b4e60d4bf2
:10198000022283f84d20afe601f098ffb1e600bfd8
:101990000d0640200c064020000240200806402092
:1019a00004034200fe054020660540200502402059
:1019b00088024020880340200a064020a0024200fe
:1019c000d405402068044020d40242002c03420089
:1019d0005003420060034200c405402084034200db
:1019e0008c034200c0054020c0034200d8034200df
:020000040000fa
:020000040042b8
:1019f0004c0440201c00000000000000880540202e
:101a00000b0000000000000034064020020000002f
:101a10000100000088130000bc0540200c000000fd
:101a200000000000930540200100000000000000bd
:101a30009d0540200100000000000000300640200d
:101a400004000000010000000000c842180540200a
:101a50001400000000000000880340205000000037
:101a600000000000ac05402008000000000000005d
:101a7000c8054020080000000000000028044020a5
:101a80002400000000000000680540201000000055
:101a900000000000a9054020010000000000000037
:101aa00006064020010000000000000086024020e1
:101ab000020000000000000052054020020000006b
:101ac00000000000000040200001000000000000b5
:101ad000070640200100000000000000d005402063
:101ae0000400000000000000040640200200000086
:101af00000000000a00440201800000000000000ca
:101b0000400540201200000000000000b804402002
:101b100018000000000000005405402012000000e2
:101b200000000000d0044020180000000000000069
:101b3000000640200200000000000000e8044020f1
:101b4000180000000000000094054020090000007b
:101b500000000000a0054020090000000000000077
:101b60002c0540201400000000000000fc0540206f
:101b700002000000000000000005402018000000e6
:101b800000000000880240208000000000000000eb
:101b9000660540200200000000000000fe05402015
:101ba00002000000000000000806402003000000c2
:101bb00000000000020640200200000000000000bb
:101bc0000b06402001000000000000003606402007
:101bd0000100000001000000040000000c0640208d
:101be0000200000000000000d405402004000000b6
:101bf00000000000780540201000000000000000f8
:101c00000002402086000000000000006804402020
:101c10001c000000000000000e0640200100000033
:101c200000000000840440201c00000000000000b0
:101c3000d805402008000000000000009e0540205c
:101c40000200000000000000aa0540200200000081
:101c50000000000008034020800000000000000099
:101c6000000140200001000000000000e0054020cd
:101c70000c000000000000000f06402001000000e2
:101c800000000000ec0540200800000000000000fb
:101c9000d803402050000000000000001006402043
:101ca000200000000100000001000000030000000f
:101cb0000000000000000000000000000000000024
:101cc00000000000b4054020b405402008000000da
:101cd00000000000f40540200800000000000000a3
:101ce00000000000000000006666666666666666c4
:020000040000fa
:020000040042b8
:101cf0002de9f04786468c460846089e15467446f0
:101d00001946002b40f0c2808242b2fa82f245d9d5
:101d10004ab1c2f1200300fa02fc2efa03f3954007
:101d200043ea0c0c94404fea154ea8b2bcfbfef8f7
:101d3000230c0efb18cc08fb00f943ea0c43994531
:101d400028d9eb1808f1ff3704d2994502d9a8f138
:101d500002072b44a3eb0903a4b2b3fbfefc0efb6a
:101d60001c330cfb00f044ea0344a04214d92c19a4
:101d70000cf1ff3304d2a04202d9acf102032c448f
:101d8000241a43ea07401eb1d44000233460736034
:101d9000bde8f0874746dde76346f1e792bb431baa
:101da00001214fea154eafb2b3fbfefc200c0efb37
:101db0001c330cfb07f840ea0343984562d9eb1843
:101dc0000cf1ff3004d2984502d9acf102002b444b
:101dd000a3eb0803a4b2b3fbfefc0efb1c330cfb0d
:101de00007f744ea0344a7424ed92c190cf1ff33fc
:101df00004d2a74202d9acf102032c44e41b43ea0b
:101e00000040c0e7c2f1200320fa03f19540904062
:101e10002efa03f303434fea154eafb2b1fbfefcbb
:101e20000efb1c10190c0cfb07f841ea0041884519
:101e300004fa02f422d969180cf1ff3004d2884563
:101e400002d9acf102002944a1eb08019bb2b1fb1d
:101e5000fefc0efb1c110cfb07f743ea01439f42fb
:101e60000ed9eb180cf1ff3104d29f4202d9acf12c
:101e700002012b44db1b41ea004192e76046e3e7a5
:101e80006146f7e76046a3e76346b7e7834206d9b2
:101e900016b9002108467be7c6e900e0f9e7b3fa86
:101ea00083f78fb9834201d3724508d8beeb020491
:101eb00060eb030301209c461eb9002168e7384609
:101ec000fae7c6e9004cf8e7c7f1200cbb4022fa5c
:101ed0000cf41c432efa0cf120fa0cf3b840014329
:101ee0004fea14490efa07f5b3fbf9f81ffa84fe1e
:101ef00009fb18300b0c08fb0efa43ea00439a4525
:101f000002fa07f240d9e31808f1ff3004d29a45eb
:101f100002d9a8f102002344a3eb0a0389b2b3fb60
:101f2000f9f809fb183308fb0efe41ea03418e4520
:101f30002cd9611808f1ff3304d28e4502d9a8f1db
:101f40000203214443ea0040a0fb0298a1eb0e01ea
:101f50004145ce46434602d306d14d4504d2b9eba6
:101f6000020e68eb04030138002ea6d0b5eb0e027a
:101f700061eb030101fa0cfc22fa07f34cea0303bc
:101f8000f940c6e9003198e74046c5e74346d9e73e
:020000040000fa
:020000040042b8
:101f90002de9f041ccb002f0e9fd002840f0bf800f
:101fa000644b59684a1e644b9a4242d2082208a9df
:101fb000624801f08bfd9df8273004939df8263090
:101fc00003939df8253002939df8243001939df8ea
:101fd000233000939df822309df821209df8201099
:101fe000574802f053fb08220aa9564801f06efd3b
:101ff0009df82f3004939df82e3003939df82d30db
:1020000002939df82c3001939df82b3000939df89e
:102010002a309df829209df828104b4802f036fb05
:10202000444b5f68afb34ff0ff340026dff80c81fc
:102030001be0464802f02afb454b0c221a705ce07c
:10204000013295420ed910f8011b4c40614614f044
:10205000010f14bf83ea54046408013911f0ff0131
:10206000f5d1ede72e44b74215d9bd1bb5f5807ffc
:1020700028bf4ff480752a460ca906eb080001f032
:1020800025fdb742eed00ca800224ff0080c314bd2
:10209000d9e74ff0ff34e143264b9b688b422fd0aa
:1020a000cbb20093c1f30723c1f30742090e2a48bc
:1020b00002f0ecfa0cac294d0fcd0fc42b68236055
:1020c0000cac11af264e54f8045b042207a9284635
:1020d00001f0fcfc9df81f3001939df81e30009329
:1020e0009df81d309df81c202946304602f0cefa9e
:1020f000bc42e8d1164b0c221a704cb0bde8f081fe
:10210000184802f0c3fa0b48174b40f8103bf02276
:10211000ff2102f009fc0e4b09221a70ede702f0d4
:1021200025fd0228e9d1114802f052fa084b0c2291
:102130001a70e2e70001402000f0df0000101000fc
:10214000a007420080101000d80742006c07420030
:102150000f0640202083b8ed1008420000494200dd
:10216000600842008c08420034cd12abc008420027
:020000040000fa
:020000040042b8
:1021700070b504460378013b082b73d8dfe803f001
:1021800005286b73405f959ac00002f091fb002810
:1021900068d0624b1b78002b64d1604b01221a700f
:1021a00002f096fc237b43b16078400000f0fe0013
:1021b00002f0a0fa0223237054e06378a07a00387a
:1021c00018bf012040ea4300c0b202f093faf1e7e1
:1021d00002f078fb50b100236372237b53b9a37ada
:1021e000002b0cbf0323072323703be0204601f0a4
:1021f000f5fd37e0e07a02f071fc0523237031e051
:1022000002f0c2fb50b9a38a01339bb2a382b3f59b
:102210007a7f27d9204601f0e1fd23e00023a38245
:1022200002f050fb38b1607802f0fafa0023237311
:102230000623237016e0204601f0d0fd12e002f0e4
:1022400041fb20b100236372072323700ae020467c
:1022500001f0c4fd06e0437a4268d05c02f03efc27
:102260000423237070bd02f08ffb50b9a38a0133a1
:102270009bb2a382b3f57a7ff4d9204601f0aefd7c
:10228000f0e70023a38202f01dfb50b1637a013313
:10229000dbb26372227a9a4214bf032309232370ac
:1022a000e0e7204601f09afddce700f066fb08233a
:1022b0002370d7e702f070fb50b9a38a01339bb2b9
:1022c000a382b3f57a7fcdd9204601f087fdc9e717
:1022d0000023a382657a666802f006fc7055637a73
:1022e0000133dbb26372227a9a4204d001f0fbfc24
:1022f00007232370b6e702f0fdfb09232370b1e743
:1023000002f0e8f800232370a375044a13702369d0
:10231000002ba7d000209847a4e700bfa9054020c4
:020000040000fa
:020000040042b8
:1023200030b583b004460378072b00f2ba80dfe8ab
:1023300003f00b040d235f788ea8062001f0a0fea9
:102340000023a3820223237003b030bd01f0b6fe48
:1023500010f0020f04d00023a38203232370f3e7bd
:10236000a37d0133dbb2a375022b4ff0010384bfc1
:10237000e37507232370e7e74378022b0dd0032b87
:1023800020d0012b2fd1c2684168806801f09efbec
:10239000e368236104232370d6e7c268416880683c
:1023a00001f0ccfce36823614ff4802501f086fe48
:1023b00010f0010f01d1013df8d106232370002355
:1023c000a382c1e78168202001f0fafd44f6206372
:1023d0000193019b5a1e0192002bfad10623237010
:1023e0000023a382b0e70223c37507230370abe782
:1023f0000269c3689a4207d3002303708369002be4
:10240000a2d0012098479fe7838a01339bb2838241
:1024100041f28732934297d90323c3750723037090
:1024200092e70269c3689a4204d300238382062399
:10243000037089e7838a01339bb2838241f287323a
:10244000934281d90423c375072303707ce702f00c
:1024500057fb40b900232370a369002b3ff474afee
:102460000120984770e7a38a01339bb2a38241f20f
:10247000873293427ff668af0523e3750723237005
:1024800062e7c17d084802f001f9a3690bb10020a1
:10249000984700232361e360a382a37563702370d0
:0c24a00052e7002303704fe7b001420038
:020000040000fa
:020000040042b8
:1024ac0038b50025514c06e000f0ecfa0135edb2e0
:1024bc00052d00f0968002f009fa2378002b46d007
:1024cc006378002b47d0a378002b48d0e378002bff
:1024dc0049d02379002b4ad06379002b4bd0a379b8
:1024ec00002b4cd0e379002b4dd0237a002b4ed00f
:1024fc00637a002b4fd0a37a002b50d02378002b7b
:10250c00d2d06378002bcfd0a378002bccd0374b14
:10251c00db78002bc8d0354b1b79002bc4d0334b48
:10252c005b79002bc0d0314b9b79002bbcd02f4b4f
:10253c00db79002bb8d02d4b1b7a002bb4d02b4b56
:10254c005b7a002bb0d0294b9b7a83bbace700f0b5
:10255c008ffe2070b4e701f0a7fc6070b3e701f0c8
:10256c00ddfaa070b2e700f08dfbe070b1e700f08f
:10257c0087ff2071b0e702f018fb6071afe702f043
:10258c0016fba071aee702f018fbe071ade702f0ac
:10259c0010fb2072ace702f00efb6072abe702f0ae
:1025ac00f0faa072aae70135edb2052d1bd002f0ae
:1025bc000efb0028f7d002f002fb0028f3d002f04b
:1025cc0000fb0028efd002f0fefa0028ebd002f05e
:1025dc00fcfa0028e7d002f0fcfa0028e3d0012036
:1025ec0000e0002038bd0020fce700bf880540203b
:020000040000fa
:020000040042b8
:1025fc0030b5c1b0404801f0e5ff404c204601f039
:10260c00e1ff3f4801f0deff4ff480313d4802f01e
:10261c0037f8204601f0d6ff00f034fb4ff4803140
:10262c00394802f02df8062001f024fd4ff48031da
:10263c00202001f0bffc01f05dffa8b14ff48072c7
:10264c0069464ff4803001f03bfa6b46002113f8d9
:10265c00012bff2a0dd10131b1f5807ff7d12b4829
:10266c0001f0b0ff012408e00446294801f0aaff5c
:10267c0003e0284802f004f8002400f067fc08b3db
:10268c0000f07afb80b10234e4b21c4801f09affee
:10269c00254603222146204801f0f2ff032c1ed1cf
:1026ac001e4801f08fff1fe00134e4b20ee0134826
:1026bc0001f088ff0134e5b203222946164801f0e7
:1026cc00dfff0ce000f058fb0028f0d10b4801f0c4
:1026dc0079ff2546032221460f4801f0d1ffc5f1b1
:1026ec0003010f4801f0ccff044801f06bff0248d6
:1026fc0001f068ff41b030bd4c054200500542006e
:10270c0088054200c4054200fc0542008c044200ce
:10271c004804420020064200440642007c06420067
:04272c00b8064200a9
:020000040000fa
:020000040042b8
:10273000414b03b19847414b03b19847eff31083e6
:10274000b3fa83f35b09019372b6bff35f8f01990c
:102750004ff0e022d2f8883d43f47003c2f8883d80
:10276000bff34f8fbff36f8f11b1bff35f8f62b6af
:10277000334b5b6913f4003f13d1bff34f8fbff3ab
:102780006f8f2f4b0022c3f85022bff34f8fbff340
:102790006f8f5a6942f400325a61bff34f8fbff313
:1027a0006f8f274b5b6913f4803f2bd1244b0022a2
:1027b000c3f88420bff34f8fd3f88030c3f3c9042c
:1027c000c3f34e334fea431c43f6e07e1c480cea49
:1027d0000e01234641ea8372c0f86022013bb3f147
:1027e000ff3ff7d1acf1200c1cf1200fefd1bff36c
:1027f0004f8f134a536943f480335361bff34f8fb4
:10280000bff36f8f00f018ff01f01afe0d4b23f09d
:102810007f030b4a93600c4b98470c4b03b19847ce
:102820000b4b03b198470021084601f0d9f9094b39
:1028300003b19847fee700bf000000000000000061
:1028400000ed00e000004200853b42000000000077
:08285000000000000000000080
:020000040000fa
:020000040042b8
:102858002de9f04f8bb00d460493d1e901132f6891
:10286800d5f80c9003900029a8bf27f002079246dc
:10287800b8bf012117f010020592dae9006232d0e0
:1028880056ea02002fd0a3f1020b2c69029617f02a
:10289800080004f1ff3418bf0bf1ff3b90460022fb
:1028a80009f8042006905a46012c1edc059a002ad5
:1028b80051d1069a1ab1013c202209f804202a694c
:1028c80003980097013a121b09eb040100f078ff06
:1028d800039b5b68db0503d56b689842b8bf184655
:1028e8000bb0bde8f08f9b46cfe7029850ea08008e
:1028f80008d1a1eb0b001044002803dc002ad5dd29
:10290800b807d3d50298049e00f00f000928a6f155
:10291800410cd4bf30305730bcf1190f04f1ff34eb
:102928000ed840f0200cacf1610cbcf1190f07d89f
:10293800cde90813079202f0c0f8dde90813079af9
:1029480009f804000298060946ea0870013a02905c
:102958004fea1818a8e7dae900210a43a9d009ebd9
:102968000402049902f8011c023c302209f80420f0
:022978009fe7d7
:020000040000fa
:020000040042b8
:02297a007047a4
:020000040000fa
:020000040042b8
:10297c0000b583b03a4a202313703a49d1ed007a5e
:10298c00b2ee047a67ee877afceee77a17ee903aad
:10299c005370d1ed017adfed346a67eea67afcee66
:1029ac00e77a17ee903a93703049d1ed007abcee8d
:1029bc00e77a8ded017a9df80430d37007ee103a6a
:1029cc00b8eec77a77eec77a67eea67afceee77aae
:1029dc0017ee903a1371d1ed017abceee77a8dedda
:1029ec00017a9df80430537107ee103ab8eec77aad
:1029fc0077eec77a67eea67afceee77a17ee903a96
:102a0c0093711b4bd3ed007afceee77a17ee903afc
:102a1c00c3f30721d1711372164bd3ed007afcee80
:102a2c00e77a17ee903ac3f3072151729372124b67
:102a3c0093f84a30d37213460c32002013f8011b62
:102a4c0048409342fad1064908730c4b01221a7084
:102a5c000d220b4801f080ff03b05df804fb00bfb2
:102a6c0078054020ac0540200000c8426805402095
:102a7c00cc054020c8054020880340200d0640208e
:042a8c00680440207a
:020000040000fa
:020000040042b8
:102a900030b486b03f4b80221a6003f548231822d9
:102aa000c3f8002e1022c3f8102e0822c3f8142eeb
:102ab000092019461025002442f20f72c1f8345e35
:102ac0000194019b934205dc019b01330193019b1f
:102ad0009342f9ddc1f8305e0294029b934205dc1b
:102ae000029b01330293029b9342f9ddd1f83c3ef5
:102af00013f0080f01d10138e0d1274b0822c3f8a9
:102b0000102e1021c3f8341ec3f8342e0023039373
:102b1000039a42f20f739a4206dc1a46039b013372
:102b20000393039b9342f9dd1b4b1022c3f8302e15
:102b300000230493049a42f20f739a4206dc1a4669
:102b4000049b01330493049b9342f9dd124b08224a
:102b5000c3f8302e00230593059a42f20f739a4270
:102b600006dc1a46059b01330593059b9342f9dd6c
:102b7000094b1822c3f8042ea3f5482380221a60bb
:102b800024221a601a6a49f69d521a6106b030bcb6
:0c2b9000704700bf0080014000000e40b4
:020000040000fa
:020000040042b8
:102b9c0070b504460378013b052b09d8dfe803f038
:102bac00030914326167407801f040fe0223237060
:102bbc0070bd436833b1427b985c01f007ff03237f
:102bcc002370f5e7ff20f8e701f0e8fe20b10023c1
:102bdc00a37304232370ebe7a37b0133dbb2a37352
:102bec00c82be5d9254801f0edfc607801f0e6fe34
:102bfc000023a37323702369002bd9d04ff0ff302f
:102c0c009847d5e701f0d2fe90b10023a373a568d5
:102c1c0025b3667b01f074ffa855637b0133dbb2ef
:102c2c006373227b9a428cbf022305232370bfe778
:102c3c00a37b0133dbb2a373c82bb9d9104801f0c5
:102c4c00c1fc607801f0bafe0023a37323702369e2
:102c5c00002badd04ff0ff309847a9e701f050ffa3
:102c6c00dbe7407801f0aafe06232370a0e7036996
:102c7c000bb1002098470023237099e7e001420034
:042c8c00fc01420005
:020000040000fa
:020000040042b8
:102c900082b0384b4ff40062c3f800274ff4823201
:102ca000c3f810264ff41e32c3f8042ed3f8702e4a
:102cb00022f41e32c3f8702ed3f8742e22f41e3282
:102cc000c3f8742e03f580534ff00042c3f8042478
:102cd000d3f8702422f00042c3f87024d3f874248f
:102ce00022f00042c3f87424a3f5ca2380221a609c
:102cf000214a5a604ff400721a6201221a604ff49e
:102d000080231e490a6912f0807f01d1013bf9d16d
:102d10001a4bab225a6342f210029a639b6b4ff438
:102d2000802316490a6912f4806f01d1013bf9d161
:102d3000124b4ff080721a604ff4fa730193019bab
:102d40005a1e0192002bfad14ff0e0230722c3f85c
:102d5000982d4ff00042c3f89c2d094ac3f8a02dce
:102d60000522c3f8942dbff34f8fbff36f8f01205f
:102d700002b0704700000e401100000100c0074083
:042d800037000813fd
:020000040000fa
:020000040042b8
:102d84002de9f041adf5007d062001f077f94ff40f
:102d94008031202001f012f901f0b0fb78b30df17d
:102da400ff052a46002302f8013f0133b3f5807f73
:102db400f9d1294801f068fc062001f05ff94ff4cd
:102dc40080720deb02014ff4803000f0b5ff01f08a
:102dd40095fb0446c0b1e8464ff48072ff2140469b
:102de40001f0a0fd4ff4807241464ff4803000f0b2
:102df4006bfe0df1ff340df1ff0700260fe00446d2
:102e0400164801f0e3fb02e0154801f0dffb204621
:102e14000df5007dbde8f0810136bc420fd020469f
:102e240014f8013f15f8012f9342f6d0042ef3d87d
:102e3400c8f1010101440b4801f026fcece726b976
:102e4400094801f0c3fb0124e1e73146074801f0da
:102e54001bfc0024dbe700bfd4044200b40442009e
:102e640048044200fc0442008c0442003005420045
:020000040000fa
:020000040042b8
:102e740010b5044600f060fa314bd3ed007a052c0e
:102e84004dd8dfe804f0050d21283e03204610bd8f
:102e9400002846d02b4b1868003818bf0120f6e7ed
:102ea400002840d0274b1b68002b3ed0264b1b68c4
:102eb400002b3cd09fed257af4eec77af1ee10faa0
:102ec400ccbf02202046e2e71f4b1b68002b14bf37
:102ed40020460120dbe7b2ee0e7af4eec77af1ee7b
:102ee40010fa26d4184b1b6833b19fed187af4ee10
:102ef400c77af1ee10fa1edc00280cbf2046002031
:102f0400c5e7b2ee0e7af4eec77af1ee10fa14d5f4
:102f14000f4b1b68002b0cbf20460520b7e7002091
:102f2400b5e70320b3e70320b1e70020afe720466d
:102f3400ade70420abe70220a9e70320a7e700bf21
:102f440030064020c4054020c005402000008c42cb
:042f5400bc05402058
:020000040000fa
:020000040042b8
:102f58002de9f041adf5007d0df1ff050df2ff10f3
:102f68002b4640f2011180aa891aca1812f0010fe3
:102f780014bf5a22a52203f8012f8342f5d126480f
:102f880001f080fb062001f077f84ff480720deb1a
:102f980002014ff4803000f0cdfe01f0adfa044696
:102fa80098b1e8464ff4807422460021404601f06b
:102fb800b7fc224641464ff4803000f083fd0df106
:102fc800ff340df1ff0700260ae0144801f0fcfa6f
:102fd80020460df5007dbde8f0810136bc420fd0da
:102fe800204614f8013f15f8012f9342f6d0042e1d
:102ff800f3d8c8f101010144094801f043fbece7ab
:1030080026b9084801f0e0fa0124e1e7314606480c
:1030180001f038fb0024dbe72004420048044200aa
:0c302800580442008c044200980442004e
:020000040000fa
:020000040042b8
:1030340010b501281fd1284b1988013189b2198094
:103044001f2907d8254b1b78032b41d8dfe803f051
:103054000b162029214b04221a70214801f014fb7d
:1030640000f02afc09e01f4b1b78aa2b14bf002395
:1030740001231a4a137000f01ffc10bd194b1b7872
:10308400552b14bf002301235b00144a1370f2e78d
:10309400144b1b78aa2b14bf002203220f4b1a7067
:1030a400e9e7104b1b78552b03d00c4b00221a7008
:1030b400e1e70424094b1c700b4801f087fa0b4b21
:1030c40001221a7022460a490a4801f049fcd4e751
:1030d400024b00221a70cee702064020360640203a
:1030e400440242000b0640207c0242000d064020b0
:0830f400e44b42006804402097
:020000040000fa
:020000040042b8
:1030fc00902910b50fdc7f2913dd8039102910d8e9
:10310c00dfe801f02b2b360f110f0f0f200f0f0fd5
:10311c000f0f0f0f3600c02944d0f02942d0a02940
:10312c0021d000200de019682ab10a1d1a60b1f9ee
:10313c000030da1702e00c1d1c600b88c0e900326d
:10314c00012010bd196822b10a1d1a6091f90030d6
:10315c00efe70c1d1c600b78f0e71968f2b10a1d43
:10316c001a600b68e5e71a68111d19601368e0e72f
:10317c00196852b1073121f0070101f108021a60f8
:10318c00d1e90023c0e90023dae7ca1d22f00702c7
:10319c0002f108011960d2e90023f3e70c1d1c6051
:1031ac000b68cbe71a68111d1960136803600023c4
:0431bc004360c5e7c0
:020000040000fa
:020000040042b8
:1031c00000b170472a4b2b4a117807ee101ab8ee5f
:1031d000477adfed297ac7ee276ac3ed006a517896
:1031e00007ee101ab8ee477ac7ee276ac3ed016af8
:1031f000917807ee101ab8ee477ac7ee276ac3ed4a
:10320000026ad17807ee101ab8ee477ac7ee276a3d
:10321000c3ed036a117907ee101ab8ee477ac7eecc
:10322000276ac3ed046a517907ee101ab8ee477a9f
:10323000c7ee276ac3ed056a917907ee101ab8ee5a
:10324000477ac7ee276ac3ed066ad17907ee101aee
:10325000b8ee477ac7ee276ac3ed076a127a07ee1f
:10326000102ab8ee477ac7ee276ac3ed086aa8e7c6
:0c32700028044020540540200000c84203
:020000040000fa
:020000040042b8
:04327c000120704776
:020000040000fa
:020000040042b8
:1032800053ec102bc3f30a512de9f04140f2fd70cd
:103290004c1e84429e4640d8a1f2ff30002833db0a
:1032a00033282ddc244c4ff0ff3cc0f1200615469e
:1032b000a1f21f4104fa06f22cfa00fc4cea020cbf
:1032c00024fa01f24cea020cc44003ea040805eabd
:1032d0000c0757ea080725ea0c0223ea04030fd07b
:1032e000002b0dda4ff4801404fa06f624fa01f1eb
:1032f0000e43b61824fa00f444eb03043246234686
:1033000043ec102bbde8f0819fed090bbfee007b75
:10331000002b20fe070bbde8f0810029f0d10a4602
:1033200003f0004343ec102bece700bfaff3008049
:0c3330000000000000000000ffff0f0084
:020000040000fa
:020000040042b8
:10333c00254bd3ed007ab1ee0a7af4eec77af1eeb2
:10334c0010fa34dc9fed217af4eec77af1ee10fa24
:10335c002fd4d3ed017ab0ee007af4eec77af1ee09
:10336c0010fa28dcb7ee007af4eec77af1ee10fa18
:10337c0023d4174bd3ed007a9fed167af4eec77a6f
:10338c00f1ee10fa1bdcbaee047af4eec77af1ee29
:10339c0010fa16d4104b93ed007af3ee0e7ab4eecd
:1033ac00e77af1ee10fa54bf01200020704700209c
:1033bc0070470020704700207047002070470020a5
:1033cc0070470020704700bfac0540206666464041
:0c33dc00c8054020000070423006402070
:020000040000fa
:020000040042b8
:1033e8002de9f041d2e900230c4686b005465fea94
:1033f800d378d1e901060968e76805913fd05242c0
:1034080063eb4303002808db21f002010591b8f1c2
:10341800000f02d10599480722d5711e05a8029010
:103428000a20cde90010204600f008fab8f1000f94
:103438001ad001382d233b542269059b0093013a89
:103448003346121a3918284600f0baf96b68db05ba
:1034580003d563689842b8bf184606b0bde8f08146
:103468000807dad43146d9e7059b590702d5013850
:103478002b23e0e71a07dfd501382023dbe70028f4
:04348800c2dac7e7f6
:020000040000fa
:020000040042b8
:10348c00214b4ff42052c3f8102603f5805303222e
:10349c005a601a6f22f003021a675a6f42f0030245
:1034ac005a67a3f53d23ac221a604ff40c625a60a4
:1034bc004e221a6250221a604ff480721a605b69b5
:1034cc0013f0010f05d0114b9a695a6912f0010fd4
:1034dc00fad100230e4a13800e4a138001200b4ba5
:1034ec0098604ff0e0224ff40053c2f800310649c7
:1034fc00d1f8003743f08063c1f800374ff0806398
:10350c00c2f80431704700bf00000e40004002407a
:08351c00520540208602402008
:020000040000fa
:020000040042b8
:1035240070b504460378012b0dd0022b2ed0002b4e
:1035340036d101f03bf9002831d000236382636166
:10354400012323702be001f031f950b9638a33b3be
:10355400636901336361144a934220d902232370bf
:103564001de0658ae66800f01ffe7055638a01332a
:103574009bb2638200226261228a9a420fd800239e
:103584002370a3695bb10120984708e083690bb1fc
:10359400002098470023638223826361237070bdf7
:0c35a40000230370fbe700bf3f420f0054
:020000040000fa
:020000040042b8
:1035b00000b170471d4b03f10800002213f8011ff2
:1035c0004a408342fad1194b5b7a9342f1d1184aaf
:1035d000164b597811709878d97841ea002107ee96
:1035e000901af8eee77adfed136a87eea67a82ed9d
:1035f000017a1879597941ea002107ee901af8ee1c
:10360000e77ab2ee047ac7ee876ac2ed026a987969
:10361000d97941ea002107ee901af8eee77ac7ee71
:10362000876ac2ed036a1b7a1374c2e794054020cf
:08363000180540200000c8420b
:020000040000fa
:020000040042b8
:103638001a4b1b4a5a601a46936813f0010ffbd0c5
:10364800164bdb6813f4c07f12d0144b154a5a602e
:103658001a46936813f0010ffbd0104b124a5a60b8
:103668001a46936813f0010ffbd0104b104a1a60ea
:10367800bff34f8fbff36f8f0e4bd3f8902222f01a
:103688000102c3f89022d3f8942222f00102c3f871
:103698009422bff34f8fbff36f8f7047000c0e401b
:1036a8000d00005a0c08005a0c07005a00180e406a
:0836b800010000a500ed00e097
:020000040000fa
:020000040042b8
:1036c0001c4b4ff40042c3f854281b49d1f8142175
:1036d00042f01002c1f81421184a4ff49841c2f880
:1036e00010164ff40011c2f8041ed2f8701e21f417
:1036f0000011c2f8701ed2f8741e21f40011c2f835
:10370000741e10225a601a6f42f010021a675a6f24
:1037100042f010025a67a3f539230c221a604ff4c5
:103720000c625a604e221a6250221a60044b012227
:103730001a70704700100e400080084000000e40d4
:043740000706402018
:020000040000fa
:020000040042b8
:1037440008b5012803d0194b1b785bb308bd184b8f
:103754001b782bb1012b0bd0154b00221a70f2e70a
:10376400144b1b78aa2beed1114b01221a70eae7f5
:10377400104b1b78552b06d0aa2b14bf0023012312
:103784000b4a1370dfe70a4b02221a700a49aa2374
:103794000b7055234b70094b84220231084800f00a
:1037a400f6ffd3e700f088f8d0e700bf0d0640200d
:1037b4000a0640200906402000024020e11642008b
:0437c4006804402035
:020000040000fa
:020000040042b8
:1037c8002de9ff471d460c9b13f0010806460f46de
:1037d800144601d195420bd822463946304600f0ae
:1037e800a5fca54204d82546284604b0bde8f087c4
:1037f800a5eb04094a46102a28bf10222021684652
:10380800ca4601f08df800bfbaf10f0f0ed809f0c3
:103818000f026946304600f089fcb8f1000fe3d189
:1038280022463946304600f081fcdde71022694621
:0c383800304600f07bfcaaf1100ae5e726
:020000040000fa
:020000040042b8
:103844002de9f84f0446dde90a9a6668d4f80c803d
:1038540024690c9f013c1946002e4ff00003d7f851
:1038640000b008f804301046b8bf01264d460123c5
:10387400002c03dcdbb12046bde8f88f50ea0102de
:1038840009d1a6eb09022a44002a04dc002df1dd4b
:103894001bf0020feed052464feaea7300f000fe2e
:1038a400013c1346303208f80420013de0e73b6850
:0838b40023f010033b60dee786
:020000040000fa
:020000040042b8
:1038bc0008b5114b1b7883b9104b1a78042a0dd11b
:1038cc000f4b1b7823b10f4b1b78022b0dd186228b
:1038dc000d4b0e49084800f056ff08bd0c4b012259
:1038ec000c49054800f04ffff7e70b4b01220b4941
:1038fc00014800f048fff0e76804402036064020fd
:10390c000c0640200a064020e1164200000240202e
:10391c00353042000b064020453742000906402056
:020000040000fa
:020000040042b8
:10392c00902910b50fdc7f2911dd803910290ed8b4
:10393c00dfe801f00f0f250d170d0d0d1e0d0d0df0
:10394c000d0d0d0d2500a02903d0c02901d000209c
:10395c0006e019680c1d1c600b6803601a600120de
:10396c0010bd19680c1d1c600b6803601a80f6e70b
:10397c0019680c1d1c600b6803601a70efe719685e
:10398c000c1d1c600b680360d117c3e90021e6e72e
:020000040000fa
:020000040042b8
:10399c0010b582b0062000f06dfb4ff4fa63019372
:1039ac00019b5a1e0192002bfad1124b01225a6331
:1039bc0042f290029a639a6b4ff000420021117010
:1039cc00bff34f8fbff34f8f4ff080721a604ff4dd
:1039dc00802308490a6912f4806f03d1013bf9d1a5
:1039ec00054c00e0044c01f085f808b1013cfad11b
:0c39fc0002b010bd00c0074020a1070071
:020000040000fa
:020000040042b8
:103a0800144b5a6912f0010f1ad09869124b1b888f
:103a18000133dbb21149098889b2994210d030b418
:103a28000d4c218889b2c0b20d4d6854238012f024
:103a3800e00f03d0074b4ff480721a6030bc704718
:103a480012f0e00f04d0034b4ff480721a607047f5
:103a5800704700bf004002405205402086024020c7
:043a680000004020fa
:020000040000fa
:020000040042b8
:103a6c0010b504464378012b05d0022b20d023b38c
:103a7c000023437021e000f0b1ff40b963690133ca
:103a8c0063610e4a934218d90223637015e0637a7e
:103a9c006268d05c01f040f8637a0133dbb2637288
:103aac0000226261227a9a4207d80023637004e0f4
:103abc000023437203724361437010bd3f420f00f9
:020000040000fa
:020000040042b8
:103acc0030b583b005460846124b1d630b21596374
:103adc00114999639b6b64230193019b5c1e0194b8
:103aec00002bfad172b605f1004100f0b7febff31e
:103afc004f8f62b6074b4ff080721a604ff48023e1
:103b0c0004490a6912f4806f01d1013bf9d103b069
:0c3b1c0030bd00bf00c00740b010080022
:020000040000fa
:020000040042b8
:103b2800154b4ff40412c3f8102603f580534ff4d5
:103b3800e002c3f80424d3f8702442f4e002c3f886
:103b48007024d3f8742422f4e002c3f874244ff0ec
:103b58000072c3f80024c3f81024c3f83024a3f576
:103b6800592380221a6011225a604ff47f421a6347
:0c3b780001201860704700bf00000e40e4
:020000040000fa
:020000040042b8
:103b84000e4a38b5002313600d4a0e4c13600e4ada
:103b94000e4d13600e4a13600e4a13600e4a5362b0
:103ba40013610123936000f06dff00f0a0fdac42af
:103bb40000d338bd54f8043b9847f8e7f405402097
:103bc400e403402074014200e003402078014200f5
:0c3bd400d8034020dc034020e803402020
:020000040000fa
:020000040042b8
:103be00038b5fff76dfd104800f0f2fc0f4800f00b
:103bf0004dfd0f4800f04afd0e4800f047fd0a2435
:103c00002546284600f038ff013cfad1fef74efc6d
:103c100030b1fef7f3fcfff751fe00f065f8fce76a
:103c200000f016fef5e700bff40642001007420060
:083c30003c074200540742006a
:020000040000fa
:020000040042b8
:103c38002de9ff41134ed1f80080b788adf80c701c
:103c480005463068029002acb0798df80e00002a63
:103c580018bf1446d1e901671a461bb9204600f07f
:103c68000bfe0246002e02dbb24228bf3246cdf8d8
:103c780000803b4621462846fff7a2fd04b0bde878
:083c8800f08100bf6447420017
:020000040000fa
:020000040042b8
:103c9000f0b50c46d1e9011687b0236805930029d9
:103ca000a4bf23f00203059305abe76802930a2340
:103cb000cde900630546d2e900232046fff7c2fda7
:103cc0002269059b0093013a3346121a3918284697
:103cd000fff77afd6b68db0503d563689842b8bfd0
:063ce000184607b0f0bd1c
:020000040000fa
:020000040042b8
:023ce600704725
:020000040000fa
:020000040042b8
:103ce80008b5134b1b78052b08d8dfe803f0030849
:103cf8000d12171c00f06cfb0d4b187008bd00f07e
:103d0800c7fe0b4b1870f9e7fcf76cff084b1870ef
:103d1800f4e700f077fb064b1870efe700f0bffe02
:103d2800034b1870eae700f029ff014b1870e5e72c
:043d3800930540208f
:020000040000fa
:020000040042b8
:103d3c0010b5134b186302245c6343f2b0049c630c
:103d4c009b6b72b600f1004000f088fdbff34f8f03
:103d5c0062b64ff480230a490a6912f0040f01d1ac
:103d6c00013bf9d1064b4ff080721a604ff480235f
:103d7c0003490a6912f4806f01d1013bf9d110bdde
:043d8c0000c007402c
:020000040000fa
:020000040042b8
:103d90000e4b1b78cbb900b583b00d4a01231370cd
:103da000002353709370d370137153719371d37157
:103db0001372084b019309230093074b1921034801
:103dc00000f01afc03b05df804fb70472c0540209e
:0c3dd000a0054020b135420094054020c1
:020000040000fa
:020000040042b8
:103ddc0010b5044600f078fb00232370a382a37d6a
:103dec000133dbb2a375022b08d8094b00221a70e1
:103dfc00236913b14ff0ff30984710bd6178054827
:103e0c0000f03efcfef73efe0023a375ede700bf7d
:083e1c00a905402090014200bd
:020000040000fa
:020000040042b8
:103e24000e4b1b78c3b9531eff2b03d90b4b022235
:103e34001a70704700b583b0084b4ff0010c83f83b
:103e440000c0074b009313460a460146054800f09c
:103e540080fb03b05df804fb704700bf0e064020f2
:083e6400ed48420084044020f7
:020000040000fa
:020000040042b8
:103e6c000278202a034600f10100f9d0a2f10901e1
:103e7c000429f5d92b2a06d02d2a13d1012101337f
:103e8c00013b002006e00021f9e700bf00eb8000b9
:103e9c00c2eb400013f8012f303a092af6d901b9c8
:083eac00404270470021ebe7e2
:020000040000fa
:020000040042b8
:103eb4000f4b4ff40022c3f810261822c3f8042e27
:103ec400d3f8702e22f01802c3f8702ed3f8742e93
:103ed40022f01802c3f8742ea3f5482380221a6036
:103ee40024221a601a6a49f69d521a610120704709
:043ef40000000e407c
:020000040000fa
:020000040042b8
:103ef80000b170470c4b0d4a117807ee901af8ee96
:103f0800677af2ee046a87eea67a83ed007a527831
:103f180007ee902af8ee677adfed056a87eea67a53
:103f280083ed017ae5e700bfac0540200406402098
:043f38000000c8427b
:020000040000fa
:020000040042b8
:103f3c0008b50b480022027001230a490b700a498c
:103f4c000a700a4910220a70ac224a704b228a70fd
:103f5c00f722ca70064a1370042200f0fdfc08bd5b
:103f6c00680440200c0640200a064020d40540205e
:043f7c000d064020ce
:020000040000fa
:020000040042b8
:103f800010b5054c237833b9044b13b10448aff393
:103f900000800123237010bd4c044020000000006d
:103fa0000000000008b5034b1bb103490348aff301
:103fb000008008bd00000000500440200000000008
:020000040000fa
:020000040042b8
:103fc00082b00e4b1963586330229a639a6b4ff09c
:103fd00080721a604ff4802308490a6912f4806fd6
:103fe00001d1013bf9d142f210730193019b5a1e9a
:103ff0000192002bfad102b0704700bf00c0074009
:020000040000fa
:020000040042b8
:1040000000b1704738b50c4d284600f093fb0b4cbf
:1040100084ed000a281d00f08dfb84ed010a05f1f6
:10402000080000f087fb84ed020a05f10c0000f0a7
:1040300081fb84ed030a38bd40054020680540201f
:020000040000fa
:020000040042b8
:1040400000b1704708b50b4b1a785b7843ea02233e
:1040500043f30b131bb207ee903afaeece7a064bff
:10406000c3ed007ab7eee77a53ec172b034800f064
:104070000dfb08bdfc054020c8054020340242006d
:020000040000fa
:020000040042b8
:1040800082b00d4b586310229a639b6b4ff48023d0
:1040900009490a6912f4806f01d1013bf9d1064b3d
:1040a0004ff080721a6096230193019b5a1e019271
:0c40b000002bfad102b0704700c007409e
:020000040000fa
:020000040042b8
:1040bc000d4b05225a6390229a639a6bbff34f8f74
:1040cc004ff000421078c0b2bff34f8f4ff08072a8
:1040dc001a604ff4802304490a6912f4806f01d1ed
:0c40ec00013bf9d1704700bf00c0074045
:020000040000fa
:020000040042b8
:1040f80010b50c4c2046fff7b5fc2046fff70efa2a
:10410800094b1b783bb163782bb9237a013b627a60
:10411800dbb29a4200d810bd034b00221a70fff799
:0c412800c9fbf8e7680440200d064020a9
:020000040000fa
:020000040042b8
:1041340038b5436813f4807f0446154611d00369eb
:104144009a4228bf1d465db12a46406900f08afba9
:10415400636922692b44521b2261002263611a7035
:0c41640038bddb06fcd400f021fdf9e7bb
:020000040000fa
:020000040042b8
:1041700007b54a680346dbb2d20508468df807301a
:1041800007d54a69511c41611370184603b05df8a8
:1041900004fb01220df1070100f00afd10b19df8aa
:0a41a0000700f3e74ff0ff30f0e7ef
:020000040000fa
:020000040042b8
:0241aa00fee72e
:020000040000fa
:020000040042b8
:1041ac000a4b1a8892b20a4b1b889bb29a420ad0cd
:1041bc00074a13889bb20749c85cc0b21388013305
:1041cc00dbb2138070470020704700bf52054020bf
:0841dc00860240200000402093
:020000040000fa
:020000040042b8
:1041e4000a4b1b788bb9094b60225a70084a5a60f3
:1041f40002221a7201229a720921d9721a730021b9
:1042040059729982034919611a707047a0044020b9
:0842140004064020f93e4200bf
:020000040000fa
:020000040042b8
:10421c000a4b1b788bb9094b42225a70084a5a60d8
:10422c0012221a7201229a72ff21d9721a7300217a
:10423c0059729982034919611a707047b804402069
:08424c00400540200140420042
:020000040000fa
:020000040042b8
:104254000a4b1b788bb9094b68225a70084a5a607a
:1042640006221a7201229a723b21d9721a73002112
:1042740059729982034919611a707047d004402019
:0842840054054020c131420045
:020000040000fa
:020000040042b8
:10428c0010b504460146094800f0faf904b110bd16
:10429c00074b1a785b7843ea022307ee903af8ee64
:1042ac00e77a044bc3ed007af1e700bf1802420035
:0842bc0000064020cc05402063
:020000040000fa
:020000040042b8
:1042c4000a4b1b788bb9094b77225a70084a5a60fb
:1042d40002221a7201229a72f721d9721a730021ea
:1042e40059729982034919611a707047e804402091
:0842f400000640208d4242004b
:020000040000fa
:020000040042b8
:1042fc000a4b1b7883b9094b48225a70084a5a60fa
:10430c0002221a7201229a720021d9721a735972fe
:10431c009982044919611a70704700bf000540204a
:08432c00fc0540204140420065
:020000040000fa
:020000040042b8
:1043340030b50c4a0146002012f810301bb902ebcc
:104344004002507830bd0c6825789d4209bf02ebcd
:104354004003431c5878013414bfd8b20c600a28b7
:08436400ead9efe79848420096
:020000040000fa
:020000040042b8
:10436c0070b514460d4699b13ab1022805d8094bdf
:10437c002bb111462846aff30080204609e00e46cb
:10438c0016f8010b00f06af92b199e42f8d1f4e7ec
:08439c00084670bd000000009e
:020000040000fa
:020000040042b8
:1043a40008b50949ac230b70030a4b70c0b288707e
:1043b400434083f0ac03cb70044b01221a700422f7
:1043c400034800f0cdfa08bdd40540200d06402076
:0443d4006804402019
:020000040000fa
:020000040042b8
:1043d80010b500f033f900f0a7fb084b1b68c31aaf
:1043e800074a1288934203d20020fef73ffd10bd12
:1043f800044600f03bf8014b1c60f5e7ec05402053
:044408003406402016
:020000040000fa
:020000040042b8
:10440c0010b500f019f900f08dfb084b1b68c31aae
:10441c00074a1288934203d20320fef725fd10bdf4
:10442c00044600f021f8014b1c60f5e7ec05402038
:04443c0034064020e2
:020000040000fa
:020000040042b8
:1044400038b50a480a4d016821b9436813b900f02c
:1044500096f838bd0389426855f8233000f10c0402
:104460002046984704eb8000ede700bff0194200ba
:0444700014494200a9
:020000040000fa
:020000040042b8
:1044740008b50a4b1b782bb1fff788fc0022074bc9
:104484001a7008bdfff7acfefff7c6fefff7e0feab
:10449400fff716fffff730ff0122f0e79d054020ec
:020000040000fa
:020000040042b8
:1044a40053b94ab9002908bf00281cbf4ff0ff3197
:1044b4004ff0ff3000f09cbbadf1080c6de904ce69
:1044c400fdf714fcddf804e0dde9022304b07047d5
:020000040000fa
:020000040042b8
:1044d400084b02221a60084b06490a6a12f0010fbf
:1044e40007d1013bf9d1034b80221a6024221a60c0
:0c44f4007047704700800140a086010066
:020000040000fa
:020000040042b8
:1045000010b5084cfff7dafd10f0010f07d0013ca1
:10451000f8d10146044800f0b9f8002000e001207d
:0c45200010bd00bf80969800e003420030
:020000040000fa
:020000040042b8
:10452c00812903dc7f2903dc002070478329fbd120
:10453c001368073323f0070303f108011160d3e973
:0a454c000023c0e90023012070479e
:020000040000fa
:020000040042b8
:1045560010b404786cb90224447081604260c36070
:104566000023036183828375c375019b83610123e5
:0845760003705df8044b70476f
:020000040000fa
:020000040042b8
:02457e00704784
:020000040000fa
:020000040042b8
:10458000074b9b6913f0010f08d0054ad36d012337
:104590001362a2f5a8229360024a1370704700bf0d
:0845a0000080074006064020e0
:020000040000fa
:020000040042b8
:1045a80008b5064b1b7803b108bd044b01221a70ed
:1045b800034a0146034800f088f8f5e70e06402054
:0845c800ed484200840440208c
:020000040000fa
:020000040042b8
:1045d00010b5084c2368196800f06af8002807db5a
:1045e00023680a20196800f0dffac00f404210bdae
:0845f0000120fbe72c0640202e
:020000040000fa
:020000040042b8
:1045f80010b4047864b94170426083609df8043057
:104608000373002343738373029b036101230370c5
:064618005df8044b704741
:020000040000fa
:020000040042b8
:10461e0070b502fb01f6144600290d4632460146de
:10462e00184608bf002400f0bcfa864218bfb0fb43
:06463e00f5f4204670bdfa
:020000040000fa
:020000040042b8
:1046440008b500f0dff900f0e5f900f0ebf900f04f
:10465400f1f900f0fff9fff74dfd00f0f3f900f078
:0446640001fa08bd92
:020000040000fa
:020000040042b8
:10466800074b1b785bb110b504460a2803d02046d7
:1046780000f04cf810bd0d2000f048f8f7e770473f
:0446880007064020c1
:020000040000fa
:020000040042b8
:10468c000fb407b5064b04aa1b6852f8041b186834
:10469c00019200f0b1f803b05df804eb04b0704780
:0446ac002c06402078
:020000040000fa
:020000040042b8
:1046b00070b50e46054600f0e3f833460446024660
:1046c00001212846fff7abff001b18bf4ff0ff305a
:0246d00070bdbb
:020000040000fa
:020000040042b8
:1046d200037863b903234370816000234360c3609e
:1046e200036183828375c3758261012303707047fe
:020000040000fa
:020000040042b8
:0246f20070470f
:020000040000fa
:020000040042b8
:1046f400430810f001004fea003040ea0340034b46
:10470400586001d001221a60704700bf0080014048
:020000040000fa
:020000040042b8
:104714004ff4801305494a6912f0020f02d1013b9c
:10472400f9d17047014bd861704700bf0080024047
:020000040000fa
:020000040042b8
:104734000278002362f31f63427862f3174382789e
:1047440062f30f23c27862f3070300ee103a704756
:020000040000fa
:020000040042b8
:10475400494e4600696e66004e414e006e616e0021
:0f476400286e756c6c2900286e696c2900250081
:020000040000fa
:020000040042b8
:1047740010b50023934206d113f0030018bf0120a3
:0e47840000eb930010bdc45ccc540133f2e78f
:020000040000fa
:020000040042b8
:1047920010b404783cb9c1600282002242824261b4
:0c47a2008361012303705df8044b704735
:020000040000fa
:020000040042b8
:0247ae00704752
:020000040000fa
:020000040042b8
:1047b000044b188880b2044b1b889bb2c01a18bfe8
:0c47c00001207047520540208602402076
:020000040000fa
:020000040042b8
:1047cc000023034a1370034a1370034a1370704793
:0c47dc000c0640200a0640200806402081
:020000040000fa
:020000040042b8
:1047e80008b5fef751fa034a002313705370024ac2
:0c47f800137008bd840440200e06402011
:020000040000fa
:020000040042b8
:1048040013b50446019201aafcf7d0fd636813f0c6
:0c481400100f18bf4ff0ff3002b010bdb5
:020000040000fa
:020000040042b8
:10482000044b1a6b000440f48050586001221a6057
:08483000704700bf0080014049
:020000040000fa
:020000040042b8
:1048380008b500f06df9034b4ff00072c3f834244b
:0848480008bd00bf00100e4086
:020000040000fa
:020000040042b8
:104850004ff0e023034ac3f80c2dbff34f8fbff393
:084860006f8ffee70400fa056a
:020000040000fa
:020000040042b8
:104868004ab1431e84460a4411f8010b03f8010fac
:084878009142f9d1604670473e
:020000040000fa
:020000040042b8
:1048800003783bb1034600bf13f8012f002afbd188
:08489000181a70471846704722
:020000040000fa
:020000040042b8
:1048980068076c094c836a9074a07ac000806888a5
:0648a80000846c82008117
:020000040000fa
:020000040042b8
:1048b000034b1b6a13f0050f14bf01200020704743
:0448c0000080014033
:020000040000fa
:020000040042b8
:1048c400034b186a80f48070c0f30020704700bf67
:0448d400008001401f
:020000040000fa
:020000040042b8
:1048d8004ff0e02341f669025a6100229a610722eb
:0448e8001a6170479a
:020000040000fa
:020000040042b8
:1048ec00013818bf01204000014b1870704700bf01
:0448fc000e06402044
:020000040000fa
:020000040042b8
:1049000000101000002010000030100000401000c7
:044910000050100043
:020000040000fa
:020000040042b8
:104914007749420075474200e94b4200e94b4200a7
:04492400e94b420019
:020000040000fa
:020000040042b8
:1049280032b1c9b20244034603f8011b9a42fbd1d3
:04493800704700bf05
:020000040000fa
:020000040042b8
:10493c0008b500f02ff9024b1860586008bd00bf95
:04494c00b40540204e
:020000040000fa
:020000040042b8
:10495000034600bf11f8012b184603f8012b002a6b
:04496000f8d17047d3
:020000040000fa
:020000040042b8
:1049640043782bb94160027243724361012343705f
:0249740070478a
:020000040000fa
:020000040042b8
:104976000a440023914201d10020704701f8013b0f
:02498600f8e750
:020000040000fa
:020000040042b8
:10498800024b186ac0f38000704700bf00800140e6
:020000040000fa
:020000040042b8
:10499800024b186ac0f34000704700bf0080014016
:020000040000fa
:020000040042b8
:1049a800024b1869c0f34000704700bf0080004008
:020000040000fa
:020000040042b8
:1049b800024b186900f00100704700bf00800040fa
:020000040000fa
:020000040042b8
:1049c800024b4ff00072c3f83024704700100e40bd
:020000040000fa
:020000040042b8
:1049d80040f46020014bd860704700bf0080004061
:020000040000fa
:020000040042b8
:1049e800024b5869c0f34000704700bf00400240c6
:020000040000fa
:020000040042b8
:1049f800024a136801331360704700bfd005402096
:020000040000fa
:020000040042b8
:104a080008b50248fdf7b0fb08bd00bfa004402070
:020000040000fa
:020000040042b8
:104a180008b50248fdf7a8fb08bd00bfb804402050
:020000040000fa
:020000040042b8
:104a280008b50248fdf7a0fb08bd00bfd004402030
:020000040000fa
:020000040042b8
:104a380008b50248fdf798fb08bd00bfe804402010
:020000040000fa
:020000040042b8
:104a480008b50248fef7a6f808bd00bf2c054020af
:020000040000fa
:020000040042b8
:104a580008b50248fdf788fb08bd00bf00054020e7
:020000040000fa
:020000040042b8
:104a680008b50248fdf758fc08bd00bf8404402083
:020000040000fa
:020000040042b8
:104a7800024b1b68196800f093b800bf2c06402051
:020000040000fa
:020000040042b8
:104a880008b5fff757fffff78efefff78cfe08bd4e
:020000040000fa
:020000040042b8
:0e4a980008b5fff7d3fd0120fef7e8f908bdd1
:020000040000fa
:020000040042b8
:0e4aa60008b5fff7ccfd0420fef7e1f908bdce
:020000040000fa
:020000040042b8
:0e4ab400a0f14103192b98bf40f0200070477d
:020000040000fa
:020000040042b8
:0e4ac200a0f16103192b98bf00f05f00704750
:020000040000fa
:020000040042b8
:0c4ad000014b1a6b1b6a7047008001400c
:020000040000fa
:020000040042b8
:0c4adc00014b5863704700bf0080014090
:020000040000fa
:020000040042b8
:0c4ae800014b186bc0b270470080014009
:020000040000fa
:020000040042b8
:0c4af400014b02221a6070470080014054
:020000040000fa
:020000040042b8
:0c4b000008b5fff7dbfa00f0010008bd6b
:020000040000fa
:020000040042b8
:0c4b0c00014b9868c0b270470080004068
:020000040000fa
:020000040042b8
:0c4b1800014b1a699b6870470080004048
:020000040000fa
:020000040042b8
:0c4b2400014bd861704700bf0040024008
:020000040000fa
:020000040042b8
:0c4b3000014b1868704700bfd005402002
:020000040000fa
:020000040042b8
:0c4b3c00014b1878704700bf08064020ad
:020000040000fa
:020000040042b8
:0c4b4800014b1888704700bffe0540209c
:020000040000fa
:020000040042b8
:0c4b5400014b1888704700bf6605402028
:020000040000fa
:020000040042b8
:0c4b6000014b00221a707047080640202c
:020000040000fa
:020000040042b8
:0c4b6c00014b1878704700bf0e06402077
:020000040000fa
:020000040042b8
:0c4b780010b50446fff7e8fe204610bd13
:020000040000fa
:020000040042b8
:0a4b840008b50520fef774f908bd1e
:020000040000fa
:020000040042b8
:084b8e0008b5fff72afe08bd7f
:020000040000fa
:020000040042b8
:084b980000487047880240202c
:020000040000fa
:020000040042b8
:084ba000004870471006402098
:020000040000fa
:020000040042b8
:084ba80008b5fff7e1fa08bdb2
:020000040000fa
:020000040042b8
:064bb0000068fff7dbbb0b
:020000040000fa
:020000040042b8
:044bb6000120704723
:020000040000fa
:020000040042b8
:044bba00012070471f
:020000040000fa
:020000040042b8
:044bbe00012070471b
:020000040000fa
:020000040042b8
:044bc2000120704717
:020000040000fa
:020000040042b8
:044bc6000120704713
:020000040000fa
:020000040042b8
:044bca00012070470f
:020000040000fa
:020000040042b8
:044bce00012070470b
:020000040000fa
:020000040042b8
:044bd2000120704707
:020000040000fa
:020000040042b8
:044bd6000120704703
:020000040000fa
:020000040042b8
:044bda0001207047ff
:020000040000fa
:020000040042b8
:044bde0001207047fb
:020000040000fa
:020000040042b8
:044be40055aa55aacf
:020000040000fa
:020000040042b8
:044be80000207047f2
:020000040000fa
:020000040042b8
:044bec0000207047ee
:020000040000fa
:020000040042b8
:044bf00000207047ea
:020000040000fa
:020000040042b8
:044bf400704700bf47
:00000001FF
