:020000040000fa
:020000040040ba
:10000000f8ff452001134000af294000af29400010
:10001000af294000af294000af2940000000000098
:10002000000000000000000000000000af294000b8
:10003000af29400000000000af294000752c4000af
:10004000af294000af294000af294000af29400050
:10005000af294000af294000af294000af29400040
:10006000af29400000000000af294000af29400048
:10007000af294000af294000af294000af29400020
:10008000af294000af294000af294000af29400010
:10009000af294000af294000af294000af29400000
:1000a000af294000af294000af294000af294000f0
:1000b000af294000af294000af294000af294000e0
:1000c000af294000af294000af294000af294000d0
:1000d000af294000af294000af294000af294000c0
:1000e000af294000af294000af294000af294000b0
:1000f000af294000af294000af294000af294000a0
:10010000af294000af294000af294000af2940008f
:10011000af294000af2940000000000000000000af
:10012000af294000af294000af294000af2940006f
:10013000af294000af29400000000000af29400077
:10014000af294000af294000af294000af2940004f
:10015000af294000af294000af294000af2940003f
:08016000af294000af29400067
:020000040000fa
:020000040040ba
:10016800f8b500bff8bc08bc9e4670473d24400067
:10017800f8b500bff8bc08bc9e467047192440007b
:020000040000fa
:020000040040ba
:08018800e80600000100000080
:020000040000fa
:020000040040ba
:100190002de9f04f2ded0a8b92ed009b8fb0b5ee5f
:1001a000c09b05938b680493f1ee10fa0b69cd6840
:1001b0000690d1e900a78b46089308d41af0040fe3
:1001c00034d11af00803039332d0202302e02d2308
:1001d000b1ee499b2b70049b03f1ff39012303937c
:1001e00019ee903a19ee101a23f00042c04b002489
:1001f0009a4208bfa1421ed1059b0398413b192b8f
:1002000094bfbc49bc49284402f090fd284602f046
:1002100059fc049bcdf800a002462946069801f03f
:10022000affe0fb0bdec0a8bbde8f08f2b23d1e7fa
:10023000ddf81090d4e78c42934108d2059b0398d7
:10024000413b192b94bfad49ad492844dce7b5eedd
:10025000409bf1ee10fab2ee04cbb7ee00ab40f0eb
:10026000c080059802f01efd002fc0b2c0f262816e
:10027000672840f0d580002f08bf0127231dc0f25a
:10028000d180bc4280f2ce80002c4ff066080cdaa0
:10029000b8f1660f07f1010707d1002c02dab7eebb
:1002a00000ab0024672800d027440023b0ee4a8b1f
:1002b000b0ee49bb8bee080b0993079001f0f4fbfd
:1002c000099b90ee08bb01339f420798b1ee4bbbf0
:1002d00088ee0c8beed1b1ee047b28ee078bb4eeea
:1002e000cb8bf1ee10fa00f3a080b4ee4b8bf1ee65
:1002f00010fa09d1bdeec00b9fed796b10ee103aec
:1003000013f0010f06fe088b39ee088b2aee0c9bca
:10031000b4eec89bf1ee10fa00f28a80b8f1660fd5
:1003200004f1010440f0868001372146cb1b0022f6
:10033000039f0a9316460a9b994240f0a5803346d4
:10034000002e00f0df80e8190022b8f1650f02707e
:1003500029d1089b013b9442ea54bcbf644201226c
:100360004ff0020b4ff00a0e591e002c40f0d180c6
:10037000bbf1000f00f3cd80002a0cbf2b222d22f1
:100380006a54059a023b413a192a05eb030198bfca
:100390004ff045089f4281f8008001da02f0c6fc68
:1003a000cb44abf104090af00303022b7ff42eaf18
:1003b000b9f1000f7ff72aaf284602f083fb05eb67
:1003c0000903039a824240f3b18003984a463021e0
:1003d000284402f0c1fb0023049317e70134b0ee78
:1003e00047ab2aee0c7bb4eec79bf1ee10faf5d5c5
:1003f0009fed3d7b00230be014f5967f05da23b9d2
:1004000029ee079b2aee07ab0123013c8aee0cabd9
:10041000b4eeca9bf1ee10faeed422e706272de7e0
:10042000804635e74ff065083fe79fed2d8b6be782
:10043000b0ee4a9bb8f1650f14bf2146002175e765
:100440004eb9002907da079e2e23ab550123013749
:1004500009f1ff391e46ab1805eb070c3b444ff082
:10046000300e01e00cf801eb9c45fbd1099b02eb3f
:10047000070c3033a9eb020202f1ff3905f80c300a
:100480000cf10107002223e0dbf810300797053b51
:10049000bb427ff654af88ee090bcde90c200b91df
:1004a00001f002fbfdeec07bdde90b1217ee90caf6
:1004b0006346092ba8bf092309930af0100353eae6
:1004c0000c0c0d98bcd16728bad10029b8da0132da
:1004d00099ee008b0139b1ee488b89ee0c9b2ae72f
:1004e0000000000000000000000000000000504379
:1004f0000000f07f942a4000982a40009c2a400087
:10050000a02a40001af0100f1ebf2e23eb55013712
:1005100019e70b4694fbfefc0ceb8c01a4eb4101ac
:100520003031e95464460bf1ff3b1de72a5c1a5455
:10053000013846e767283ff471af80460627a7e6f3
:020000040000fa
:020000040040ba
:100540002de9f047aeb00746164605914ff000087a
:10055000059d2b78002b00f0e08000244ff0ff3346
:10056000cde909430eab0c9380230b940d932b5dc7
:100570000bb1252b30d134b12946224638462544cb
:1005800001f0a8ff0595059b1a78252a40f0bc804c
:1005900003f10109cdf814904a46002113782b2b62
:1005a000104602f1010223d02ed8202b24d0232b79
:1005b00026d001b105902a2b2ed001f0c5fe059a58
:1005c0000b900020114601320b78303b092b79d972
:1005d000002830d005912ee00134c8e7099b43f094
:1005e000010309930121d9e7099b43f00203f8e7ce
:1005f000099b43f00403f4e7099b43f00803f0e789
:10060000099b43f01003ece72d2be7d0302bebd008
:100610000029d2d00590d0e733681a1d1b683260dc
:100620000130002b05900b9305da099a5b4282f0aa
:10063000010209920b93099bda0744bf23f00203de
:100640000993059b1a782e2a0fd14ff0000acdf896
:1006500028a05a785d1c2a2a059535d102330593c6
:1006600033681a1d1b6832600a9305a801f0faff6f
:10067000059d0390287802f015fb2528039900f0ca
:10068000da806138172800f2e080172800f2dd8058
:10069000dfe810f02b00db00b6004700a700a70042
:1006a000a700db004700db00db00db00db009e0077
:1006b00065008300db00db00c700db005600db00c9
:1006c000db00740001207de7284601f03dfe534623
:1006d0000a90294601350a78303a092a03d9002bb5
:1006e000c3d00591c1e70123f3e7324606a802f023
:1006f000b3f8002872d06b1c059306aa2b7809a9c1
:10070000384602f054fb04444444a04540f3a7801b
:10071000544b4f221a604ff0ff3840462eb0bde8d0
:10072000f0873346012206a801f0fcf8002855d0d6
:10073000013506aa09a93846059501f0c3fae2e792
:100740003346002206a801f0edf8002846d0013516
:1007500006aa09a93846059502f027fbd3e73346d8
:10076000002206a801f0def8002837d0013506aadd
:1007700009a93846059502f018fbc4e73346002264
:1007800006a801f0cff848b36b1c05932b7806aa96
:1007900009a9384600f048feb5e733460022f021ab
:1007a00006a801f0bff8c8b1dde9063201351343f0
:1007b00005950bd12c4802f085f9099b00932a4935
:1007c0000b9b0246384601f0dbfb9ce77823dee713
:1007d000334608eb040206a801f04cfc01350595f0
:1007e00092e7324606a802f037f80028f6d06b1cd4
:1007f000059306aa2b7809a93846fff7c9fc82e7ba
:100800008029ebd1336801351a1d1b6832608df8e1
:1008100018300595012306aa09a9384602f0c9fa3d
:1008200071e78029dad13268131d3360013512680f
:1008300005950023f0e78029d0d1099b009301356d
:100840000b9b059509490122bce700234ff0ff32bd
:10085000cdf8149009930b930a920093f2e7a04607
:1008600076e600bfcc024020a42a4000aa2a40001d
:020000040000fa
:020000040040ba
:100870002de9f04786468c460846089e1546744684
:100880001946002b40f0c2808242b2fa82f245d96a
:100890004ab1c2f1200300fa02fc2efa03f395409c
:1008a00043ea0c0c94404fea154ea8b2bcfbfef88c
:1008b000230c0efb18cc08fb00f943ea0c439945c6
:1008c00028d9eb1808f1ff3704d2994502d9a8f1cd
:1008d00002072b44a3eb0903a4b2b3fbfefc0efbff
:1008e0001c330cfb00f044ea0344a04214d92c1939
:1008f0000cf1ff3304d2a04202d9acf102032c4424
:10090000241a43ea07401eb1d440002334607360c8
:10091000bde8f0874746dde76346f1e792bb431b3e
:1009200001214fea154eafb2b3fbfefc200c0efbcb
:100930001c330cfb07f840ea0343984562d9eb18d7
:100940000cf1ff3004d2984502d9acf102002b44df
:10095000a3eb0803a4b2b3fbfefc0efb1c330cfba1
:1009600007f744ea0344a7424ed92c190cf1ff3390
:1009700004d2a74202d9acf102032c44e41b43ea9f
:100980000040c0e7c2f1200320fa03f195409040f7
:100990002efa03f303434fea154eafb2b1fbfefc50
:1009a0000efb1c10190c0cfb07f841ea00418845ae
:1009b00004fa02f422d969180cf1ff3004d28845f8
:1009c00002d9acf102002944a1eb08019bb2b1fbb2
:1009d000fefc0efb1c110cfb07f743ea01439f4290
:1009e0000ed9eb180cf1ff3104d29f4202d9acf1c1
:1009f00002012b44db1b41ea004192e76046e3e73a
:100a00006146f7e76046a3e76346b7e7834206d946
:100a100016b9002108467be7c6e900e0f9e7b3fa1a
:100a200083f78fb9834201d3724508d8beeb020425
:100a300060eb030301209c461eb9002168e738469d
:100a4000fae7c6e9004cf8e7c7f1200cbb4022faf0
:100a50000cf41c432efa0cf120fa0cf3b8400143bd
:100a60004fea14490efa07f5b3fbf9f81ffa84feb2
:100a700009fb18300b0c08fb0efa43ea00439a45b9
:100a800002fa07f240d9e31808f1ff3004d29a4580
:100a900002d9a8f102002344a3eb0a0389b2b3fbf5
:100aa000f9f809fb183308fb0efe41ea03418e45b5
:100ab0002cd9611808f1ff3304d28e4502d9a8f170
:100ac0000203214443ea0040a0fb0298a1eb0e017f
:100ad0004145ce46434602d306d14d4504d2b9eb3b
:100ae000020e68eb04030138002ea6d0b5eb0e020f
:100af00061eb030101fa0cfc22fa07f34cea030351
:100b0000f940c6e9003198e74046c5e74346d9e7d2
:020000040000fa
:020000040040ba
:100b10004c0140201c000000000000006c0240203e
:100b20000b000000000000004a024020020000000c
:100b30000100000010270000a00240201400000067
:100b400000000000770240200100000000000000cb
:100b5000fc02402004000000010000000000c84228
:100b6000fc0140201400000000000000880040202c
:100b7000500000000000000090024020080000002b
:100b800000000000b4024020080000000000000047
:100b90002801402024000000000000004c024020fa
:100ba000100000000000000086004020020000004d
:100bb00000000000d80240200200000000000000f9
:100bc00084014020180000000000000024024020a2
:100bd00012000000000000009c01402018000000ee
:100be0000000000038024020120000000000000059
:100bf000b40140201800000000000000d402402092
:100c00000200000000000000cc014020180000009d
:100c100000000000780240200900000000000000f1
:100c20008402402009000000000000001002402063
:100c30001400000000000000d0024020020000006c
:100c400000000000e4014020180000000000000047
:100c5000360240200200000000000000bc024020dc
:100c600004000000000000005c02402010000000b2
:100c7000000000000000402086000000000000008e
:100c8000680140201c00000000000000c00240205d
:100c90000800000000000000d800402050000000c4
:100ca00000000000dc0240202000000001000000e5
:100cb0000100000003000000000000000000000030
:100cc000000000000000000000000000980240202a
:100cd000980240200800000000000000c8024020e8
:100ce00008000000000000000000000000000000fc
:020000040000fa
:020000040040ba
:100cf00008b5012805d0624b1b78002b00f0bd80a1
:100d000008bd604b1b7803b35f4b1a785b7843eaee
:100d100002231bb25d4a9342edd15b4b9a78db789c
:100d200043ea02231bb2b3f1ff3f04d0584b012228
:100d300083f84d20dfe70022524b1a70544b83f8a2
:100d40004b20012283f84d20d5e74f4b1b78504aaa
:100d500082f84c30202b00f28b8001a252f823f055
:100d6000f70c4000050e4000610e4000710e40007f
:100d7000710e4000710e4000710e4000710e400077
:100d8000710e4000710e4000710e4000710e400067
:100d9000710e4000710e4000710e4000710e400057
:100da000150e40004b0e4000710e4000710e4000c9
:100db000710e4000710e4000710e4000710e400037
:100dc000710e4000710e4000710e4000710e400027
:100dd000710e4000710e4000710e4000710e400017
:100de000e50d4000284b5b7807ee903af8ee677a05
:100df000f2ee046a87eea67a254b83ed117a00f0b5
:100e0000a5fb78e7234801f065fd214b012283f81b
:100e10004d2070e7204801f05dfd1d4a012382f856
:100e20004b3082f84d30174a13701c4910220a705b
:100e3000ac224a704b228a700022ca70104a13708a
:100e40000422174801f09cfe55e7164801f042fdc8
:100e50000f4b002283f84b20012283f84d204ae7f4
:100e6000114801f037fd0a4b012283f84d2042e77b
:100e7000074b022283f84d203de701f0a7fc3fe736
:100e800037024020360240200000402055aaffffd4
:100e900088004020ac124000b4124000bc02402048
:0c0ea00068014020e0124000f812400001
:020000040000fa
:020000040040ba
:100eac0070b504460378013b082b73d8dfe803f0d8
:100ebc0005286b73405f959ac00001f015fe002861
:100ecc0068d0624b1b78002b64d1604b01221a70e6
:100edc0001f0f0fe237b43b16078400000f0fe008f
:100eec0001f060fd0223237054e06378a07a00388f
:100efc0018bf012040ea4300c0b201f053fdf1e7f6
:100f0c0001f0fcfd50b100236372237b53b9a37a2b
:100f1c00002b0cbf0323072323703be0204601f07a
:100f2c00e9f937e0e07a01f0cbfe0523237031e0dc
:100f3c0001f032fe50b9a38a01339bb2a382b3f500
:100f4c007a7f27d9204601f0d5f923e00023a3822c
:100f5c0001f0d4fd38b1607801f07efd00232373dd
:100f6c000623237016e0204601f0c4f912e001f0cc
:100f7c00c5fd20b100236372072323700ae02046cd
:100f8c0001f0b8f906e0437a4268d05c01f098feb3
:100f9c000423237070bd01f0fffd50b9a38a013307
:100fac009bb2a382b3f57a7ff4d9204601f0a2f963
:100fbc00f0e70023a38201f0a1fd50b1637a013365
:100fcc00dbb26372227a9a4214bf03230923237083
:100fdc00e0e7204601f08ef9dce700f0b0fa0823d8
:100fec002370d7e701f0e0fd50b9a38a01339bb21f
:100ffc00a382b3f57a7fcdd9204601f07bf9c9e7fe
:10100c000023a382657a666801f060fe7055637aee
:10101c000133dbb26372227a9a4204d001f08ffa68
:10102c0007232370b6e701f057fe09232370b1e7bd
:10103c0001f0f6fb00232370a375044a1370236997
:10104c00002ba7d000209847a4e700bf86004020c3
:020000040000fa
:020000040040ba
:10105c00f8b50525524c534e534f04e06b1e13f05c
:10106c00ff0500f09a8001f053fd2378002b62d02d
:10107c006378002b63d0a378002b66d0e378002b29
:10108c0067d02179304601f059fc2379002b64d0cc
:10109c006379002b69d0a379002b6ad0e379002bfc
:1010ac006bd0237a002b6cd0637a002b6dd0a37a93
:1010bc00002b6ed02378002bd0d06378002bcdd0b2
:1010cc00a378002bcad0364bdb78002bc6d0344b20
:1010dc001b79002bc2d0324b5b79002bbed0304b2e
:1010ec009b79002bbad02e4bdb79002bb6d02c4b36
:1010fc001b7a002bb2d02a4b5b7a002baed0284b3c
:10110c009b7a002baad001f044fe002846d001f0b7
:10111c0038fe002842d001f036fe00283ed001f007
:10112c0034fed8b301f033fec0b301f034fe003806
:10113c0018bf012032e000f0affc207098e701f0fe
:10114c0021f9607000f086fa95e701f025f8a0709f
:10115c0094e701f07df8e07093e700f0edff0146b5
:10116c002071384601f0eafb92e701f0fefd607158
:10117c0091e701f0fcfda07190e701f0fefde0713c
:10118c008fe701f0f6fd20728ee701f0f4fd60723e
:10119c008de701f0f4fda0728ce70020f8bd00bfd4
:0c11ac006c024020b8114000e41140002b
:020000040000fa
:020000040040ba
:1011b800696e69745f7374617475732e7573617287
:1011c80074206265666f726520696e697420636f4a
:1011d80064653a202564000000000000696e6974a7
:1011e8005f7374617475732e757361727420636fa5
:1011f800646520616674657220696e69743a20209e
:1012080025640000627573207265636f7665727974
:1012180020666f7220616464723d307825303258e0
:101228000a0000005b5350495d204552524f523a24
:101238002054582054696d656f75742100000000b2
:101248005b5350495d204552524f523a2052582024
:1012580054696d656f757421000000005b50524f32
:10126800505d20726573756c743d25642052583a40
:101278002025303258202530325820253032582049
:101288002530325820253032582025303258202534
:101298003032582025303258202530325820253019
:1012a80032580a00636d6431000000005b545443f7
:1012b8005d2053544152545f4f5441207265636519
:1012c8006976656420e280942073656e64696e6750
:1012d8002041434b00000000636d643320e280949a
:1012e800204f5441206d6f6465204f464600000032
:0512f800636d64350088
:020000040000fa
:020000040040ba
:10130000414b03b19847414b03b19847eff310832a
:10131000b3fa83f35b09019372b6bff35f8f019950
:101320004ff0e022d2f8883d43f47003c2f8883dc4
:10133000bff34f8fbff36f8f11b1bff35f8f62b6f3
:10134000334b5b6913f4003f13d1bff34f8fbff3ef
:101350006f8f2f4b0022c3f85022bff34f8fbff384
:101360006f8f5a6942f400325a61bff34f8fbff357
:101370006f8f274b5b6913f4803f2bd1244b0022e6
:10138000c3f88420bff34f8fd3f88030c3f3c90470
:10139000c3f34e334fea431c43f6e07e1c480cea8d
:1013a0000e01234641ea8372c0f86022013bb3f18b
:1013b000ff3ff7d1acf1200c1cf1200fefd1bff3b0
:1013c0004f8f134a536943f480335361bff34f8ff8
:1013d000bff36f8f00f00efd01f096f90d4b23f077
:1013e0007f030b4a93600c4b98470c4b03b1984713
:1013f0000b4b03b198470021084600f081fd094bd3
:1014000003b19847fee700bf0000000000000000a5
:1014100000ed00e00000400001224000000000005c
:081420000000000000000000c4
:020000040000fa
:020000040040ba
:101428002de9f04f8bb00d460493d1e901132f68d5
:10143800d5f80c9003900029a8bf27f00207924620
:10144800b8bf012117f010020592dae9006232d024
:1014580056ea02002fd0a3f1020b2c69029617f06e
:10146800080004f1ff3418bf0bf1ff3b904600223f
:1014780009f8042006905a46012c1edc059a002a19
:1014880051d1069a1ab1013c202209f804202a6990
:1014980003980097013a121b09eb040100f06cfd58
:1014a800039b5b68db0503d56b689842b8bf184699
:1014b8000bb0bde8f08f9b46cfe7029850ea0800d2
:1014c80008d1a1eb0b001044002803dc002ad5dd6d
:1014d800b807d3d50298049e00f00f000928a6f19a
:1014e800410cd4bf30305730bcf1190f04f1ff3430
:1014f8000ed840f0200cacf1610cbcf1190f07d8e4
:10150800cde90813079201f0d0fbdde90813079a2b
:1015180009f804000298060946ea0870013a0290a0
:101528004fea1818a8e7dae900210a43a9d009eb1d
:101538000402049902f8011c023c302209f8042034
:021548009fe71b
:020000040000fa
:020000040040ba
:02154a007047e8
:020000040000fa
:020000040040ba
:10154c0000b583b03a4a202313703a49d1ed007aa2
:10155c00b2ee047a67ee877afceee77a17ee903af1
:10156c005370d1ed017adfed346a67eea67afceeaa
:10157c00e77a17ee903a93703049d1ed007abceed1
:10158c00e77a8ded017a9df80430d37007ee103aae
:10159c00b8eec77a77eec77a67eea67afceee77af2
:1015ac0017ee903a1371d1ed017abceee77a8ded1e
:1015bc00017a9df80430537107ee103ab8eec77af1
:1015cc0077eec77a67eea67afceee77a17ee903ada
:1015dc0093711b4bd3ed007afceee77a17ee903a41
:1015ec00c3f30721d1711372164bd3ed007afceec5
:1015fc00e77a17ee903ac3f3072151729372124bac
:10160c0093f84a30d37213460c32002013f8011ba6
:10161c0048409342fad1064908730c4b01221a70c8
:10162c000d220b4801f0a6fa03b05df804fb00bfd5
:10163c005c024020900240200000c8424c02402036
:10164c00b8024020b40240208800402037024020dd
:04165c0068014020c1
:020000040000fa
:020000040040ba
:1016600030b486b03f4b80221a6003f5482318221d
:10167000c3f8002e1022c3f8102e0822c3f8142e2f
:10168000092019461025002442f20f72c1f8345e79
:101690000194019b934205dc019b01330193019b63
:1016a0009342f9ddc1f8305e0294029b934205dc5f
:1016b000029b01330293029b9342f9ddd1f83c3e39
:1016c00013f0080f01d10138e0d1274b0822c3f8ed
:1016d000102e1021c3f8341ec3f8342e00230393b8
:1016e000039a42f20f739a4206dc1a46039b0133b7
:1016f0000393039b9342f9dd1b4b1022c3f8302e5a
:1017000000230493049a42f20f739a4206dc1a46ad
:10171000049b01330493049b9342f9dd124b08228e
:10172000c3f8302e00230593059a42f20f739a42b4
:1017300006dc1a46059b01330593059b9342f9ddb0
:10174000094b1822c3f8042ea3f5482380221a60ff
:1017500024221a601a6a49f69d521a6106b030bcfa
:0c176000704700bf0080014000000e40f8
:020000040000fa
:020000040040ba
:10176c0070b504460378013b052b09d8dfe803f07c
:10177c00030914326167407801f07af9022323706f
:10178c0070bd436833b1427b985c01f02dfa0323a2
:10179c002370f5e7ff20f8e701f00efaa8b9a37b58
:1017ac000133dbb2a373c82bead9284801f08cf8bb
:1017bc00607801f011fa0023a37323702369002bc6
:1017cc00ded04ff0ff309847dae70023a3730423f1
:1017dc002370d5e701f0f8f9a8b9a37b0133dbb28c
:1017ec00a373c82bccd91a4801f06ef8607801f0bd
:1017fc00f3f90023a37323702369002bc0d04ff09f
:10180c00ff309847bce70023a373a56875b1667bce
:10181c0001f068faa855637b0133dbb26373227b5a
:10182c009a428cbf022305232370a9e701f05afad0
:10183c00f1e7407801f0d0f906232370a0e70369a3
:10184c000bb1002098470023237099e72c1240001d
:04185c0048124000ee
:020000040000fa
:020000040040ba
:1018600010b588b004462b4a537a0793137a06932f
:10187000d37905939379049353790393137902935e
:10188000d3780193937800935378127801462248d5
:1018900001f05af80cb108b010bd1e4b03f108005e
:1018a000002213f8011f4a408342fad1194b5b7a98
:1018b0009342f0d1194a174b597811709878d9781a
:1018c00041ea002107ee901af8eee77adfed146a9c
:1018d00087eea67a82ed017a1879597941ea0021da
:1018e00007ee901af8eee77ab2ee047ac7ee876a4e
:1018f000c2ed026a9879d97941ea002107ee901a7f
:10190000f8eee77ac7ee876ac2ed036a1b7a1374b2
:10191000c1e700bf7802402064124000fc01402073
:041920000000c842b9
:020000040000fa
:020000040040ba
:10192400902910b50fdc7f2913dd8039102910d8d8
:10193400dfe801f02b2b360f110f0f0f200f0f0fc5
:101944000f0f0f0f3600c02944d0f02942d0a02930
:1019540021d000200de019682ab10a1d1a60b1f9de
:101964000030da1702e00c1d1c600b88c0e900325d
:10197400012010bd196822b10a1d1a6091f90030c6
:10198400efe70c1d1c600b78f0e71968f2b10a1d33
:101994001a600b68e5e71a68111d19601368e0e71f
:1019a400196852b1073121f0070101f108021a60e8
:1019b400d1e90023c0e90023dae7ca1d22f00702b7
:1019c40002f108011960d2e90023f3e70c1d1c6041
:1019d4000b68cbe71a68111d1960136803600023b4
:0419e4004360c5e7b0
:020000040000fa
:020000040040ba
:1019e80000b170472a4b2b4a117807ee101ab8ee4f
:1019f800477adfed297ac7ee276ac3ed006a517886
:101a080007ee101ab8ee477ac7ee276ac3ed016ae7
:101a1800917807ee101ab8ee477ac7ee276ac3ed39
:101a2800026ad17807ee101ab8ee477ac7ee276a2d
:101a3800c3ed036a117907ee101ab8ee477ac7eebc
:101a4800276ac3ed046a517907ee101ab8ee477a8f
:101a5800c7ee276ac3ed056a917907ee101ab8ee4a
:101a6800477ac7ee276ac3ed066ad17907ee101ade
:101a7800b8ee477ac7ee276ac3ed076a127a07ee0f
:101a8800102ab8ee477ac7ee276ac3ed086aa8e7b6
:0c1a980028014020380240200000c84215
:020000040000fa
:020000040040ba
:041aa4000120704766
:020000040000fa
:020000040040ba
:101aa80053ec102bc3f30a512de9f04140f2fd70bd
:101ab8004c1e84429e4640d8a1f2ff30002833dbfa
:101ac80033282ddc244c4ff0ff3cc0f1200615468e
:101ad800a1f21f4104fa06f22cfa00fc4cea020caf
:101ae80024fa01f24cea020cc44003ea040805eaad
:101af8000c0757ea080725ea0c0223ea04030fd06b
:101b0800002b0dda4ff4801404fa06f624fa01f1da
:101b18000e43b61824fa00f444eb03043246234675
:101b280043ec102bbde8f0819fed090bbfee007b65
:101b3800002b20fe070bbde8f0810029f0d10a46f2
:101b480003f0004343ec102bece700bfaff3008039
:0c1b58000000000000000000ffff0f0074
:020000040000fa
:020000040040ba
:101b640010b5044600f056f8264bd3ed007a052c48
:101b74003ad8dfe804f0050d171f2b03204610bdeb
:101b8400002833d0204b1868003818bf0120f6e72e
:101b940070b31e4b1b686bbb1b4b1868003818bf17
:101ba4000120ece740b3194b1b68002b14bf2046ff
:101bb4000120e4e7b2ee047af4eec77af1ee10fa0b
:101bc4001cd400280cbf20460020d8e7b2ee047acb
:101bd400f4eec77af1ee10fa12d50d4b1b68002b08
:101be4000cbf20460520cae70020c8e70320c6e74b
:101bf4000320c4e70220c2e70320c0e70420bee7b5
:101c04000320bce7fc024020a8024020a40240209c
:041c1400a0024020ca
:020000040000fa
:020000040040ba
:101c1800254bd3ed007ab1ee0a7af4eec77af1eeed
:101c280010fa34dc9fed217af4eec77af1ee10fa5f
:101c38002fd4d3ed017ab0ee007af4eec77af1ee44
:101c480010fa28dcb7ee007af4eec77af1ee10fa53
:101c580023d4174bd3ed007a9fed167af4eec77aaa
:101c6800f1ee10fa1bdcbaee047af4eec77af1ee64
:101c780010fa16d4104b93ed007af3ee0e7ab4ee08
:101c8800e77af1ee10fa54bf0120002070470020d7
:101c980070470020704700207047002070470020e0
:101ca80070470020704700bf90024020666646409b
:0c1cb800b402402000007042fc024020fa
:020000040000fa
:020000040040ba
:101cc4002de9f041d2e900230c4686b005465feacf
:101cd400d378d1e901060968e76805913fd05242fb
:101ce40063eb4303002808db21f002010591b8f1fe
:101cf400000f02d10599480722d5711e05a802904c
:101d04000a20cde90010204600f076f9b8f1000f62
:101d14001ad001382d233b542269059b0093013ac4
:101d24003346121a3918284600f028f96b68db0587
:101d340003d563689842b8bf184606b0bde8f08181
:101d44000807dad43146d9e7059b590702d501388b
:101d54002b23e0e71a07dfd501382023dbe700282f
:041d6400c2dac7e731
:020000040000fa
:020000040040ba
:101d680070b504460378012b0dd0022b2ed0002b22
:101d780036d100f057fe002831d00023638263611a
:101d8800012323702be000f04dfe50b9638a33b372
:101d9800636901336361144a934220d90223237093
:101da8001de0658ae66800f0b1ff7055638a01336b
:101db8009bb2638200226261228a9a420fd8002372
:101dc8002370a3695bb10120984708e083690bb1d0
:101dd800002098470023638223826361237070bdcb
:0c1de80000230370fbe700bf3f420f0028
:020000040000fa
:020000040040ba
:101df4001a4b1b4a5a601a46936813f0010ffbd022
:101e0400164bdb6813f4c07f12d0144b154a5a608a
:101e14001a46936813f0010ffbd0104b124a5a6014
:101e24001a46936813f0010ffbd0104b104a1a6046
:101e3400bff34f8fbff36f8f0e4bd3f8902222f076
:101e44000102c3f89022d3f8942222f00102c3f8cd
:101e54009422bff34f8fbff36f8f7047000c0e4077
:101e64000d00005a0c08005a0c07005a00180e40c6
:081e7400010000a500ed00e0f3
:020000040000fa
:020000040040ba
:101e7c001c4b4ff40042c3f854281b49d1f81421d1
:101e8c0042f01002c1f81421184a4ff49841c2f8dc
:101e9c0010164ff40011c2f8041ed2f8701e21f473
:101eac000011c2f8701ed2f8741e21f40011c2f891
:101ebc00741e10225a601a6f42f010021a675a6f81
:101ecc0042f010025a67a3f539230c221a604ff422
:101edc000c625a604e221a6250221a60044b012284
:101eec001a70704700100e400080084000000e4031
:041efc0087004020fb
:020000040000fa
:020000040040ba
:101f000038b5fff7bbfffff7a9f860b100f046fc5a
:101f100000f05cfc0a242546284600f0b3fe013c94
:101f2000fad1002405e000f0acfcefe700f006fc7d
:101f3000044600f02cfd052cfbd801a353f824f037
:101f40002d1f4000591f4000611f4000691f4000c5
:101f5000711f4000791f400000f0eefe0446e8e7e4
:101f600000f0effe0446e4e700f000fc0446e0e782
:101f700000f0ecfe0446dce700f0edfe0446d8e796
:020000040000fa
:020000040040ba
:101f80002de9ff471d460c9b13f0010806460f463e
:101f9000144601d195420bd822463946304600f00e
:101fa00099faa54204d82546284604b0bde8f08732
:101fb000a5eb04094a46102a28bf102220216846b2
:101fc000ca4600f0c9fd00bfbaf10f0f0ed809f0e4
:101fd0000f026946304600f07dfab8f1000fe3d1f8
:101fe00022463946304600f075fadde71022694690
:0c1ff000304600f06ffaaaf1100ae5e795
:020000040000fa
:020000040040ba
:101ffc002de9f84f0446dde90a9a6668d4f80c809e
:10200c0024690c9f013c1946002e4ff00003d7f8b1
:10201c0000b008f804301046b8bf01264d46012325
:10202c00002c03dcdbb12046bde8f88f50ea01023e
:10203c0009d1a6eb09022a44002a04dc002df1ddab
:10204c001bf0020feed052464feaea7300f0d0fbc1
:10205c00013c1346303208f80420013de0e73b68b0
:08206c0023f010033b60dee7e6
:020000040000fa
:020000040040ba
:10207400902910b50fdc7f2911dd803910290ed885
:10208400dfe801f00f0f250d170d0d0d1e0d0d0dc1
:102094000d0d0d0d2500a02903d0c02901d000206d
:1020a40006e019680c1d1c600b6803601a600120af
:1020b40010bd19680c1d1c600b6803601a80f6e7dc
:1020c40019680c1d1c600b6803601a70efe719682f
:1020d4000c1d1c600b680360d117c3e90021e6e7ff
:020000040000fa
:020000040040ba
:1020e40010b504464378012b05d0022b20d023b32e
:1020f4000023437021e000f083fd40b9636901339c
:1021040063610e4a934218d90223637015e0637a1f
:102114006268d05c00f0f6fd637a0133dbb263726f
:1021240000226261227a9a4207d80023637004e095
:102134000023437203724361437010bd3f420f009a
:020000040000fa
:020000040040ba
:10214400154b4ff42052c3f8102603f58053032295
:102154005a601a6f22f003021a675a6f42f00302a0
:102164005a67a3f53d23ac221a604ff40c625a60ff
:102174004e221a6250221a604ff480721a605b6910
:1021840013f0010f05d0054b9a695a6912f0010f3b
:10219400fad10120704700bf00000e400040024009
:020000040000fa
:020000040040ba
:1021a400154b4ff40412c3f8102603f580534ff473
:1021b400e002c3f80424d3f8702442f4e002c3f824
:1021c4007024d3f8742422f4e002c3f874244ff08a
:1021d4000072c3f80024c3f81024c3f83024a3f514
:1021e400592380221a6011225a604ff47f421a63e5
:0c21f40001201860704700bf00000e4082
:020000040000fa
:020000040040ba
:102200000e4a38b5002313600d4a0e4c13600e4a77
:102210000e4d13600e4a13600e4a13600e4a53624d
:1022200013610123936000f035fd00f062fcac42c5
:1022300000d338bd54f8043b9847f8e7c802402063
:10224000e400402074014000e0004020780140009c
:0c225000d8004020dc004020e8004020c6
:020000040000fa
:020000040040ba
:10225c00134b4ff40062c3f800274ff41e32c3f83f
:10226c00042ed3f8702e22f41e32c3f8702ed3f83d
:10227c00742e22f41e32c3f8742ea3f5c8238022c8
:10228c001a60084a5a604ff400721a6201221a60ee
:10229c001a46136913f0807ffbd00120704700bff2
:0822ac0000000e4011000001ca
:020000040000fa
:020000040040ba
:1022b4000e4b1b78cbb900b583b00d4a01231370c4
:1022c400002353709370d370137153719371d3714e
:1022d4001372084b019309230093074b19210348f8
:1022e40000f00afb03b05df804fb704710024020c5
:0c22f40084024020611840007802402065
:020000040000fa
:020000040040ba
:1023000010b5044600f092fa00232370a382a37d47
:102310000133dbb2a375022b08d8094b00221a70d7
:10232000236913b14ff0ff30984710bd617805481d
:1023300000f00afbfff794f90023a375ede700bf57
:08234000860040200c12400051
:020000040000fa
:020000040040ba
:102348000278202a034600f10100f9d0a2f1090120
:102358000429f5d92b2a06d02d2a13d101210133be
:10236800013b002006e00021f9e700bf00eb8000f8
:10237800c2eb400013f8012f303a092af6d901b907
:08238800404270470021ebe721
:020000040000fa
:020000040040ba
:102390000f4b4ff40022c3f810261822c3f8042e66
:1023a000d3f8702e22f01802c3f8702ed3f8742ed2
:1023b00022f01802c3f8742ea3f5482380221a6075
:1023c00024221a601a6a49f69d521a610120704748
:0423d00000000e40bb
:020000040000fa
:020000040040ba
:1023d40000b170470c4b0d4a117807ee901af8eed5
:1023e400677af2ee046a87eea67a83ed007a527871
:1023f40007ee902af8ee677adfed056a87eea67a93
:1024040083ed017ae5e700bf90024020d802402026
:042414000000c842ba
:020000040000fa
:020000040040ba
:1024180010b5054c237833b9044b13b10448aff316
:1024280000800123237010bd4c01402000000000f3
:102438000000000008b5034b1bb103490348aff384
:10244800008008bd0000000050014020000000008e
:020000040000fa
:020000040040ba
:1024580000b1704738b50c4d284600f0b5fa0b4c62
:1024680084ed000a281d00f0affa84ed010a05f199
:10247800080000f0a9fa84ed020a05f10c0000f04a
:10248800a3fa84ed030a38bd240240204c02402000
:020000040000fa
:020000040040ba
:1024980010b50c4c2046fff721fe2046fff760fce4
:1024a800094b1b783bb163782bb9237a013b627add
:1024b800dbb29a4200d810bd034b00221a7000f01c
:0c24c80081f9f8e768014020370240204d
:020000040000fa
:020000040040ba
:1024d40038b5436813f4807f0446154611d0036968
:1024e4009a4228bf1d465db12a46406900f0dcfad5
:1024f400636922692b44521b2261002263611a70b2
:0c25040038bddb06fcd400f031fcf9e728
:020000040000fa
:020000040040ba
:1025100007b54a680346dbb2d20508468df8073096
:1025200007d54a69511c41611370184603b05df824
:1025300004fb01220df1070100f01afc10b19df817
:0a2540000700f3e74ff0ff30f0e76b
:020000040000fa
:020000040040ba
:02254a007047d8
:020000040000fa
:020000040040ba
:10254c000a4b1b788bb9094b60225a70084a5a60a7
:10255c0002221a7201229a720921d9721a7300216d
:10256c0059729982034919611a707047840140208d
:08257c00d8024020d5234000e5
:020000040000fa
:020000040040ba
:102584000a4b1b788bb9094b42225a70084a5a608d
:1025940012221a7201229a72ff21d9721a7300212f
:1025a40059729982034919611a7070479c0140203d
:0825b4002402402059244000dc
:020000040000fa
:020000040040ba
:1025bc000a4b1b788bb9094b68225a70084a5a602f
:1025cc0006221a7201229a723b21d9721a730021c7
:1025dc0059729982034919611a707047b4014020ed
:0825ec0038024020e91940000b
:020000040000fa
:020000040040ba
:1025f4000a4b1b788bb9094b77225a70084a5a60e8
:1026040002221a7201229a72f721d9721a730021d6
:1026140059729982034919611a707047cc0140209c
:08262400d4024020852840008b
:020000040000fa
:020000040040ba
:10262c000a4b1b7883b9094b48225a70084a5a60e6
:10263c0002221a7201229a720021d9721a735972eb
:10264c009982044919611a70704700bfe401402057
:08265c00d0024020ad2840002f
:020000040000fa
:020000040040ba
:1026640030b50c4a0146002012f810301bb902ebb9
:102674004002507830bd0c6825789d4209bf02ebba
:102684004003431c5878013414bfd8b20c600a28a4
:08269400ead9efe7dc2a40005f
:020000040000fa
:020000040040ba
:10269c0070b514460d4699b13ab1022805d8094bcc
:1026ac002bb111462846aff30080204609e00e46b8
:1026bc0016f8010b00f008f82b199e42f8d1f4e73c
:0826cc00084670bd000000008b
:020000040000fa
:020000040040ba
:1026d4000a4b1b7843b10a2807d0094a536913f0ff
:1026e400020ffbd0064bd8617047054a536913f0bb
:1026f400020ffbd0024b0d22da61eee78700402087
:04270400008002400f
:020000040000fa
:020000040040ba
:1027080038b50a480a4d016821b9436813b900f081
:1027180088f938bd0389426855f8233000f10c0464
:102728002046984704eb8000ede700bf100b4000ff
:04273800302b400002
:020000040000fa
:020000040040ba
:10273c0010b500f0effa084b1b68c31a074a128851
:10274c00934203d20020fff707fa10bd044600f0b5
:10275c001ff8014b1c60f5e7b00240204a024020f4
:020000040000fa
:020000040040ba
:10276c0010b500f0d7fa084b1b68c31a074a128839
:10277c00934203d20320fff7eff910bd044600f09b
:10278c0007f8014b1c60f5e7ac0240204a024020e0
:020000040000fa
:020000040040ba
:10279c0008b50a4b1b782bb1fff786fd0022074bbf
:1027ac001a7008bdfff7ccfefff7e6fefff700ff3f
:1027bc00fff71afffff734ff0122f0e77702402002
:020000040000fa
:020000040040ba
:1027cc0008b5074b1b7853b9064b1b78002b064bef
:1027dc000cbf042286220549014800f012f908bdfd
:1027ec006801402036024020f10c400000004020df
:020000040000fa
:020000040040ba
:1027fc0053b94ab9002908bf00281cbf4ff0ff315c
:10280c004ff0ff3000f0d2baadf1080c6de904cef8
:10281c00fef728f8ddf804e0dde9022304b0704788
:020000040000fa
:020000040040ba
:10282c00084b02221a60084b06490a6a12f0010f83
:10283c0007d1013bf9d1034b80221a6024221a6084
:0c284c007047704700800140a08601002a
:020000040000fa
:020000040040ba
:10285800812903dc7f2903dc002070478329fbd111
:102868001368073323f0070303f108011160d3e964
:0a2878000023c0e90023012070478f
:020000040000fa
:020000040040ba
:0228820070479d
:020000040000fa
:020000040040ba
:1028840000b17047064b1a785b7843ea022307eedf
:10289400903af8eee77a034bc3ed007af1e700bf14
:0828a400d4024020b8024020dc
:020000040000fa
:020000040040ba
:1028ac0000b17047064b1a785b7843ea022307eeb7
:1028bc00903af8eee77a034bc3ed007af1e700bfec
:0828cc00d0024020b4024020bc
:020000040000fa
:020000040040ba
:1028d40010b5084c2368196800f046f8002807db97
:1028e40023680a20196800f03dfac00f404210bd69
:0828f4000120fbe7f80240207f
:020000040000fa
:020000040040ba
:1028fc0010b4047864b94170426083609df8043070
:10290c000373002343738373029b036101230370de
:06291c005df8044b70475a
:020000040000fa
:020000040040ba
:1029220070b502fb01f6144600290d4632460146f7
:10293200184608bf002400f01afa864218bfb0fbfe
:06294200f5f4204670bd13
:020000040000fa
:020000040040ba
:102948000fb407b5064b04aa1b6852f8041b186895
:10295800019200f075f803b05df804eb04b070471d
:04296800f802402011
:020000040000fa
:020000040040ba
:10296c0070b50e46054600f0a7f8334604460246fd
:10297c0001212846fff7cfff001b18bf4ff0ff3097
:02298c0070bd1c
:020000040000fa
:020000040040ba
:10298e0008b500f040f900f046f900f04cf900f0ff
:10299e0052f900f060f9fff778fd00f054f908bd28
:020000040000fa
:020000040040ba
:0229ae00fee742
:020000040000fa
:020000040040ba
:1029b000430810f001004fea003040ea0340034ba7
:1029c000586001d001221a60704700bf00800140aa
:020000040000fa
:020000040040ba
:1029d0000278002362f31f63427862f31743827820
:1029e00062f30f23c27862f3070300ee103a7047d8
:020000040000fa
:020000040040ba
:1029f00010b50023934206d113f0030018bf012045
:0e2a000000eb930010bdc45ccc540133f2e730
:020000040000fa
:020000040040ba
:102a0e0010b404783cb9c160028200224282426155
:0c2a1e008361012303705df8044b7047d6
:020000040000fa
:020000040040ba
:022a2a007047f3
:020000040000fa
:020000040040ba
:102a2c00054b586910f0e00f03d04ff480721a6018
:0c2a3c009b6900f0010070470040024060
:020000040000fa
:020000040040ba
:102a480013b50446019201aafdf776fd636813f0f9
:0c2a5800100f18bf4ff0ff3002b010bd8f
:020000040000fa
:020000040040ba
:102a6400044b1a6b000440f48050586001221a6031
:082a7400704700bf0080014023
:020000040000fa
:020000040040ba
:102a7c0008b500f03df9034b4ff00072c3f8342455
:082a8c0008bd00bf00100e4060
:020000040000fa
:020000040040ba
:102a9400494e4600696e66004e414e006e616e00fe
:082aa400286e696c2900250071
:020000040000fa
:020000040040ba
:102aac004ab1431e84460a4411f8010b03f8010f86
:082abc009142f9d16046704718
:020000040000fa
:020000040040ba
:102ac40003783bb1034600bf13f8012f002afbd162
:082ad400181a704718467047fc
:020000040000fa
:020000040040ba
:102adc0068076c094c836a9074a07ac0008068887f
:062aec0000846c820081f1
:020000040000fa
:020000040040ba
:022af20070472b
:020000040000fa
:020000040040ba
:102af400034b1b6a13f0050f14bf0120002070471d
:042b0400008001400c
:020000040000fa
:020000040040ba
:102b0800034b186a80f48070c0f30020704700bf40
:042b180000800140f8
:020000040000fa
:020000040040ba
:102b1c004ff0e02340f69f725a6100229a6107221f
:042b2c001a61704773
:020000040000fa
:020000040040ba
:102b3000932b4000f1294000a72d4000a72d400015
:042b4000a72d40007d
:020000040000fa
:020000040040ba
:102b440008b500f00bf9024b1860586008bd00bfcf
:042b54009802402083
:020000040000fa
:020000040040ba
:102b580032b1c9b20244034603f8011b9a42fbd1c1
:042b6800704700bff3
:020000040000fa
:020000040040ba
:102b6c00034600bf11f8012b184603f8012b002a6d
:042b7c00f8d17047d5
:020000040000fa
:020000040040ba
:102b800043782bb941600272437243610123437061
:022b900070478c
:020000040000fa
:020000040040ba
:102b92000a440023914201d10020704701f8013b11
:022ba200f8e752
:020000040000fa
:020000040040ba
:102ba400024b186ac0f38000704700bf00800140e8
:020000040000fa
:020000040040ba
:102bb400024b186ac0f34000704700bf0080014018
:020000040000fa
:020000040040ba
:102bc400024b1869c0f34000704700bf008000400a
:020000040000fa
:020000040040ba
:102bd400024b186900f00100704700bf00800040fc
:020000040000fa
:020000040040ba
:102be400024b4ff00072c3f83024704700100e40bf
:020000040000fa
:020000040040ba
:102bf40040f46020014bd860704700bf0080004063
:020000040000fa
:020000040040ba
:102c0400024b5869c0f34000704700bf00400240c7
:020000040000fa
:020000040040ba
:102c140008b50248fef748f908bd00bf840140200a
:020000040000fa
:020000040040ba
:102c240008b50248fef740f908bd00bf9c014020ea
:020000040000fa
:020000040040ba
:102c340008b50248fef738f908bd00bfb4014020ca
:020000040000fa
:020000040040ba
:102c440008b50248fef730f908bd00bfcc014020aa
:020000040000fa
:020000040040ba
:102c540008b50248fef788fd08bd00bf10024020f9
:020000040000fa
:020000040040ba
:102c640008b50248fef720f908bd00bfe401402082
:020000040000fa
:020000040040ba
:102c7400024a136801331360704700bfc00240204a
:020000040000fa
:020000040040ba
:102c8400024b1b68196800f06db800bff8024020c1
:020000040000fa
:020000040040ba
:102c940008b5fff755ff00f08cf800f08af808bd7e
:020000040000fa
:020000040040ba
:0e2ca400a0f14103192b98bf40f020007047ab
:020000040000fa
:020000040040ba
:0e2cb200a0f16103192b98bf00f05f0070477e
:020000040000fa
:020000040040ba
:0c2cc000014b1a6b1b6a7047008001403a
:020000040000fa
:020000040040ba
:0c2ccc00014b5863704700bf00800140be
:020000040000fa
:020000040040ba
:0c2cd800014b186bc0b270470080014037
:020000040000fa
:020000040040ba
:0c2ce400014b02221a6070470080014082
:020000040000fa
:020000040040ba
:0c2cf000014b9868c0b2704700800040a3
:020000040000fa
:020000040040ba
:0c2cfc00014b1a699b6870470080004083
:020000040000fa
:020000040040ba
:0c2d0800014bd861704700bf0040024042
:020000040000fa
:020000040040ba
:0c2d1400014b9869c0b2704700400240bb
:020000040000fa
:020000040040ba
:0c2d2000014b1868704700bfc002402043
:020000040000fa
:020000040040ba
:0c2d2c0010b50446fff71cff204610bd48
:020000040000fa
:020000040040ba
:0a2d380008b50120fef712ff08bde8
:020000040000fa
:020000040040ba
:0a2d420008b50220fef70dff08bde2
:020000040000fa
:020000040040ba
:0a2d4c0008b50420fef708ff08bddb
:020000040000fa
:020000040040ba
:0a2d560008b50520fef703ff08bdd5
:020000040000fa
:020000040040ba
:082d600000487047dc0240202e
:020000040000fa
:020000040040ba
:082d680008b5fff7d1fb08bd1f
:020000040000fa
:020000040040ba
:062d70000068fff793bcb0
:020000040000fa
:020000040040ba
:042d76000120704781
:020000040000fa
:020000040040ba
:042d7a00012070477d
:020000040000fa
:020000040040ba
:042d7e000120704779
:020000040000fa
:020000040040ba
:042d82000120704775
:020000040000fa
:020000040040ba
:042d86000120704771
:020000040000fa
:020000040040ba
:042d8a00012070476d
:020000040000fa
:020000040040ba
:042d8e000120704769
:020000040000fa
:020000040040ba
:042d92000120704765
:020000040000fa
:020000040040ba
:042d96000120704761
:020000040000fa
:020000040040ba
:042d9a00012070475d
:020000040000fa
:020000040040ba
:042d9e000120704759
:020000040000fa
:020000040040ba
:042da2000120704755
:020000040000fa
:020000040040ba
:042da6000020704752
:020000040000fa
:020000040040ba
:042daa00002070474e
:020000040000fa
:020000040040ba
:042dae00002070474a
:020000040000fa
:020000040040ba
:042db2000020704746
:020000040000fa
:020000040040ba
:022db600704764
:020000040000fa
:020000040040ba
:042db800704700bfa1
:00000001FF
