:020000040000fa
:020000040042b8
:10000000f8ff4520593d4200335842003358420022
:100010003358420033584200335842000000000079
:100020000000000000000000000000003358420003
:100030003358420000000000335842007d66420001
:10004000335842003358420033584200335842007c
:10005000335842003358420033584200335842006c
:100060003358420000000000335842003358420029
:10007000335842004d554200335842003358420035
:10008000335842003358420033584200335842003c
:10009000335842003358420033584200335842002c
:1000a000335842003358420033584200335842001c
:1000b000335842003358420033584200335842000c
:1000c00033584200335842003358420033584200fc
:1000d00033584200335842003358420033584200ec
:1000e00033584200335842003358420033584200dc
:1000f00033584200335842003358420033584200cc
:1001000033584200335842003358420033584200bb
:100110003358420033584200000000000000000045
:100120003358420033584200d161420033584200f4
:100130003358420033584200000000003358420058
:10014000335842003358420033584200335842007b
:10015000335842003358420033584200335842006b
:080160003358420033584200fd
:020000040000fa
:020000040042b8
:10016800f8b500bff8bc08bc9e467047815b4200ea
:10017800f8b500bff8bc08bc9e4670475d5b4200fe
:020000040000fa
:020000040042b8
:08018800642c000001000000de
:020000040000fa
:020000040042b8
:10019000676e737300000000696d7500707265739f
:1001a000737572650000000074656d70657261742e
:1001b000757265006570730070726f70756c736f27
:1001c0007200000062617474657279000d0a544512
:1001d0004c454d3a7b226c6174223a252e34662cb4
:1001e000226c6f6e223a252e34662c22616c7422aa
:1001f0003a252e32662c22737064223a252e3266fe
:100200002c226178223a252e33662c226179223afb
:10021000252e33662c22617a223a252e33662c2233
:100220006778223a252e33662c226779223a252eca
:1002300033662c22677a223a252e33662c226d787b
:10024000223a252e33662c226d79223a252e3366ea
:100250002c226d7a223a252e33662c227072657319
:10026000223a252e32662c2274656d70223a252e94
:1002700032662c22766f6c74223a252e33662c223d
:1002800063757272223a252e33667d0d0a000000d6
:100290005b5345555d2046414c48412054524950de
:1002a0004c41206e612076617220257520283078bf
:1002b0002530386c582f30782530386c582f3078ee
:1002c0002530386c582920e280942066616c6c627d
:1002d00061636b0a000000005b4f54415d2066695a
:1002e000726d776172655f73697a6520696e766198
:1002f0006c69646f2028256c752920e28094206148
:100300002061626f727461720a0000005b4f544199
:100310005d2046575b305d3a20253032582025302d
:10032000325820253032582025303258202530329e
:100330005820253032582025303258202530325868
:100340000a0000005b4f54415d2046575b31323854
:100350005d3a202530325820253032582025303261
:100360005820253032582025303258202530325838
:10037000202530325820253032580a005b4445424f
:1003800055475d204120636f6d7061726172206f0f
:1003900073207072696d6569726f732034206279a1
:1003a00074657320646f20636f6d7075746564206d
:1003b0004352433a202530325820253032582025e8
:1003c00030325820253032580a0000005b4f54412b
:1003d0005d20466c6173685b30782530356c585d04
:1003e0003a202530325820253032582025303258d6
:1003f00020253032580a00005b4f54415d204352a3
:1004000043204f4b202830782530386c582920e283
:1004100080942061206573637265766572206d65d6
:1004200074616461646f730a000000005b4f5441a3
:100430005d204552524f206e6f20657261736520ba
:10044000646f73206d6574616461646f7300000094
:100450005b4f54415d205352313d30782530325846
:1004600020e280942061206c696d70617220777247
:100470006974652d70726f74656374696f6e2e2e6a
:100480002e0a00005b4f54415d20535231206170b1
:100490006f7320575253523d30782530325820e246
:1004a000809420496e6963696f204f54410a0000af
:1004b0005b4f54415d20496e6963696f20e280940f
:1004c00020612061706167617220736563746f726f
:1004d000206465206d6574616461746100000000d2
:1004e0005b4f54415d20574149545f45524153454c
:1004f0002023256c7520616464723d3078256c582a
:10050000207374617475733d25640a005b4f544118
:100510005d204d6574616461746120617061676123
:10052000646120e2809420612061706167617220c3
:10053000736563746f72206677203078256c580a73
:10054000000000005b4f54415d20457261736520df
:100550006e616f20636f6e6669726d61646f20619a
:100560006464723d3078256c582076616c3d30783b
:100570002530325820e280942061206167756172d5
:100580006461720a000000005b4f54415d204572b7
:10059000617365204f4b20636f6e6669726d616495
:1005a0006f20e280942061206167756172646172de
:1005b000207061636f746573000000005b4f5441ed
:1005c0005d204552524f206e6f2065726173652029
:1005d00028616464723d3078256c58290a00000057
:1005e0005b4f54415d20574149545f504b5420e2ca
:1005f00080942072656164793d2564206279746518
:10060000735f7772697474656e3d256c750a0000be
:100610005b4f54415d2054696d656f7574202825ca
:100620006c75206d732920c3a0206573706572619d
:10063000206465207061636f74657320e28094208c
:1006400073657373616f204f5441206162616e6402
:100650006f6e6164612070656c6f206261636b65b1
:100660006e642e20412061626f727461722e0a00e6
:100670005b4f54415d2046696d2064612074726156
:100680006e73666572656e6369613a20256c7520cc
:1006900062797465732c204352433d30782530389d
:1006a0006c582c2076256c750a0000005b4f544175
:1006b0005d20417669736f3a205061636f746520e5
:1006c00066616e7461736d6120286c656e3d3029c2
:1006d0002069676e6f7261646f2e00005b4f54413a
:1006e0005d204552524f206e6f2065726173652008
:1006f000646f20736563746f72206465206669722d
:100700006d776172650000005b4f54415d2045527a
:10071000524f206e61206573637269746120646f4b
:10072000207061636f7465207365713d25750a00e3
:100730005b4f54415d204d6574616461646f73204b
:100740006772617661646f732e2041207265696ef5
:1007500069636961722e2e2e000000005b4f5441c8
:100760005d204552524f206e61206573637269743b
:100770006120646f73206d6574616461646f7300e0
:100780005b4f54415d2041626f727461646f2070f1
:100790006f72206572726f2e20566f6c74616e647a
:1007a0006f20616f206d6f646f20636f6d756e6970
:1007b000636163616f2e0000627573207265636f01
:1007c0007665727920666f7220616464723d30785c
:1007d000253032580a0000000d0a5b515350492061
:1007e0004452495645525d2046534d2061626f7216
:1007f000746f7521206572726f725f636f6465201c
:100800003d2025750a0000005b5350495d2045528c
:10081000524f523a2054582054696d656f757421b7
:10082000000000005b5350495d204552524f523a40
:100830002052582054696d656f75742100000000c6
:10084000707265737375726520646f6e6520737462
:10085000617475733a2025640000000066696e615a
:100860006c2074656d703a20256600005b5454431b
:100870005d2053796e632074696d656f75742028ef
:1008800025752062797465732920e28094206d6f4c
:10089000646f206e6f726d616c2064697265637441
:1008a0006f0a00005b5454435d2053796e63204f00
:1008b0004b20e28094206120656e7669617220523f
:1008c00045414459000000005b4f54412052585d9f
:1008d0002073796e6320696e76616c69646f3a206b
:1008e0003078253034582028657370657261646fe4
:1008f00020307825303458290a0000005b4f5441dd
:100900002052585d20454e44206d61726b65722007
:10091000e280942073697a653d256c75206372636b
:100920003d30782530386c580a0000005b4f544148
:100930002052585d20706b74207365713d257520c1
:100940006c656e3d25752072656164793d25750a7b
:10095000000000005b4f54412052585d2044726fec
:1009600070207365713d25752028466c6173682081
:1009700062757379290a0000726573756c7420744e
:10098000746320256400000070617273653a203042
:10099000782530325820307825303258203078256c
:1009a000303258203078253032580a00636d643177
:1009b000000000005b5454435d2053544152545f87
:1009c0004f544120726563656269646f20e28094d0
:1009d0002061207072657061726172206d656d6f4b
:1009e0007269612e2e2e0000636d643320e28094c4
:1009f000204f5441206d6f6465204f464600000033
:100a0000636d6435000000000d0a202020202020a6
:100a10002d3e205b44454255475d2054494d454f8e
:100a20005554212053746174757320526567206298
:100a30006c6f71756561646f20656d3a2030782543
:100a4000303258200000000020205b54325d2045e9
:100a50007363726974612070616472616f203078b1
:100a600041352f30783541202e2e2e2000000000f9
:100a700054494d454f5554205b4641494c5d0d004e
:100a80000d0a20205b54325d202020627974655b62
:100a9000256c755d3a206573637269746f3d3078bb
:100aa00025303258206c69646f3d307825303258db
:100ab000000000004f4b205b504153535d0d000080
:100ac0000d0a20205b54325d20256c752065727202
:100ad0006f73205b4641494c5d0d0a0020205b543a
:100ae000335d2045726173652054494d454f55541f
:100af000205b4641494c5d0d0000000020205b5406
:100b0000335d204573637269746120636f6e746135
:100b1000646f7220307830302e2e30784646202e8a
:100b20002e2e20000d0a20205b54335d20202062f1
:100b30007974655b256c755d3a20657363726974c1
:100b40006f3d307825303258206c69646f3d3078c5
:100b500025303258000000000d0a20205b54335d20
:100b600020256c75206572726f73205b4641494c7d
:100b70005d0d0a0020202b2d2d2d2d2d2d2d2d2d01
:100b80002d2d2d2d2d2d2d2d2d2d2d2d2d2d2d2d95
:100b90002d2d2d2d2d2d2d2d2d2d2d2d2d2d2d2d85
:100ba0002d2d2d2d2d2d2d2d2d2b0d0020207c209c
:100bb00020544553544520515350493a205332351f
:100bc000464c3131364b20e28094204c45495455f7
:100bd0005241202f20455343524954412020202088
:100be0002020207c0d00000020207c202053656305
:100bf000746f722064652074657374653a20307870
:100c00002530366c5820202872656769616f206c2a
:100c10006f67732920202020202020207c0d0a00cf
:100c200020205b54315d20457261736520736563dc
:100c3000746f722030782530366c58202e2e2e207e
:100c400000000000627974655b256c755d3d30784d
:100c50002530325820213d2030784646205b4641e1
:100c6000494c5d0d0a00000020207c202052657355
:100c7000756c7461646f3a2025752f257520746535
:100c80007374657320706173736172616d202020cd
:100c90002020202020202020202020207c0d0a0041
:100ca00020207c202051535049204f4b20e280943b
:100cb00020666c617368206f7065726163696f6e26
:100cc000616c2020202020202020202020205b502c
:100cd0004153535d20207c0d0000000020207c202b
:100ce0002046414c484120656d2025752074657370
:100cf000746528732920e28094207665726966699c
:100d00006361722068772020205b4641494c5d205a
:100d1000207c0d0a000000000a203d3d3d204f428e
:100d20004320424f4f54203d3d3d204657205465bf
:100d3000737465414f4e6f766f0000006265746199
:100d400020312e31303000004f4646004f4b00001e
:100d50004f4e000056494f4c410000007c20252d8d
:100d6000313973207c20252d3373207c2025376c6e
:100d700075207c2025376c75207c2025396c7520ea
:100d80007c2025376c75207c2025366c75207c20d6
:100d9000252d3673207c0d0a000000007c20252db7
:100da000383573207c0d0a004f4b202d20746f6462
:100db00061732061732066756e636f657320637560
:100dc0006d7072656d206f20646561646c696e651d
:100dd0002064652031206d730000000046414c48be
:100de00041202d2070656c6f206d656e6f732075ce
:100df0006d612066756e63616f2076696f6c61202e
:100e00006f20646561646c696e6500002b2d2d2d6b
:100e10002d2d2d2d2d2d2d2d2d2d2d2d2d2d2d2d02
:100e20002d2d2d2d2d2d2d2d2d2d2d2d2d2d2d2df2
:100e30002d2d2d2d2d2d2d2d2d2d2d2d2d2d2d2de2
:100e40002d2d2d2d2d2d2d2d2d2d2d2d2d2d2d2dd2
:100e50002d2d2d2d2d2d2d2d2d2d2d2d2d2d2d2dc2
:100e60002d2d2d2d2b0d0000202020202020202096
:100e70002020202020202020544553544520574333
:100e80004554202d20576f7273742d436173652074
:100e9000457865637574696f6e2054696d652028a7
:100ea0004457542f435943434e5429004d43553a18
:100eb00020415453414d5637315132312028436f30
:100ec000727465782d4d3729204020256c75204897
:100ed0007a20207c20202575206578656375636ff6
:100ee000657320706f722066756e63616f0000001d
:100ef000446561646c696e6520646f20737570650c
:100f0000722d6c6f6f703a2031206d73203d20255b
:100f10006c75206369636c6f7320207c20204d61a9
:100f20007267656d206465207365677572616e63b5
:100f3000613a202b33302525000000002020455247
:100f4000524f3a204457545f435943434e54206e06
:100f5000616f20646973706f6e6976656c206e6571
:100f600073746520636f72652e0d0000202045525a
:100f7000524f3a204457545f435943434e54206ed6
:100f8000616f206176616e63612e0d007c20467575
:100f90006e63616f20202020202020202020202030
:100fa00020207c20495251207c20202020206d6967
:100fb0006e207c2020206d65646961207c204d417d
:100fc00058285743455429207c202020202b33309b
:100fd0002525207c207573282a2920207c20457314
:100fe0007461646f207c0d0a000000002b2d2d2df4
:100ff0002d2d2d2d2d2d2d2d2d2d2d2d2d2d2d2d21
:101000002d2d2b2d2d2d2d2d2b2d2d2d2d2d2d2d14
:101010002d2d2b2d2d2d2d2d2d2d2d2d2b2d2d2d04
:101020002d2d2d2d2d2d2d2d2b2d2d2d2d2d2d2df2
:101030002d2d2b2d2d2d2d2d2d2d2d2b2d2d2d2de4
:101040002d2d2d2d2b0d000073656e736f72735f48
:101050007469636b28290000737461746543686563
:10106000636b2829000000007365755f73637275f8
:10107000622829006d697373696f6e5f6c696665bc
:101080006379636c6528290056616c6f7265732003
:10109000656d206369636c6f7320646520435055f0
:1010a0002e20282a29207573203d20284d41582bb9
:1010b000333025252920636f6e7665727469646ffd
:1010c000206120256c7520487a2e0000495251205d
:1010d0004f4646203d2057434554207075726f207f
:1010e00064612066756e63616f3b20495251204fe9
:1010f0004e203d20696e636c756920696e7465725f
:10110000666572656e63696120646f2053797354fc
:1011100069636b2e00000000524553554c54414406
:101120004f20474c4f42414c3a20257300000000ad
:101130005b5345552d444154415d2073656d2073cb
:101140006c6f7473207061726120272573270d0afc
:10115000000000005b5345552d444154415d207310
:10116000656d2065737061636f2064652062616ed8
:10117000636f2070617261202725732720282575f1
:101180002042290d0a0000005b5345552d4441546f
:10119000415d2046414c484120545249504c412029
:1011a000656d20272573275b25755d20e2809420df
:1011b00061646f707461646f20756c74696d6f2009
:1011c000636f6d6d69740d0a000000005041535348
:1011d000000000007c20252d3473207c20252d3537
:1011e0003873207c20252d3473207c0d0a000000ec
:1011f0004641494c000000002d2070726f746563f9
:10120000616f20544d52206f7065726163696f6e1b
:10121000616c00002d204154454e43414f3a2066f9
:10122000616c6861730000002b2d2d2d2d2d2d2d4f
:101230002d2d2d2d2d2d2d2d2d2d2d2d2d2d2d2dde
:101240002d2d2d2d2d2d2d2d2d2d2d2d2d2d2d2dce
:101250002d2d2d2d2d2d2d2d2d2d2d2d2d2d2d2dbe
:101260002d2d2d2d2d2d2d2d2d2d2d2d2d2d2d2dae
:101270002d2d2d2b0d0000007c2020202020202053
:1012800020544553544520534555202d20496e6a1e
:101290006563616f2064652066616c686173206eb0
:1012a0006f20544d5220646173206573747275749d
:1012b0007572617320676c6f6261697320202020f2
:1012c0002020207c0d0000007c20202020202020d9
:1012d000204d6f64756c6f3a207365755f6461743f
:1012e000612028766f746163616f20322d64652df3
:1012f000332c20627974652061206279746529201d
:1013000020202020202020202020202020202020dd
:101310002020207c0d0000002b2d2d2d2d2d2d2b80
:101320002d2d2d2d2d2d2d2d2d2d2d2d2d2d2d2ded
:101330002d2d2d2d2d2d2d2d2d2d2d2d2d2d2d2ddd
:101340002d2d2d2d2d2d2d2d2d2d2d2d2d2d2d2dcd
:101350002d2d2d2d2d2d2d2d2d2d2d2d2b2d2d2dbf
:101360002d2d2d2b0d0000007c2049442020207cb9
:101370002043656e6172696f20202020202020208c
:10138000202020202020202020202020202020205d
:10139000202020202020202020202020202020204d
:1013a0002020202020202020202020207c2052656a
:1013b000732e207c0d0000005570736574206e61e3
:1013c00020636f706961206c6976653a2072657080
:1013d000617261646f20706f72206d61696f7269f4
:1013e0006120422f43000000543100004269742df7
:1013f000666c697020656d20696d752e61783a2084
:10140000726570617261646f20706f72206d6169c6
:101410006f72696120422f430000000054320000c7
:101420005570736574206e6120736861646f7720f6
:1014300042206465206570733a2072657061726144
:10144000646f2c206c69766520696e7461637461c9
:1014500000000000543300005570736574206475fb
:10146000706c6f20646976657267656e74653a208a
:1014700064657465637461646f206520657374616d
:10148000646f2072652d636f6572656e7465000010
:101490005434000045736372697461206c65676938
:1014a00074696d61202b20636f6d6d69743a2073d0
:1014b00063727562206e616f20616c746572612069
:1014c0006461646f730000005435000045737461fb
:1014d00074697374696361733a20256c752062794d
:1014e00074657320636f7272696769646f732c200f
:1014f000256c752066616c68617320747269706c0c
:1015000061732c20256c7520736372756273000003
:101510007c20252d373273207c0d0a00524553550f
:101520004c5441444f20474c4f42414c3a20256493
:0c1530002f2564205041535320257300e8
:020000040000fa
:020000040042b8
:10153c0010b582b003f01cfaa54b1b780c2b00f2f3
:10154c000882dfe813f00d0006023e00a8008901b6
:10155c00a501b8010602d201d501e001f501fb019c
:10156c009c4b1b68002b00f0a18105f049f9002869
:10157c0040f09c8104f0c6fb0146974804f0a8fe9d
:10158c0003f074ff04f0befb0146944804f0a0fe87
:10159c00934804f03ffe934b00221a60924b934aff
:1015ac001a604ff48072ff21914804f0f9ff4ff458
:1015bc008010904b186004f019fe854b02221a70b3
:1015cc0074e105f01df904468b4b196841b18b4a47
:1015dc00a2fb0132120b41f2883303fb12122ab91f
:1015ec002346844a1268864804f072fe824a1368c5
:1015fc0001331360002c42d1134600221a607d4b3c
:10160c001868b0f5801f11d07e4b984240f24e8185
:10161c00012201a904f026f89df80420ff2a25d008
:10162c00744b1968784804f053fe3fe16d4b1b680e
:10163c00002b40f03b816d49744804f049fe0023b7
:10164c000193019a724b9a4206dc1a46019b0133b4
:10165c000193019b9342f9dd6448664b186004f0da
:10166c00c5fd614b4ff481121a601fe1694804f00b
:10167c00d1fd04f029fa564b03221a7016e1022c04
:10168c0040f014815b4b1968634804f021fe504b09
:10169c000c221a700ae1614b1b68002b34d0604b92
:1016ac001b6801335a4a934233d85d4a136005f0e4
:1016bc008ff8002839d00023584a1360584a136019
:1016cc0005f08cf8574c208005f08ef8564b18809e
:1016dc0022884ff6ff739a423dd0002871d0424bbe
:1016ec00186842f220031344b0ebc31f00f2a6802b
:1016fc00404b186000f580523b4b1a6004f076fdad
:10170c00334b04221a70d1e005f05cf8434b18609f
:10171c00c5e7434b00221a6005f05af80146314bdd
:10172c001a68424804f0d4fdc1e705f04bf83b4b76
:10173c001b68c01a43f69723984240f2b78043f6d1
:10174c0098213b4804f0c4fd344b00221a60204b16
:10175c000c221a70aae005f069f8254c027843783f
:10176c001b0443ea0263c2781343827843ea0223e0
:10177c006360027943791b0443ea0263c279134321
:10178c00827943ea0223a360027a437a1b0443ea78
:10179c000263c27a1343827a43ea0223e36005f0c0
:1017ac0029f8e368a2686168224804f091fd4ff4bf
:1017bc008010104b186004f019fd054b08221a70ac
:1017cc0074e01d4804f026fd05f014f86ee000bf2f
:1017dc00f9094020a409402050044200840442002e
:1017ec00b0044200c0094020c40940200010100081
:1017fc0000004020c8094020bc0940205917b7d12f
:10180c00e0044200ff0f1000440542000c054200aa
:10181c009f86010088054200bc054200b8094020a3
:10182c00b40940203209402016054020e005420052
:10183c001006420070064200ac06420004f0f6ffaf
:10184c000146464b1a88464804f04afe04f0d2ff83
:10185c00444b05221a7029e004f0d2ff68b904f059
:10186c00e5ff01463d4b1a883d4804f039fe04f073
:10187c00c1ff3c4b05221a7018e004f0c1ff02288e
:10188c0014d1394804f0c6fc364b0c221a700de00a
:10189c00364b1b8842f220001844304b1a883049d2
:1018ac00c00104f085f82f4b06221a70022002f0ba
:1018bc00e5fd02b010bd04f0a3ff48b92c4a274b3c
:1018cc001b8811680b441360264b03221a70ede73a
:1018dc0004f096ff0228e9d1244b1988254804f01e
:1018ec00f7fc204b0c221a70e0e701f0ebfcdde773
:1018fc004ff4807220494ff4801004f059f8194bc2
:10190c000a221a70d2e704f07bff30b91b4804f0ae
:10191c0081fc144b0b221a70c8e704f071ff0228eb
:10192c00c4d1174804f076fc0e4b0c221a70bde79c
:10193c00144b00221a6004f0c7fdb7e70023114acc
:10194c001360084a137004f063fd0f4804f062fc46
:10195c00ace7044b00221a70a8e700bf1605402024
:10196c0018054020f9094020dc06420032094020cd
:10197c00c009402008074200000040203007420008
:0c198c005c074200a409402080074200d4
:020000040000fa
:020000040042b8
:101998002de9f04f2ded0a8b92ed008b8db01e4690
:1019a800b5eec08b0b69d1f808a0cc680590f1eeb4
:1019b80010fad1e9009b069307d419f0040f30d12f
:1019c80019f008052fd0202302e02d23b1ee488b13
:1019d80023700af1ff32012518ee903a18ee100a2a
:1019e80023f00041bc4b4ff00008994208bf404526
:1019f8001bd1413e192e94bfb849b949601904f06a
:101a080007ffb74804f07afdcdf800900246534628
:101a18000598214603f008fc0db0bdec0a8bbde823
:101a2800f08f2b23d4e75246d6e780458b41a6f1a9
:101a38004103039308d2192b94bfaa49aa496019f4
:101a480004f0e6fea848dde730216155b5ee408b8d
:101a58000399b7ee009b192905f101038cbf782182
:101a68005821f1ee10fae15405f10205a2f1020243
:101a780040f0ec80b0ee49bbb0ee48cbbbf1000fb4
:101a88009fed8fabacbf5b461823591c002700bfe6
:101a98008cee0b0bcde90731049203f029f8bbf16a
:101aa800000f00ee4bcbdde907312bee0abb049aa1
:101ab80007f1010704dab5ee40cbf1ee10fa02d0d7
:101ac8008f42e5d15f1cb2ee007b2bee077bb4eeb4
:101ad800c7cbf1ee10fa00f1dc80b4ee47cbf1eea3
:101ae80010fa09d1bdeec00b9fed776b10ee103ade
:101af80013f0010f06fe077b38ee078b18ee903abd
:101b080018ee10ca744923f000400023884208bf29
:101b18009c453ff46eaf06990539a942079140f2fa
:101b28001481794208912e46ae461f46049300bfa1
:101b380088ee090bcde90a23cdf824e002f0d8ff9e
:101b4800fdeec07bdde909e2b0ee40bb17ee900a7e
:101b58000b9b002840f0a080002b00f09d800137ef
:101b680008990bee498b013b8b4229ee0a9b03d067
:101b780007998e42b646dbd3049bcbb9002f40f3be
:101b8800e580bbf1000f40f3e18019f0010f40f050
:101b9800dd80a3192e211970b9192144302000bf06
:101ba80003f8010f8b42fbd13e44ff4301363a4410
:101bb800069b0021a019013b88450170b8bfc8f1f8
:101bc8000008e1544ff00107b8bf01214ff00a0b9c
:101bd80003f1ff3cb8f1000f40f0a580012f00f0a1
:101be800a28000290cbf2b212d2104f80c10039989
:101bf800023b192904eb03018cbf4ff0700c4ff026
:101c0800500c9e4281f800c003da039204f000fef3
:101c1800039a09f00303022b11d11744033f002f45
:101c28000ddd204604f06afce319a84280f28980a1
:101c38003a463021601904f0b5fc4ff0000a2046fe
:101c4800e0e600bf08f10108b0ee479b39ee097bda
:101c5800b4eec78bf1ee10faf4d5b6ee007b9fed2b
:101c68001c6b00bfb4eec98bf1ee10fa7ff502af22
:101c780029ee075bb5ee405bf1ee10fa08bf29eede
:101c8800069b08f1ff3808bf28ee068b29ee079b54
:101c9800e8e79fed0d7b2fe7049941b93bb14ff081
:101ca8002e0c012104f80ec00136013a0491e11905
:101cb80004eb060c31444ff0300e19e0aff300800e
:101cc800000000000000b03f00000000000000001d
:101cd80000000000000050430000f07fac634200a9
:101ce800b0634200b4634200b86342000cf801ebf1
:101cf8008c45fbd1f119d71b039a0928d4bf303082
:101d08005730192a0ad840f02002613a192a05d812
:101d1800cde9093104f01bfddde909317a1e605473
:101d28004e1c00271ce7634698fbfbfe0eeb8e0c4f
:101d3800a8eb4c0c0cf1300c04f803c0f046013f42
:101d480046e7225c1a5401386fe72e4619f0100f47
:0c1d58003ff42eaf2e23a355013629e7df
:020000040000fa
:020000040042b8
:041d640001207047a3
:020000040000fa
:020000040042b8
:101d68002de9f04f2ded0a8b92ed009b8fb0b5ee6b
:101d7800c09b05938b680493f1ee10fa0b69cd684c
:101d88000690d1e900a78b46089308d41af0040fef
:101d980034d11af00803039332d0202302e02d2314
:101da800b1ee499b2b70049b03f1ff390123039388
:101db80019ee903a19ee101a23f00042c04b002495
:101dc8009a4208bfa1421ed1059b0398413b192b9b
:101dd80094bfbc49bc49284404f01afd284604f0c5
:101de8008dfb049bcdf800a002462946069803f017
:101df8001bfa0fb0bdec0a8bbde8f08f2b23d1e79f
:101e0800ddf81090d4e78c42934108d2059b0398e3
:101e1800413b192b94bfad49ad492844dce7b5eee9
:101e2800409bf1ee10fab2ee04cbb7ee00ab40f0f7
:101e3800c080059804f084fc002fc0b2c0f2628113
:101e4800672840f0d580002f08bf0127231dc0f266
:101e5800d180bc4280f2ce80002c4ff066080cdaac
:101e6800b8f1660f07f1010707d1002c02dab7eec7
:101e780000ab0024672800d027440023b0ee4a8b2b
:101e8800b0ee49bb8bee080b0993079002f030fec9
:101e9800099b90ee08bb01339f420798b1ee4bbbfc
:101ea80088ee0c8beed1b1ee047b28ee078bb4eef6
:101eb800cb8bf1ee10fa00f3a080b4ee4b8bf1ee71
:101ec80010fa09d1bdeec00b9fed796b10ee103af8
:101ed80013f0010f06fe088b39ee088b2aee0c9bd7
:101ee800b4eec89bf1ee10fa00f28a80b8f1660fe2
:101ef80004f1010440f0868001372146cb1b002203
:101f0800039f0a9316460a9b994240f0a5803346e0
:101f1800002e00f0df80e8190022b8f1650f02708a
:101f280029d1089b013b9442ea54bcbf6442012278
:101f38004ff0020b4ff00a0e591e002c40f0d180d2
:101f4800bbf1000f00f3cd80002a0cbf2b222d22fd
:101f58006a54059a023b413a192a05eb030198bfd6
:101f68004ff045089f4281f8008001da04f050fce8
:101f7800cb44abf104090af00303022b7ff42eaf24
:101f8800b9f1000f7ff72aaf284604f0b7fa05eb3e
:101f98000903039a824240f3b18003984a463021ec
:101fa800284404f0fffa0023049317e70134b0ee45
:101fb80047ab2aee0c7bb4eec79bf1ee10faf5d5d1
:101fc8009fed3d7b00230be014f5967f05da23b9de
:101fd80029ee079b2aee07ab0123013c8aee0cabe6
:101fe800b4eeca9bf1ee10faeed422e706272de7ed
:101ff800804635e74ff065083fe79fed2d8b6be78f
:10200800b0ee4a9bb8f1650f14bf2146002175e771
:102018004eb9002907da079e2e23ab550123013755
:1020280009f1ff391e46ab1805eb070c3b444ff08e
:10203800300e01e00cf801eb9c45fbd1099b02eb4b
:10204800070c3033a9eb020202f1ff3905f80c3016
:102058000cf10107002223e0dbf810300797053b5d
:10206800bb427ff654af88ee090bcde90c200b91eb
:1020780002f03efdfdeec07bdde90b1217ee90cac3
:102088006346092ba8bf092309930af0100353eaf2
:102098000c0c0d98bcd16728bad10029b8da0132e6
:1020a80099ee008b0139b1ee488b89ee0c9b2ae73b
:1020b8000000000000000000000000000000504385
:1020c8000000f07fac634200b0634200b46342009a
:1020d800b86342001af0100f1ebf2e23eb550137cc
:1020e80019e70b4694fbfefc0ceb8c01a4eb4101b9
:1020f8003031e95464460bf1ff3b1de72a5c1a5462
:10210800013846e767283ff471af80460627a7e6ff
:020000040000fa
:020000040042b8
:102118002c0840201c00000000000000640940203a
:102128000b00000000000000060a4020020000002a
:102138000100000010270000a00940200c0000004a
:10214800000000006f0940200100000000000000ae
:1021580079094020010000000000000085094020a6
:102168000100000000000000280a402004000000d0
:10217800010000000000c842f808402014000000d8
:102188000000000018064020500000000000000079
:10219800880940200800000000000000ac09402029
:1021a800080000000000000008084020240000008b
:1021b8000000000048094020100000000000000056
:1021c800900940200800000000000000f8094020a5
:1021d8000100000000000000080740200001000086
:1021e80000000000b40940200c00000000000000be
:1021f80016054020020000000000000032094020bf
:1022080002000000000000001805402080000000c7
:102218000000000000004020000100000000000055
:10222800c00940200c00000000000000f90940200f
:102238000100000000000000cc094020040000005c
:1022480000000000fa094020020000000000000021
:10225800460940200200000000000000ee0940206e
:102268000200000000000000000140200001000002
:1022780000000000fc0940200100000000000000f0
:10228800d00940200400000000000000f4094020ac
:102298000200000000000000800840201800000034
:1022a800000000002009402012000000000000008b
:1022b8009808402018000000000000003409402061
:1022c8001200000000000000b008402018000000c4
:1022d80000000000f009402002000000000000009b
:1022e800c8084020180000000000000070094020c5
:1022f80009000000000000007c09402009000000df
:10230800000000000c09402014000000000000003c
:10231800ec0940200200000000000000e008402016
:102328001800000000000000980540208000000010
:1023380000000000f2094020020000000000000038
:102348007a0940200200000000000000fd0940203a
:102358000300000000000000860940200200000081
:1023680000000000000a40200100000000000000fa
:10237800050a4020010000000100000004000000e0
:10238800010a40200200000000000000d40940209b
:102398000400000000000000680640205000000013
:1023a80000000000900440208600000000000000ab
:1023b800480840201c00000000000000030a4020dc
:1023c8000100000000000000640840201c0000001c
:1023d800000000002c0a402004000000010000005a
:1023e80001000000580940200c0000000000000017
:1023f800f60940200200000000000000040a402006
:1024080001000000000000000004402090000000cf
:102418000000000000024020000200000000000050
:10242800d80940200c00000000000000b806402039
:102438005000000000000000e409402008000000ef
:1024480000000000080a40202000000001000000f1
:102458000100000003000000000000000000000070
:102468000000000000000000000000009809402063
:10247800980940200800000000000000000000004b
:10248800000000006666666666666666666666667c
:020000040000fa
:020000040042b8
:102498002de9f047aeb00746164605914ff0000803
:1024a800059d2b78002b00f0e08000244ff0ff33cf
:1024b800cde909430eab0c9380230b940d932b5d50
:1024c8000bb1252b30d134b1294622463846254454
:1024d80003f056fc0595059b1a78252a40f0bc8028
:1024e80003f10109cdf814904a46002113782b2beb
:1024f800104602f1010223d02ed8202b24d0232b02
:1025080026d001b105902a2b2ed003f077fa059a30
:102518000b900020114601320b78303b092b79d9fa
:10252800002830d005912ee00134c8e7099b43f01c
:10253800010309930121d9e7099b43f00203f8e756
:10254800099b43f00403f4e7099b43f00803f0e711
:10255800099b43f01003ece72d2be7d0302bebd091
:102568000029d2d00590d0e733681a1d1b68326065
:102578000130002b05900b9305da099a5b4282f033
:10258800010209920b93099bda0744bf23f0020367
:102598000993059b1a782e2a0fd14ff0000acdf81f
:1025a80028a05a785d1c2a2a059535d1023305934f
:1025b80033681a1d1b6832600a9305a803f0fcfcf7
:1025c800059d0390287804f0bbf82528039900f0ae
:1025d800da806138172800f2e080172800f2dd80e1
:1025e800dfe810f02b00db00b6004700a700a700cb
:1025f800a700db004700db00db00db00db009e0000
:1026080065008300db00db00c700db005600db0051
:10261800db00740001207de7284603f0eff95346fc
:102628000a90294601350a78303a092a03d9002b3d
:10263800c3d00591c1e70123f3e7324606a803f0aa
:1026480099fd002872d06b1c059306aa2b7809a95e
:102658003846fff79df904444444a04540f3a78059
:10266800544b4f221a604ff0ff3840462eb0bde859
:10267800f0873346012206a802f01af9002855d03f
:10268800013506aa09a93846059502f0ddfbe2e7ff
:102698003346002206a802f00bf9002846d001357f
:1026a80006aa09a93846059503f094f8d3e73346f6
:1026b800002206a802f0fcf8002837d0013506aa47
:1026c80009a93846059502f029fec4e733460022d9
:1026d80006a802f0edf848b36b1c05932b7806aa00
:1026e80009a9384601f0c8fbb5e733460022f021b6
:1026f80006a802f0ddf8c8b1dde90632013513435a
:1027080005950bd12c4803f0f9fe099b00932a4943
:102718000b9b0246384602f087fd9ce77823dee7ec
:10272800334608eb040206a802f06afe0135059557
:1027380092e7324606a803f01dfd0028f6d06b1c70
:10274800059306aa2b7809a93846fff709fb82e703
:102758008029ebd1336801351a1d1b6832608df86a
:1027680018300595012306aa09a9384603f006f88a
:1027780071e78029dad13268131d33600135126898
:1027880005950023f0e78029d0d1099b00930135f6
:102798000b9b059509490122bce700234ff0ff3246
:1027a800cdf8149009930b930a920093f2e7a04690
:1027b80076e600bfe8094020a4634200aa6342000d
:020000040000fa
:020000040042b8
:1027c800f0b583b0012806d0aa4b1b78002b00f087
:1027d8004d8103b0f0bda84b1b78002b00f0a18001
:1027e800a64b1a78597841ea02214af655239942ac
:1027f80038d1a24b9a78dd7845ea02251a795e79b4
:1028080046ea02264ff6ff739d4246d03446802e94
:1028180028bf80249a4f3b7822462946994803f0de
:1028280059fd3b78002b77d1974b1d80974b1c8027
:1028380056b19749974a002311f8010f02f8010b86
:1028480001339bb29c42f7d88d4b01221a7028465f
:1028580003f0eafb904b012283f84d208f4b0022b6
:102868001a70b1e71a468e4803f034fd864b1b8870
:1028780001338c494e220a70c3f307224a70dbb237
:102888008b705a4082f04e02ca707a4b01221a703d
:102898000422854803f0a4fee0e7784b997ada7ab7
:1028a800120442ea0162597b0a43187b9c79d97960
:1028b800090441ea04615c7a21431b7a42ea002256
:1028c80041ea0321794803f005fd00226a4b1a709a
:1028d800714b83f84b20012283f84d206a4b4ff649
:1028e800ff721a803446802e28bf8024674b1c80d4
:1028f80056b16749674a002311f8010f02f8010b26
:1029080001339bb29c42f7d85d4b01221a704ff6f7
:10291800ff7003f089fba1e72946654803f0dafc5c
:1029280098e70121634803f0d5fc544ce378009301
:10293800a37862782178604803f0ccfc2378202bb8
:1029480000f28f8001a252f823f000bfd127420085
:10295800ff2942005b2a42006b2a42006b2a420090
:102968006b2a42006b2a42006b2a42006b2a420003
:102978006b2a42006b2a42006b2a42006b2a4200f3
:102988006b2a42006b2a42006b2a42000f2a42003f
:10299800392a42006b2a42006b2a42006b2a420005
:1029a8006b2a42006b2a42006b2a42006b2a4200c3
:1029b8006b2a42006b2a42006b2a42006b2a4200b3
:1029c8006b2a42006b2a42006b2a4200d929420036
:1029d8003a4b01221a60294b5b7807ee903af8eee1
:1029e800677af2ee046a87eea67a2b4b83ed117aaa
:1029f80000f048fbe8e6324803f00efc264b0122c3
:102a080083f84d20e0e603f005fd03f0a7fe1e4b1a
:102a180000221a802b4803f0fffb0123274a13608a
:102a2800294a13601c4a82f84b3082f84d30cbe6b5
:102a3800264803f0f1fb0023234a1360164a82f864
:102a48004b30012182f84d100b4a1370134a137052
:102a5800bae61f4803f0e0fb0f4b012283f84d2034
:102a6800b2e60d4b022283f84d20ade602f090fc51
:102a7800afe600bf020a4020010a4020900440202f
:102a8800fd0940202c0942007a094020f209402023
:102a9800950440209805402018064020ff09402052
:102aa800c8084200d409402048084020fc084200d9
:102ab800540942007809420088094200a8094020c8
:102ac800ac094200b4094200a4094020e8094200c8
:042ad800000a4200ae
:020000040000fa
:020000040042b8
:102adc00f0b52ded028b97b09e4803f09bfb9e4cfe
:102aec00204603f097fb9d4803f094fb9c4803f0b1
:102afc0091fb204603f08efb01f03aff03f09afea7
:102b0c0003f0f6fd974c204603f084fb964803f047
:102b1c0081fb204603f07efb944c9fed958a84ed5f
:102b2c00008a02f0abfe934b236001f019fdd4ed4b
:102b3c00007a77eec87af5eec07af1ee10fa48bf5b
:102b4c00f1ee677a9fed8c7af4eec77af1ee10fa1b
:102b5c004cbf012200228949894802f0d7ff894cd9
:102b6c009fed898a84ed008a02f088fe637883f0f9
:102b7c001003637001f0f4fcd4ed007a77eec87aa0
:102b8c00f5eec07af1ee10fa48bff1ee677a9fede0
:102b9c007a7af4eec77af1ee10fa4cbf01220022d9
:102bac007a497b4802f0b2ff7a4d0121284602f0a7
:102bbc0093fc0446784b2b6002f060fe95ed008a86
:102bcc00002c00f0b1802378db43dbb2237001f0e2
:102bdc00c7fc704bd3ed007a77eec87af5eec07a6d
:102bec00f1ee10fa48bff1ee677a9fed637af4eede
:102bfc00c77af1ee10fa40f19b802278654b1b7876
:102c0c00d2b29a4214bf002201226449644802f0f5
:102c1c007dff644c0121204602f05efc054602213a
:102c2c00204602f059fc07465f4b236002f026fe5b
:102c3c0003f000fe4668aa23e3705523eb7001f005
:102c4c008ffce378ea78dbb2934273d0002403f074
:102c5c00f1fd01364368b34214bf002204f00102b7
:102c6c005249534802f052ff4e4b4f4a1a6002f041
:102c7c0005fe03f0dffd05684e4c9fed4f8a84ed99
:102c8c00008a02f0fbfd01f06bfcd4ed007a77eecc
:102c9c00c87af5eec07af1ee10fa48bff1ee677a19
:102cac009fed357af4eec77af1ee10fa4ad4002291
:102cbc004249434802f02aff2a4c204603f0aafa64
:102ccc0003f0b8fd036882680192426800923d4aa5
:102cdc00502102a803f0c6fb02a93b4803f0f8fa06
:102cec00204603f097fa394b1b68394a116858187b
:102cfc00384a394c002908bf224601920090374ac5
:102d0c00502102a803f0aefb02a92f4803f0e0fa11
:102d1c00144803f07ffa0f4803f07cfa03f0e8fc48
:102d2c0017b0bdec028bf0bd01f01afc00226ce771
:102d3c0000226ae7ec78fb78e4b29c4214bf0024d2
:102d4c00012484e703f076fd0268aa4214bf002236
:102d5c000122ade7641342002812420078124200af
:102d6c00c812420018134200681342004809402060
:102d7c00a3e31a429af9794417b7d138b813420031
:102d8c00e813420008084020c3f51c41ec13420034
:102d9c001c14420088094020cdcc6c402014420009
:102dac0054144200280a402000009a425814420051
:102dbc0090144200ac0940200000ac419414420035
:102dcc00c8144200cc14420010154200dc0940200b
:102ddc00d809402014124200f81142001c15420080
:020000040000fa
:020000040042b8
:102dec002de9f04786468c460846089e15467446e3
:102dfc001946002b40f0c2808242b2fa82f245d9c9
:102e0c004ab1c2f1200300fa02fc2efa03f39540fa
:102e1c0043ea0c0c94404fea154ea8b2bcfbfef8ea
:102e2c00230c0efb18cc08fb00f943ea0c43994524
:102e3c0028d9eb1808f1ff3704d2994502d9a8f12b
:102e4c0002072b44a3eb0903a4b2b3fbfefc0efb5d
:102e5c001c330cfb00f044ea0344a04214d92c1997
:102e6c000cf1ff3304d2a04202d9acf102032c4482
:102e7c00241a43ea07401eb1d44000233460736027
:102e8c00bde8f0874746dde76346f1e792bb431b9d
:102e9c0001214fea154eafb2b3fbfefc200c0efb2a
:102eac001c330cfb07f840ea0343984562d9eb1836
:102ebc000cf1ff3004d2984502d9acf102002b443e
:102ecc00a3eb0803a4b2b3fbfefc0efb1c330cfb00
:102edc0007f744ea0344a7424ed92c190cf1ff33ef
:102eec0004d2a74202d9acf102032c44e41b43eafe
:102efc000040c0e7c2f1200320fa03f19540904056
:102f0c002efa03f303434fea154eafb2b1fbfefcae
:102f1c000efb1c10190c0cfb07f841ea004188450c
:102f2c0004fa02f422d969180cf1ff3004d2884556
:102f3c0002d9acf102002944a1eb08019bb2b1fb10
:102f4c00fefc0efb1c110cfb07f743ea01439f42ee
:102f5c000ed9eb180cf1ff3104d29f4202d9acf11f
:102f6c0002012b44db1b41ea004192e76046e3e798
:102f7c006146f7e76046a3e76346b7e7834206d9a5
:102f8c0016b9002108467be7c6e900e0f9e7b3fa79
:102f9c0083f78fb9834201d3724508d8beeb020484
:102fac0060eb030301209c461eb9002168e73846fc
:102fbc00fae7c6e9004cf8e7c7f1200cbb4022fa4f
:102fcc000cf41c432efa0cf120fa0cf3b84001431c
:102fdc004fea14490efa07f5b3fbf9f81ffa84fe11
:102fec0009fb18300b0c08fb0efa43ea00439a4518
:102ffc0002fa07f240d9e31808f1ff3004d29a45df
:10300c0002d9a8f102002344a3eb0a0389b2b3fb53
:10301c00f9f809fb183308fb0efe41ea03418e4513
:10302c002cd9611808f1ff3304d28e4502d9a8f1ce
:10303c000203214443ea0040a0fb0298a1eb0e01dd
:10304c004145ce46434602d306d14d4504d2b9eb99
:10305c00020e68eb04030138002ea6d0b5eb0e026d
:10306c0061eb030101fa0cfc22fa07f34cea0303af
:10307c00f940c6e9003198e74046c5e74346d9e731
:020000040000fa
:020000040042b8
:10308c0008b5874a2023137086490b68c3f3076081
:10309c005070c3f307409070c3f30720d0701371c6
:1030ac004b68c3f307615171c3f307419171c3f3cb
:1030bc000721d17113727c4b1968c1f307605072f0
:1030cc00c1f307409072c1f30720d0721173596895
:1030dc00c1f307605073c1f307409073c1f307202d
:1030ec00d07311749968c1f307605074c1f3074031
:1030fc009074c1f30720d0741175db68c3f30761ba
:10310c005175c3f307419175c3f30721d17513763c
:10311c00664b1968c1f307605076c1f3074090768f
:10312c00c1f30720d07611775968c1f30760507747
:10313c00c1f307409077c1f30720d07782f82010b5
:10314c009968c1f3076082f82100c1f3074082f847
:10315c002200c1f3072082f8230082f82410d968da
:10316c00c1f3076082f82500c1f3074082f82600fe
:10317c00c1f3072082f8270082f828101969c1f3df
:10318c00076082f82900c1f3074082f82a00c1f3d6
:10319c00072082f82b0082f82c105969c1f30760c4
:1031ac0082f82d00c1f3074082f82e00c1f30720ee
:1031bc0082f82f0082f830109969c1f3076082f809
:1031cc003100c1f3074082f83200c1f3072082f8c6
:1031dc00330082f83410d969c1f3076082f83500e6
:1031ec00c1f3074082f83600c1f3072082f837009c
:1031fc0082f838101b6ac3f3076182f83910c3f3e5
:10320c00074182f83a10c3f3072182f83b1082f889
:10321c003c30274b1b68c3f3076182f83d10c3f3a6
:10322c00074182f83e10c3f3072182f83f1082f861
:10323c004030204b1b68c3f3076182f84110c3f385
:10324c00074182f84210c3f3072182f8431082f839
:10325c00443019494b6cc3f3076082f84500c3f343
:10326c00074082f84600c3f3072082f8470082f833
:10327c00483091f84a3082f84930531e49320020c8
:10328c0013f8011f48409342fad1054981f84a00ce
:10329c000a4b01221a704b22094803f09ff908bd12
:1032ac006806402088094020480940200808402032
:1032bc00b0094020ac09402018064020020a4020ea
:0432cc00480840204e
:020000040000fa
:020000040042b8
:1032d0002de9f041ccb003f099fa002840f0bf800e
:1032e000644b59684a1e644b9a4242d2082208a98c
:1032f000624802f0bdf99df8273004939df826300e
:1033000003939df8253002939df8243001939df896
:10331000233000939df822309df821209df8201045
:10332000574802f0dbff08220aa9564802f0a0f92c
:103330009df82f3004939df82e3003939df82d3087
:1033400002939df82c3001939df82b3000939df84b
:103350002a309df829209df828104b4802f0beff26
:10336000444b5f68afb34ff0ff340026dff80c81a9
:103370001be0464802f0b2ff454b0c221a705ce09d
:10338000013295420ed910f8011b4c40614614f0f1
:10339000010f14bf83ea54046408013911f0ff01de
:1033a000f5d1ede72e44b74215d9bd1bb5f5807fa9
:1033b00028bf4ff480752a460ca906eb080002f0de
:1033c00057f9b742eed00ca800224ff0080c314b51
:1033d000d9e74ff0ff34e143264b9b688b422fd057
:1033e000cbb20093c1f30723c1f30742090e2a4869
:1033f00002f074ff0cac294d0fcd0fc42b68236075
:103400000cac11af264e54f8045b042207a92846e1
:1034100002f02ef99df81f3001939df81e300093a5
:103420009df81d309df81c202946304602f056ffbd
:10343000bc42e8d1164b0c221a704cb0bde8f081aa
:10344000184802f04bff0b48174b40f8103bf02296
:10345000ff2103f0abf80e4b09221a70ede703f0e1
:10346000d5f90228e9d1114802f0dafe084b0c2206
:103470001a70e2e70000402000f0df0000101000aa
:103480000c0342008010100044034200d8024200a6
:10349000f90940202083b8ed7c03420034654200e6
:1034a000cc034200f803420034cd12ab2c0442009e
:020000040000fa
:020000040042b8
:1034b00070b504460378013b082b73d8dfe803f0ae
:1034c00005286b73405f959ac00003f03df8002813
:1034d00068d0624b1b78002b64d1604b01221a70bc
:1034e00003f046f9237b43b16078400000f0fe0012
:1034f00002f028ff0223237054e06378a07a00389a
:1035000018bf012040ea4300c0b202f01bfff1e700
:1035100003f024f850b100236372237b53b9a37adc
:10352000002b0cbf0323072323703be0204602f04f
:1035300021fa37e0e07a03f021f90523237031e026
:1035400003f064f850b9a38a01339bb2a382b3f5a8
:103550007a7f27d9204602f00dfa23e00023a382c8
:1035600002f0fcff38b1607802f09cff0023237367
:103570000623237016e0204602f0fcf912e002f068
:10358000edff20b100236372072323700ae0204679
:1035900002f0f0f906e0437a4268d05c03f0eef8fe
:1035a0000423237070bd03f031f850b9a38a0133ae
:1035b0009bb2a382b3f57a7ff4d9204602f0daf900
:1035c000f0e70023a38202f0c9ff50b1637a013310
:1035d000dbb26372227a9a4214bf03230923237059
:1035e000e0e7204602f0c6f9dce700f0dafc082349
:1035f0002370d7e703f012f850b9a38a01339bb2c6
:10360000a382b3f57a7fcdd9204602f0b3f9c9e79a
:103610000023a382657a666803f0b6f87055637a72
:103620000133dbb26372227a9a4204d001f0b3fe16
:1036300007232370b6e703f0adf809232370b1e741
:1036400002f05afd00232370a375044a1370236906
:10365000002ba7d000209847a4e700bffa0940201c
:020000040000fa
:020000040042b8
:1036600030b583b004460378072b00f2ba80dfe858
:1036700003f00b040d235f788ea8062002f02afbce
:103680000023a3820223237003b030bd02f040fb6d
:1036900010f0020f04d00023a38203232370f3e76a
:1036a000a37d0133dbb2a375022b4ff0010384bf6e
:1036b000e37507232370e7e74378022b0dd0032b34
:1036c00020d0012b2fd1c2684168806801f0d0ff63
:1036d000e368236104232370d6e7c26841688068e9
:1036e00001f088f8e36823614ff4802502f010fbb5
:1036f00010f0010f01d1013df8d106232370002302
:10370000a382c1e78168202002f048fa44f62063d2
:103710000193019b5a1e0192002bfad106232370bc
:103720000023a382b0e70223c37507230370abe72e
:103730000269c3689a4207d3002303708369002b90
:10374000a2d0012098479fe7838a01339bb28382ee
:1037500041f28732934297d90323c375072303703d
:1037600092e70269c3689a4204d300238382062346
:10377000037089e7838a01339bb2838241f28732e7
:10378000934281d90423c375072303707ce703f0b8
:1037900007f840b900232370a369002b3ff474afee
:1037a0000120984770e7a38a01339bb2a38241f2bc
:1037b000873293427ff668af0523e37507232370b2
:1037c00062e7c17d084802f089fda3690bb10020c2
:1037d000984700232361e360a382a375637023707d
:0c37e00052e7002303704fe7d8074200b7
:020000040000fa
:020000040042b8
:0437ec000120704701
:020000040000fa
:020000040042b8
:1037f0002de9f04186b006464d6805eb450305eb23
:103800008303534ca4fb0304e4084ff22340834298
:1038100025d9504b00201860002a50d10f68d1f8ec
:103820000880e20e63011b1b62f10002520242eab1
:10383000d3525b021b1942f10002910141ea9361ec
:103840009801c01a61eb020100193fa3d3e90023dc
:1038500041f1000102f038fc3f4a404b21e0002ad0
:103860004ed10f68d1f80880e20e63011b1b62f194
:103870000002520242ead3525b021b1942f10002db
:10388000910141ea93619801c01a61eb02010019ac
:103890002da3d3e9002341f1000102f015fc2e4acb
:1038a0002f4b0493039002940195cdf800803b4682
:1038b00031462c4802f012fd06b0bde8f0810f68d9
:1038c000d1f80880e20e63011b1b62f10002520274
:1038d00042ead3525b021b1942f10002910141ea14
:1038e00093619801c01a61eb0201001916a3d3e994
:1038f000002341f1000102f0e7fb1b4a174bd0e720
:103900000f68d1f80880e20e63011b1b62f1000210
:10391000520242ead3525b021b1942f100029101aa
:1039200041ea93619801c01a61eb0201001906a3f4
:10393000d3e9002341f1000102f0c6fb0a4a084b1b
:10394000afe700bfaff30080105e5f000000000033
:10395000cdcccccc2c0a4020500d4200540d42005e
:0c3960004c0d42005c0d4200480d42007e
:020000040000fa
:020000040042b8
:10396c0010b582b03e4802f055fc3e4c204602f0a9
:10397c0051fc3d4802f0e6fb4ff47a723b493c485f
:10398c0002f0e0fb41f66a013a4802f0dbfb20460c
:10399c0002f040fc4ff0e022d2f8fc3d43f0807383
:1039ac00c2f8fc3d344b354ac3f8b02f00225a60a4
:1039bc001a6842f001021a601b6813f0010f47d01d
:1039cc002d4b5a6800230193019b632b05dc019b53
:1039dc0001330193019b632bf9dd274b5b689a4202
:1039ec003ad0274802f074fc264c204602f012fc18
:1039fc002549264802f0e0f92549264802f0dcf971
:103a0c002549264802f0d8f92549264802f0d4f970
:103a1c00204602f0fffb1549234802f093fb234894
:103a2c0002f090fb0f4802f0f5fb214b1968214a7c
:103a3c00214b00290cbf11461946204802f082fb8d
:103a4c00084802f0e7fb064802f0e4fb02b010bda8
:103a5c001b4802f0dffbf9e71a4802f0dbfbf5e745
:103a6c00641342000c0e4200680e4200105e5f00b0
:103a7c00ac0e4200f00e4200001000e055ceacc57a
:103a8c008c0f4200ec0f42007d494200481042006e
:103a9c008d6442005810420095624200681042004a
:103aac00355842007410420088104200cc1042007d
:103abc002c0a4020dc0d4200a80d420018114200d7
:083acc003c0f42006c0f4200a8
:020000040000fa
:020000040042b8
:103ad40038b50025514c06e000f062fa0135edb22c
:103ae400052d00f0968002f041fd2378002b46d08e
:103af4006378002b47d0a378002b48d0e378002bc1
:103b040049d02379002b4ad06379002b4bd0a37979
:103b1400002b4cd0e379002b4dd0237a002b4ed0d0
:103b2400637a002b4fd0a37a002b50d02378002b3c
:103b3400d2d06378002bcfd0a378002bccd0374bd6
:103b4400db78002bc8d0354b1b79002bc4d0334b0a
:103b54005b79002bc0d0314b9b79002bbcd02f4b11
:103b6400db79002bb8d02d4b1b7a002bb4d02b4b18
:103b74005b7a002bb0d0294b9b7a83bbace7fef772
:103b8400eff82070b4e701f05fff6070b3e701f075
:103b94009bfda070b2e700f083fbe070b1e701f099
:103ba400a7f92071b0e7fff71ffe6071afe700f0df
:103bb4009fffa071aee702f054fee071ade702f0a2
:103bc4004cfe2072ace702f04afe6072abe702f0f2
:103bd4002cfea072aae70135edb2052d1bd002f030
:103be4004afe0028f7d002f03efe0028f3d002f08f
:103bf4003cfe0028efd002f03afe0028ebd002f0a1
:103c040038fe0028e7d002f038fe0028e3d0012077
:103c140000e0002038bd0020fce700bf640940201c
:020000040000fa
:020000040042b8
:103c240030b5c1b0404802f0f9fa404c204602f0e9
:103c3400f5fa3f4802f0f2fa4ff480313d4802f0c1
:103c44004bfb204602f0eafa00f02afb4ff48031e5
:103c5400394802f041fb062002f03af84ff4803173
:103c6400202001f099ff02f05bfaa8b14ff48072b2
:103c740069464ff4803001f0f9fc6b46002113f8db
:103c8400012bff2a0dd10131b1f5807ff7d12b48eb
:103c940002f0c4fa012408e00446294802f0befafe
:103ca40003e0284802f018fb002400f0cffc08b31e
:103cb40000f070fb80b10234e4b21c4802f0aefaaa
:103cc400254603222146204802f006fb032c1ed180
:103cd4001e4802f0a3fa1fe00134e4b20ee01348d8
:103ce40002f09cfa0134e5b203222946164802f098
:103cf400f3fa0ce000f04efb0028f0d10b4802f080
:103d04008dfa2546032221460f4802f0e5fac5f153
:103d140003010f4802f0e0fa044802f07ffa024877
:103d240002f07cfa41b030bd64134200740b4200cf
:103d3400ac0b4200e80b4200200c4200b40a4200e3
:103d4400700a4200440c4200680c4200a00c42007d
:043d5400dc0c420041
:020000040000fa
:020000040042b8
:103d5800414b03b19847414b03b19847eff31083a8
:103d6800b3fa83f35b09019372b6bff35f8f0199ce
:103d78004ff0e022d2f8883d43f47003c2f8883d42
:103d8800bff34f8fbff36f8f11b1bff35f8f62b671
:103d9800334b5b6913f4003f13d1bff34f8fbff36d
:103da8006f8f2f4b0022c3f85022bff34f8fbff302
:103db8006f8f5a6942f400325a61bff34f8fbff3d5
:103dc8006f8f274b5b6913f4803f2bd1244b002264
:103dd800c3f88420bff34f8fd3f88030c3f3c904ee
:103de800c3f34e334fea431c43f6e07e1c480cea0b
:103df8000e01234641ea8372c0f86022013bb3f109
:103e0800ff3ff7d1acf1200c1cf1200fefd1bff32d
:103e18004f8f134a536943f480335361bff34f8f75
:103e2800bff36f8f01f038f902f018f90d4b23f04a
:103e38007f030b4a93600c4b98470c4b03b1984790
:103e48000b4b03b198470021084601f069fd094b67
:103e580003b19847fee700bf000000000000000023
:103e680000ed00e000004200295742000000000079
:083e7800000000000000000042
:020000040000fa
:020000040042b8
:103e80002de9f04f8bb00d460493d1e901132f6853
:103e9000d5f80c9003900029a8bf27f0020792469e
:103ea000b8bf012117f010020592dae9006232d0a2
:103eb00056ea02002fd0a3f1020b2c69029617f0ec
:103ec000080004f1ff3418bf0bf1ff3b90460022bd
:103ed00009f8042006905a46012c1edc059a002a97
:103ee00051d1069a1ab1013c202209f804202a690e
:103ef00003980097013a121b09eb040101f098f9ad
:103f0000039b5b68db0503d56b689842b8bf184616
:103f10000bb0bde8f08f9b46cfe7029850ea08004f
:103f200008d1a1eb0b001044002803dc002ad5ddea
:103f3000b807d3d50298049e00f00f000928a6f117
:103f4000410cd4bf30305730bcf1190f04f1ff34ad
:103f50000ed840f0200cacf1610cbcf1190f07d861
:103f6000cde90813079202f0f6fbdde90813079a82
:103f700009f804000298060946ea0870013a02901e
:103f80004fea1818a8e7dae900210a43a9d009eb9b
:103f90000402049902f8011c023c302209f80420b2
:023fa0009fe799
:020000040000fa
:020000040042b8
:023fa200704766
:020000040000fa
:020000040042b8
:103fa40030b486b03f4b80221a6003f548231822b0
:103fb400c3f8002e1022c3f8102e0822c3f8142ec2
:103fc400092019461025002442f20f72c1f8345e0c
:103fd4000194019b934205dc019b01330193019bf6
:103fe4009342f9ddc1f8305e0294029b934205dcf2
:103ff400029b01330293029b9342f9ddd1f83c3ecc
:1040040013f0080f01d10138e0d1274b0822c3f87f
:10401400102e1021c3f8341ec3f8342e002303934a
:10402400039a42f20f739a4206dc1a46039b013349
:104034000393039b9342f9dd1b4b1022c3f8302eec
:1040440000230493049a42f20f739a4206dc1a4640
:10405400049b01330493049b9342f9dd124b082221
:10406400c3f8302e00230593059a42f20f739a4247
:1040740006dc1a46059b01330593059b9342f9dd43
:10408400094b1822c3f8042ea3f5482380221a6092
:1040940024221a601a6a49f69d521a6106b030bc8d
:0c40a400704700bf0080014000000e408b
:020000040000fa
:020000040042b8
:1040b00000b5a1b0384ad2ed006a384b93ed017ad1
:1040c000b7eec77a8ded1e7b93ed007ab7eec77a17
:1040d0008ded1c7b324b93ed007ab7eec77a8dedf8
:1040e0001a7b304b93ed007ab7eec77a8ded187bd3
:1040f0002d4b93ed087ab7eec77a8ded167b93edd5
:10410000077ab7eec77a8ded147b93ed067ab7ee9a
:10411000c77a8ded127b93ed057ab7eec77a8dedf8
:10412000107b93ed047ab7eec77a8ded0e7b93ed9d
:10413000037ab7eec77a8ded0c7b93ed027ab7ee7a
:10414000c77a8ded0a7b93ed017ab7eec77a8dedd4
:10415000087b93ed007ab7eec77a8ded067b92ed82
:10416000037ab7eec77a8ded047b92ed027ab7ee53
:10417000c77a8ded027b92ed017ab7eec77a8dedad
:10418000007bb7eee67a53ec172b084802f0a6f84e
:1041900021b05df804fb00bf480940208809402099
:1041a000ac094020b009402008084020cc01420062
:020000040000fa
:020000040042b8
:1041b00070b504460378013b052b09d8dfe803f00e
:1041c000030914326167407802f078f90223237002
:1041d00070bd436833b1427b985c02f03ffa032321
:1041e0002370f5e7ff20f8e702f020fa20b1002362
:1041f000a37304232370ebe7a37b0133dbb2a37328
:10420000c82be5d9254802f00bf8607802f01efab9
:104210000023a37323702369002bd9d04ff0ff3004
:104220009847d5e702f00afa90b10023a373a56876
:1042300025b3667b02f0bafaa855637b0133dbb283
:104240006373227b9a428cbf022305232370bfe74e
:10425000a37b0133dbb2a373c82bb9d9104801f09b
:10426000dfff607802f0f2f90023a3732370236963
:10427000002badd04ff0ff309847a9e702f096fa37
:10428000dbe7407802f0e2f906232370a0e7036938
:104290000bb1002098470023237099e708084200db
:0442a00024084200ac
:020000040000fa
:020000040042b8
:1042a40082b0384b4ff40062c3f800274ff48232d7
:1042b400c3f810264ff41e32c3f8042ed3f8702e20
:1042c40022f41e32c3f8702ed3f8742e22f41e3258
:1042d400c3f8742e03f580534ff00042c3f804244e
:1042e400d3f8702422f00042c3f87024d3f8742465
:1042f40022f00042c3f87424a3f5ca2380221a6072
:10430400214a5a604ff400721a6201221a604ff473
:1043140080231e490a6912f0807f01d1013bf9d143
:104324001a4bab225a6342f210029a639b6b4ff40e
:10433400802316490a6912f4806f01d1013bf9d137
:10434400124b4ff080721a604ff4fa730193019b81
:104354005a1e0192002bfad14ff0e0230722c3f832
:10436400982d4ff00042c3f89c2d094ac3f8a02da4
:104374000522c3f8942dbff34f8fbff36f8f012035
:1043840002b0704700000e401100000100c0074059
:0443940037000813d3
:020000040000fa
:020000040042b8
:104398002de9f041adf5007d062001f097fc4ff4c2
:1043a8008031202001f0f6fb01f0b8fe78b30df162
:1043b800ff052a46002302f8013f0133b3f5807f49
:1043c800f9d1294801f086ff062001f07ffc4ff45f
:1043d80080720deb02014ff4803000f007fa01f013
:1043e8009dfe0446c0b1e8464ff48072ff21404666
:1043f80002f0d8f84ff4807241464ff4803001f053
:1044080033f90df1ff340df1ff0700260fe00446e4
:10441800164801f001ff02e0154801f0fdfe2046b4
:104428000df5007dbde8f0810136bc420fd0204675
:1044380014f8013f15f8012f9342f6d0042ef3d853
:10444800c8f1010101440b4801f044ffece726b92b
:10445800094801f0e1fe0124e1e73146074801f08f
:1044680039ff0024dbe700bffc0a4200dc0a4200f7
:10447800700a4200240b4200b40a4200580b420062
:020000040000fa
:020000040042b8
:1044880010b5044600f092fb314bd3ed007a052cb1
:104498004dd8dfe804f0050d21283e03204610bd65
:1044a800002846d02b4b1868003818bf0120f6e7c3
:1044b800002840d0274b1b68002b3ed0264b1b689a
:1044c800002b3cd09fed257af4eec77af1ee10fa76
:1044d800ccbf02202046e2e71f4b1b68002b14bf0d
:1044e80020460120dbe7b2ee0e7af4eec77af1ee51
:1044f80010fa26d4184b1b6833b19fed187af4eee6
:10450800c77af1ee10fa1edc00280cbf2046002006
:10451800c5e7b2ee0e7af4eec77af1ee10fa14d5ca
:104528000f4b1b68002b0cbf20460520b7e7002067
:10453800b5e70320b3e70320b1e70020afe7204643
:10454800ade70420abe70220a9e70320a7e700bff7
:10455800280a4020a8094020a409402000008c42d5
:04456800a009402046
:020000040000fa
:020000040042b8
:10456c002de9f047314b1b78002b56d0dff8d0806b
:10457c004ff000094e46dff8b4a046e02c4b99549e
:10458c002c4a1368013313600134aa88a3b29a42ef
:10459c0031d92b6803eb040c195dc9b2ea882244ab
:1045ac00bb5cdbb22248805cc0b2994201d1834231
:1045bc00ead001369942e1d0814208d083420cd135
:1045cc008cf800301b4a136801331360dce7b954d4
:1045dc00184a136801331360d6e78cf8003014497d
:1045ec008b54144a5368013353602246a96812480d
:1045fc0001f06efec8e709f1010908f10c089af800
:10460c0000205ffa89f39a4208d94546b8f804307d
:10461c00002bf0d00024094fbbe70026054a936815
:10462c00013393603046bde8f08700bf040a402098
:10463c00000240205809402088114200000340200d
:04464c000004402006
:020000040000fa
:020000040042b8
:104650002de9f041adf5007d0df1ff050df2ff10e4
:104660002b4640f2011180aa891aca1812f0010fd4
:1046700014bf5a22a52203f8012f8342f5d1264800
:1046800001f02cfe062001f025fb4ff480720debab
:1046900002014ff4803000f0adf801f043fd044614
:1046a00098b1e8464ff4807422460021404601f05c
:1046b0007dff224641464ff4803000f0d9ff0df1d6
:1046c000ff340df1ff0700260ae0144801f0a8fdb1
:1046d00020460df5007dbde8f0810136bc420fd0cb
:1046e000204614f8013f15f8012f9342f6d0042e0e
:1046f000f3d8c8f101010144094801f0effdece7ee
:1047000026b9084801f08cfd0124e1e7314606484e
:1047100001f0e4fd0024dbe7480a4200700a420091
:0c472000800a4200b40a4200c00a4200b5
:020000040000fa
:020000040042b8
:10472c0010b501281fd1284b1988013189b2198085
:10473c001f2907d8254b1b78032b41d8dfe803f042
:10474c000b162029214b04221a70214801f0c0fdc0
:10475c0000f01cfe09e01f4b1b78aa2b14bf002392
:10476c0001231a4a137000f011fe10bd194b1b786f
:10477c00552b14bf002301235b00144a1370f2e77e
:10478c00144b1b78aa2b14bf002203220f4b1a7058
:10479c00e9e7104b1b78552b03d00c4b00221a70f9
:1047ac00e1e70424094b1c700b4801f033fd0b4b63
:1047bc0001221a7022460a490a4801f00fffd4e779
:1047cc00024b00221a70cee786094020050a4020d1
:1047dc006c084200000a4020a4084200020a402053
:0847ec008468420048084020e7
:020000040000fa
:020000040042b8
:1047f400f0b50d4614462e4b186302225a6343f259
:10480400b0029a639b6b72b600f10041032c19d974
:10481400a608ac464ff0000e4f1b254a05e00ef1ea
:10482400010e0cf1040c76450cd9dcf8003047f885
:104834000c304ff48023106910f0040fefd1013bca
:10484400f9d1ece724f0030c14f0030f15d0ac44b9
:1048540005eb040e491b164a01e0f4450dd001ebab
:104864000c031cf8010b18704ff48023106910f02e
:10487400040ff2d1013bf9d1efe7bff34f8f62b6da
:104884004ff480230a490a6912f0040f01d1013b55
:10489400f9d1074b4ff080721a604ff4802304491a
:1048a4000a6912f4806f01d1013bf9d1f0bd00bf58
:0448b40000c00740f9
:020000040000fa
:020000040042b8
:1048b800902910b50fdc7f2913dd8039102910d815
:1048c800dfe801f02b2b360f110f0f0f200f0f0f02
:1048d8000f0f0f0f3600c02944d0f02942d0a0296d
:1048e80021d000200de019682ab10a1d1a60b1f91b
:1048f8000030da1702e00c1d1c600b88c0e900329a
:10490800012010bd196822b10a1d1a6091f9003002
:10491800efe70c1d1c600b78f0e71968f2b10a1d6f
:104928001a600b68e5e71a68111d19601368e0e75b
:10493800196852b1073121f0070101f108021a6024
:10494800d1e90023c0e90023dae7ca1d22f00702f3
:1049580002f108011960d2e90023f3e70c1d1c607d
:104968000b68cbe71a68111d1960136803600023f0
:044978004360c5e7ec
:020000040000fa
:020000040042b8
:10497c0008b51f4b1b78a3b1fff7f2fd01f080fec9
:10498c0001f086fe01f08cfe01f092fe01f0a0fe1b
:10499c0001f0d6f901f094fe01f0a2fe00f06effda
:1049ac0008bd144a1021144800f0faf9134a2421c6
:1049bc00134800f0f5f9134a0421134800f0f0f9fc
:1049cc00124a0421124800f0ebf9124a082112484d
:1049dc0000f0e6f9114a1421114800f0e1f9114aee
:1049ec000421114800f0dcf9014b01221a70c3e7d5
:1049fc00790940209001420048094020980142006a
:104a0c00080840209c014200b0094020a801420047
:104a1c00ac094020b401420088094020b801420092
:0c4a2c00f8084020c4014200280a402085
:020000040000fa
:020000040042b8
:104a380000b170472a4b2b4a117807ee101ab8eece
:104a4800477adfed297ac7ee276ac3ed006a517805
:104a580007ee101ab8ee477ac7ee276ac3ed016a67
:104a6800917807ee101ab8ee477ac7ee276ac3edb9
:104a7800026ad17807ee101ab8ee477ac7ee276aad
:104a8800c3ed036a117907ee101ab8ee477ac7ee3c
:104a9800276ac3ed046a517907ee101ab8ee477a0f
:104aa800c7ee276ac3ed056a917907ee101ab8eeca
:104ab800477ac7ee276ac3ed066ad17907ee101a5e
:104ac800b8ee477ac7ee276ac3ed076a127a07ee8f
:104ad800102ab8ee477ac7ee276ac3ed086aa8e736
:0c4ae80008084020340940200000c842ab
:020000040000fa
:020000040042b8
:044af40001207047e6
:020000040000fa
:020000040042b8
:104af80053ec102bc3f30a512de9f04140f2fd703d
:104b08004c1e84429e4640d8a1f2ff30002833db79
:104b180033282ddc244c4ff0ff3cc0f1200615460d
:104b2800a1f21f4104fa06f22cfa00fc4cea020c2e
:104b380024fa01f24cea020cc44003ea040805ea2c
:104b48000c0757ea080725ea0c0223ea04030fd0ea
:104b5800002b0dda4ff4801404fa06f624fa01f15a
:104b68000e43b61824fa00f444eb030432462346f5
:104b780043ec102bbde8f0819fed090bbfee007be5
:104b8800002b20fe070bbde8f0810029f0d10a4672
:104b980003f0004343ec102bece700bfaff30080b9
:0c4ba8000000000000000000ffff0f00f4
:020000040000fa
:020000040042b8
:104bb400254bd3ed007ab1ee0a7af4eec77af1ee22
:104bc40010fa34dc9fed217af4eec77af1ee10fa94
:104bd4002fd4d3ed017ab0ee007af4eec77af1ee79
:104be40010fa28dcb7ee007af4eec77af1ee10fa88
:104bf40023d4174bd3ed007a9fed167af4eec77adf
:104c0400f1ee10fa1bdcbaee047af4eec77af1ee98
:104c140010fa16d4104b93ed007af3ee0e7ab4ee3c
:104c2400e77af1ee10fa54bf01200020704700200b
:104c34007047002070470020704700207047002014
:104c440070470020704700bf8809402066664640d0
:0c4c5400ac09402000007042280a4020fb
:020000040000fa
:020000040042b8
:104c60002de9f04f85b003900091019393463ab13e
:104c700000264ff0ff3934463546b046374630e01f
:104c8000164617464ff0ff390025a846039cc4f886
:104c9000009066605a4600232846414601f014fa07
:104ca000a060e760204605b0bde8f08fdff854a0b3
:104cb000daf80430029300998847daf80430029a4f
:104cc0009b1a002c08bf1f469e4238bf1e469945be
:104cd00028bf99465b191d4648f100080134a345d9
:104ce000d4d0019b002be1d072b6dff818a0daf81f
:104cf0000430029300998847daf80430029a9b1a2c
:084d000062b6dee7001000e0de
:020000040000fa
:020000040042b8
:104d080030b583b00446214b53f82000204b53f8ac
:104d18002430204a52f82420984214bf002101214f
:104d2800934202d109b103b030bd904219d0c1b944
:104d3800934221d0184d696801316960009202469a
:104d48002146164801f0c6fa154b53f824000f4bbc
:104d580043f824000e4b43f824000e4b43f824007c
:104d6800e1e70d4a136801331360094b43f8240047
:104d7800084b43f82400d6e707490a6801320a605d
:104d8800024a42f824301846cde700bfc807402041
:104d980088074020480740209009402090024200a0
:044da8000807402098
:020000040000fa
:020000040042b8
:104dac00f8b51546204b1c780b2c2ed81f4bb3f89e
:104dbc0000e00eeb0107bfb2b7f5807f2cd81c4b7f
:104dcc0004eb440603eb860243f826009180a2f81c
:104ddc0006e003eb86039d6081b100eb010c0346fa
:104dec00aeeb0000134e144dc1181a78d2b27254a7
:104dfc0013f8012bd2b26a546345f5d10b4b1f80cb
:104e0c000134094b1c700020f8bd11460b4801f011
:104e1c005ffa4ff0ff30f7e70a462946084801f0e1
:104e2c0057fa4ff0ff30efe7040a4020f609402014
:104e3c0000044020000340200002402030114200ba
:044e4c0054114200bb
:020000040000fa
:020000040042b8
:104e50002de9f041d2e900230c4686b005465fea11
:104e6000d378d1e901060968e76805913fd052423d
:104e700063eb4303002808db21f002010591b8f140
:104e8000000f02d10599480722d5711e05a802908e
:104e90000a20cde90010204600f008fab8f1000f12
:104ea0001ad001382d233b542269059b0093013a07
:104eb0003346121a3918284600f0baf96b68db0538
:104ec00003d563689842b8bf184606b0bde8f081c4
:104ed0000807dad43146d9e7059b590702d50138ce
:104ee0002b23e0e71a07dfd501382023dbe7002872
:044ef000c2dac7e774
:020000040000fa
:020000040042b8
:104ef400214b4ff42052c3f8102603f580530322ac
:104f04005a601a6f22f003021a675a6f42f00302c2
:104f14005a67a3f53d23ac221a604ff40c625a6021
:104f24004e221a6250221a604ff480721a605b6932
:104f340013f0010f05d0114b9a695a6912f0010f51
:104f4400fad100230e4a13800e4a138001200b4b22
:104f540098604ff0e0224ff40053c2f80031064944
:104f6400d1f8003743f08063c1f800374ff0806315
:104f7400c2f80431704700bf00000e4000400240f8
:084f8400ee094020460940201f
:020000040000fa
:020000040042b8
:104f8c0070b504460378012b0dd0022b2ed0002bcc
:104f9c0036d101f02ffa002831d0002363826361ef
:104fac00012323702be001f025fa50b9638a33b347
:104fbc00636901336361144a934220d9022323703d
:104fcc001de0658ae66800f031ff7055638a013395
:104fdc009bb2638200226261228a9a420fd800231c
:104fec002370a3695bb10120984708e083690bb17a
:104ffc00002098470023638223826361237070bd75
:0c500c0000230370fbe700bf3f420f00d1
:020000040000fa
:020000040042b8
:1050180000b170471d4b03f10800002213f8011f6f
:105028004a408342fad1194b5b7a9342f1d1184a2c
:10503800164b597811709878d97841ea002107ee13
:10504800901af8eee77adfed136a87eea67a82ed1a
:10505800017a1879597941ea002107ee901af8ee99
:10506800e77ab2ee047ac7ee876ac2ed026a9879e7
:10507800d97941ea002107ee901af8eee77ac7eeef
:10508800876ac2ed036a1b7a1374c2e7700940206d
:08509800f80840200000c842a6
:020000040000fa
:020000040042b8
:1050a0001a4b1b4a5a601a46936813f0010ffbd043
:1050b000164bdb6813f4c07f12d0144b154a5a60ac
:1050c0001a46936813f0010ffbd0104b124a5a6036
:1050d0001a46936813f0010ffbd0104b104a1a6068
:1050e000bff34f8fbff36f8f0e4bd3f8902222f098
:1050f0000102c3f89022d3f8942222f00102c3f8ef
:105100009422bff34f8fbff36f8f7047000c0e4098
:105110000d00005a0c08005a0c07005a00180e40e7
:08512000010000a500ed00e014
:020000040000fa
:020000040042b8
:105128001c4b4ff40042c3f854281b49d1f81421f2
:1051380042f01002c1f81421184a4ff49841c2f8fd
:1051480010164ff40011c2f8041ed2f8701e21f494
:105158000011c2f8701ed2f8741e21f40011c2f8b2
:10516800741e10225a601a6f42f010021a675a6fa2
:1051780042f010025a67a3f539230c221a604ff443
:105188000c625a604e221a6250221a60044b0122a5
:105198001a70704700100e400080084000000e4052
:0451a800fc0940209e
:020000040000fa
:020000040042b8
:1051ac0008b5012803d0194b1b785bb308bd184b0d
:1051bc001b782bb1012b0bd0154b00221a70f2e788
:1051cc00144b1b78aa2beed1114b01221a70eae773
:1051dc00104b1b78552b06d0aa2b14bf0023012390
:1051ec000b4a1370dfe70a4b02221a700a49aa23f2
:1051fc000b7055234b70094b84220231084801f087
:10520c00eaf8d3e700f0c2f8d0e700bf020a40206a
:10521c00ff094020fe09402090044020c92742008d
:04522c0048084020ce
:020000040000fa
:020000040042b8
:105230002de9ff471d460c9b13f0010806460f465b
:10524000144601d195420bd822463946304600f02b
:105250009bfda54204d82546284604b0bde8f0874a
:10526000a5eb04094a46102a28bf102220216846cf
:10527000ca4601f09bf900bfbaf10f0f0ed809f032
:105280000f026946304600f07ffdb8f1000fe3d110
:1052900022463946304600f077fddde710226946a8
:0c52a000304600f071fdaaf1100ae5e7ad
:020000040000fa
:020000040042b8
:1052ac002de9f84f0446dde90a9a6668d4f80c80bb
:1052bc0024690c9f013c1946002e4ff00003d7f8cf
:1052cc0000b008f804301046b8bf01264d46012343
:1052dc00002c03dcdbb12046bde8f88f50ea01025c
:1052ec0009d1a6eb09022a44002a04dc002df1ddc9
:1052fc001bf0020feed052464feaea7300f0defece
:10530c00013c1346303208f80420013de0e73b68cd
:08531c0023f010033b60dee703
:020000040000fa
:020000040042b8
:10532400f0b50c46d1e9011787b02368059300292d
:10533400a4bf23f00203059305abe6680293082398
:10534400cde900730546d2e900232046fff7acff00
:10535400059bd90642bf00f1ff3030233354059b2f
:105364001a0742bf00f1ff30202333542269059b02
:105374000093013a3b46121a31182846fff756ffac
:105384006b68db0503d563689842b8bf184607b05d
:02539400f0bd6a
:020000040000fa
:020000040042b8
:0253960070475e
:020000040000fa
:020000040042b8
:1053980008b5114b1b7883b9104b1a78042a0dd124
:1053a8000f4b1b7823b10f4b1b78022b0dd1862294
:1053b8000d4b0e49084801f010f808bd0c4b0122ae
:1053c8000c49054801f009f8f7e70b4b01220b4996
:1053d800014801f002f8f0e748084020050a40209b
:1053e800010a4020ff094020c927420090044020bc
:1053f8002d474200000a4020ad514200fe094020de
:020000040000fa
:020000040042b8
:10540800902910b50fdc7f2911dd803910290ed8bd
:10541800dfe801f00f0f250d170d0d0d1e0d0d0df9
:105428000d0d0d0d2500a02903d0c02901d00020a5
:1054380006e019680c1d1c600b6803601a600120e7
:1054480010bd19680c1d1c600b6803601a80f6e714
:1054580019680c1d1c600b6803601a70efe7196867
:105468000c1d1c600b680360d117c3e90021e6e737
:020000040000fa
:020000040042b8
:1054780010b582b0062000f029fc4ff4fa630193be
:10548800019b5a1e0192002bfad1124b01225a633a
:1054980042f290029a639a6b4ff000420021117019
:1054a800bff34f8fbff34f8f4ff080721a604ff4e6
:1054b800802308490a6912f4806f03d1013bf9d1ae
:1054c800054c00e0044c01f067f908b1013cfad141
:0c54d80002b010bd00c0074020a107007a
:020000040000fa
:020000040042b8
:1054e40070b4154b1c781cb300231a46134d55f8a1
:1054f4002360864206d001320333a242f7d1002052
:1055040070bc704701290ad0022913d102eb42036f
:105514000a4a02eb8303d888094b1844f0e702ebec
:105524004202064b03eb8203d888064b1844e7e794
:105534000020e5e70020e3e7040a402000044020bf
:0855440000024020000340209a
:020000040000fa
:020000040042b8
:10554c00144b5a6912f0010f1ad09869124b1b8830
:10555c000133dbb21149098889b2994210d030b4b9
:10556c000d4c218889b2c0b20d4d6854238012f0c5
:10557c00e00f03d0074b4ff480721a6030bc7047b9
:10558c0012f0e00f04d0034b4ff480721a60704796
:10559c00704700bf00400240ee0940204609402001
:0455ac00000140209a
:020000040000fa
:020000040042b8
:1055b00010b504464378012b05d0022b20d023b32d
:1055c0000023437021e001f051f840b963690133d1
:1055d00063610e4a934218d90223637015e0637a1f
:1055e0006268d05c01f0eef8637a0133dbb263727b
:1055f00000226261227a9a4207d80023637004e095
:105600000023437203724361437010bd3f420f0099
:020000040000fa
:020000040042b8
:10561000f0b59bb004460d46164600214c2207a863
:105620001f4600f0c3ff4ff0ff324ff48173cde906
:10563000022304b901accde9044555b16b1e002d20
:10564000069308da094b4f221a604ff0ff301bb067
:10565000f0bd2b46f3e71cbf002323703a463146ca
:1056600002a8cde9074400f0f5fef0e7e809402084
:020000040000fa
:020000040042b8
:1056700030b583b005460846124b1d630b215963b4
:10568000114999639b6b64230193019b5c1e0194f8
:10569000002bfad172b605f1004100f027ffbff3ed
:1056a0004f8f62b6074b4ff080721a604ff4802321
:1056b00004490a6912f4806f01d1013bf9d103b0aa
:0c56c00030bd00bf00c00740b010080063
:020000040000fa
:020000040042b8
:1056cc00154b4ff40412c3f8102603f580534ff416
:1056dc00e002c3f80424d3f8702442f4e002c3f8c7
:1056ec007024d3f8742422f4e002c3f874244ff02d
:1056fc000072c3f80024c3f81024c3f83024a3f5b7
:10570c00592380221a6011225a604ff47f421a6387
:0c571c0001201860704700bf00000e4024
:020000040000fa
:020000040042b8
:105728000e4a38b5002313600d4a0e4c13600e4a1a
:105738000e4d13600e4a13600e4a13600e4a5362f0
:1057480013610123936000f0e5ff00f0f6fdac4221
:1057580000d338bd54f8043b9847f8e7e4094020e3
:10576800c406402074014200c0064020780142006f
