:020000040000fa
:020000040040ba
:1000000000004120350d4000310d4000230d40001f
:10001000310d4000150d4000310d40000000000082
:10002000000000000000000000000000310d400052
:10003000310d400000000000310d4000310d400046
:10004000310d4000310d4000310d4000310d4000b8
:10005000310d4000310d4000310d4000310d4000a8
:10006000310d4000310d4000310d4000310d400098
:10007000310d4000310d4000310d4000310d400088
:10008000310d4000310d4000310d4000310d400078
:10009000310d4000310d4000310d4000310d400068
:1000a000310d4000310d4000310d4000310d400058
:1000b000310d4000310d4000310d4000310d400048
:1000c000310d4000310d4000310d4000310d400038
:1000d000310d4000310d4000310d4000310d400028
:1000e000310d4000310d4000310d4000310d400018
:1000f000310d4000310d4000310d4000310d400008
:10010000310d4000310d4000310d4000310d4000f7
:10011000310d4000310d4000310d4000310d4000e7
:10012000310d4000310d4000310d4000310d4000d7
:10013000310d4000310d4000310d4000310d4000c7
:10014000310d4000310d4000310d4000310d4000b7
:10015000310d4000310d4000310d4000310d4000a7
:08016000310d4000310d40009b
:020000040000fa
:020000040040ba
:10016800000040201c050000000000001c05402085
:1001780001000000000000002005402000010000f0
:1001880000000000000000000000000066666666cf
:1001980066666666666666666666666666666666f7
:1001a80066666666666666666666666666666666e7
:1001b80066666666666666666666666666666666d7
:1001c80066666666666666666666666666666666c7
:1001d80066666666666666666666666666666666b7
:1001e80066666666666666666666666666666666a7
:1001f8006666666666666666666666666666666697
:020000040000fa
:020000040040ba
:1002080010b5054c237833b9044b13b10448aff348
:1002180000800123237010bd000040200000000072
:10022800fc11400008b5034b1bb103490348aff369
:10023800008008bd0000000004004020fc114000c0
:1002480070b582b003244ff480154ff480362846e9
:1002580000f03afd38b10196019b5a1e0192002b1d
:10026800fad1013cf3d102b070bd000010b582b0e4
:100278004ff482042168154800f0dafb61681448dd
:1002880000f0d6fb6368013b13f1030f03d9114853
:1002980000f098fbfee7002301930f4a02e0019b60
:1002a80001330193019b9342f9d900f0e6fd4ff425
:1002b80082034ff0e022c2f8083dbff34f8fbff32f
:1002c8006f8f1a685b6882f308881847d40e40005d
:1002d800e40e4000f80e40003f0d03002de9f84ff2
:1002e80000f01cfc20b19f4800f06cfbfff7beff3c
:1002f8009d4800f067fb4ff482044ff0ff31082659
:100308009a489b4d02e00134ac420cd02378594006
:10031800334641f30002024082ea5101013b13f0e7
:10032800ff03f6d1efe7c943924800f081fb924af8
:10033800002302f8013f0133b3f5007ff9d14ff4f0
:1003480000714ff4820000f0fdf901468b4800f07f
:100358006ffb8b4800f036fb4ff48204894e8a4dc0
:1003680014f8011b304600f063fbac42f8d1874912
:100378004ff4820000f024fa0146854800f058fb4b
:10038800844800f01ffb4ff482047e4e7e4d14f823
:10039800011b304600f04cfbac42f8d14ff48072a0
:1003a8007d494ff4801000f0fdfb20b17b4800f040
:1003b80009fbfff75bff784c2168794800f038fbb0
:1003c8006168784800f034fba168774800f030fb9a
:1003d8002268764b9a420cd16f4b59684b1eb3f585
:1003e800f81f0bd3724800f0edfafff729fffff76b
:1003f8003dff704800f0e6fafff738ff664b9a6851
:100408006d4800f03ffb002840f091806b4800f0f9
:10041800d9fafff715ff4ff482035b68013b13f12c
:10042800030f00d9fee7fff721ff654b03f50071c5
:10043800ff2203f8012f8b42fbd120e029466148b7
:1004480000f0f6fa2146604800f0f2fa395d5f489c
:1004580000f0eefa99f800105d4800f0e9fa05f5a9
:100468000075dbf80430ab4271d95b1b1e46b3f54f
:10047800007f28bf4ff40076b3f5007fd5d332460e
:10048800394605eb0a0000f08dfb00285fd105f521
:1004980082083946404600f093f9002857d14d4b61
:1004a800002408eb040913f8012b18f804109142f2
:1004b800c4d10134a642f4d1d1e70025dff8d8b081
:1004c800444fdff8f4a0cce70134a6420ed004f57f
:1004d80082031b785a402b4642f30001014081ea0f
:1004e8005202013b13f0ff03f6d1ede7d443214656
:1004f800394800f09dfa284da968384800f098fa64
:10050800ab68a3420cd0364800f05cfa4ff4820383
:100518005b68013b13f1030f00d9fee7fff7a6fe66
:10052800304800f04ffafff78bfefff79ffe2e488a
:1005380000f048fa2d4800f045fa00f069fc164b27
:1005480059684ff4820000f0fdf80028b5d000f09b
:1005580076fc114b5e6800244ff0ff3208250348f3
:10056800b3e700bf180f4000340f40002083b8edf8
:10057800ac4b41004c0f40001b034020640f40006f
:10058800800f4000480f4000080041001c03402035
:10059800a80f4000c40f40001c024020001040007b
:1005a8001c1040002c1040003c10400034cd12ab11
:1005b8007010400048104000001010005411400016
:1005c8001b0040209c104000bc104000c810400098
:1005d800d41040001c004020dc104000f8104000ff
:1005e800101140003811400070114000881140007f
:1005f80080b483b000af78607b68a3f580035b0aa2
:1006080018460c37bd465df8047b704780b483b04c
:1006180000af786039603b681a027b681343054a6b
:1006280043f0b443136000bf0c37bd465df8047b4c
:10063800704700bf040c0e4080b483b000af4ff485
:1006480080137b6007e07b68013b7b607b68002b45
:1006580001d1052316e00e4b1b6803f00103002ba4
:10066800f1d00b4b1b6803f00403002b01d00223cd
:1006780008e0074b1b6803f00e03002b01d0012391
:1006880000e0002318460c37bd465df8047b704730
:10069800080c0e4080b588b000af786039607a6881
:1006a8003b681344bb617b68fb614ff480437b610b
:1006b80018e07b695a42fb6913401846fff798ff18
:1006c800386139690920fff7a1fffff7b5ff034635
:1006d800fb73fb7b002b01d0fb7b08e0fa697b698d
:1006e8001344fb61fa69bb699a42e2d300231846b6
:1006f8002037bd4680bd80b584b000af78607b6888
:10070800c3f30c03002b01d0032316e07b68b3f579
:10071800820f01d2042310e07868fff769fff860c0
:10072800fb6823f0030343f00103bb60b9680720ab
:10073800fff76cfffff780ff034618461037bd46ea
:1007480080bd000080b588b000af786039607a68f5
:100758001a4b1340bb617a683b6813447b617b6921
:1007680041f6ff721a44154b13403b613a69bb6965
:10077800d31a1946b869fff78dff0346fb73fb7b55
:10078800002b01d0fb7b15e0bb69fb610de0f8692c
:10079800fff7b1ff0346fb73fb7b002b01d0fb7b0c
:1007a80008e0fb6903f50053fb61fa693b699a426b
:1007b800edd3002318462037bd4680bd00e0ffff7b
:1007c80080b58cb000af786039607b68c3f30803ec
:1007d800002b01d0032387e07b68b3f5820f01d299
:1007e800042381e00023fb627ae07b68fb618023bd
:1007f800bb610023bb622ae0bb6a9b003a681344d2
:100808001b781946bb6a9b0001333a6813441b786e
:100818001b0241ea0302bb6a9b00023339680b449e
:100828001b781b041a43bb6a9b00033339680b44cb
:100838001b781b061343bb60bb6a9b00fa69134411
:10084800ba681a60bff34f8fbb6a0133bb62ba6ada
:10085800bb699a42d0d3bff34f8f7868fff7c8fec1
:10086800786179690320fff7d1fe214b1b6819468f
:10087800204800f0ddf8fff7dffe0346fb741c4b51
:100888001b6819461c4800f0d3f8fb7c002b01d0ec
:10089800fb7c29e07b68fb60012387f82730002375
:1008a8003b6210e0fa683b6a13441a7839683b6a7d
:1008b8000b441b789a4203d0002387f8273006e0c0
:1008c8003b6a01333b623b6ab3f5007fead397f892
:1008d8002730002b01d0002306e0fb6a0133fb62be
:1008e800fb6a022b81d9012318463037bd4680bdeb
:1008f800080c0e40a80e4000bc0e40004ff48013b8
:1009080005494a6912f0020f02d1013bf9d170473b
:10091800014bd861704700bf008002401c4b4ff468
:100928000042c3f854281b49d1f8142142f01002a0
:10093800c1f81421184a4ff49841c2f810164ff420
:100948000011c2f8041ed2f8701e21f40011c2f87a
:10095800701ed2f8741e21f40011c2f8741e102201
:100968005a601a6f42f010021a675a6f42f010026a
:100978005a67a3f539230c221a604ff40c625a60a7
:100988004e221a6250221a60044b01221a707047d4
:1009980000100e400080084000000e401c0540205a
:1009a800074b1b785bb110b504460a2803d02046d4
:1009b800fff7a4ff10bd0d20fff7a0fff7e7704772
:1009c8001c05402038b50a4b1b7883b104460378d0
:1009d8006bb10d2508e02846fff7e2ff2078fff706
:1009e800dfff14f8013f13b10a2bf7d1f3e738bd45
:1009f8001c05402000b583b0fff790ff0a48fff7b9
:100a0800e1ff00230193019a084b9a4206d81a463f
:100a1800019b01330193019b9342f9d900f0b6f988
:100a2800fff75cfcfee700bfb41140003f0d030078
:100a380010b584b00c46fff7c5ff30238df804309d
:100a480078238df805300df105001c230b4924fa95
:100a580003f202f00f028a5c00f8012f043b13f145
:100a6800040ff4d100238df80e3001a8fff7aaff78
:100a78000348fff7a7ff04b010bd00bfd011400026
:100a8800b01140002de9f047924689b380460f46e1
:100a980000264ff0ff34dff8789014e001318d42e2
:100aa8000ed910f8013b5c40634614f0010f14bfe7
:100ab80082ea54046408013b13f0ff03f5d1ede723
:100ac8002e44b74216d9bd1bb5f5807f28bf4ff419
:100ad80080752a46494608eb060000f063f8a0b97d
:100ae800b742edd00a4800214ff0080c094ad8e770
:100af8004ff0ff34e44321460748fff799ff544578
:100b080014bf00200120bde8f0870020fbe700bfec
:100b1800200540202083b8ede41140001d4b4ff420
:100b28001e32c3f8042ed3f8702e22f41e32c3f8f6
:100b3800702ed3f8742e22f41e32c3f8742ea3f547
:100b4800c82380221a60144a5a604ff400721a624d
:100b580001221a604ff4001310490a6912f0807fcd
:100b680003d1013bf9d1012070474ff0e023072260
:100b7800c3f8982d4ff00042c3f89c2d084ac3f8db
:100b8800a02d0522c3f8942dbff34f8fbff36f8fad
:100b98000020704700000e401100000100c007400f
:100ba8003700081310b4144b18630b245c63134c00
:100bb8009c639b6b62b194464b1e8c440cf1ff3cca
:100bc800401a0f490144ca5c03f8012f6345fad162
:100bd800094b4ff080721a604ff4001306490a69f6
:100be80012f4806f03d1013bf9d1012000e000200d
:100bf8005df8044b704700bf00c00740b010080004
:100c080001000080f0b583b003251c4c062742f292
:100c180010066763a663a36b4ff40013226912f4ee
:100c2800806f03d1013bf9d1012023e000208df82a
:100c3800070002460df10701fff7b4ff05236363c0
:100c48009023a363a36b4ff000431b78d9b24ff0f6
:100c5800807323604ff40013226912f4806f03d16c
:100c6800013bf9d1012005e011f0020f04d1013d4b
:100c7800cfd1022003b0f0bd0020fbe700c0074041
:100c880070b54ff4001c0f49052690254ff0004e13
:100c98004ff0807405e010f0010012d0bcf1010c97
:100ca8000fd04e638d638b6b9ef80000c0b20c6052
:100cb8004ff400130a6912f4806fecd1013bf9d1ab
:100cc800012070bd00c0074010b50446fff79aff29
:100cd800c8b96ff30b040c4b1c6320225a6342f211
:100ce80030029a639a6b4ff080721a604ff40013c7
:100cf80005490a6912f4806f03d1013bf9d101203b
:100d080001e0fff7bdff10bd00c007404ff48200af
:100d18000168426881f3088810474ff4820001682f
:100d2800426881f308881047fee70000114a124b19
:100d38009a420cd2581e801a20f0030004300f4b40
:100d4800184453f8041b42f8041b8342f9d10c4a97
:100d58000c4b9a420bd213460b4ad21a22f00302ca
:100d680004321a44002143f8041b9342fbd1fff7d5
:100d780041fefee700004020000040201c12400019
:100d880000004020200640201f0640201c4b4ff446
:100d98008332c3f8002cbff34f8fbff36f8fd3f8a4
:100da800083c13f0010f09d1164b1549013bd1f846
:100db800082c12f0010f01d1002bf7d1104b124a69
:100dc800c3f8042cd3f8083c13f0010f09d10d4bdc
:100dd8000b49013bd1f8082c12f0010f01d1002b6f
:100de800f7d10a4b4ff40042c3f85428c3f804293a
:100df800a3f580534ff40062c3f80027704700bf83
:100e080000000e4080841e000b01005a00100e40a6
:100e1800bff34f8fbff36f8f4ff0e023d3f8142d3c
:100e280022f40032c3f8142dd3f8142d22f48032a2
:100e3800c3f8142dbff34f8fbff36f8f7047bff305
:100e48004f8f00234ff0e022c2f8503fc2f8603fb6
:100e580043f08041c2f8601f43f00041c2f8601fb0
:100e680043f04041c2f8601f2033b3f5805fedd1f5
:100e7800bff34f8fbff36f8f70474ff0e02300220f
:100e88001a614ff0ff32c3f88021c3f88421c3f8f8
:100e98008821c3f88c21bff34f8fbff36f8f704742
:100ea8005b424f4f545d2046535220706f732d455f
:100eb80057503d005b424f4f545d204653522070bf
:100ec8006f732d776169743d000000005b424f4fde
:100ed800545d206a756d702053503d005b424f4f42
:100ee800545d206a756d702072657365743d0000ed
:100ef8005b424f4f545d2061707020494e56414c03
:100f0800494441202d3e206c6f6f700a000000009c
:100f18005b424f4f545d20717370695f696e6974ed
:100f28002046414c484f550a000000005b424f4f95
:100f3800545d20717370695f696e6974204f4b0a44
:100f4800000000005b424f4f545d20435243206134
:100f5800707020617475616c3d0000005b424f4ffa
:100f6800545d2074657374206572617365207265c1
:100f780073756c743d0000005b424f4f545d2070e8
:100f88006f732d6572617365202865737065726172
:100f9800646f2046462046462e2e2e293a20000011
:100fa8005b424f4f545d2074657374207772697487
:100fb8006520726573756c743d0000005b424f4f8d
:100fc800545d207465737420726561646261636b3b
:100fd8002028657370657261646f2030302030316d
:100fe8002030322030332030342030352030362045
:100ff8003037293a200000005b424f4f545d207281
:10100800656164206d6574612046414c484f550afe
:10101800000000005b424f4f545d206d61676963bb
:101028003d0000005b424f4f545d2073697a653d77
:10103800000000005b424f4f545d206372633d0027
:101048005b424f4f545d2073656d204f54412070b3
:10105800656e64656e7465202d3e20617070206138
:101068006e746967610a00005b424f4f545d2073dc
:10107800697a6520696e76616c69646f202d3e20ff
:101088006c696d706120652061707020616e746993
:1010980067610a005b424f4f545d204d49534d41f3
:1010a800544348206e6120706167696e61206f66e5
:1010b800663d0000202062797465206b3d000000c9
:1010c80020206573637269746f3d000020206c698d
:1010d800646f3d005b424f4f545d2043524320668e
:1010e8006c61736820696e7465726e613d00000002
:1010f8005b424f4f545d20435243206573706572c5
:1011080061646f3d000000005b424f4f545d2063f7
:101118006f7069612046414c484f55202d3e206133
:101128007070206578697374656e74650a000000d4
:101138005b424f4f545d20636f7069612076657222
:1011480069666963616461204f4b0a005b424f4fd7
:10115800545d204352432065787465726e61204661
:1011680041494c0a000000005b424f4f545d204348
:1011780052432065787465726e61204f4b0a0000f7
:101188005b424f4f545d206120636f70696172202c
:101198006677207061726120666c61736820696e81
:1011a8007465726e612e2e2e0a0000000a5b424f93
:1011b8004f545d207465737420626f6f7420707271
:1011c800696e740a00000000303132333435363726
:1011d8003839414243444546000000005b424f4fc6
:1011e800545d2063726320636f6d70757465643d30
:1011f80000000000f8b500bff8bc08bc9e46704768
:0c120800f8b500bff8bc08bc9e4670475b
:020000040000fa
:020000040040ba
:041214002d02400067
:020000040000fa
:020000040040ba
:041218000902400087
:00000001FF
