:020000040000fa
:020000040040ba
:1000000000004120770c4000750c4000670c400058
:10001000750c4000590c4000750c400000000000b9
:10002000000000000000000000000000750c40000f
:10003000750c400000000000750c4000750c40007d
:10004000750c4000750c4000750c4000750c4000ac
:10005000750c4000750c4000750c4000750c40009c
:10006000750c4000750c4000750c4000750c40008c
:10007000750c4000750c4000750c4000750c40007c
:10008000750c4000750c4000750c4000750c40006c
:10009000750c4000750c4000750c4000750c40005c
:1000a000750c4000750c4000750c4000750c40004c
:1000b000750c4000750c4000750c4000750c40003c
:1000c000750c4000750c4000750c4000750c40002c
:1000d000750c4000750c4000750c4000750c40001c
:1000e000750c4000750c4000750c4000750c40000c
:1000f000750c4000750c4000750c4000750c4000fc
:10010000750c4000750c4000750c4000750c4000eb
:10011000750c4000750c4000750c4000750c4000db
:10012000750c4000750c4000750c4000750c4000cb
:10013000750c4000750c4000750c4000750c4000bb
:10014000750c4000750c4000750c4000750c4000ab
:10015000750c4000750c4000750c4000750c40009b
:08016000750c4000750c400015
:020000040000fa
:020000040040ba
:100168008c0140201c00000000000000ac01402071
:100178000005000000000000000040208c01000085
:100188000100000040ea012040f0b440014bc3f8f0
:10019800040c704700000e404ff480130d49d1f84d
:1001a800082c12f0010f03d1013bf8d1052070474c
:1001b800084bd3f8083c13f0040f08d1054bd3f8cb
:1001c800083c13f00e0f14bf0120002070470220d6
:1001d800704700bf00000e40f8b5c0f30c032bbbfe
:1001e8000546b0f5840f23d3a0f58006760a46f0bd
:1001f80002060424072701e0013c14d031463846a2
:10020800fff7c0fffff7c8ff03460028f4d12a68ac
:10021800b2f1ff3ff0d105f58052d2f8fc2fb2f1d0
:10022800ff3fe9d100e001231846f8bd0323fbe7af
:100238000423f9e7c0f30803002b3ed1b0f5840f7f
:100248003dd370b582b00c4601f50076451a4a7860
:100258008b781b0443ea02230a781343ca7843eadb
:1002680002634b510431b142f1d1bff34f8fa0f576
:100278008001490a0120fff785fffff78dff002362
:100288000193019bb3f5fa6f06d2019b01330193e9
:10029800019bb3f5fa6ff8d36278a3781b0443ea9d
:1002a800022322781343e27843ea026362599a42ae
:1002b80007d10434b442efd104e00320704704208e
:1002c8007047012002b070bdd1b110b584468e468a
:1002d80086444ff0ff3108240c4803e00cf1010c70
:1002e800e64511d09cf800305940234641f30002fe
:1002f800024082ea5101013b13f0ff03f6d1ede71a
:100308004ff0ff31c8437047c84310bd2083b8ed94
:10031800ac0640200100000000000000b0064020ac
:100328000001000000000000a801402004000000b7
:10033800000000000000000000000000666666661d
:100348006666666666666666666666666666666645
:100358006666666666666666666666666666666635
:100368006666666666666666666666666666666625
:100378006666666666666666666666666666666615
:100388006666666666666666666666666666666605
:020000040000fa
:020000040040ba
:1003980010b5054c237833b9044b13b10448aff3b7
:1003a80000800123237010bd8c0140200000000054
:1003b8008011400008b5034b1bb103490348aff354
:1003c800008008bd0000000090014020801140001e
:1003d80070b582b003244ff480154ff48036284658
:1003e80000f014fc38b10196019b5a1e0192002bb3
:1003f800fad1013cf3d102b070bd000010b582b053
:100408004ff484042168154800f08efa6168144896
:1004180000f08afa6368013b13f1030f03d911480e
:1004280000f06afafee7002301930f4a02e0019bfd
:1004380001330193019b9342f9d900f096fc4ff4e4
:1004480084034ff0e022c2f8083dbff34f8fbff39b
:100458006f8f1a685b6882f308881847180e400087
:10046800280e4000400e40003f0d03002de9f84fd4
:10047800ba4b4ff48072c3f8002cbff34f8f00f0d3
:10048800effa20b1b64800f037fafff7b7ff804619
:10049800b44800f031fab44c4ff4807221464ff45e
:1004a800801000f021fb2168b04800f03dfa616837
:1004b800af4800f039faa168ae4800f035fa226872
:1004c800ad4b9a421ad1a84b59684b1eb3f5f81f89
:1004d80019d2a54b9a68a94800f076fa002840f08e
:1004e800e880a74800f008fafff772ff4ff484038a
:1004f8005b68013b13f1030f0bd9fee7a14800f03d
:10050800fbf9fff77bffa04800f0f6f9fff760ff63
:10051800f7e7fff773ff21469c4800f005fa01252d
:1005280000f005fc9a4800f0e7f98f4b5c68002c56
:100538007dd04ff00008dff874a2dff840929b46a8
:1005480058e0394604eb0a0000f0cefa00bb394601
:1005580004f5840000f024fe0546f8b904f500749b
:100568000136d9f80430a3421dd91b1b1a46b3f52e
:10057800007f28bf4ff40072b3f5007fe1d2854bae
:1005880003f50070ff2103f8011f8342fbd1d8e770
:100598002146814800f0c8f90125c1e721467f4876
:1005a80000f0c2f9bce731467d4800f0bdf9454688
:1005b800b6e704eb08017b4800f0b6f939787a48c9
:1005c80000f0b2f9794b195d794800f0adf9664b46
:1005d800596800293fd001f5840c4ff484064ff088
:1005e800ff300827734c29e008f50078dbf8044051
:1005f80044451cd9a4eb0806b6f5007f28bf4ff484
:1006080000763246514608eb090000f06dfa444581
:10061800ead0664a002408f584031f1912f8011b62
:10062800185d8842c5d10134a642f6d8dce7624895
:1006380000f062f9cbe70136b4450ed03378584064
:100648003b4640f30002224082ea5000013b13f08f
:10065800ff03f6d1efe74ff0ff30c4434ff48400b7
:1006680000f09afd06462146544800f05df93146ef
:10067800534800f059f93c4b9968524800f054f936
:100688001db9394b9b68a3420cd04f4800f034f990
:100698004ff484035b68013b13f1030f00d9fee7b5
:1006a800fff7acfe494800f027f9fff791fefff786
:1006b800a5fe474800f020f9464800f01df94ff024
:1006c800e0240023c4f8943dbff34f8fbff36f8f2e
:1006d80000f016fbd4f8143d23f44033c4f8143d5d
:1006e800bff34f8fbff36f8fd4f8141d3a4800f053
:1006f8001bf93a4800f000f94ff48071384800f0cf
:1007080013f9194b5b6841f6ff751d446ff30c052f
:1007180029464ff4840000f06bf8324800f0ecf8fa
:1007280005f58405b5f5840f88bf4ff4840409d90d
:10073800204600f02dfd00287ff4edae04f50054ae
:10074800a542f5d8284800f0d7f800263446dff847
:100758001890264fdff824a003e700bf00000e40e2
:10076800600e40007c0e4000ac054020940e400016
:10077800a40e4000b40e400034cd12ab001010009f
:100788000c114000c00e4000e00e4000f80e400082
:10079800800f4000ab014020280f4000480f400068
:1007a800640f40009c0f4000b00f4000ac03402095
:1007b800bc0f40002083b8edc80f4000f80f400080
:1007c8000c10400020104000381040005c10400021
:1007d8007810400090104000b8104000c810400049
:1007e800dc104000f0104000100f4000ac01402029
:1007f800f8b54518a84213d204460a4f0a4e04ea2f
:100808000701a1f58001490a0920b047074b98471d
:10081800034618b904f58044a542f0d81846f8bd37
:100828000023fbe700c0ffff010040201500402027
:100838004ff4801305494a6912f0020f02d1013bb7
:10084800f9d17047014bd861704700bf0080024062
:100858001c4b4ff40042c3f854281b49d1f814210b
:1008680042f01002c1f81421184a4ff49841c2f816
:1008780010164ff40011c2f8041ed2f8701e21f4ad
:100888000011c2f8701ed2f8741e21f40011c2f8cb
:10089800741e10225a601a6f42f010021a675a6fbb
:1008a80042f010025a67a3f539230c221a604ff45c
:1008b8000c625a604e221a6250221a60044b0122be
:1008c8001a70704700100e400080084000000e406b
:1008d800ac064020074b1b785bb110b504460a28cc
:1008e80003d02046fff7a4ff10bd0d20fff7a0ff9f
:1008f800f7e77047ac06402038b50a4b1b7883b140
:10090800044603786bb10d2508e02846fff7e2ff9f
:100918002078fff7dfff14f8013f13b10a2bf7d156
:10092800f3e738bdac06402010b584b00c46fff79d
:10093800e3ff30238df8043078238df805300df16e
:1009480005001c230b4924fa03f202f00f028a5c0b
:1009580000f8012f043b13f1040ff4d100238df8a4
:100968000e3001a8fff7c8ff0348fff7c5ff04b022
:1009780010bd00bf28114000f40f400000b583b03f
:10098800fff766ff0d48fff7b7ff00230193019ab1
:100998000b4b9a4206d81a46019b01330193019bdf
:1009a8009342f9d900f06af94ff0015319680548e4
:1009b800fff7bafffff75afdfee700bf3c11400002
:1009c8003f0d0300581140002de9f047924689b3c6
:1009d80080460f4600264ff0ff34dff8789014e089
:1009e80001318d420ed910f8013b5c40634614f08a
:1009f800010f14bf82ea54046408013b13f0ff039b
:100a0800f5d1ede72e44b74216d9bd1bb5f5807f69
:100a180028bf4ff480752a46494608eb060000f0c7
:100a280063f8a0b9b742edd00a4800214ff0080c8e
:100a3800094ad8e74ff0ff34e44321460748fff757
:100a480073ff544514bf00200120bde8f087002043
:100a5800fbe700bfb00640202083b8ed68114000d6
:100a68001d4b4ff41e32c3f8042ed3f8702e22f417
:100a78001e32c3f8702ed3f8742e22f41e32c3f837
:100a8800742ea3f5c82380221a60144a5a604ff4c2
:100a980000721a6201221a604ff4001310490a69a1
:100aa80012f0807f03d1013bf9d1012070474ff04c
:100ab800e0230722c3f8982d4ff00042c3f89c2d7d
:100ac800084ac3f8a02d0522c3f8942dbff34f8f11
:100ad800bff36f8f0020704700000e401100000127
:100ae80000c007403700081310b4144b18630b24d8
:100af8005c63134c9c639b6b62b194464b1e8c44a5
:100b08000cf1ff3c401a0f490144ca5c03f8012f5d
:100b18006345fad1094b4ff080721a604ff4001305
:100b280006490a6912f4806f03d1013bf9d101200b
:100b380000e000205df8044b704700bf00c007408c
:100b4800b010080001000080f0b583b003251c4cec
:100b5800062742f210066763a663a36b4ff40013df
:100b6800226912f4806f03d1013bf9d1012023e0ff
:100b780000208df8070002460df10701fff7b4ffca
:100b8800052363639023a363a36b4ff000431b7893
:100b9800d9b24ff0807323604ff40013226912f426
:100ba800806f03d1013bf9d1012005e011f0020f5c
:100bb80004d1013dcfd1022003b0f0bd0020fbe7f6
:100bc80000c0074070b54ff4001c0f49052690255a
:100bd8004ff0004e4ff0807405e010f0010012d085
:100be800bcf1010c0fd04e638d638b6b9ef8000037
:100bf800c0b20c604ff400130a6912f4806fecd194
:100c0800013bf9d1012070bd00c0074010b5044672
:100c1800fff79affc8b96ff30b040c4b1c63202233
:100c28005a6342f230029a639a6b4ff080721a60ec
:100c38004ff4001305490a6912f4806f03d1013b90
:100c4800f9d1012001e0fff7bdff10bd00c007404a
:100c58004ff482000168426881f3088810474ff416
:100c680082000168426881f308881047fee708b5ea
:100c780000f092f8fff782fefee700001b4b1c4acb
:100c8800c3f8002cbff34f8fbff36f8fd3f8083c26
:100c980013f0010f09d1174b1449013bd1f8082c67
:100ca80012f0010f01d1002bf7d1104b124ac3f8f3
:100cb800042cd3f8083c13f0010f09d10d4b0b4954
:100cc800013bd1f8082c12f0010f01d1002bf7d10c
:100cd8000a4b4ff40042c3f85428c3f80429a3f57b
:100ce80080534ff40062c3f80027704700000e409d
:100cf8000001010080841e000b01005a00100e4004
:100d0800bff34f8fbff36f8f4ff0e023d3f8142d4d
:100d180022f40032c3f8142dd3f8142d22f48032b3
:100d2800c3f8142dbff34f8fbff36f8f7047bff316
:100d38004f8f00234ff0e022c2f8503fc2f8603fc7
:100d480043f08041c2f8601f43f00041c2f8601fc1
:100d580043f04041c2f8601f2033b3f5805fedd106
:100d6800bff34f8fbff36f8f70474ff0e023002220
:100d78001a614ff0ff32c3f88021c3f88421c3f809
:100d88008821c3f88c21bff34f8fbff36f8f704753
:100d9800002070477047000038b50a480a4d0168be
:100da80021b9436813b9fff7f5ff38bd03894268d5
:100db80055f8233000f10c042046984704eb8000d6
:100dc800ede700bf68014000040e40000a4400231c
:100dd800914201d10020704701f8013bf8e710b5b6
:100de8000023934206d113f0030018bf012000eb43
:100df800930010bdc45ccc540133f2e7d50d40001c
:100e0800e70d4000990d4000990d4000990d4000f4
:100e18005b424f4f545d206a756d702053503d0002
:100e28005b424f4f545d206a756d70207265736523
:100e3800743d0000000000005b424f4f545d20618c
:100e4800707020494e56414c494441202d3e206c3b
:100e58006f6f700a000000005b424f4f545d2071b5
:100e68007370695f696e69742046414c484f550a32
:100e7800000000005b424f4f545d20717370695f42
:100e8800696e6974204f4b0a000000005b424f4fa7
:100e9800545d206d616769633d0000005b424f4f00
:100ea800545d2073697a653d000000005b424f4f36
:100eb800545d206372633d005b424f4f545d207365
:100ec800656d204f5441202d3e2061707020616e69
:100ed800746967610a0000005b424f4f545d2073dc
:100ee800697a6520696e76616c69646f0a00000032
:100ef8005b424f4f545d2045524153452046414c7b
:100f0800484f5520613d00005b424f4f545d2072b1
:100f1800656769616f20617061676164610a0000db
:100f28005b424f4f545d20717370695f72656164f5
:100f38002046414c484f55206f66663d0000000032
:100f48005b424f4f545d2057524954452046414c0f
:100f5800484f55206e61206f66663d005b424f4fdb
:100f6800545d20706167696e61732065736372698f
:100f78007461733d000000005b424f4f545d206375
:100f88006163686520696e76616c69646164610a91
:100f9800000000005b424f4f545d204449564552c3
:100fa8004745206f66663d002020696e7465726e45
:100fb800613d0000202065787465726e613d000017
:100fc8005b424f4f545d20666c61736820696e7494
:100fd80065726e61203d3d2065787465726e612092
:100fe8002873656d20646976657267290a000000b8
:100ff8005b424f4f545d20435243206e6f726d61c8
:101008006c3d00005b424f4f545d204352432072b9
:10101800616d66756e633d005b424f4f545d2043c2
:10102800524320657370657261646f3d0000000073
:101038005b424f4f545d20434f5049412046414c3d
:10104800484f55202d3e2061707020616e7469678d
:10105800610a00005b424f4f545d203d3d3d2043f7
:101068004f504941204f4b203d3d3d0a00000000b4
:101078005b424f4f545d204352432065787465723c
:101088006e61204f4b0a00005b424f4f545d203d7c
:101098003d3d20494e4943494f20434f5049412047
:1010a8002852414d46554e4329203d3d3d0a0000fa
:1010b8005b424f4f545d205343425f4343523d00d0
:1010c8005b424f4f545d206361636865204f46461d
:1010d8000a0000005b424f4f545d20706167652035
:1010e80063616c633d0000005b424f4f545d2072aa
:1010f800656769616f20646573626c6f717565619e
:1011080064610a005b424f4f545d2043524320659f
:10111800787465726e61204641494c0a00000000ef
:101128003031323334353637383941424344454615
:10113800000000000a5b424f4f545d2074657374d1
:1011480020626f6f74207072696e740a000000006c
:101158005b424f4f545d2072616d5b305d3d000016
:101168005b424f4f545d2063726320636f6d7075ef
:101178007465643d00000000f8b500bff8bc08bc09
:101188009e467047f8b500bff8bc08bc9e4670473d
:101198005ff800f0550040205ff800f0450140205e
:0811a8005ff800f0b1004020e7
:020000040000fa
:020000040040ba
:0411b000bd0340003b
:020000040000fa
:020000040040ba
:0411b400990340005b
:00000001FF
