:020000040040BA
:1000000000004120770C4000750C4000670C400058
:10001000750C4000590C4000750C400000000000B9
:10002000000000000000000000000000750C40000F
:10003000750C400000000000750C4000750C40007D
:10004000750C4000750C4000750C4000750C4000AC
:10005000750C4000750C4000750C4000750C40009C
:10006000750C4000750C4000750C4000750C40008C
:10007000750C4000750C4000750C4000750C40007C
:10008000750C4000750C4000750C4000750C40006C
:10009000750C4000750C4000750C4000750C40005C
:1000A000750C4000750C4000750C4000750C40004C
:1000B000750C4000750C4000750C4000750C40003C
:1000C000750C4000750C4000750C4000750C40002C
:1000D000750C4000750C4000750C4000750C40001C
:1000E000750C4000750C4000750C4000750C40000C
:1000F000750C4000750C4000750C4000750C4000FC
:10010000750C4000750C4000750C4000750C4000EB
:10011000750C4000750C4000750C4000750C4000DB
:10012000750C4000750C4000750C4000750C4000CB
:10013000750C4000750C4000750C4000750C4000BB
:10014000750C4000750C4000750C4000750C4000AB
:10015000750C4000750C4000750C4000750C40009B
:10016000750C4000750C40008C0140201C00000004
:1001700000000000AC01402000050000000000006D
:10018000000040208C0100000100000040EA012036
:1001900040F0B440014BC3F8040C704700000E401F
:1001A0004FF480130D49D1F8082C12F0010F03D140
:1001B000013BF8D105207047084BD3F8083C13F0F9
:1001C000040F08D1054BD3F8083C13F00E0F14BFF1
:1001D0000120002070470220704700BF00000E4041
:1001E000F8B5C0F30C032BBB0546B0F5840F23D341
:1001F000A0F58006760A46F002060424072701E0EF
:10020000013C14D031463846FFF7C0FFFFF7C8FF66
:1002100003460028F4D12A68B2F1FF3FF0D105F57A
:100220008052D2F8FC2FB2F1FF3FE9D100E0012368
:100230001846F8BD0323FBE70423F9E7C0F30803DE
:10024000002B3ED1B0F5840F3DD370B582B00C4683
:1002500001F50076451A4A788B781B0443EA02239D
:100260000A781343CA7843EA02634B510431B1421E
:10027000F1D1BFF34F8FA0F58001490A0120FFF7AC
:1002800085FFFFF78DFF00230193019BB3F5FA6F04
:1002900006D2019B01330193019BB3F5FA6FF8D3AA
:1002A0006278A3781B0443EA022322781343E2789E
:1002B00043EA026362599A4207D10434B442EFD14F
:1002C00004E00320704704207047012002B070BD95
:1002D000D1B110B584468E4686444FF0FF310824D4
:1002E0000C4803E00CF1010CE64511D09CF80030FD
:1002F0005940234641F30002024082EA5101013B8A
:1003000013F0FF03F6D1EDE74FF0FF31C84370471C
:10031000C84310BD2083B8EDAC06402001000000AA
:1003200000000000B00640200001000000000000B6
:10033000A8014020040000000000000000000000B0
:1003400000000000666666666666666666666666E5
:10035000666666666666666666666666666666663D
:10036000666666666666666666666666666666662D
:10037000666666666666666666666666666666661D
:10038000666666666666666666666666666666660D
:10039000666666666666666610B5054C237833B990
:1003A000044B13B10448AFF300800123237010BD48
:1003B0008C014020000000008011400008B5034B74
:1003C0001BB103490348AFF3008008BD00000000E3
:1003D000900140208011400070B582B003244FF49A
:1003E00080154FF48036284600F014FC38B1019691
:1003F000019B5A1E0192002BFAD1013CF3D102B0AD
:1004000070BD000010B582B04FF484042168154817
:1004100000F08EFA6168144800F08AFA6368013BC4
:1004200013F1030F03D9114800F06AFAFEE7002325
:1004300001930F4A02E0019B01330193019B934218
:10044000F9D900F096FC4FF484034FF0E022C2F893
:10045000083DBFF34F8FBFF36F8F1A685B6882F35D
:1004600008881847180E4000280E4000400E400033
:100470003F0D03002DE9F84FBA4B4FF48072C3F8DB
:10048000002CBFF34F8F00F0EFFA20B1B64800F018
:1004900037FAFFF7B7FF8046B44800F031FAB44CA2
:1004A0004FF4807221464FF4801000F021FB216848
:1004B000B04800F03DFA6168AF4800F039FAA16831
:1004C000AE4800F035FA2268AD4B9A421AD1A84BDB
:1004D00059684B1EB3F5F81F19D2A54B9A68A94865
:1004E00000F076FA002840F0E880A74800F008FA0B
:1004F000FFF772FF4FF484035B68013B13F1030FB6
:100500000BD9FEE7A14800F0FBF9FFF77BFFA048FD
:1005100000F0F6F9FFF760FFF7E7FFF773FF2146FA
:100520009C4800F005FA012500F005FC9A4800F00F
:10053000E7F98F4B5C68002C7DD04FF00008DFF8A6
:1005400074A2DFF840929B4658E0394604EB0A005B
:1005500000F0CEFA00BB394604F5840000F024FE1A
:100560000546F8B904F500740136D9F80430A34201
:100570001DD91B1B1A46B3F5007F28BF4FF400722C
:10058000B3F5007FE1D2854B03F50070FF2103F83E
:10059000011F8342FBD1D8E72146814800F0C8F90A
:1005A0000125C1E721467F4800F0C2F9BCE731468A
:1005B0007D4800F0BDF94546B6E704EB08017B48ED
:1005C00000F0B6F939787A4800F0B2F9794B195D44
:1005D000794800F0ADF9664B596800293FD001F524
:1005E000840C4FF484064FF0FF300827734C29E049
:1005F00008F50078DBF8044044451CD9A4EB080654
:10060000B6F5007F28BF4FF400763246514608EB1E
:10061000090000F06DFA4445EAD0664A002408F566
:1006200084031F1912F8011B185D8842C5D10134DB
:10063000A642F6D8DCE7624800F062F9CBE7013663
:10064000B4450ED0337858403B4640F30002224078
:1006500082EA5000013B13F0FF03F6D1EFE74FF0C1
:10066000FF30C4434FF4840000F09AFD0646214653
:10067000544800F05DF93146534800F059F93C4BBD
:100680009968524800F054F91DB9394B9B68A34250
:100690000CD04F4800F034F94FF484035B68013B01
:1006A00013F1030F00D9FEE7FFF7ACFE494800F055
:1006B00027F9FFF791FEFFF7A5FE474800F020F964
:1006C000464800F01DF94FF0E0240023C4F8943DA3
:1006D000BFF34F8FBFF36F8F00F016FBD4F8143DBC
:1006E00023F44033C4F8143DBFF34F8FBFF36F8F33
:1006F000D4F8141D3A4800F01BF93A4800F000F90C
:100700004FF48071384800F013F9194B5B6841F6DB
:10071000FF751D446FF30C0529464FF4840000F06B
:100720006BF8324800F0ECF805F58405B5F5840F58
:1007300088BF4FF4840409D9204600F02DFD00281D
:100740007FF4EDAE04F50054A542F5D8284800F03A
:10075000D7F800263446DFF81890264FDFF824A09B
:1007600003E700BF00000E40600E40007C0E40001A
:10077000AC054020940E4000A40E4000B40E400092
:1007800034CD12AB001010000C114000C00E400020
:10079000E00E4000F80E4000800F4000AB0140200A
:1007A000280F4000480F4000640F40009C0F40009D
:1007B000B00F4000AC034020BC0F40002083B8EDD8
:1007C000C80F4000F80F40000C10400020104000FF
:1007D000381040005C10400078104000901040003D
:1007E000B8104000C8104000DC104000F01040007D
:1007F000100F4000AC014020F8B54518A84213D2B4
:1008000004460A4F0A4E04EA0701A1F58001490A8D
:100810000920B047074B9847034618B904F58044B0
:10082000A542F0D81846F8BD0023FBE700C0FFFF43
:1008300001004020150040204FF4801305494A690B
:1008400012F0020F02D1013BF9D17047014BD86180
:10085000704700BF008002401C4B4FF40042C3F8B9
:1008600054281B49D1F8142142F01002C1F8142178
:10087000184A4FF49841C2F810164FF40011C2F80C
:10088000041ED2F8701E21F40011C2F8701ED2F8B6
:10089000741E21F40011C2F8741E10225A601A6FDF
:1008A00042F010021A675A6F42F010025A67A3F51D
:1008B00039230C221A604FF40C625A604E221A62DD
:1008C00050221A60044B01221A70704700100E402B
:1008D0000080084000000E40AC064020074B1B780B
:1008E0005BB110B504460A2803D02046FFF7A4FFE9
:1008F00010BD0D20FFF7A0FFF7E77047AC064020C2
:1009000038B50A4B1B7883B1044603786BB10D25CB
:1009100008E02846FFF7E2FF2078FFF7DFFF14F832
:10092000013F13B10A2BF7D1F3E738BDAC064020E5
:1009300010B584B00C46FFF7E3FF30238DF8043088
:1009400078238DF805300DF105001C230B4924FA9E
:1009500003F202F00F028A5C00F8012F043B13F14E
:10096000040FF4D100238DF80E3001A8FFF7C8FF63
:100970000348FFF7C5FF04B010BD00BF28114000B9
:10098000F40F400000B583B0FFF766FF0D48FFF796
:10099000B7FF00230193019A0B4B9A4206D81A46DF
:1009A000019B01330193019B9342F9D900F06AF94D
:1009B0004FF0015319680548FFF7BAFFFFF75AFDDA
:1009C000FEE700BF3C1140003F0D030058114000FE
:1009D0002DE9F047924689B380460F4600264FF036
:1009E000FF34DFF8789014E001318D420ED910F811
:1009F000013B5C40634614F0010F14BF82EA5404CB
:100A00006408013B13F0FF03F5D1EDE72E44B74234
:100A100016D9BD1BB5F5807F28BF4FF480752A46D7
:100A2000494608EB060000F063F8A0B9B742EDD0E4
:100A30000A4800214FF0080C094AD8E74FF0FF346C
:100A4000E44321460748FFF773FF544514BF0020D5
:100A50000120BDE8F0870020FBE700BFB006402082
:100A60002083B8ED681140001D4B4FF41E32C3F8CF
:100A7000042ED3F8702E22F41E32C3F8702ED3F851
:100A8000742E22F41E32C3F8742EA3F5C8238022DC
:100A90001A60144A5A604FF400721A6201221A60F6
:100AA0004FF4001310490A6912F0807F03D1013B13
:100AB000F9D1012070474FF0E0230722C3F8982DA9
:100AC0004FF00042C3F89C2D084AC3F8A02D052220
:100AD000C3F8942DBFF34F8FBFF36F8F0020704783
:100AE00000000E401100000100C00740370008134D
:100AF00010B4144B18630B245C63134C9C639B6B06
:100B000062B194464B1E8C440CF1FF3C401A0F49D5
:100B10000144CA5C03F8012F6345FAD1094B4FF039
:100B200080721A604FF4001306490A6912F4806F4C
:100B300003D1013BF9D1012000E000205DF8044B16
:100B4000704700BF00C00740B010080001000080DF
:100B5000F0B583B003251C4C062742F210066763EC
:100B6000A663A36B4FF40013226912F4806F03D1C4
:100B7000013BF9D1012023E000208DF80700024657
:100B80000DF10701FFF7B4FF052363639023A3630F
:100B9000A36B4FF000431B78D9B24FF080732360F2
:100BA0004FF40013226912F4806F03D1013BF9D195
:100BB000012005E011F0020F04D1013DCFD1022048
:100BC00003B0F0BD0020FBE700C0074070B54FF454
:100BD000001C0F49052690254FF0004E4FF0807401
:100BE00005E010F0010012D0BCF1010C0FD04E63F3
:100BF0008D638B6B9EF80000C0B20C604FF4001345
:100C00000A6912F4806FECD1013BF9D1012070BD6B
:100C100000C0074010B50446FFF79AFFC8B96FF34C
:100C20000B040C4B1C6320225A6342F230029A637D
:100C30009A6B4FF080721A604FF4001305490A69ED
:100C400012F4806F03D1013BF9D1012001E0FFF7DD
:100C5000BDFF10BD00C007404FF48200016842682C
:100C600081F3088810474FF482000168426881F3DD
:100C700008881047FEE708B500F092F8FFF782FEFB
:100C8000FEE700001B4B1C4AC3F8002CBFF34F8F3C
:100C9000BFF36F8FD3F8083C13F0010F09D1174B46
:100CA0001449013BD1F8082C12F0010F01D1002B9F
:100CB000F7D1104B124AC3F8042CD3F8083C13F0B8
:100CC000010F09D10D4B0B49013BD1F8082C12F053
:100CD000010F01D1002BF7D10A4B4FF40042C3F8AA
:100CE0005428C3F80429A3F580534FF40062C3F8D5
:100CF0000027704700000E400001010080841E00A4
:100D00000B01005A00100E40BFF34F8FBFF36F8FDF
:100D10004FF0E023D3F8142D22F40032C3F8142D41
:100D2000D3F8142D22F48032C3F8142DBFF34F8F63
:100D3000BFF36F8F7047BFF34F8F00234FF0E02258
:100D4000C2F8503FC2F8603F43F08041C2F8601FD4
:100D500043F00041C2F8601F43F04041C2F8601FF9
:100D60002033B3F5805FEDD1BFF34F8FBFF36F8FAB
:100D700070474FF0E02300221A614FF0FF32C3F8B2
:100D80008021C3F88421C3F88821C3F88C21BFF3E4
:100D90004F8FBFF36F8F7047002070477047000080
:100DA00038B50A480A4D016821B9436813B9FFF7FD
:100DB000F5FF38BD0389426855F8233000F10C0473
:100DC0002046984704EB8000EDE700BF6801400033
:100DD000040E40000A440023914201D100207047D4
:100DE00001F8013BF8E710B50023934206D113F058
:100DF000030018BF012000EB930010BDC45CCC546D
:100E00000133F2E7D50D4000E70D4000990D400099
:100E1000990D4000990D40005B424F4F545D206A90
:100E2000756D702053503D005B424F4F545D206AFA
:100E3000756D702072657365743D000000000000E0
:100E40005B424F4F545D2061707020494E56414CBB
:100E5000494441202D3E206C6F6F700A0000000055
:100E60005B424F4F545D20717370695F696E6974A6
:100E70002046414C484F550A000000005B424F4F4E
:100E8000545D20717370695F696E6974204F4B0AFD
:100E9000000000005B424F4F545D206D6167696345
:100EA0003D0000005B424F4F545D2073697A653D01
:100EB000000000005B424F4F545D206372633D00B1
:100EC0005B424F4F545D2073656D204F5441202D80
:100ED0003E2061707020616E746967610A000000D5
:100EE0005B424F4F545D2073697A6520696E76616D
:100EF0006C69646F0A0000005B424F4F545D2045EF
:100F0000524153452046414C484F5520613D000019
:100F10005B424F4F545D2072656769616F2061705D
:100F200061676164610A00005B424F4F545D20714C
:100F30007370695F726561642046414C484F55206B
:100F40006F66663D000000005B424F4F545D2057C6
:100F5000524954452046414C484F55206E61206F00
:100F600066663D005B424F4F545D20706167696E5D
:100F700061732065736372697461733D00000000E2
:100F80005B424F4F545D20636163686520696E76F4
:100F9000616C69646164610A000000005B424F4F4C
:100FA000545D2044495645524745206F66663D00D2
:100FB0002020696E7465726E613D000020206578A6
:100FC0007465726E613D00005B424F4F545D206658
:100FD0006C61736820696E7465726E61203D3D209E
:100FE00065787465726E61202873656D206469761A
:100FF000657267290A0000005B424F4F545D204331
:101000005243206E6F726D616C3D00005B424F4F2A
:10101000545D204352432072616D66756E633D00DE
:101020005B424F4F545D204352432065737065729D
:1010300061646F3D000000005B424F4F545D2043F0
:101040004F5049412046414C484F55202D3E20618C
:10105000707020616E746967610A00005B424F4FD7
:10106000545D203D3D3D20434F504941204F4B2092
:101070003D3D3D0A000000005B424F4F545D204360
:1010800052432065787465726E61204F4B0A0000F0
:101090005B424F4F545D203D3D3D20494E49434901
:1010A0004F20434F504941202852414D46554E4311
:1010B00029203D3D3D0A00005B424F4F545D2053C7
:1010C00043425F4343523D005B424F4F545D2063B8
:1010D00061636865204F46460A0000005B424F4F3F
:1010E000545D20706167652063616C633D000000A2
:1010F0005B424F4F545D2072656769616F20646584
:1011000073626C6F7175656164610A005B424F4F79
:10111000545D204352432065787465726E612046A9
:1011200041494C0A00000000303132333435363743
:101130003839414243444546000000000A5B424FB3
:101140004F545D207465737420626F6F74207072E9
:10115000696E740A000000005B424F4F545D2072BC
:10116000616D5B305D3D00005B424F4F545D20631D
:10117000726320636F6D70757465643D00000000DC
:10118000F8B500BFF8BC08BC9E467047F8B500BF74
:10119000F8BC08BC9E4670475FF800F05500402040
:1011A0005FF800F0450140205FF800F0B1004020FA
:0811B000BD034000990340005B
:020000040042B8
:10000000F8FF452005434200F75E4200F75E4200DC
:10001000F75E4200F75E4200F75E4200000000001B
:10002000000000000000000000000000F75E420039
:10003000F75E420000000000F75E4200696D42007A
:10004000F75E4200F75E4200F75E4200F75E420054
:10005000F75E4200F75E4200F75E4200F75E420044
:10006000F75E420000000000F75E4200F75E4200CB
:10007000F75E4200115C4200F75E4200F75E42000C
:10008000F75E4200F75E4200F75E4200F75E420014
:10009000F75E4200F75E4200F75E4200F75E420004
:1000A000F75E4200F75E4200F75E4200F75E4200F4
:1000B000F75E4200F75E4200F75E4200F75E4200E4
:1000C000F75E4200F75E4200F75E4200F75E4200D4
:1000D000F75E4200F75E4200F75E4200F75E4200C4
:1000E000F75E4200F75E4200F75E4200F75E4200B4
:1000F000F75E4200F75E4200F75E4200F75E4200A4
:10010000F75E4200F75E4200F75E4200F75E420093
:10011000F75E4200F75E42000000000000000000B1
:10012000F75E4200F75E420091684200F75E4200CF
:10013000F75E4200F75E420000000000F75E4200FA
:10014000F75E4200F75E4200F75E4200F75E420053
:10015000F75E4200F75E4200F75E4200F75E420043
:10016000F75E4200F75E4200F8B500BFF8BC08BC7D
:100170009E46704741624200F8B500BFF8BC08BC1B
:100180009E4670471D6242001032000001000000D0
:100190007379735F737461746500000072657365D1
:1001A000745F636F756E7400676E645F726573650C
:1001B000740000006D697373696F6E5F73746174AE
:1001C00065000000636F6D6D5F77696E646F770027
:1001D0006F74615F726571006D697373696F6E5FD3
:1001E000746F00007570645F696E74657276616C1F
:1001F000000000005B4354524C2D544D525D20666C
:10020000616C686120747269706C6120656D202773
:100210002573275B25755D0D0A0000005B5359535C
:100220005D20424F4F54202D20496E69740000001C
:100230005B5359535D20626F6F745F646F6E65200E
:100240002D3E2053544142494C495A452028746957
:100250006D656F75743D256C75206D73290A0000FE
:100260005B5359535D20626F6F745F6661696C20E8
:100270002872657365745F636F756E743D256C7568
:10028000290A00005B5359535D2072657365745FE2
:10029000636F756E743E4D4158202D3E205245438C
:1002A0004F564552590000005B5359535D20696E0B
:1002B0006974207065726469646F20656D205354A1
:1002C0004142494C495A45202D3E205245434F5604
:1002D000455259005B5359535D2073746162696CD8
:1002E000697A655F74696D656F7574202D3E204D68
:1002F000495353494F4E00005B5359535D205245BB
:10030000434F5645525920696E69745F646F6E653C
:10031000202D2061206573746162696C697A617255
:10032000000000005B5359535D205245434F564532
:100330005259202D3E204D495353494F4E00000045
:100340005B5359535D2067726F756E645F636D64B4
:100350005F7265736574202D3E20424F4F5400003C
:10036000676E737300000000696D750070726573CD
:10037000737572650000000074656D70657261745C
:10038000757265006570730070726F70756C736F55
:100390007200000062617474657279000D0A544540
:1003A0004C454D3A7B226C6174223A252E34662CE2
:1003B000226C6F6E223A252E34662C22616C7422D8
:1003C0003A252E32662C22737064223A252E32662C
:1003D0002C226178223A252E33662C226179223A2A
:1003E000252E33662C22617A223A252E33662C2262
:1003F0006778223A252E33662C226779223A252EF9
:1004000033662C22677A223A252E33662C226D78A9
:10041000223A252E33662C226D79223A252E336618
:100420002C226D7A223A252E33662C227072657347
:10043000223A252E32662C2274656D70223A252EC2
:1004400032662C22766F6C74223A252E33662C226B
:1004500063757272223A252E33667D0D0A00000004
:100460005B5345555D2046414C484120545249500C
:100470004C41206E612076617220257520283078ED
:100480002530386C582F30782530386C582F30781C
:100490002530386C582920E280942066616C6C62AB
:1004A00061636B0A000000005B4F54415D20666988
:1004B000726D776172655F73697A6520696E7661C6
:1004C0006C69646F2028256C752920E28094206176
:1004D0002061626F727461720A0000005B4F5441C8
:1004E0005D2046575B305D3A20253032582025305C
:1004F00032582025303258202530325820253032CD
:100500005820253032582025303258202530325896
:100510000A0000005B4F54415D2046575B31323882
:100520005D3A20253032582025303258202530328F
:100530005820253032582025303258202530325866
:10054000202530325820253032580A005B4445427D
:1005500055475D204120636F6D7061726172206F3D
:1005600073207072696D6569726F732034206279CF
:1005700074657320646F20636F6D7075746564209B
:100580004352433A20253032582025303258202516
:1005900030325820253032580A0000005B4F544159
:1005A0005D20466C6173685B30782530356C585D32
:1005B0003A20253032582025303258202530325804
:1005C00020253032580A00005B4F54415D204352D1
:1005D00043204F4B202830782530386C582920E2B2
:1005E00080942061206573637265766572206D6505
:1005F00074616461646F730A000000005B4F5441D2
:100600005D204552524F206E6F20657261736520E8
:10061000646F73206D6574616461646F73000000C2
:100620005B4F54415D205352313D30782530325874
:1006300020E280942061206C696D70617220777275
:100640006974652D70726F74656374696F6E2E2E98
:100650002E0A00005B4F54415D20535231206170DF
:100660006F7320575253523D30782530325820E274
:10067000809420496E6963696F204F54410A0000DD
:100680005B4F54415D20496E6963696F20E280943D
:1006900020612061706167617220736563746F729D
:1006A000206465206D657461646174610000000000
:1006B0005B4F54415D20574149545F45524153457A
:1006C0002023256C7520616464723D3078256C5858
:1006D000207374617475733D25640A005B4F544147
:1006E0005D204D6574616461746120617061676152
:1006F000646120E2809420612061706167617220F2
:10070000736563746F72206677203078256C580AA1
:10071000000000005B4F54415D204572617365200D
:100720006E616F20636F6E6669726D61646F2061C8
:100730006464723D3078256C582076616C3D307869
:100740002530325820E28094206120616775617203
:100750006461720A000000005B4F54415D204572E5
:10076000617365204F4B20636F6E6669726D6164C3
:100770006F20E2809420612061677561726461720C
:10078000207061636F746573000000005B4F54411B
:100790005D204552524F206E6F2065726173652057
:1007A00028616464723D3078256C58290A00000085
:1007B0005B4F54415D20574149545F504B5420E2F8
:1007C00080942072656164793D2564206279746546
:1007D000735F7772697474656E3D256C750A0000ED
:1007E0005B4F54415D2054696D656F7574202825F9
:1007F0006C75206D732920C3A020657370657261CC
:10080000206465207061636F74657320E2809420BA
:1008100073657373616F204F5441206162616E6430
:100820006F6E6164612070656C6F206261636B65DF
:100830006E642E20412061626F727461722E0A0014
:100840005B4F54415D2046696D2064612074726184
:100850006E73666572656E6369613A20256C7520FA
:1008600062797465732C204352433D3078253038CB
:100870006C582C2076256C750A0000005B4F5441A3
:100880005D20417669736F3A205061636F74652013
:1008900066616E7461736D6120286C656E3D3029F0
:1008A0002069676E6F7261646F2E00005B4F544168
:1008B0005D204552524F206E6F2065726173652036
:1008C000646F20736563746F72206465206669725B
:1008D0006D776172650000005B4F54415D204552A9
:1008E000524F206E61206573637269746120646F7A
:1008F000207061636F7465207365713D25750A0012
:100900005B4F54415D204D6574616461646F732079
:100910006772617661646F732E2041207265696E23
:1009200069636961722E2E2E000000005B4F5441F6
:100930005D204552524F206E612065736372697469
:100940006120646F73206D6574616461646F73000E
:100950005B4F54415D2041626F727461646F20701F
:100960006F72206572726F2E20566F6C74616E64A8
:100970006F20616F206D6F646F20636F6D756E699E
:10098000636163616F2E0000627573207265636F2F
:100990007665727920666F7220616464723D30788A
:1009A000253032580A0000000D0A5B51535049208F
:1009B0004452495645525D2046534D2061626F7244
:1009C000746F7521206572726F725F636F6465204A
:1009D0003D2025750A0000005B5350495D204552BB
:1009E000524F523A2054582054696D656F757421E6
:1009F000000000005B5350495D204552524F523A6F
:100A00002052582054696D656F75742100000000F4
:100A1000707265737375726520646F6E6520737490
:100A2000617475733A2025640000000066696E6188
:100A30006C2074656D703A20256600005B54544349
:100A40005D2053796E632074696D656F757420281D
:100A500025752062797465732920E28094206D6F7A
:100A6000646F206E6F726D616C206469726563746F
:100A70006F0A00005B5454435D2053796E63204F2E
:100A80004B20E28094206120656E7669617220526D
:100A900045414459000000005B4F54412052585DCD
:100AA0002073796E6320696E76616C69646F3A2099
:100AB0003078253034582028657370657261646F12
:100AC00020307825303458290A0000005B4F54410B
:100AD0002052585D20454E44206D61726B65722036
:100AE000E280942073697A653D256C75206372639A
:100AF0003D30782530386C580A0000005B4F544177
:100B00002052585D20706B74207365713D257520EF
:100B10006C656E3D25752072656164793D25750AA9
:100B2000000000005B4F54412052585D2044726F1A
:100B300070207365713D25752028466C61736820AF
:100B400062757379290A0000726573756C7420747C
:100B5000746320256400000070617273653A203070
:100B6000782530325820307825303258203078259A
:100B7000303258203078253032580A005B545443C4
:100B80005D2053544152545F4F5441207265636558
:100B90006269646F20E280942061207072657061E8
:100BA000726172206D656D6F7269612E2E2E00006C
:100BB000636D643320E28094204F5441206D6F6454
:100BC00065204F46460000005B5454435D20434D72
:100BD000445F524553455420726563656269646F92
:100BE00020E280942067726F756E645F636D645F4E
:100BF0007265736574202D3E20424F4F54000000F3
:100C00000D0A2020202020202D3E205B4445425507
:100C1000475D2054494D454F55542120537461740C
:100C200075732052656720626C6F71756561646FC2
:100C300020656D3A203078253032582000000000C1
:100C400020205B54325D20457363726974612070AB
:100C5000616472616F20307841352F3078354120E2
:100C60002E2E2E200000000054494D454F55542093
:100C70005B4641494C5D0D000D0A20205B54325DFE
:100C8000202020627974655B256C755D3A20657360
:100C9000637269746F3D307825303258206C696416
:100CA0006F3D307825303258000000004F4B205BFC
:100CB000504153535D0D00000D0A20205B54325DFE
:100CC00020256C75206572726F73205B4641494C1C
:100CD0005D0D0A0020205B54335D20457261736511
:100CE0002054494D454F5554205B4641494C5D0DBC
:100CF0000000000020205B54335D2045736372695F
:100D0000746120636F6E7461646F7220307830306C
:100D10002E2E30784646202E2E2E20000D0A202022
:100D20005B54335D202020627974655B256C755DB2
:100D30003A206573637269746F3D3078253032589C
:100D4000206C69646F3D3078253032580000000017
:100D50000D0A20205B54335D20256C75206572726E
:100D60006F73205B4641494C5D0D0A0020202B2DFE
:100D70002D2D2D2D2D2D2D2D2D2D2D2D2D2D2D2DA3
:100D80002D2D2D2D2D2D2D2D2D2D2D2D2D2D2D2D93
:100D90002D2D2D2D2D2D2D2D2D2D2D2D2D2D2D2D83
:100DA0002D2B0D0020207C202054455354452051EC
:100DB0005350493A20533235464C3131364B20E2BC
:100DC0008094204C454954555241202F204553438F
:100DD00052495441202020202020207C0D0000007A
:100DE00020207C2020536563746F7220646520741A
:100DF000657374653A2030782530366C5820202889
:100E000072656769616F206C6F67732920202020ED
:100E1000202020207C0D0A0020205B54315D2045DD
:100E20007261736520736563746F7220307825304A
:100E3000366C58202E2E2E2000000000627974653A
:100E40005B256C755D3D30782530325820213D2082
:100E500030784646205B4641494C5D0D0A00000053
:100E600020207C2020526573756C7461646F3A2079
:100E700025752F25752074657374657320706173F3
:100E8000736172616D2020202020202020202020EE
:100E9000202020207C0D0A0020207C20205153504F
:100EA00049204F4B20E2809420666C617368206F6C
:100EB0007065726163696F6E616C20202020202054
:100EC0002020202020205B504153535D20207C0DAA
:100ED0000000000020207C202046414C4841206535
:100EE0006D20257520746573746528732920E28050
:100EF0009420766572696669636172206877202044
:100F0000205B4641494C5D20207C0D0A000000001A
:100F10000A203D3D3D204F424320424F4F54203D4B
:100F20003D3D204657205465737465414F4E6F76A2
:100F30006F0000006265746120312E313030000096
:100F40004F4646004F4B00004F4E000056494F4C55
:100F5000410000007C20252D313973207C20252D77
:100F60003373207C2025376C75207C2025376C75E9
:100F7000207C2025396C75207C2025376C75207CE1
:100F80002025366C75207C20252D3673207C0D0A9B
:100F9000000000007C20252D383573207C0D0A00D0
:100FA0004F4B202D20746F64617320617320667530
:100FB0006E636F65732063756D7072656D206F2051
:100FC000646561646C696E652064652031206D73B1
:100FD0000000000046414C4841202D2070656C6F98
:100FE000206D656E6F7320756D612066756E63612F
:100FF0006F2076696F6C61206F20646561646C6935
:101000006E6500002B2D2D2D2D2D2D2D2D2D2D2DF3
:101010002D2D2D2D2D2D2D2D2D2D2D2D2D2D2D2D00
:101020002D2D2D2D2D2D2D2D2D2D2D2D2D2D2D2DF0
:101030002D2D2D2D2D2D2D2D2D2D2D2D2D2D2D2DE0
:101040002D2D2D2D2D2D2D2D2D2D2D2D2D2D2D2DD0
:101050002D2D2D2D2D2D2D2D2D2D2D2D2B0D00003C
:101060002020202020202020202020202020202080
:1010700054455354452057434554202D20576F72F3
:1010800073742D4361736520457865637574696F6A
:101090006E2054696D6520284457542F43594343AB
:1010A0004E5429004D43553A20415453414D563733
:1010B000315132312028436F727465782D4D3729B4
:1010C000204020256C7520487A20207C2020257522
:1010D000206578656375636F657320706F72206635
:1010E000756E63616F000000446561646C696E65D4
:1010F00020646F2073757065722D6C6F6F703A206D
:1011000031206D73203D20256C75206369636C6F01
:101110007320207C20204D617267656D20646520FE
:101120007365677572616E63613A202B33302525D4
:101130000000000020204552524F3A204457545F8F
:10114000435943434E54206E616F20646973706F3E
:101150006E6976656C206E6573746520636F726569
:101160002E0D000020204552524F3A204457545F24
:10117000435943434E54206E616F206176616E6324
:10118000612E0D007C2046756E63616F202020204B
:10119000202020202020202020207C204952512067
:1011A0007C20202020206D696E207C2020206D6511
:1011B000646961207C204D415828574345542920BB
:1011C0007C202020202B33302525207C207573287F
:1011D0002A2920207C2045737461646F207C0D0ACD
:1011E000000000002B2D2D2D2D2D2D2D2D2D2D2DE5
:1011F0002D2D2D2D2D2D2D2D2D2D2B2D2D2D2D2D21
:101200002B2D2D2D2D2D2D2D2D2D2B2D2D2D2D2D12
:101210002D2D2D2D2B2D2D2D2D2D2D2D2D2D2D2D00
:101220002B2D2D2D2D2D2D2D2D2D2B2D2D2D2D2DF2
:101230002D2D2D2B2D2D2D2D2D2D2D2D2B0D00005C
:1012400073656E736F72735F7469636B2829000036
:101250007374617465436865636B2829000000003E
:101260007365755F73637275622829006D697373A6
:10127000696F6E5F6C6966656379636C65282900C8
:1012800056616C6F72657320656D206369636C6F66
:1012900073206465204350552E20282A2920757319
:1012A000203D20284D41582B333025252920636FC0
:1012B0006E7665727469646F206120256C752048B4
:1012C0007A2E0000495251204F4646203D20574378
:1012D0004554207075726F2064612066756E63617D
:1012E0006F3B20495251204F4E203D20696E636C68
:1012F000756920696E746572666572656E63696191
:1013000020646F205379735469636B2E00000000D2
:10131000524553554C5441444F20474C4F42414C49
:101320003A202573000000005B5345552D4441547D
:10133000415D2073656D20736C6F747320706172F2
:101340006120272573270D0A000000005B534555D7
:101350002D444154415D2073656D20657370616358
:101360006F2064652062616E636F2070617261201E
:1013700027257327202825752042290D0A00000003
:101380005B5345552D444154415D2046414C4841F5
:1013900020545249504C4120656D20272573275B0E
:1013A00025755D20E280942061646F707461646FC4
:1013B00020756C74696D6F20636F6D6D69740D0AB3
:1013C0000000000050415353000000007C20252DF8
:1013D0003473207C20252D353873207C20252D3436
:1013E00073207C0D0A0000004641494C00000000BB
:1013F0002D2070726F746563616F20544D52206FA1
:101400007065726163696F6E616C00002D204154DC
:10141000454E43414F3A2066616C6861730000009D
:101420002B2D2D2D2D2D2D2D2D2D2D2D2D2D2D2DEE
:101430002D2D2D2D2D2D2D2D2D2D2D2D2D2D2D2DDC
:101440002D2D2D2D2D2D2D2D2D2D2D2D2D2D2D2DCC
:101450002D2D2D2D2D2D2D2D2D2D2D2D2D2D2D2DBC
:101460002D2D2D2D2D2D2D2D2D2D2D2B0D00000055
:101470007C202020202020202054455354452053F8
:101480004555202D20496E6A6563616F2064652093
:1014900066616C686173206E6F20544D52206461E8
:1014A00073206573747275747572617320676C6FE5
:1014B00062616973202020202020207C0D00000024
:1014C0007C20202020202020204D6F64756C6F3AF6
:1014D000207365755F646174612028766F74616341
:1014E000616F20322D64652D332C20627974652064
:1014F000612062797465292020202020202020206E
:1015000020202020202020202020207C0D000000F2
:101510002B2D2D2D2D2D2D2B2D2D2D2D2D2D2D2DFF
:101520002D2D2D2D2D2D2D2D2D2D2D2D2D2D2D2DEB
:101530002D2D2D2D2D2D2D2D2D2D2D2D2D2D2D2DDB
:101540002D2D2D2D2D2D2D2D2D2D2D2D2D2D2D2DCB
:101550002D2D2D2D2B2D2D2D2D2D2D2B0D00000066
:101560007C2049442020207C2043656E6172696F95
:10157000202020202020202020202020202020206B
:10158000202020202020202020202020202020205B
:10159000202020202020202020202020202020204B
:1015A000202020207C205265732E207C0D0000001E
:1015B0005570736574206E6120636F706961206C73
:1015C0006976653A20726570617261646F20706F30
:1015D00072206D61696F72696120422F43000000C3
:1015E000543100004269742D666C697020656D206D
:1015F000696D752E61783A20726570617261646FF1
:1016000020706F72206D61696F72696120422F4393
:1016100000000000543200005570736574206E6144
:1016200020736861646F7720422064652065707361
:101630003A20726570617261646F2C206C69766506
:1016400020696E746163746100000000543300000F
:101650005570736574206475706C6F20646976656D
:101660007267656E74653A2064657465637461645D
:101670006F20652065737461646F2072652D636FE0
:101680006572656E746500005434000045736372C2
:10169000697461206C65676974696D61202B2063D2
:1016A0006F6D6D69743A207363727562206E616F3D
:1016B00020616C74657261206461646F7300000066
:1016C00054350000457374617469737469636173A0
:1016D0003A20256C7520627974657320636F72728D
:1016E000696769646F732C20256C752066616C686E
:1016F000617320747269706C61732C20256C752085
:1017000073637275627300007C20252D373273205D
:101710007C0D0A00524553554C5441444F20474CD0
:101720004F42414C3A2025642F25642050415353A9
:101730002025730010B582B003F0F6FBA54B1B7893
:101740000C2B00F20882DFE813F00D0006023E00C9
:10175000A8008901A501B8010602D201D501E00166
:10176000F501FB019C4B1B68002B00F0A18105F0EB
:10177000C1FB002840F09C8104F02AFE01469748F6
:1017800005F020F904F0DAF904F022FE014694484D
:1017900005F018F9934805F0B7F8934B00221A604A
:1017A000924B934A1A604FF48072FF21914805F0E2
:1017B00073FA4FF48010904B186005F07DF8854B5C
:1017C00002221A7074E105F095FB04468B4B1968F0
:1017D00041B18B4AA2FB0132120B41F2883303FB69
:1017E00012122AB92346844A1268864805F0EAF89C
:1017F000824A136801331360002C42D11346002241
:101800001A607D4B1868B0F5801F11D07E4B98424E
:1018100040F24E81012201A904F08CFA9DF80420C7
:10182000FF2A25D0744B1968784805F0CBF83FE1C2
:101830006D4B1B68002B40F03B816D49744805F0EF
:10184000C1F800230193019A724B9A4206DC1A46B2
:10185000019B01330193019B9342F9DD6448664B80
:10186000186005F029F8614B4FF481121A601FE1EE
:10187000694805F049F804F06BFC564B03221A70D6
:1018800016E1022C40F014815B4B1968634805F0A7
:1018900099F8504B0C221A700AE1614B1B68002B1F
:1018A00034D0604B1B6801335A4A934233D85D4AA7
:1018B000136005F007FB002839D00023584A136055
:1018C000584A136005F004FB574C208005F006FBD6
:1018D000564B188022884FF6FF739A423DD000285D
:1018E00071D0424B186842F220031344B0EBC31F7F
:1018F00000F2A680404B186000F580523B4B1A6006
:1019000004F0DAFF334B04221A70D1E005F0D4FA68
:10191000434B1860C5E7434B00221A6005F0D2FA2A
:101920000146314B1A68424805F04CF8C1E705F012
:10193000C3FA3B4B1B68C01A43F69723984240F208
:10194000B78043F698213B4805F03CF8344B002221
:101950001A60204B0C221A70AAE005F0E1FA254C1F
:10196000027843781B0443EA0263C2781343827807
:1019700043EA02236360027943791B0443EA02636A
:10198000C2791343827943EA0223A360027A437A3D
:101990001B0443EA0263C27A1343827A43EA0223B6
:1019A000E36005F0A1FAE368A2686168224805F0E7
:1019B00009F84FF48010104B186004F07DFF054BC0
:1019C00008221A7074E01D4804F09EFF05F08CFA9E
:1019D0006EE000BF1C0B4020C00A402020064200E1
:1019E0005406420080064200DC0A4020E00A402003
:1019F0000010100000004020E40A4020D80A4020D7
:101A00005917B7D1B0064200FF0F1000140742006B
:101A1000DC0642009F860100580742008C07420006
:101A2000D40A4020D00A4020560A4020420A4020D2
:101A3000B0074200E0074200400842007C08420034
:101A400005F06EFA0146464B1A88464805F0CEF876
:101A500005F04AFA444B05221A7029E005F04AFACB
:101A600068B905F05DFA01463D4B1A883D4805F01E
:101A7000BDF805F039FA3C4B05221A7018E005F064
:101A800039FA022814D1394804F03EFF364B0C22B3
:101A90001A700DE0364B1B8842F220001844304B80
:101AA0001A883049C00104F0E9FA2F4B06221A7057
:101AB000022002F0BFFF02B010BD05F01BFA48B9CA
:101AC0002C4A274B1B8811680B441360264B0322BA
:101AD0001A70EDE705F00EFA0228E9D1244B1988B7
:101AE000254804F06FFF204B0C221A70E0E701F04C
:101AF000C5FEDDE74FF4807220494FF4801004F0FA
:101B0000BDFA194B0A221A70D2E705F0F3F930B981
:101B10001B4804F0F9FE144B0B221A70C8E705F0BD
:101B2000E9F90228C4D1174804F0EEFE0E4B0C224E
:101B30001A70BDE7144B00221A6005F03FF8B7E7B2
:101B40000023114A1360084A137004F0DBFF0F48AA
:101B500004F0DAFEACE7044B00221A70A8E700BFDD
:101B6000420A4020A80540201C0B4020AC0842003F
:101B7000560A4020DC0A4020D808420000004020DD
:101B8000000942002C094200C00A402050094200CE
:101B90003C0940201C000000000000007F0A40209B
:101BA0000100000000000000B00A40200400000016
:101BB00000000000890A4020010000000000000031
:101BC000950A40200100000000000000B40A4020F7
:101BD0000800000000000000160B4020010000007B
:101BE00000000000A60540200200000000000000E8
:101BF000170B4020010000000000000000044020FE
:101C000090000000000000009807402080000000C5
:101C100000000000740A40200B00000000000000DB
:101C2000500B40200200000001000000881300005B
:101C3000BC0A40200C00000000000000180B4020EF
:101C40000300000000000000480B402004000000DA
:101C5000010000000000C842080A402014000000F3
:101C600000000000A8064020500000000000000016
:101C7000980A40200800000000000000C80A402028
:101C800008000000000000001809402024000000A7
:101C900000000000580A4020100000000000000072
:101CA000A00A402008000000000000001B0B40209C
:101CB00001000000000000001808402000010000A2
:101CC00000000000D00A40200C00000000000000CE
:101CD000420A40200200000000000000560A402096
:101CE0000200000000000000A80540208000000065
:101CF0000000000000004020000100000000000083
:101D0000DC0A40200C000000000000001C0B4020FA
:101D10000100000000000000E80A4020040000006C
:101D2000000000001D0B4020020000000000000029
:101D30000A0B402002000000000000000E0B4020B3
:101D4000020000000000000000014020000100002F
:101D5000000000001F0B40200100000000000000F8
:101D6000EC0A40200400000000000000100B40209E
:101D70000200000000000000900940201800000050
:101D800000000000300A40201200000000000000A7
:101D9000A80940201800000000000000440A40206C
:101DA0001200000000000000C009402018000000E0
:101DB000000000000C0B40200200000000000000AA
:101DC000D80940201800000000000000800A4020D0
:101DD00009000000000000008C0A402009000000FB
:101DE000000000001C0A4020140000000000000059
:101DF000080B40200200000000000000F009402015
:101E000018000000000000002806402080000000AC
:101E1000000000008A0A40200200000000000000CC
:101E2000960A40200200000000000000200B402025
:101E30000300000000000000120B40200200000020
:101E400000000000230B4020010000000000000003
:101E5000520B4020010000000100000004000000BF
:101E6000240B40200200000000000000F00A402087
:101E70000400000000000000F806402050000000B0
:101E80000000000020054020860000000000000047
:101E9000580940201C00000000000000260B4020D4
:101EA0000100000000000000740940201C00000038
:101EB000000000004C0B4020040000000100000066
:101EC00001000000680A40200C0000000000000033
:101ED000140B40200200000000000000270B4020EF
:101EE000010000000000000090044020900000006D
:101EF000000000000002402000020000000000007E
:101F0000F40A40200C0000000000000048074020B8
:101F10005000000000000000000B402008000000FE
:101F200000000000280B40202000000001000000FD
:101F3000010000000300000000000000000000009D
:101F4000000000000000000000000000A80A40207F
:101F5000A80A402008000000000000000000000067
:101F600000000000666666666666666666666666A9
:101F70002DE9F04F2DED0A8B92ED008B8DB01E46B2
:101F8000B5EEC08B0B69D1F808A0CC680590F1EED6
:101F900010FAD1E9009B069307D419F0040F30D151
:101FA00019F008052FD0202302E02D23B1EE488B35
:101FB00023700AF1FF32012518EE903A18EE100A4C
:101FC00023F00041BC4B4FF00008994208BF404548
:101FD0001BD1413E192E94BFB849B949601904F08C
:101FE0008FFFB74804F00EFECDF80090024653462E
:101FF0000598214603F07EFC0DB0BDEC0A8BBDE8D0
:10200000F08F2B23D4E75246D6E780458B41A6F1CB
:102010004103039308D2192B94BFAA49AA49601916
:1020200004F06EFFA848DDE730216155B5EE408B26
:102030000399B7EE009B192905F101038CBF7821A4
:102040005821F1EE10FAE15405F10205A2F1020265
:1020500040F0EC80B0EE49BBB0EE48CBBBF1000FD6
:102060009FED8FABACBF5B461823591C002700BF08
:102070008CEE0B0BCDE90731049203F011F8BBF1A4
:10208000000F00EE4BCBDDE907312BEE0ABB049AC3
:1020900007F1010704DAB5EE40CBF1EE10FA02D0F9
:1020A0008F42E5D15F1CB2EE007B2BEE077BB4EED6
:1020B000C7CBF1EE10FA00F1DC80B4EE47CBF1EEC5
:1020C00010FA09D1BDEEC00B9FED776B10EE103A00
:1020D00013F0010F06FE077B38EE078B18EE903ADF
:1020E00018EE10CA744923F000400023884208BF4C
:1020F0009C453FF46EAF06990539A942079140F21D
:102100001481794208912E46AE461F46049300BFC3
:1021100088EE090BCDE90A23CDF824E002F0C0FFD8
:10212000FDEEC07BDDE909E2B0EE40BB17EE900AA0
:102130000B9B002840F0A080002B00F09D80013711
:1021400008990BEE498B013B8B4229EE0A9B03D089
:1021500007998E42B646DBD3049BCBB9002F40F3E0
:10216000E580BBF1000F40F3E18019F0010F40F072
:10217000DD80A3192E211970B9192144302000BF28
:1021800003F8010F8B42FBD13E44FF4301363A4432
:10219000069B0021A019013B88450170B8BFC8F11A
:1021A0000008E1544FF00107B8BF01214FF00A0BBE
:1021B00003F1FF3CB8F1000F40F0A580012F00F0C3
:1021C000A28000290CBF2B212D2104F80C100399AB
:1021D000023B192904EB03018CBF4FF0700C4FF048
:1021E000500C9E4281F800C003DA039204F088FE8E
:1021F000039A09F00303022B11D11744033F002F68
:102200000DDD204604F0FEFCE319A84280F289802F
:102210003A463021601904F03FFD4FF0000A204695
:10222000E0E600BF08F10108B0EE479B39EE097BFC
:10223000B4EEC78BF1EE10FAF4D5B6EE007B9FED4D
:102240001C6B00BFB4EEC98BF1EE10FA7FF502AF44
:1022500029EE075BB5EE405BF1EE10FA08BF29EE00
:10226000069B08F1FF3808BF28EE068B29EE079B76
:10227000E8E79FED0D7B2FE7049941B93BB14FF0A3
:102280002E0C012104F80EC00136013A0491E11927
:1022900004EB060C31444FF0300E19E0AFF3008030
:1022A000000000000000B03F00000000000000003F
:1022B00000000000000050430000F07F946A4200DC
:1022C000986A42009C6A4200A06A42000CF801EB46
:1022D0008C45FBD1F119D71B039A0928D4BF3030A4
:1022E0005730192A0AD840F02002613A192A05D835
:1022F000CDE9093104F09DFDDDE909317A1E605414
:102300004E1C00271CE7634698FBFBFE0EEB8E0C71
:10231000A8EB4C0C0CF1300C04F803C0F046013F64
:1023200046E7225C1A5401386FE72E4619F0100F69
:102330003FF42EAF2E23A355013629E70120704725
:102340002DE9F04F2DED0A8B92ED009B8FB0B5EE8D
:10235000C09B05938B680493F1EE10FA0B69CD686E
:102360000690D1E900A78B46089308D41AF0040F11
:1023700034D11AF00803039332D0202302E02D2336
:10238000B1EE499B2B70049B03F1FF3901230393AA
:1023900019EE903A19EE101A23F00042C04B0024B7
:1023A0009A4208BFA1421ED1059B0398413B192BBD
:1023B00094BFBC49BC49284404F0A2FD284604F05F
:1023C00021FC049BCDF800A002462946069803F0A4
:1023D00091FA0FB0BDEC0A8BBDE8F08F2B23D1E74B
:1023E000DDF81090D4E78C42934108D2059B039806
:1023F000413B192B94BFAD49AD492844DCE7B5EE0C
:10240000409BF1EE10FAB2EE04CBB7EE00AB40F019
:10241000C080059804F006FD002FC0B2C0F26281B2
:10242000672840F0D580002F08BF0127231DC0F288
:10243000D180BC4280F2CE80002C4FF066080CDACE
:10244000B8F1660F07F1010707D1002C02DAB7EEE9
:1024500000AB0024672800D027440023B0EE4A8B4D
:10246000B0EE49BB8BEE080B0993079002F018FE03
:10247000099B90EE08BB01339F420798B1EE4BBB1E
:1024800088EE0C8BEED1B1EE047B28EE078BB4EE18
:10249000CB8BF1EE10FA00F3A080B4EE4B8BF1EE93
:1024A00010FA09D1BDEEC00B9FED796B10EE103A1A
:1024B00013F0010F06FE088B39EE088B2AEE0C9BF9
:1024C000B4EEC89BF1EE10FA00F28A80B8F1660F04
:1024D00004F1010440F0868001372146CB1B002225
:1024E000039F0A9316460A9B994240F0A580334603
:1024F000002E00F0DF80E8190022B8F1650F0270AD
:1025000029D1089B013B9442EA54BCBF644201229A
:102510004FF0020B4FF00A0E591E002C40F0D180F4
:10252000BBF1000F00F3CD80002A0CBF2B222D221F
:102530006A54059A023B413A192A05EB030198BFF8
:102540004FF045089F4281F8008001DA04F0D8FC82
:10255000CB44ABF104090AF00303022B7FF42EAF46
:10256000B9F1000F7FF72AAF284604F04BFB05EBCB
:102570000903039A824240F3B18003984A4630210E
:10258000284404F089FB0023049317E70134B0EEDC
:1025900047AB2AEE0C7BB4EEC79BF1EE10FAF5D5F3
:1025A0009FED3D7B00230BE014F5967F05DA23B900
:1025B00029EE079B2AEE07AB0123013C8AEE0CAB08
:1025C000B4EECA9BF1EE10FAEED422E706272DE70F
:1025D000804635E74FF065083FE79FED2D8B6BE7B1
:1025E000B0EE4A9BB8F1650F14BF2146002175E794
:1025F0004EB9002907DA079E2E23AB550123013778
:1026000009F1FF391E46AB1805EB070C3B444FF0B0
:10261000300E01E00CF801EB9C45FBD1099B02EB6D
:10262000070C3033A9EB020202F1FF3905F80C3038
:102630000CF10107002223E0DBF810300797053B7F
:10264000BB427FF654AF88EE090BCDE90C200B910D
:1026500002F026FDFDEEC07BDDE90B1217EE90CAFD
:102660006346092BA8BF092309930AF0100353EA14
:102670000C0C0D98BCD16728BAD10029B8DA013208
:1026800099EE008B0139B1EE488B89EE0C9B2AE75D
:1026900000000000000000000000000000005043A7
:1026A0000000F07F946A4200986A42009C6A4200EF
:1026B000A06A42001AF0100F1EBF2E23EB550137FF
:1026C00019E70B4694FBFEFC0CEB8C01A4EB4101DB
:1026D0003031E95464460BF1FF3B1DE72A5C1A5484
:1026E000013846E767283FF471AF80460627A7E622
:1026F0002DE98848934A0121934802F0A9FF934AA3
:102700000421934802F0A4FF924A0121924802F06A
:102710009FFF924A0121924802F09AFF914A0421B8
:10272000914802F095FF914A0421914802F090FFF0
:10273000904A0421904802F08BFF904A0221904871
:1027400002F086FFDFF87CA28E4EDFF8FCB15BE181
:10275000B9540134AA88A3B29A4222D92B6803EB58
:10276000040C195DC9B2EA882244B35CDBB2B85CE0
:10277000C0B2994201D18342EBD09942E8D0814264
:1027800004D0834204D18CF80030E2E7B154E0E792
:102790008CF80030BB542246A9687B4804F012F93B
:1027A000D7E709F1010908F10C089AF800205FFA4F
:1027B00089F39A4207D94546B8F80430002BF0D087
:1027C0000024724FCAE79BF80030032B00F23181DE
:1027D000DFE813F0040046008300FA006C4804F0C0
:1027E00093F801F04BFC10B103F0F6FCE0B901F0F6
:1027F000AFFE574C216801312160664804F0E2F8D1
:102800002368052B40F2E58002F048FE624C2071FF
:1028100004F0A1FBE07103F021F9604804F074F8C2
:1028200002238BF80030D4E0494B00221A605C4B45
:102830001B785BB104F040FB5A4B186000215A48EA
:1028400004F0C0F801238BF80030C2E0544B0122A1
:102850001A7001F0BDFC01F05BFB00F093FAE9E7B0
:1028600002F062FB4C4B1B78002B2FD04A4B5B785D
:10287000002B2BD0484B9B7843B3474BDB782BB3D3
:10288000454B1B7913B3444B5B79FBB1424B9B79AE
:10289000E3B1414BDB79CBB13F4B1B7AB3B13E4B3C
:1028A0005B7A9BB13C4B9B7A83B104F005FB3D4BBB
:1028B0001B68C31A002BC0F28C803C4804F024F83B
:1028C00003F0CCF803238BF8003082E0384804F0A2
:1028D0001BF802238BF800307BE004F0EDFA04468D
:1028E00002F022FB334B1B68E31AB3F57A7F13D255
:1028F000314B1B78ABB12B4B1B68E41A002C68DB07
:1029000000232D4A13702D4803F0FEFF03F0A6F8B4
:1029100003238BF800305CE000F08EFE254B1C603A
:10292000E6E701F0ABFB002853D003F055FC00288C
:102930004FD0214B01221A701A4B1C60204803F023
:10294000E3FF46E090014200160B40209C0142004C
:10295000B80A4020A8014200950A4020B401420074
:10296000180B4020C4014200C40A4020D00142009C
:10297000C00A4020D8014200BC0A4020E4014200C5
:10298000500B4020D8074020F40142009807402017
:102990001C02420060024200740A4020840242008D
:1029A000890A4020B40A402030024200D40242008A
:1029B000A8024200B00A40207F0A402024034200BF
:1029C000F8024200170B402003F096FA1B4B1B78CD
:1029D00023BB9AF80030BBB1194F03EB430307EB5D
:1029E000830C184DB88860B1FC883A6810441346CF
:1029F000A41A1A78D2B2E11872546A54013383428D
:102A0000F7D10C376745EDD19AF80030002B3FF431
:102A1000DAAEDFF82C804FF00009CCE60024074B3B
:102A20001C70094B1C60094803F06EFF8BF80040D6
:102A3000CFE7074B00221A70CBE700BF950A402072
:102A40000004402098074020B80A4020400342007C
:102A5000160B40202DE9F047AEB00746164605910B
:102A60004FF00008059D2B78002B00F0E08000243B
:102A70004FF0FF33CDE909430EAB0C9380230B9449
:102A80000D932B5D0BB1252B30D134B12946224655
:102A90003846254403F0D8FC0595059B1A78252A6D
:102AA00040F0BC8003F10109CDF814904A460021A2
:102AB00013782B2B104602F1010223D02ED8202BA5
:102AC00024D0232B26D001B105902A2B2ED003F041
:102AD000F9FA059A0B900020114601320B78303B31
:102AE000092B79D9002830D005912EE00134C8E7B0
:102AF000099B43F0010309930121D9E7099B43F0A6
:102B00000203F8E7099B43F00403F4E7099B43F051
:102B10000803F0E7099B43F01003ECE72D2BE7D007
:102B2000302BEBD00029D2D00590D0E733681A1DA6
:102B30001B6832600130002B05900B9305DA099A6F
:102B40005B4282F0010209920B93099BDA0744BFB2
:102B500023F002030993059B1A782E2A0FD14FF018
:102B6000000ACDF828A05A785D1C2A2A059535D18F
:102B70000233059333681A1D1B6832600A9305A857
:102B800003F07EFD059D0390287804F04BF925287D
:102B9000039900F0DA806138172800F2E0801728E6
:102BA00000F2DD80DFE810F02B00DB00B60047000C
:102BB000A700A700A700DB004700DB00DB00DB006D
:102BC000DB009E0065008300DB00DB00C700DB004C
:102BD0005600DB00DB00740001207DE7284603F08F
:102BE00071FA53460A90294601350A78303A092A83
:102BF00003D9002BC3D00591C1E70123F3E7324687
:102C000006A803F01BFE002872D06B1C059306AAD1
:102C10002B7809A93846FFF7ABF904444444A04592
:102C200040F3A780544B4F221A604FF0FF384046C4
:102C30002EB0BDE8F0873346012206A802F012F953
:102C4000002855D0013506AA09A93846059502F095
:102C5000D3FBE2E73346002206A802F003F900287E
:102C600046D0013506AA09A93846059503F018F99A
:102C7000D3E73346002206A802F0F4F8002837D044
:102C8000013506AA09A93846059502F0ADFEC4E74C
:102C90003346002206A802F0E5F848B36B1C059302
:102CA0002B7806AA09A9384601F0C0FBB5E73346E0
:102CB0000022F02106A802F0D5F8C8B1DDE90632FD
:102CC0000135134305950BD12C4803F09BFF099B5D
:102CD00000932A490B9B0246384602F00BFE9CE704
:102CE0007823DEE7334608EB040206A802F0EEFE86
:102CF0000135059592E7324606A803F09FFD0028AE
:102D0000F6D06B1C059306AA2B7809A93846FFF765
:102D100017FB82E78029EBD1336801351A1D1B6848
:102D200032608DF818300595012306AA09A93846A6
:102D300003F08AF871E78029DAD13268131D336015
:102D40000135126805950023F0E78029D0D1099B51
:102D5000009301350B9B059509490122BCE700232F
:102D60004FF0FF32CDF8149009930B930A92009321
:102D7000F2E7A04676E600BF040B40208C6A4200D2
:102D8000926A4200F0B52DED028B97B09E4803F099
:102D9000BBFD9E4C204603F0B7FD9D4803F0B4FDFB
:102DA0009C4803F0B1FD204603F0AEFD02F0BCF8F4
:102DB00004F0BAF804F018F8974C204603F0A4FD8C
:102DC000964803F0A1FD204603F09EFD944C9FED34
:102DD000958A84ED008A03F0B9F8934B236001F0E3
:102DE0009BFED4ED007A77EEC87AF5EEC07AF1EE6C
:102DF00010FA48BFF1EE677A9FED8C7AF4EEC77A4D
:102E0000F1EE10FA4CBF012200228949894803F0F3
:102E1000C1F9894C9FED898A84ED008A03F096F808
:102E2000637883F01003637001F076FED4ED007ACE
:102E300077EEC87AF5EEC07AF1EE10FA48BFF1EEFF
:102E4000677A9FED7A7AF4EEC77AF1EE10FA4CBF0A
:102E5000012200227A497B4803F09CF97A4D012136
:102E6000284602F0A1FE0446784B2B6003F06EF872
:102E700095ED008A002C00F0B1802378DB43DBB2B3
:102E8000237001F049FE704BD3ED007A77EEC87ADB
:102E9000F5EEC07AF1EE10FA48BFF1EE677A9FEDD9
:102EA000637AF4EEC77AF1EE10FA40F19B80227853
:102EB000654B1B78D2B29A4214BF002201226449AA
:102EC000644803F067F9644C0121204602F06CFE6F
:102ED00005460221204602F067FE07465F4B23604D
:102EE00003F034F804F020F84668AA23E370552371
:102EF000EB7001F011FEE378EA78DBB2934273D015
:102F0000002404F011F801364368B34214BF0022D4
:102F100004F001025249534803F03CF94E4B4F4A2A
:102F20001A6003F013F803F0FFFF05684E4C9FEDA5
:102F30004F8A84ED008A03F009F801F0EDFDD4ED2D
:102F4000007A77EEC87AF5EEC07AF1EE10FA48BF53
:102F5000F1EE677A9FED357AF4EEC77AF1EE10FA6A
:102F60004AD400224249434803F014F92A4C20462F
:102F700003F0CAFC03F0D8FF03688268019242683C
:102F800000923D4A502102A803F0E6FD02A93B4809
:102F900003F018FD204603F0B7FC394B1B68394A93
:102FA00011685818384A394C002908BF2246019246
:102FB0000090374A502102A803F0CEFD02A92F4805
:102FC00003F000FD144803F09FFC0F4803F09CFC45
:102FD00003F00AFF17B0BDEC028BF0BD01F09CFDC1
:102FE00000226CE700226AE7EC78FB78E4B29C42AE
:102FF00014BF0024012484E703F096FF0268AA426C
:1030000014BF00220122ADE75C15420020144200EB
:1030100070144200C01442001015420060154200B6
:10302000580A4020A3E31A429AF9794417B7D138D5
:10303000B0154200E015420018094020C3F51C41BC
:10304000E415420014164200980A4020CDCC6C4092
:10305000181642004C164200480B402000009A42CD
:103060005016420088164200C80A40200000AC41B9
:103070008C164200C0164200C416420008174200D7
:10308000F80A4020F40A40200C144200F0134200D9
:1030900014174200F0B583B0012806D0A74B1B7867
:1030A000002B00F0478103B0F0BDA54B1B78002B2F
:1030B00000F0A180A34B1A78597841EA02214AF620
:1030C0005523994238D19F4B9A78DD7845EA0225FD
:1030D0001A795E7946EA02264FF6FF739D4246D082
:1030E0003446802E28BF8024974F3B7822462946BD
:1030F000964803F067FC3B78002B77D1944B1D80FA
:10310000944B1C8056B19449944A002311F8010F46
:1031100002F8010B01339BB29C42F7D88A4B012283
:103120001A70284603F0E4FA8D4B012283F84D20F3
:103130008C4B00221A70B1E71A468B4803F042FC10
:10314000834B1B88013389494E220A70C3F307223F
:103150004A70DBB28B705A4082F04E02CA70774BD5
:1031600001221A700422824803F0B4FDE0E7754B97
:10317000997ADA7A120442EA0162597B0A43187B8F
:103180009C79D979090441EA04615C7A21431B7A6C
:1031900042EA002241EA0321764803F013FC0022B0
:1031A000674B1A706E4B83F84B20012283F84D2039
:1031B000674B4FF6FF721A803446802E28BF80245A
:1031C000644B1C8056B16449644A002311F8010F16
:1031D00002F8010B01339BB29C42F7D85A4B0122F3
:1031E0001A704FF6FF7003F083FAA1E72946624890
:1031F00003F0E8FB98E70121604803F0E3FB514C42
:10320000E3780093A378627821785D4803F0DAFBD5
:103210002378202B00F2898001A252F823F000BF0E
:103220009D3042002B3342002B3342002B334200AF
:103230002B3342002B3342002B3342002B3342000E
:103240002B3342002B3342002B3342002B334200FE
:103250002B3342002B3342002B3342002B334200EE
:10326000CB324200F5324200173342002B3342008A
:103270002B3342002B3342002B3342002B334200CE
:103280002B3342002B3342002B3342002B334200BE
:103290002B3342002B3342002B3342002B334200AE
:1032A000A5324200374B01221A60264B5B7807EEAD
:1032B000903AF8EE677AF2EE046A87EEA67A284B27
:1032C00083ED117A00F0B8F9E8E603F01BFC03F097
:1032D000BDFD1F4B00221A802B4803F015FB012374
:1032E000284A1360294A13601D4A82F84B3082F83D
:1032F0004D30D3E6264803F007FB0023234A136032
:10330000174A82F84B30012182F84D100C4A137095
:10331000144A1370C2E61F4803F0F6FA104B01225C
:1033200083F84D2003F08CFDB8E60D4B022283F8A4
:103330004D20B3E602F092FBB5E600BF250B40201E
:10334000240B402020054020200B4020FC0A420096
:10335000960A40208A0A4020250540202806402061
:10336000A8064020220B4020980A4200F00A402084
:1033700058094020CC0A4200240B4200480B42006E
:10338000580B4200C40A40207C0B4200C00A402077
:10339000B00B4200C80B42002DE9F04786468C4630
:1033A0000846089E154674461946002B40F0C28018
:1033B0008242B2FA82F245D94AB1C2F1200300FA40
:1033C00002FC2EFA03F3954043EA0C0C94404FEABA
:1033D000154EA8B2BCFBFEF8230C0EFB18CC08FB64
:1033E00000F943EA0C43994528D9EB1808F1FF3757
:1033F00004D2994502D9A8F102072B44A3EB090393
:10340000A4B2B3FBFEFC0EFB1C330CFB00F044EA41
:103410000344A04214D92C190CF1FF3304D2A0426A
:1034200002D9ACF102032C44241A43EA07401EB12E
:10343000D440002334607360BDE8F0874746DDE781
:103440006346F1E792BB431B01214FEA154EAFB231
:10345000B3FBFEFC200C0EFB1C330CFB07F840EA10
:103460000343984562D9EB180CF1FF3004D298451C
:1034700002D9ACF102002B44A3EB0803A4B2B3FBC6
:10348000FEFC0EFB1C330CFB07F744EA0344A74287
:103490004ED92C190CF1FF3304D2A74202D9ACF15A
:1034A00002032C44E41B43EA0040C0E7C2F12003BE
:1034B00020FA03F1954090402EFA03F303434FEABC
:1034C000154EAFB2B1FBFEFC0EFB1C10190C0CFB31
:1034D00007F841EA0041884504FA02F422D9691844
:1034E0000CF1FF3004D2884502D9ACF10200294426
:1034F000A1EB08019BB2B1FBFEFC0EFB1C110CFB07
:1035000007F743EA01439F420ED9EB180CF1FF3154
:1035100004D29F4202D9ACF102012B44DB1B41EAE9
:10352000004192E76046E3E76146F7E76046A3E7BC
:103530006346B7E7834206D916B9002108467BE700
:10354000C6E900E0F9E7B3FA83F78FB9834201D304
:10355000724508D8BEEB020460EB030301209C46D1
:103560001EB9002168E73846FAE7C6E9004CF8E7DB
:10357000C7F1200CBB4022FA0CF41C432EFA0CF1CC
:1035800020FA0CF3B84001434FEA14490EFA07F54C
:10359000B3FBF9F81FFA84FE09FB18300B0C08FB8B
:1035A0000EFA43EA00439A4502FA07F240D9E318BB
:1035B00008F1FF3004D29A4502D9A8F10200234451
:1035C000A3EB0A0389B2B3FBF9F809FB183308FB34
:1035D0000EFE41EA03418E452CD9611808F1FF33F4
:1035E00004D28E4502D9A8F10203214443EA0040E7
:1035F000A0FB0298A1EB0E014145CE46434602D303
:1036000006D14D4504D2B9EB020E68EB0403013834
:10361000002EA6D0B5EB0E0261EB030101FA0CFC03
:1036200022FA07F34CEA0303F940C6E9003198E7B0
:103630004046C5E74346D9E708B5874A20231370BB
:1036400086490B68C3F307605070C3F3074090705E
:10365000C3F30720D07013714B68C3F30761517136
:10366000C3F307419171C3F30721D17113727C4BEE
:103670001968C1F307605072C1F307409072C1F33B
:103680000720D07211735968C1F307605073C1F3FA
:1036900007409073C1F30720D07311749968C1F388
:1036A00007605074C1F307409074C1F30720D074D1
:1036B0001175DB68C3F307615175C3F30741917559
:1036C000C3F30721D1751376664B1968C1F3076000
:1036D0005076C1F307409076C1F30720D07611777A
:1036E0005968C1F307605077C1F307409077C1F381
:1036F0000720D07782F820109968C1F3076082F81C
:103700002100C1F3074082F82200C1F3072082F8AC
:10371000230082F82410D968C1F3076082F82500DD
:10372000C1F3074082F82600C1F3072082F8270082
:1037300082F828101969C1F3076082F82900C1F3E3
:10374000074082F82A00C1F3072082F82B0082F894
:103750002C105969C1F3076082F82D00C1F30740AE
:1037600082F82E00C1F3072082F82F0082F8301073
:103770009969C1F3076082F83100C1F3074082F80C
:103780003200C1F3072082F8330082F83410D9697F
:10379000C1F3076082F83500C1F3074082F83600B4
:1037A000C1F3072082F8370082F838101B6AC3F390
:1037B000076182F83910C3F3074182F83A10C3F366
:1037C000072182F83B1082F83C30274B1B68C3F37B
:1037D000076182F83D10C3F3074182F83E10C3F33E
:1037E000072182F83F1082F84030204B1B68C3F35A
:1037F000076182F84110C3F3074182F84210C3F316
:10380000072182F8431082F8443019494B6CC3F306
:10381000076082F84500C3F3074082F84600C3F30F
:10382000072082F8470082F8483091F84A3082F841
:103830004930531E4932002013F8011F484093427B
:10384000FAD1054981F84A000A4B01221A704B222D
:10385000094803F03FFA08BDF8064020980A4020C6
:10386000580A402018094020CC0A4020C80A4020AD
:10387000A8064020250B4020580940202DE9F041A2
:10388000CCB003F037FB002840F0BF80644B596890
:103890004A1E644B9A4242D2082208A9624802F0AA
:1038A00049FA9DF8273004939DF8263003939DF83C
:1038B000253002939DF8243001939DF82330009326
:1038C0009DF822309DF821209DF82010574803F0E4
:1038D00079F808220AA9564802F02CFA9DF82F30F0
:1038E00004939DF82E3003939DF82D3002939DF89C
:1038F0002C3001939DF82B3000939DF82A309DF8D1
:1039000029209DF828104B4803F05CF8444B5F6871
:10391000AFB34FF0FF340026DFF80C811BE04648C0
:1039200003F050F8454B0C221A705CE001329542CE
:103930000ED910F8011B4C40614614F0010F14BF62
:1039400083EA54046408013911F0FF01F5D1EDE771
:103950002E44B74215D9BD1BB5F5807F28BF4FF463
:1039600080752A460CA906EB080002F0E3F9B7427D
:10397000EED00CA800224FF0080C314BD9E74FF0E5
:10398000FF34E143264B9B688B422FD0CBB2009390
:10399000C1F30723C1F30742090E2A4803F012F8C6
:1039A0000CAC294D0FCD0FC42B6823600CAC11AFAC
:1039B000264E54F8045B042207A9284602F0BAF9FF
:1039C0009DF81F3001939DF81E3000939DF81D3027
:1039D0009DF81C202946304602F0F4FFBC42E8D195
:1039E000164B0C221A704CB0BDE8F081184802F05A
:1039F000E9FF0B48174B40F8103BF022FF2103F082
:103A00004BF90E4B09221A70EDE703F073FA022806
:103A1000E9D1114802F078FF084B0C221A70E2E756
:103A20000000402000F0DF0000101000DC04420025
:103A30008010100014054200A80442001C0B402016
:103A40002083B8ED4C054200346C42009C054200D6
:103A5000C805420034CD12ABFC05420070B50446E7
:103A60000378013B082B73D8DFE803F005286B735C
:103A7000405F959AC00003F0E7F8002868D0624BD9
:103A80001B78002B64D1604B01221A7003F0E4F91B
:103A9000237B43B16078400000F0FE0002F0C6FFD7
:103AA0000223237054E06378A07A003818BF012005
:103AB00040EA4300C0B202F0B9FFF1E703F0CEF8EC
:103AC00050B100236372237B53B9A37A002B0CBF40
:103AD0000323072323703BE0204602F087FA37E0F8
:103AE000E07A03F0BFF90523237031E003F004F915
:103AF00050B9A38A01339BB2A382B3F57A7F27D949
:103B0000204602F073FA23E00023A38203F0A6F814
:103B100038B1607803F03AF800232373062323704A
:103B200016E0204602F062FA12E003F097F820B1A6
:103B300000236372072323700AE0204602F056FA3E
:103B400006E0437A4268D05C03F08CF904232370CA
:103B500070BD03F0D1F850B9A38A01339BB2A382A0
:103B6000B3F57A7FF4D9204602F040FAF0E700235B
:103B7000A38203F073F850B1637A0133DBB263724E
:103B8000227A9A4214BF032309232370E0E72046D8
:103B900002F02CFADCE700F0DAFC08232370D7E708
:103BA00003F0B2F850B9A38A01339BB2A382B3F5F4
:103BB0007A7FCDD9204602F019FAC9E70023A38203
:103BC000657A666803F054F97055637A0133DBB2A5
:103BD0006372227A9A4204D001F03FFF07232370D8
:103BE000B6E703F04BF909232370B1E702F0E4FDD7
:103BF00000232370A375044A13702369002BA7D0F8
:103C000000209847A4E700BF1D0B402030B583B0CB
:103C100004460378072B00F2BA80DFE803F00B04B8
:103C20000D235F788EA8062002F0B4FB0023A38248
:103C30000223237003B030BD02F0CAFB10F0020F64
:103C400004D00023A38203232370F3E7A37D013371
:103C5000DBB2A375022B4FF0010384BFE37507238A
:103C60002370E7E74378022B0DD0032B20D0012BE4
:103C70002FD1C2684168806802F05CF8E368236174
:103C800004232370D6E7C2684168806801F088F891
:103C9000E36823614FF4802502F09AFB10F0010FD6
:103CA00001D1013DF8D1062323700023A382C1E78F
:103CB0008168202002F0D2FA44F620630193019B30
:103CC0005A1E0192002BFAD1062323700023A382EF
:103CD000B0E70223C37507230370ABE70269C3682B
:103CE0009A4207D3002303708369002BA2D00120DE
:103CF00098479FE7838A01339BB2838241F28732E0
:103D0000934297D90323C3750723037092E702698F
:103D1000C3689A4204D3002383820623037089E791
:103D2000838A01339BB2838241F28732934281D9E5
:103D30000423C375072303707CE703F0A5F840B99B
:103D400000232370A369002B3FF474AF0120984730
:103D500070E7A38A01339BB2A38241F28732934278
:103D60007FF668AF0523E3750723237062E7C17D03
:103D7000084802F027FEA3690BB1002098470023F2
:103D80002361E360A382A3756370237052E700236D
:103D900003704FE7A80942002DE9F04186B00646BE
:103DA0004D6805EB450305EB8303514CA4FB03046D
:103DB000E4085048834225D94F4B00201860002A60
:103DC00050D10F68D1F80880E20E63011B1B62F12D
:103DD0000002520242EAD3525B021B1942F1000276
:103DE000910141EA93619801C01A61EB0201001947
:103DF0003DA3D3E9002341F1000102F0C5FC3F4A95
:103E00003F4B21E0002A4ED10F68D1F80880E20E26
:103E100063011B1B62F10002520242EAD3525B02B1
:103E20001B1942F10002910141EA93619801C01A05
:103E300061EB020100192CA3D3E9002341F1000139
:103E400002F0A2FC2D4A2F4B04930390029401959B
:103E5000CDF800803B4631462B4802F0B3FD06B05A
:103E6000BDE8F0810F68D1F80880E20E63011B1BEA
:103E700062F10002520242EAD3525B021B1942F184
:103E80000002910141EA93619801C01A61EB0201BD
:103E9000001915A3D3E9002341F1000102F074FCDD
:103EA0001A4A174BD0E70F68D1F80880E20E630179
:103EB0001B1B62F10002520242EAD3525B021B1941
:103EC00042F10002910141EA93619801C01A61EB4D
:103ED0000201001904A3D3E9002341F1000102F01B
:103EE00053FC0A4A074BAFE700A3E11100000000B2
:103EF000CDCCCCCCBFC62D004C0B4020480F42008F
:103F00004C0F4200440F4200540F4200400F420049
:103F100010B582B03E4802F0F7FC3E4C204602F05D
:103F2000F3FC3D4802F074FC4FF47A723B493C4884
:103F300002F06EFC3B493C4802F06AFC204602F06D
:103F4000E3FC4FF0E022D2F8FC3D43F08073C2F86E
:103F5000FC3D364B364AC3F8B02F00225A601A682F
:103F600042F001021A601B6813F0010F47D02F4B7B
:103F70005A6800230193019B632B05DC019B0133ED
:103F80000193019B632BF9DD284B5B689A423AD081
:103F9000284802F017FD284C204602F0B5FC2749BE
:103FA000274802F06FFA2749274802F06BFA2749A1
:103FB000274802F067FA2749274802F063FA2046AB
:103FC00002F0A2FC1549254802F022FC244802F028
:103FD0001FFC104802F098FC224B1968224A234B20
:103FE00000290CBF11461946214802F011FC09486E
:103FF00002F08AFC064802F087FC02B010BD1D48A2
:1040000002F082FCF9E71C4802F07EFCF5E700BFF5
:104010005C154200041042006010420000A3E11150
:10402000A4104200E0930400E8104200001000E0F9
:1040300055CEACC584114200E4114200294F420024
:1040400040124200756B4200501242007D694200EE
:1040500060124200F95E42006C124200801242007F
:10406000C41242004C0B4020D40F4200A00F42006B
:1040700010134200341142006411420008B502F0EE
:10408000A9FD524B1B78002B55D0504B5B78002B71
:1040900056D04E4B9B78002B57D04C4BDB78002BE7
:1040A00058D04A4B1B79002B59D0484B5B79002BD9
:1040B0005AD0464B9B79002B5BD0444BDB79002BCD
:1040C0005CD0424B1B7A002B5DD0404B5B7A002BBF
:1040D0005ED03E4B9B7A002B5FD03C4B1B78002B75
:1040E00060D03A4B5B78002B5ED0384B9B78002B2E
:1040F0005CD0364BDB78002B5AD0344B1B79002B2D
:1041000058D0324B5B79002B56D0304B9B79002B2B
:1041100054D02E4BDB79002B52D02C4B1B7A002B2A
:1041200050D02A4B5B7A002B4ED0284B987A00381F
:1041300018BF012037E0FEF701F9244B1870A4E7FF
:1041400001F078FF214B5870A3E701F021FE1F4BCF
:104150009870A2E700F07CFB1C4BD870A1E701F03F
:104160009DF91A4B1871A0E702F0EDFE174B58713C
:104170009FE702F0EAFE154B98719EE702F0EBFE16
:10418000124BD8719DE702F0E2FE104B18729CE7CB
:1041900002F0DFFE0D4B58729BE702F0BCFE0B4BAA
:1041A00098729AE7002008BD0020FCE70020FAE79B
:1041B0000020F8E70020F6E70020F4E70020F2E70F
:1041C0000020F0E70020EEE70020ECE7740A402032
:1041D00030B5C1B0404802F097FB404C204602F099
:1041E00093FB3F4802F090FB4FF480313D4802F0D2
:1041F000E9FB204602F088FB00F02AFB4FF48031F7
:10420000394802F0DFFB062002F0C4F84FF4803199
:10421000202002F023F802F0E5FAA8B14FF48072F2
:1042200069464FF4803001F085FD6B46002113F89C
:10423000012BFF2A0DD10131B1F5807FF7D12B4839
:1042400002F062FB012408E00446294802F05CFB0E
:1042500003E0284802F0B6FB002400F0CFFC08B3CE
:1042600000F070FB80B10234E4B21C4802F04CFB59
:10427000254603222146204802F0A4FB032C1ED130
:104280001E4802F041FB1FE00134E4B20EE0134887
:1042900002F03AFB0134E5B203222946164802F047
:1042A00091FB0CE000F04EFB0028F0D10B4802F02F
:1042B0002BFB2546032221460F4802F083FBC5F164
:1042C00003010F4802F07EFB044802F01DFB024888
:1042D00002F01AFB41B030BD5C1542006C0D42008B
:1042E000A40D4200E00D4200180E4200AC0C42004A
:1042F000680C42003C0E4200600E4200980E4200E4
:10430000D40E4200414B03B19847414B03B198474B
:10431000EFF31083B3FA83F35B09019372B6BFF333
:104320005F8F01994FF0E022D2F8883D43F470038B
:10433000C2F8883DBFF34F8FBFF36F8F11B1BFF34A
:104340005F8F62B6334B5B6913F4003F13D1BFF349
:104350004F8FBFF36F8F2F4B0022C3F85022BFF354
:104360004F8FBFF36F8F5A6942F400325A61BFF327
:104370004F8FBFF36F8F274B5B6913F4803F2BD1B7
:10438000244B0022C3F88420BFF34F8FD3F8803032
:10439000C3F3C904C3F34E334FEA431C43F6E07E34
:1043A0001C480CEA0E01234641EA8372C0F86022E1
:1043B000013BB3F1FF3FF7D1ACF1200C1CF1200F12
:1043C000EFD1BFF34F8F134A536943F480335361E6
:1043D000BFF34F8FBFF36F8F01F006FA02F0A2F91F
:1043E0000D4B23F07F030B4A93600C4B98470C4B0B
:1043F00003B198470B4B03B198470021084602F0E0
:104400006FFA094B03B19847FEE700BF00000000B8
:104410000000000000ED00E000004200ED5D420001
:104420000000000000000000000000002DE9F04F37
:104430008BB00D460493D1E901132F68D5F80C9089
:1044400003900029A8BF27F002079246B8BF0121B8
:1044500017F010020592DAE9006232D056EA020043
:104460002FD0A3F1020B2C69029617F0080004F17B
:10447000FF3418BF0BF1FF3B9046002209F80420DF
:1044800006905A46012C1EDC059A002A51D1069A44
:104490001AB1013C202209F804202A6903980097E8
:1044A000013A121B09EB040101F024FA039B5B683B
:1044B000DB0503D56B689842B8BF18460BB0BDE862
:1044C000F08F9B46CFE7029850EA080008D1A1EB95
:1044D0000B001044002803DC002AD5DDB807D3D533
:1044E0000298049E00F00F000928A6F1410CD4BFE9
:1044F00030305730BCF1190F04F1FF340ED840F0C2
:10450000200CACF1610CBCF1190F07D8CDE90813F0
:10451000079202F08EFCDDE90813079A09F80400FF
:104520000298060946EA0870013A02904FEA181804
:10453000A8E7DAE900210A43A9D009EB04020499AB
:1045400002F8011C023C302209F804209FE7704762
:1045500030B486B03E4B80221A6003F548231822FF
:10456000C3F8002E1022C3F8102E0822C3F8142E10
:10457000092019461025002442F20F72C1F8345E5A
:104580000194019B934205DC019B01330193019B44
:104590009342F9DDC1F8305E0294029B934205DC40
:1045A000029B01330293029B9342F9DDD1F83C3E1A
:1045B00013F0080F01D10138E0D1264B0822C3F8CF
:1045C000102E1021C3F8341EC3F8342E0023039399
:1045D000039A42F20F739A4206DC1A46039B013398
:1045E0000393039B9342F9DD1A4B1022C3F8302E3C
:1045F00000230493049A42F20F739A4206DC1A468F
:10460000049B01330493049B9342F9DD114B082270
:10461000C3F8302E00230593059A42F20F739A4295
:1046200006DC1A46059B01330593059B9342F9DD91
:10463000084B1822C3F8042EA3F5482380221A60E1
:1046400024221A601A6A044A1A6106B030BC704704
:104650000080014000000E40BBBB040000B5A1B0CB
:10466000384AD2ED006A384B93ED017AB7EEC77A3B
:104670008DED1E7B93ED007AB7EEC77A8DED1C7B36
:10468000324B93ED007AB7EEC77A8DED1A7B304B43
:1046900093ED007AB7EEC77A8DED187B2D4B93ED35
:1046A000087AB7EEC77A8DED167B93ED077AB7EEF1
:1046B000C77A8DED147B93ED067AB7EEC77A8DED50
:1046C000127B93ED057AB7EEC77A8DED107B93EDF3
:1046D000047AB7EEC77A8DED0E7B93ED037AB7EED1
:1046E000C77A8DED0C7B93ED027AB7EEC77A8DED2C
:1046F0000A7B93ED017AB7EEC77A8DED087B93EDD7
:10470000007AB7EEC77A8DED067B92ED037AB7EEAD
:10471000C77A8DED047B92ED027AB7EEC77A8DED04
:10472000027B92ED017AB7EEC77A8DED007BB7EE92
:10473000E67A53EC172B084802F044F921B05DF8F3
:1047400004FB00BF580A4020980A4020C80A4020B5
:10475000CC0A4020180940209C03420070B5044652
:104760000378013B052B09D8DFE803F00309143275
:104770006167407802F016FA0223237070BD436827
:1047800033B1427B985C02F0DFFA03232370F5E734
:10479000FF20F8E702F0C0FA20B10023A37304233E
:1047A0002370EBE7A37B0133DBB2A373C82BE5D9FE
:1047B000254802F0A9F8607802F0BEFA0023A3733E
:1047C00023702369002BD9D04FF0FF309847D5E7ED
:1047D00002F0AAFA90B10023A373A56825B3667B03
:1047E00002F058FBA855637B0133DBB26373227B75
:1047F0009A428CBF022305232370BFE7A37B0133BA
:10480000DBB2A373C82BB9D9104802F07DF86078E9
:1048100002F092FA0023A37323702369002BADD01A
:104820004FF0FF309847A9E702F034FBDBE7407810
:1048300002F082FA06232370A0E703690BB100207F
:1048400098470023237099E7D8094200F4094200F1
:1048500082B0384B4FF40062C3F800274FF4823225
:10486000C3F810264FF41E32C3F8042ED3F8702E6E
:1048700022F41E32C3F8702ED3F8742E22F41E32A6
:10488000C3F8742E03F580534FF00042C3F804249C
:10489000D3F8702422F00042C3F87024D3F87424B3
:1048A00022F00042C3F87424A3F5CA2380221A60C0
:1048B000214A5A604FF410521A6201221A604FF4D2
:1048C00080231E490A6912F0807F01D1013BF9D192
:1048D0001A4BAB225A6342F210029A639B6B4FF45D
:1048E000802316490A6912F4806F01D1013BF9D186
:1048F000124B4FF080721A604FF4FA730193019BD0
:104900005A1E0192002BFAD14FF0E0230722C3F880
:10491000982D4FF00042C3F89C2D094AC3F8A02DF2
