:020000040040BA
:1000000000004120770C4000750C4000670C400058
:10001000750C4000590C4000750C400000000000B9
:10002000000000000000000000000000750C40000F
:10003000750C400000000000750C4000750C40007D
:10004000750C4000750C4000750C4000750C4000AC
:10005000750C4000750C4000750C4000750C40009C
:10006000750C4000750C4000750C4000750C40008C
:10007000750C4000750C4000750C4000750C40007C
:10008000750C4000750C4000750C4000750C40006C
:10009000750C4000750C4000750C4000750C40005C
:1000A000750C4000750C4000750C4000750C40004C
:1000B000750C4000750C4000750C4000750C40003C
:1000C000750C4000750C4000750C4000750C40002C
:1000D000750C4000750C4000750C4000750C40001C
:1000E000750C4000750C4000750C4000750C40000C
:1000F000750C4000750C4000750C4000750C4000FC
:10010000750C4000750C4000750C4000750C4000EB
:10011000750C4000750C4000750C4000750C4000DB
:10012000750C4000750C4000750C4000750C4000CB
:10013000750C4000750C4000750C4000750C4000BB
:10014000750C4000750C4000750C4000750C4000AB
:10015000750C4000750C4000750C4000750C40009B
:10016000750C4000750C40008C0140201C00000004
:1001700000000000AC01402000050000000000006D
:10018000000040208C0100000100000040EA012036
:1001900040F0B440014BC3F8040C704700000E401F
:1001A0004FF480130D49D1F8082C12F0010F03D140
:1001B000013BF8D105207047084BD3F8083C13F0F9
:1001C000040F08D1054BD3F8083C13F00E0F14BFF1
:1001D0000120002070470220704700BF00000E4041
:1001E000F8B5C0F30C032BBB0546B0F5840F23D341
:1001F000A0F58006760A46F002060424072701E0EF
:10020000013C14D031463846FFF7C0FFFFF7C8FF66
:1002100003460028F4D12A68B2F1FF3FF0D105F57A
:100220008052D2F8FC2FB2F1FF3FE9D100E0012368
:100230001846F8BD0323FBE70423F9E7C0F30803DE
:10024000002B3ED1B0F5840F3DD370B582B00C4683
:1002500001F50076451A4A788B781B0443EA02239D
:100260000A781343CA7843EA02634B510431B1421E
:10027000F1D1BFF34F8FA0F58001490A0120FFF7AC
:1002800085FFFFF78DFF00230193019BB3F5FA6F04
:1002900006D2019B01330193019BB3F5FA6FF8D3AA
:1002A0006278A3781B0443EA022322781343E2789E
:1002B00043EA026362599A4207D10434B442EFD14F
:1002C00004E00320704704207047012002B070BD95
:1002D000D1B110B584468E4686444FF0FF310824D4
:1002E0000C4803E00CF1010CE64511D09CF80030FD
:1002F0005940234641F30002024082EA5101013B8A
:1003000013F0FF03F6D1EDE74FF0FF31C84370471C
:10031000C84310BD2083B8EDAC06402001000000AA
:1003200000000000B00640200001000000000000B6
:10033000A8014020040000000000000000000000B0
:1003400000000000666666666666666666666666E5
:10035000666666666666666666666666666666663D
:10036000666666666666666666666666666666662D
:10037000666666666666666666666666666666661D
:10038000666666666666666666666666666666660D
:10039000666666666666666610B5054C237833B990
:1003A000044B13B10448AFF300800123237010BD48
:1003B0008C014020000000008011400008B5034B74
:1003C0001BB103490348AFF3008008BD00000000E3
:1003D000900140208011400070B582B003244FF49A
:1003E00080154FF48036284600F014FC38B1019691
:1003F000019B5A1E0192002BFAD1013CF3D102B0AD
:1004000070BD000010B582B04FF484042168154817
:1004100000F08EFA6168144800F08AFA6368013BC4
:1004200013F1030F03D9114800F06AFAFEE7002325
:1004300001930F4A02E0019B01330193019B934218
:10044000F9D900F096FC4FF484034FF0E022C2F893
:10045000083DBFF34F8FBFF36F8F1A685B6882F35D
:1004600008881847180E4000280E4000400E400033
:100470003F0D03002DE9F84FBA4B4FF48072C3F8DB
:10048000002CBFF34F8F00F0EFFA20B1B64800F018
:1004900037FAFFF7B7FF8046B44800F031FAB44CA2
:1004A0004FF4807221464FF4801000F021FB216848
:1004B000B04800F03DFA6168AF4800F039FAA16831
:1004C000AE4800F035FA2268AD4B9A421AD1A84BDB
:1004D00059684B1EB3F5F81F19D2A54B9A68A94865
:1004E00000F076FA002840F0E880A74800F008FA0B
:1004F000FFF772FF4FF484035B68013B13F1030FB6
:100500000BD9FEE7A14800F0FBF9FFF77BFFA048FD
:1005100000F0F6F9FFF760FFF7E7FFF773FF2146FA
:100520009C4800F005FA012500F005FC9A4800F00F
:10053000E7F98F4B5C68002C7DD04FF00008DFF8A6
:1005400074A2DFF840929B4658E0394604EB0A005B
:1005500000F0CEFA00BB394604F5840000F024FE1A
:100560000546F8B904F500740136D9F80430A34201
:100570001DD91B1B1A46B3F5007F28BF4FF400722C
:10058000B3F5007FE1D2854B03F50070FF2103F83E
:10059000011F8342FBD1D8E72146814800F0C8F90A
:1005A0000125C1E721467F4800F0C2F9BCE731468A
:1005B0007D4800F0BDF94546B6E704EB08017B48ED
:1005C00000F0B6F939787A4800F0B2F9794B195D44
:1005D000794800F0ADF9664B596800293FD001F524
:1005E000840C4FF484064FF0FF300827734C29E049
:1005F00008F50078DBF8044044451CD9A4EB080654
:10060000B6F5007F28BF4FF400763246514608EB1E
:10061000090000F06DFA4445EAD0664A002408F566
:1006200084031F1912F8011B185D8842C5D10134DB
:10063000A642F6D8DCE7624800F062F9CBE7013663
:10064000B4450ED0337858403B4640F30002224078
:1006500082EA5000013B13F0FF03F6D1EFE74FF0C1
:10066000FF30C4434FF4840000F09AFD0646214653
:10067000544800F05DF93146534800F059F93C4BBD
:100680009968524800F054F91DB9394B9B68A34250
:100690000CD04F4800F034F94FF484035B68013B01
:1006A00013F1030F00D9FEE7FFF7ACFE494800F055
:1006B00027F9FFF791FEFFF7A5FE474800F020F964
:1006C000464800F01DF94FF0E0240023C4F8943DA3
:1006D000BFF34F8FBFF36F8F00F016FBD4F8143DBC
:1006E00023F44033C4F8143DBFF34F8FBFF36F8F33
:1006F000D4F8141D3A4800F01BF93A4800F000F90C
:100700004FF48071384800F013F9194B5B6841F6DB
:10071000FF751D446FF30C0529464FF4840000F06B
:100720006BF8324800F0ECF805F58405B5F5840F58
:1007300088BF4FF4840409D9204600F02DFD00281D
:100740007FF4EDAE04F50054A542F5D8284800F03A
:10075000D7F800263446DFF81890264FDFF824A09B
:1007600003E700BF00000E40600E40007C0E40001A
:10077000AC054020940E4000A40E4000B40E400092
:1007800034CD12AB001010000C114000C00E400020
:10079000E00E4000F80E4000800F4000AB0140200A
:1007A000280F4000480F4000640F40009C0F40009D
:1007B000B00F4000AC034020BC0F40002083B8EDD8
:1007C000C80F4000F80F40000C10400020104000FF
:1007D000381040005C10400078104000901040003D
:1007E000B8104000C8104000DC104000F01040007D
:1007F000100F4000AC014020F8B54518A84213D2B4
:1008000004460A4F0A4E04EA0701A1F58001490A8D
:100810000920B047074B9847034618B904F58044B0
:10082000A542F0D81846F8BD0023FBE700C0FFFF43
:1008300001004020150040204FF4801305494A690B
:1008400012F0020F02D1013BF9D17047014BD86180
:10085000704700BF008002401C4B4FF40042C3F8B9
:1008600054281B49D1F8142142F01002C1F8142178
:10087000184A4FF49841C2F810164FF40011C2F80C
:10088000041ED2F8701E21F40011C2F8701ED2F8B6
:10089000741E21F40011C2F8741E10225A601A6FDF
:1008A00042F010021A675A6F42F010025A67A3F51D
:1008B00039230C221A604FF40C625A604E221A62DD
:1008C00050221A60044B01221A70704700100E402B
:1008D0000080084000000E40AC064020074B1B780B
:1008E0005BB110B504460A2803D02046FFF7A4FFE9
:1008F00010BD0D20FFF7A0FFF7E77047AC064020C2
:1009000038B50A4B1B7883B1044603786BB10D25CB
:1009100008E02846FFF7E2FF2078FFF7DFFF14F832
:10092000013F13B10A2BF7D1F3E738BDAC064020E5
:1009300010B584B00C46FFF7E3FF30238DF8043088
:1009400078238DF805300DF105001C230B4924FA9E
:1009500003F202F00F028A5C00F8012F043B13F14E
:10096000040FF4D100238DF80E3001A8FFF7C8FF63
:100970000348FFF7C5FF04B010BD00BF28114000B9
:10098000F40F400000B583B0FFF766FF0D48FFF796
:10099000B7FF00230193019A0B4B9A4206D81A46DF
:1009A000019B01330193019B9342F9D900F06AF94D
:1009B0004FF0015319680548FFF7BAFFFFF75AFDDA
:1009C000FEE700BF3C1140003F0D030058114000FE
:1009D0002DE9F047924689B380460F4600264FF036
:1009E000FF34DFF8789014E001318D420ED910F811
:1009F000013B5C40634614F0010F14BF82EA5404CB
:100A00006408013B13F0FF03F5D1EDE72E44B74234
:100A100016D9BD1BB5F5807F28BF4FF480752A46D7
:100A2000494608EB060000F063F8A0B9B742EDD0E4
:100A30000A4800214FF0080C094AD8E74FF0FF346C
:100A4000E44321460748FFF773FF544514BF0020D5
:100A50000120BDE8F0870020FBE700BFB006402082
:100A60002083B8ED681140001D4B4FF41E32C3F8CF
:100A7000042ED3F8702E22F41E32C3F8702ED3F851
:100A8000742E22F41E32C3F8742EA3F5C8238022DC
:100A90001A60144A5A604FF400721A6201221A60F6
:100AA0004FF4001310490A6912F0807F03D1013B13
:100AB000F9D1012070474FF0E0230722C3F8982DA9
:100AC0004FF00042C3F89C2D084AC3F8A02D052220
:100AD000C3F8942DBFF34F8FBFF36F8F0020704783
:100AE00000000E401100000100C00740370008134D
:100AF00010B4144B18630B245C63134C9C639B6B06
:100B000062B194464B1E8C440CF1FF3C401A0F49D5
:100B10000144CA5C03F8012F6345FAD1094B4FF039
:100B200080721A604FF4001306490A6912F4806F4C
:100B300003D1013BF9D1012000E000205DF8044B16
:100B4000704700BF00C00740B010080001000080DF
:100B5000F0B583B003251C4C062742F210066763EC
:100B6000A663A36B4FF40013226912F4806F03D1C4
:100B7000013BF9D1012023E000208DF80700024657
:100B80000DF10701FFF7B4FF052363639023A3630F
:100B9000A36B4FF000431B78D9B24FF080732360F2
:100BA0004FF40013226912F4806F03D1013BF9D195
:100BB000012005E011F0020F04D1013DCFD1022048
:100BC00003B0F0BD0020FBE700C0074070B54FF454
:100BD000001C0F49052690254FF0004E4FF0807401
:100BE00005E010F0010012D0BCF1010C0FD04E63F3
:100BF0008D638B6B9EF80000C0B20C604FF4001345
:100C00000A6912F4806FECD1013BF9D1012070BD6B
:100C100000C0074010B50446FFF79AFFC8B96FF34C
:100C20000B040C4B1C6320225A6342F230029A637D
:100C30009A6B4FF080721A604FF4001305490A69ED
:100C400012F4806F03D1013BF9D1012001E0FFF7DD
:100C5000BDFF10BD00C007404FF48200016842682C
:100C600081F3088810474FF482000168426881F3DD
:100C700008881047FEE708B500F092F8FFF782FEFB
:100C8000FEE700001B4B1C4AC3F8002CBFF34F8F3C
:100C9000BFF36F8FD3F8083C13F0010F09D1174B46
:100CA0001449013BD1F8082C12F0010F01D1002B9F
:100CB000F7D1104B124AC3F8042CD3F8083C13F0B8
:100CC000010F09D10D4B0B49013BD1F8082C12F053
:100CD000010F01D1002BF7D10A4B4FF40042C3F8AA
:100CE0005428C3F80429A3F580534FF40062C3F8D5
:100CF0000027704700000E400001010080841E00A4
:100D00000B01005A00100E40BFF34F8FBFF36F8FDF
:100D10004FF0E023D3F8142D22F40032C3F8142D41
:100D2000D3F8142D22F48032C3F8142DBFF34F8F63
:100D3000BFF36F8F7047BFF34F8F00234FF0E02258
:100D4000C2F8503FC2F8603F43F08041C2F8601FD4
:100D500043F00041C2F8601F43F04041C2F8601FF9
:100D60002033B3F5805FEDD1BFF34F8FBFF36F8FAB
:100D700070474FF0E02300221A614FF0FF32C3F8B2
:100D80008021C3F88421C3F88821C3F88C21BFF3E4
:100D90004F8FBFF36F8F7047002070477047000080
:100DA00038B50A480A4D016821B9436813B9FFF7FD
:100DB000F5FF38BD0389426855F8233000F10C0473
:100DC0002046984704EB8000EDE700BF6801400033
:100DD000040E40000A440023914201D100207047D4
:100DE00001F8013BF8E710B50023934206D113F058
:100DF000030018BF012000EB930010BDC45CCC546D
:100E00000133F2E7D50D4000E70D4000990D400099
:100E1000990D4000990D40005B424F4F545D206A90
:100E2000756D702053503D005B424F4F545D206AFA
:100E3000756D702072657365743D000000000000E0
:100E40005B424F4F545D2061707020494E56414CBB
:100E5000494441202D3E206C6F6F700A0000000055
:100E60005B424F4F545D20717370695F696E6974A6
:100E70002046414C484F550A000000005B424F4F4E
:100E8000545D20717370695F696E6974204F4B0AFD
:100E9000000000005B424F4F545D206D6167696345
:100EA0003D0000005B424F4F545D2073697A653D01
:100EB000000000005B424F4F545D206372633D00B1
:100EC0005B424F4F545D2073656D204F5441202D80
:100ED0003E2061707020616E746967610A000000D5
:100EE0005B424F4F545D2073697A6520696E76616D
:100EF0006C69646F0A0000005B424F4F545D2045EF
:100F0000524153452046414C484F5520613D000019
:100F10005B424F4F545D2072656769616F2061705D
:100F200061676164610A00005B424F4F545D20714C
:100F30007370695F726561642046414C484F55206B
:100F40006F66663D000000005B424F4F545D2057C6
:100F5000524954452046414C484F55206E61206F00
:100F600066663D005B424F4F545D20706167696E5D
:100F700061732065736372697461733D00000000E2
:100F80005B424F4F545D20636163686520696E76F4
:100F9000616C69646164610A000000005B424F4F4C
:100FA000545D2044495645524745206F66663D00D2
:100FB0002020696E7465726E613D000020206578A6
:100FC0007465726E613D00005B424F4F545D206658
:100FD0006C61736820696E7465726E61203D3D209E
:100FE00065787465726E61202873656D206469761A
:100FF000657267290A0000005B424F4F545D204331
:101000005243206E6F726D616C3D00005B424F4F2A
:10101000545D204352432072616D66756E633D00DE
:101020005B424F4F545D204352432065737065729D
:1010300061646F3D000000005B424F4F545D2043F0
:101040004F5049412046414C484F55202D3E20618C
:10105000707020616E746967610A00005B424F4FD7
:10106000545D203D3D3D20434F504941204F4B2092
:101070003D3D3D0A000000005B424F4F545D204360
:1010800052432065787465726E61204F4B0A0000F0
:101090005B424F4F545D203D3D3D20494E49434901
:1010A0004F20434F504941202852414D46554E4311
:1010B00029203D3D3D0A00005B424F4F545D2053C7
:1010C00043425F4343523D005B424F4F545D2063B8
:1010D00061636865204F46460A0000005B424F4F3F
:1010E000545D20706167652063616C633D000000A2
:1010F0005B424F4F545D2072656769616F20646584
:1011000073626C6F7175656164610A005B424F4F79
:10111000545D204352432065787465726E612046A9
:1011200041494C0A00000000303132333435363743
:101130003839414243444546000000000A5B424FB3
:101140004F545D207465737420626F6F74207072E9
:10115000696E740A000000005B424F4F545D2072BC
:10116000616D5B305D3D00005B424F4F545D20631D
:10117000726320636F6D70757465643D00000000DC
:10118000F8B500BFF8BC08BC9E467047F8B500BF74
:10119000F8BC08BC9E4670475FF800F05500402040
:1011A0005FF800F0450140205FF800F0B1004020FA
:0811B000BD034000990340005B
:020000040042B8
:10000000F8FF4520953C42006B5742006B57420079
:100010006B5742006B5742006B57420000000000D4
:100020000000000000000000000000006B574200CC
:100030006B574200000000006B574200B56542005C
:100040006B5742006B5742006B5742006B574200A0
:100050006B5742006B5742006B5742006B57420090
:100060006B574200000000006B5742006B57420084
:100070006B574200855442006B5742006B57420059
:100080006B5742006B5742006B5742006B57420060
:100090006B5742006B5742006B5742006B57420050
:1000A0006B5742006B5742006B5742006B57420040
:1000B0006B5742006B5742006B5742006B57420030
:1000C0006B5742006B5742006B5742006B57420020
:1000D0006B5742006B5742006B5742006B57420010
:1000E0006B5742006B5742006B5742006B57420000
:1000F0006B5742006B5742006B5742006B574200F0
:100100006B5742006B5742006B5742006B574200DF
:100110006B5742006B5742000000000000000000D7
:100120006B5742006B574200096142006B57420017
:100130006B5742006B574200000000006B574200B3
:100140006B5742006B5742006B5742006B5742009F
:100150006B5742006B5742006B5742006B5742008F
:100160006B5742006B574200F8B500BFF8BC08BCA3
:100170009E467047B95A4200F8B500BFF8BC08BCAB
:100180009E467047955A4200402900000100000039
:10019000676E737300000000696D7500707265739F
:1001A000737572650000000074656D70657261742E
:1001B000757265006570730070726F70756C736F27
:1001C0007200000062617474657279000D0A544512
:1001D0004C454D3A7B226C6174223A252E34662CB4
:1001E000226C6F6E223A252E34662C22616C7422AA
:1001F0003A252E32662C22737064223A252E3266FE
:100200002C226178223A252E33662C226179223AFB
:10021000252E33662C22617A223A252E33662C2233
:100220006778223A252E33662C226779223A252ECA
:1002300033662C22677A223A252E33662C226D787B
:10024000223A252E33662C226D79223A252E3366EA
:100250002C226D7A223A252E33662C227072657319
:10026000223A252E32662C2274656D70223A252E94
:1002700032662C22766F6C74223A252E33662C223D
:1002800063757272223A252E33667D0D0A000000D6
:100290005B5345555D2046414C48412054524950DE
:1002A0004C41206E612076617220257520283078BF
:1002B0002530386C582F30782530386C582F3078EE
:1002C0002530386C582920E280942066616C6C627D
:1002D00061636B0A000000005B4F54415D2066695A
:1002E000726D776172655F73697A6520696E766198
:1002F0006C69646F2028256C752920E28094206148
:100300002061626F727461720A0000005B4F544199
:100310005D2046575B305D3A20253032582025302D
:10032000325820253032582025303258202530329E
:100330005820253032582025303258202530325868
:100340000A0000005B4F54415D2046575B31323854
:100350005D3A202530325820253032582025303261
:100360005820253032582025303258202530325838
:10037000202530325820253032580A005B4445424F
:1003800055475D204120636F6D7061726172206F0F
:1003900073207072696D6569726F732034206279A1
:1003A00074657320646F20636F6D7075746564206D
:1003B0004352433A202530325820253032582025E8
:1003C00030325820253032580A0000005B4F54412B
:1003D0005D20466C6173685B30782530356C585D04
:1003E0003A202530325820253032582025303258D6
:1003F00020253032580A00005B4F54415D204352A3
:1004000043204F4B202830782530386C582920E283
:1004100080942061206573637265766572206D65D6
:1004200074616461646F730A000000005B4F5441A3
:100430005D204552524F206E6F20657261736520BA
:10044000646F73206D6574616461646F7300000094
:100450005B4F54415D205352313D30782530325846
:1004600020E280942061206C696D70617220777247
:100470006974652D70726F74656374696F6E2E2E6A
:100480002E0A00005B4F54415D20535231206170B1
:100490006F7320575253523D30782530325820E246
:1004A000809420496E6963696F204F54410A0000AF
:1004B0005B4F54415D20496E6963696F20E280940F
:1004C00020612061706167617220736563746F726F
:1004D000206465206D6574616461746100000000D2
:1004E0005B4F54415D20574149545F45524153454C
:1004F0002023256C7520616464723D3078256C582A
:10050000207374617475733D25640A005B4F544118
:100510005D204D6574616461746120617061676123
:10052000646120E2809420612061706167617220C3
:10053000736563746F72206677203078256C580A73
:10054000000000005B4F54415D20457261736520DF
:100550006E616F20636F6E6669726D61646F20619A
:100560006464723D3078256C582076616C3D30783B
:100570002530325820E280942061206167756172D5
:100580006461720A000000005B4F54415D204572B7
:10059000617365204F4B20636F6E6669726D616495
:1005A0006F20E280942061206167756172646172DE
:1005B000207061636F746573000000005B4F5441ED
:1005C0005D204552524F206E6F2065726173652029
:1005D00028616464723D3078256C58290A00000057
:1005E0005B4F54415D20574149545F504B5420E2CA
:1005F00080942072656164793D2564206279746518
:10060000735F7772697474656E3D256C750A0000BE
:100610005B4F54415D2054696D656F7574202825CA
:100620006C75206D732920C3A0206573706572619D
:10063000206465207061636F74657320E28094208C
:1006400073657373616F204F5441206162616E6402
:100650006F6E6164612070656C6F206261636B65B1
:100660006E642E20412061626F727461722E0A00E6
:100670005B4F54415D2046696D2064612074726156
:100680006E73666572656E6369613A20256C7520CC
:1006900062797465732C204352433D30782530389D
:1006A0006C582C2076256C750A0000005B4F544175
:1006B0005D20417669736F3A205061636F746520E5
:1006C00066616E7461736D6120286C656E3D3029C2
:1006D0002069676E6F7261646F2E00005B4F54413A
:1006E0005D204552524F206E6F2065726173652008
:1006F000646F20736563746F72206465206669722D
:100700006D776172650000005B4F54415D2045527A
:10071000524F206E61206573637269746120646F4B
:10072000207061636F7465207365713D25750A00E3
:100730005B4F54415D204D6574616461646F73204B
:100740006772617661646F732E2041207265696EF5
:1007500069636961722E2E2E000000005B4F5441C8
:100760005D204552524F206E61206573637269743B
:100770006120646F73206D6574616461646F7300E0
:100780005B4F54415D2041626F727461646F2070F1
:100790006F72206572726F2E20566F6C74616E647A
:1007A0006F20616F206D6F646F20636F6D756E6970
:1007B000636163616F2E0000627573207265636F01
:1007C0007665727920666F7220616464723D30785C
:1007D000253032580A0000000D0A5B515350492061
:1007E0004452495645525D2046534D2061626F7216
:1007F000746F7521206572726F725F636F6465201C
:100800003D2025750A0000005B5350495D2045528C
:10081000524F523A2054582054696D656F757421B7
:10082000000000005B5350495D204552524F523A40
:100830002052582054696D656F75742100000000C6
:10084000707265737375726520646F6E6520737462
:10085000617475733A2025640000000066696E615A
:100860006C2074656D703A20256600005B5454431B
:100870005D2053796E632074696D656F75742028EF
:1008800025752062797465732920E28094206D6F4C
:10089000646F206E6F726D616C2064697265637441
:1008A0006F0A00005B5454435D2053796E63204F00
:1008B0004B20E28094206120656E7669617220523F
:1008C00045414459000000005B4F54412052585D9F
:1008D0002073796E6320696E76616C69646F3A206B
:1008E0003078253034582028657370657261646FE4
:1008F00020307825303458290A0000005B4F5441DD
:100900002052585D20454E44206D61726B65722007
:10091000E280942073697A653D256C75206372636B
:100920003D30782530386C580A0000005B4F544148
:100930002052585D20706B74207365713D257520C1
:100940006C656E3D25752072656164793D25750A7B
:10095000000000005B4F54412052585D2044726FEC
:1009600070207365713D25752028466C6173682081
:1009700062757379290A0000726573756C7420744E
:10098000746320256400000070617273653A203042
:10099000782530325820307825303258203078256C
:1009A000303258203078253032580A005B54544396
:1009B0005D2053544152545F4F544120726563652A
:1009C0006269646F20E280942061207072657061BA
:1009D000726172206D656D6F7269612E2E2E00003E
:1009E000636D643320E28094204F5441206D6F6426
:1009F00065204F46460000000D0A202020202020C0
:100A00002D3E205B44454255475D2054494D454F9E
:100A100055542120537461747573205265672062A8
:100A20006C6F71756561646F20656D3A2030782553
:100A3000303258200000000020205B54325D2045F9
:100A40007363726974612070616472616F203078C1
:100A500041352F30783541202E2E2E200000000009
:100A600054494D454F5554205B4641494C5D0D005E
:100A70000D0A20205B54325D202020627974655B72
:100A8000256C755D3A206573637269746F3D3078CB
:100A900025303258206C69646F3D307825303258EB
:100AA000000000004F4B205B504153535D0D000090
:100AB0000D0A20205B54325D20256C752065727212
:100AC0006F73205B4641494C5D0D0A0020205B544A
:100AD000335D2045726173652054494D454F55542F
:100AE000205B4641494C5D0D0000000020205B5416
:100AF000335D204573637269746120636F6E746146
:100B0000646F7220307830302E2E30784646202E9A
:100B10002E2E20000D0A20205B54335D2020206201
:100B20007974655B256C755D3A20657363726974D1
:100B30006F3D307825303258206C69646F3D3078D5
:100B400025303258000000000D0A20205B54335D30
:100B500020256C75206572726F73205B4641494C8D
:100B60005D0D0A0020202B2D2D2D2D2D2D2D2D2D11
:100B70002D2D2D2D2D2D2D2D2D2D2D2D2D2D2D2DA5
:100B80002D2D2D2D2D2D2D2D2D2D2D2D2D2D2D2D95
:100B90002D2D2D2D2D2D2D2D2D2B0D0020207C20AC
:100BA00020544553544520515350493A205332352F
:100BB000464C3131364B20E28094204C4549545507
:100BC0005241202F20455343524954412020202098
:100BD0002020207C0D00000020207C202053656315
:100BE000746F722064652074657374653A20307880
:100BF0002530366C5820202872656769616F206C3B
:100C00006F67732920202020202020207C0D0A00DF
:100C100020205B54315D20457261736520736563EC
:100C2000746F722030782530366C58202E2E2E208E
:100C300000000000627974655B256C755D3D30785D
:100C40002530325820213D2030784646205B4641F1
:100C5000494C5D0D0A00000020207C202052657365
:100C6000756C7461646F3A2025752F257520746545
:100C70007374657320706173736172616D202020DD
:100C80002020202020202020202020207C0D0A0051
:100C900020207C202051535049204F4B20E280944B
:100CA00020666C617368206F7065726163696F6E36
:100CB000616C2020202020202020202020205B503C
:100CC0004153535D20207C0D0000000020207C203B
:100CD0002046414C484120656D2025752074657380
:100CE000746528732920E2809420766572696669AC
:100CF0006361722068772020205B4641494C5D206B
:100D0000207C0D0A000000000A203D3D3D204F429E
:100D10004320424F4F54203D3D3D204657205465CF
:100D2000737465414F4E6F766F00000062657461A9
:100D300020312E31303000004F4646004F4B00002E
:100D40004F4E000056494F4C410000007C20252D9D
:100D5000313973207C20252D3373207C2025376C7E
:100D600075207C2025376C75207C2025396C7520FA
:100D70007C2025376C75207C2025366C75207C20E6
:100D8000252D3673207C0D0A000000007C20252DC7
:100D9000383573207C0D0A004F4B202D20746F6472
:100DA00061732061732066756E636F657320637570
:100DB0006D7072656D206F20646561646C696E652D
:100DC0002064652031206D730000000046414C48CE
:100DD00041202D2070656C6F206D656E6F732075DE
:100DE0006D612066756E63616F2076696F6C61203E
:100DF0006F20646561646C696E6500002B2D2D2D7C
:100E00002D2D2D2D2D2D2D2D2D2D2D2D2D2D2D2D12
:100E10002D2D2D2D2D2D2D2D2D2D2D2D2D2D2D2D02
:100E20002D2D2D2D2D2D2D2D2D2D2D2D2D2D2D2DF2
:100E30002D2D2D2D2D2D2D2D2D2D2D2D2D2D2D2DE2
:100E40002D2D2D2D2D2D2D2D2D2D2D2D2D2D2D2DD2
:100E50002D2D2D2D2B0D00002020202020202020A6
:100E60002020202020202020544553544520574343
:100E70004554202D20576F7273742D436173652084
:100E8000457865637574696F6E2054696D652028B7
:100E90004457542F435943434E5429004D43553A28
:100EA00020415453414D5637315132312028436F40
:100EB000727465782D4D3729204020256C752048A7
:100EC0007A20207C20202575206578656375636F06
:100ED000657320706F722066756E63616F0000002D
:100EE000446561646C696E6520646F20737570651C
:100EF000722D6C6F6F703A2031206D73203D20256C
:100F00006C75206369636C6F7320207C20204D61B9
:100F10007267656D206465207365677572616E63C5
:100F2000613A202B33302525000000002020455257
:100F3000524F3A204457545F435943434E54206E16
:100F4000616F20646973706F6E6976656C206E6581
:100F500073746520636F72652E0D0000202045526A
:100F6000524F3A204457545F435943434E54206EE6
:100F7000616F206176616E63612E0D007C20467585
:100F80006E63616F20202020202020202020202040
:100F900020207C20495251207C20202020206D6977
:100FA0006E207C2020206D65646961207C204D418D
:100FB00058285743455429207C202020202B3330AB
:100FC0002525207C207573282A2920207C20457324
:100FD0007461646F207C0D0A000000002B2D2D2D04
:100FE0002D2D2D2D2D2D2D2D2D2D2D2D2D2D2D2D31
:100FF0002D2D2B2D2D2D2D2D2B2D2D2D2D2D2D2D25
:101000002D2D2B2D2D2D2D2D2D2D2D2D2B2D2D2D14
:101010002D2D2D2D2D2D2D2D2B2D2D2D2D2D2D2D02
:101020002D2D2B2D2D2D2D2D2D2D2D2B2D2D2D2DF4
:101030002D2D2D2D2B0D000073656E736F72735F58
:101040007469636B28290000737461746543686573
:10105000636B2829000000007365755F7363727508
:10106000622829006D697373696F6E5F6C696665CC
:101070006379636C6528290056616C6F7265732013
:10108000656D206369636C6F732064652043505500
:101090002E20282A29207573203D20284D41582BC9
:1010A000333025252920636F6E7665727469646F0D
:1010B000206120256C7520487A2E0000495251206D
:1010C0004F4646203D2057434554207075726F208F
:1010D00064612066756E63616F3B20495251204FF9
:1010E0004E203D20696E636C756920696E7465726F
:1010F000666572656E63696120646F20537973540D
:1011000069636B2E00000000524553554C54414416
:101110004F20474C4F42414C3A20257300000000BD
:101120005B5345552D444154415D2073656D2073DB
:101130006C6F7473207061726120272573270D0A0C
:10114000000000005B5345552D444154415D207320
:10115000656D2065737061636F2064652062616EE8
:10116000636F207061726120272573272028257501
:101170002042290D0A0000005B5345552D4441547F
:10118000415D2046414C484120545249504C412039
:10119000656D20272573275B25755D20E2809420EF
:1011A00061646F707461646F20756C74696D6F2019
:1011B000636F6D6D69740D0A000000005041535358
:1011C000000000007C20252D3473207C20252D3547
:1011D0003873207C20252D3473207C0D0A000000FC
:1011E0004641494C000000002D2070726F74656309
:1011F000616F20544D52206F7065726163696F6E2C
:10120000616C00002D204154454E43414F3A206609
:10121000616C6861730000002B2D2D2D2D2D2D2D5F
:101220002D2D2D2D2D2D2D2D2D2D2D2D2D2D2D2DEE
:101230002D2D2D2D2D2D2D2D2D2D2D2D2D2D2D2DDE
:101240002D2D2D2D2D2D2D2D2D2D2D2D2D2D2D2DCE
:101250002D2D2D2D2D2D2D2D2D2D2D2D2D2D2D2DBE
:101260002D2D2D2B0D0000007C2020202020202063
:1012700020544553544520534555202D20496E6A2E
:101280006563616F2064652066616C686173206EC0
:101290006F20544D522064617320657374727574AD
:1012A0007572617320676C6F626169732020202002
:1012B0002020207C0D0000007C20202020202020E9
:1012C000204D6F64756C6F3A207365755F6461744F
:1012D000612028766F746163616F20322D64652D03
:1012E000332C20627974652061206279746529202D
:1012F00020202020202020202020202020202020EE
:101300002020207C0D0000002B2D2D2D2D2D2D2B90
:101310002D2D2D2D2D2D2D2D2D2D2D2D2D2D2D2DFD
:101320002D2D2D2D2D2D2D2D2D2D2D2D2D2D2D2DED
:101330002D2D2D2D2D2D2D2D2D2D2D2D2D2D2D2DDD
:101340002D2D2D2D2D2D2D2D2D2D2D2D2B2D2D2DCF
:101350002D2D2D2B0D0000007C2049442020207CC9
:101360002043656E6172696F20202020202020209C
:10137000202020202020202020202020202020206D
:10138000202020202020202020202020202020205D
:101390002020202020202020202020207C2052657A
:1013A000732E207C0D0000005570736574206E61F3
:1013B00020636F706961206C6976653A2072657090
:1013C000617261646F20706F72206D61696F726904
:1013D0006120422F43000000543100004269742D07
:1013E000666C697020656D20696D752E61783A2094
:1013F000726570617261646F20706F72206D6169D7
:101400006F72696120422F430000000054320000D7
:101410005570736574206E6120736861646F772006
:1014200042206465206570733A2072657061726154
:10143000646F2C206C69766520696E7461637461D9
:10144000000000005433000055707365742064750B
:10145000706C6F20646976657267656E74653A209A
:1014600064657465637461646F206520657374617D
:10147000646F2072652D636F6572656E7465000020
:101480005434000045736372697461206C65676948
:1014900074696D61202B20636F6D6D69743A2073E0
:1014A00063727562206E616F20616C746572612079
:1014B0006461646F7300000054350000457374610B
:1014C00074697374696361733A20256C752062795D
:1014D00074657320636F7272696769646F732C201F
:1014E000256C752066616C68617320747269706C1C
:1014F00061732C20256C7520736372756273000014
:101500007C20252D373273207C0D0A00524553551F
:101510004C5441444F20474C4F42414C3A202564A3
:101520002F256420504153532025730010B582B0FD
:1015300003F0C2F9A54B1B780C2B00F20882DFE800
:1015400013F00D0006023E00A8008901A501B801B4
:101550000602D201D501E001F501FB019C4B1B689D
:10156000002B00F0A18105F0EDF8002840F09C81EF
:1015700004F06AFB0146974804F04CFE03F018FFA4
:1015800004F062FB0146944804F044FE934804F0E2
:10159000E3FD934B00221A60924B934A1A604FF47A
:1015A0008072FF21914804F09DFF4FF48010904B12
:1015B000186004F0BDFD854B02221A7074E105F03D
:1015C000C1F804468B4B196841B18B4AA2FB01322A
:1015D000120B41F2883303FB12122AB92346844AC4
:1015E0001268864804F016FE824A136801331360BD
:1015F000002C42D1134600221A607D4B1868B0F5CA
:10160000801F11D07E4B984240F24E81012201A9E9
:1016100003F0CAFF9DF80420FF2A25D0744B1968F7
:10162000784804F0F7FD3FE16D4B1B68002B40F05C
:101630003B816D49744804F0EDFD00230193019A4C
:10164000724B9A4206DC1A46019B01330193019BBF
:101650009342F9DD6448664B186004F069FD614B04
:101660004FF481121A601FE1694804F075FD04F01F
:10167000CDF9564B03221A7016E1022C40F014816A
:101680005B4B1968634804F0C5FD504B0C221A707F
:101690000AE1614B1B68002B34D0604B1B6801339F
:1016A0005A4A934233D85D4A136005F033F8002854
:1016B00039D00023584A1360584A136005F030F8B7
:1016C000574C208005F032F8564B188022884FF690
:1016D000FF739A423DD0002871D0424B186842F205
:1016E00020031344B0EBC31F00F2A680404B1860E8
:1016F00000F580523B4B1A6004F01AFD334B042274
:101700001A70D1E005F000F8434B1860C5E7434B71
:1017100000221A6004F0FEFF0146314B1A6842486D
:1017200004F078FDC1E704F0EFFF3B4B1B68C01AE3
:1017300043F69723984240F2B78043F698213B48FE
:1017400004F068FD344B00221A60204B0C221A7002
:10175000AAE005F00DF8254C027843781B0443EA13
:101760000263C2781343827843EA022363600279FA
:1017700043791B0443EA0263C2791343827943EA43
:101780000223A360027A437A1B0443EA0263C27A0B
:101790001343827A43EA0223E36004F0CDFFE36857
:1017A000A2686168224804F035FD4FF48010104BA8
:1017B000186004F0BDFC054B08221A7074E01D4847
:1017C00004F0CAFC04F0B8FF6EE000BFF909402045
:1017D000A40940205004420084044200B0044200A6
:1017E000C0094020C4094020001010000000402023
:1017F000C8094020BC0940205917B7D1E004420075
:10180000FF0F1000440542000C0542009F860100B6
:1018100088054200BC054200B8094020B4094020B8
:101820003209402016054020E00542001006420023
:1018300070064200AC06420004F09AFF0146464B97
:101840001A88464804F0EEFD04F076FF444B05226A
:101850001A7029E004F076FF68B904F089FF0146A8
:101860003D4B1A883D4804F0DDFD04F065FF3C4B1C
:1018700005221A7018E004F065FF022814D13948D7
:1018800004F06AFC364B0C221A700DE0364B1B88B4
:1018900042F220001844304B1A883049C00104F04D
:1018A00029F82F4B06221A70022002F08BFD02B09D
:1018B00010BD04F047FF48B92C4A274B1B8811681C
:1018C0000B441360264B03221A70EDE704F03AFF35
:1018D0000228E9D1244B1988254804F09BFC204BB1
:1018E0000C221A70E0E701F097FCDDE74FF48072FC
:1018F00020494FF4801003F0FDFF194B0A221A70A3
:10190000D2E704F01FFF30B91B4804F025FC144B4C
:101910000B221A70C8E704F015FF0228C4D117483B
:1019200004F01AFC0E4B0C221A70BDE7144B002277
:101930001A6004F06BFDB7E70023114A1360084AF0
:10194000137004F007FD0F4804F006FCACE7044BED
:1019500000221A70A8E700BF160540201805402095
:10196000F9094020DC06420032094020C00940202D
:101970000807420000004020300742005C07420098
:10198000A4094020800742002DE9F04F2DED0A8B7D
:1019900092ED008B8DB01E46B5EEC08B0B69D1F871
:1019A00008A0CC680590F1EE10FAD1E9009B0693EF
:1019B00007D419F0040F30D119F008052FD02023D7
:1019C00002E02D23B1EE488B23700AF1FF3201258E
:1019D00018EE903A18EE100A23F00041BC4B4FF07D
:1019E0000008994208BF40451BD1413E192E94BFC3
:1019F000B849B949601904F0ABFEB74804F01EFDC0
:101A0000CDF80090024653460598214603F0ACFB02
:101A10000DB0BDEC0A8BBDE8F08F2B23D4E7524606
:101A2000D6E780458B41A6F14103039308D2192BD9
:101A300094BFAA49AA49601904F08AFEA848DDE7C4
:101A400030216155B5EE408B0399B7EE009B192903
:101A500005F101038CBF78215821F1EE10FAE15411
:101A600005F10205A2F1020240F0EC80B0EE49BBA4
:101A7000B0EE48CBBBF1000F9FED8FABACBF5B4628
:101A80001823591C002700BF8CEE0B0BCDE9073142
:101A9000049202F0CDFFBBF1000F00EE4BCBDDE96D
:101AA00007312BEE0ABB049A07F1010704DAB5EE01
:101AB00040CBF1EE10FA02D08F42E5D15F1CB2EEBE
:101AC000007B2BEE077BB4EEC7CBF1EE10FA00F1F2
:101AD000DC80B4EE47CBF1EE10FA09D1BDEEC00BBD
:101AE0009FED776B10EE103A13F0010F06FE077BA7
:101AF00038EE078B18EE903A18EE10CA744923F0AE
:101B000000400023884208BF9C453FF46EAF069911
:101B10000539A942079140F21481794208912E4675
:101B2000AE461F46049300BF88EE090BCDE90A2399
:101B3000CDF824E002F07CFFFDEEC07BDDE909E298
:101B4000B0EE40BB17EE900A0B9B002840F0A0803F
:101B5000002B00F09D80013708990BEE498B013B6B
:101B60008B4229EE0A9B03D007998E42B646DBD3FF
:101B7000049BCBB9002F40F3E580BBF1000F40F38D
:101B8000E18019F0010F40F0DD80A3192E211970BA
:101B9000B9192144302000BF03F8010F8B42FBD15B
:101BA0003E44FF4301363A44069B0021A019013B05
:101BB00088450170B8BFC8F10008E1544FF0010733
:101BC000B8BF01214FF00A0B03F1FF3CB8F1000F41
:101BD00040F0A580012F00F0A28000290CBF2B212E
:101BE0002D2104F80C100399023B192904EB030181
:101BF0008CBF4FF0700C4FF0500C9E4281F800C02B
:101C000003DA039204F0A4FD039A09F00303022B04
:101C100011D11744033F002F0DDD204604F00EFCC8
:101C2000E319A84280F289803A463021601904F015
:101C300059FC4FF0000A2046E0E600BF08F1010819
:101C4000B0EE479B39EE097BB4EEC78BF1EE10FA8C
:101C5000F4D5B6EE007B9FED1C6B00BFB4EEC98BD4
:101C6000F1EE10FA7FF502AF29EE075BB5EE405BAF
:101C7000F1EE10FA08BF29EE069B08F1FF3808BF05
:101C800028EE068B29EE079BE8E79FED0D7B2FE7FB
:101C9000049941B93BB14FF02E0C012104F80EC05C
:101CA0000136013A0491E11904EB060C31444FF07E
:101CB000300E19E0AFF30080000000000000B03FDC
:101CC0000000000000000000000000000000504381
:101CD0000000F07FE4624200E8624200EC624200F1
:101CE000F06242000CF801EB8C45FBD1F119D71BD7
:101CF000039A0928D4BF30305730192A0AD840F047
:101D00002002613A192A05D8CDE9093104F0BFFC57
:101D1000DDE909317A1E60544E1C00271CE763463A
:101D200098FBFBFE0EEB8E0CA8EB4C0C0CF1300C70
:101D300004F803C0F046013F46E7225C1A5401381C
:101D40006FE72E4619F0100F3FF42EAF2E23A35548
:101D5000013629E7012070472DE9F04F2DED0A8B60
:101D600092ED009B8FB0B5EEC09B05938B680493FA
:101D7000F1EE10FA0B69CD680690D1E900A78B4609
:101D8000089308D41AF0040F34D11AF0080303930F
:101D900032D0202302E02D23B1EE499B2B70049B0F
:101DA00003F1FF390123039319EE903A19EE101A4B
:101DB00023F00042C04B00249A4208BFA1421ED12A
:101DC000059B0398413B192B94BFBC49BC4928444F
:101DD00004F0BEFC284604F031FB049BCDF800A0C3
:101DE00002462946069803F0BFF90FB0BDEC0A8BF6
:101DF000BDE8F08F2B23D1E7DDF81090D4E78C42BB
:101E0000934108D2059B0398413B192B94BFAD49E0
:101E1000AD492844DCE7B5EE409BF1EE10FAB2EE96
:101E200004CBB7EE00AB40F0C080059804F028FC6E
:101E3000002FC0B2C0F26281672840F0D580002F29
:101E400008BF0127231DC0F2D180BC4280F2CE80A2
:101E5000002C4FF066080CDAB8F1660F07F10107A5
:101E600007D1002C02DAB7EE00AB0024672800D0BF
:101E700027440023B0EE4A8BB0EE49BB8BEE080B33
:101E80000993079002F0D4FD099B90EE08BB013343
:101E90009F420798B1EE4BBB88EE0C8BEED1B1EEB2
:101EA000047B28EE078BB4EECB8BF1EE10FA00F337
:101EB000A080B4EE4B8BF1EE10FA09D1BDEEC00B51
:101EC0009FED796B10EE103A13F0010F06FE088BB0
:101ED00039EE088B2AEE0C9BB4EEC89BF1EE10FA9B
:101EE00000F28A80B8F1660F04F1010440F08680A8
:101EF00001372146CB1B0022039F0A9316460A9BFB
:101F0000994240F0A5803346002E00F0DF80E819AA
:101F10000022B8F1650F027029D1089B013B944261
:101F2000EA54BCBF644201224FF0020B4FF00A0E8C
:101F3000591E002C40F0D180BBF1000F00F3CD8082
:101F4000002A0CBF2B222D226A54059A023B413AEB
:101F5000192A05EB030198BF4FF045089F4281F80D
:101F6000008001DA04F0F4FBCB44ABF104090AF081
:101F70000303022B7FF42EAFB9F1000F7FF72AAFD6
:101F8000284604F05BFA05EB0903039A824240F30A
:101F9000B18003984A463021284404F0A3FA002374
:101FA000049317E70134B0EE47AB2AEE0C7BB4EE96
:101FB000C79BF1EE10FAF5D59FED3D7B00230BE0BA
:101FC00014F5967F05DA23B929EE079B2AEE07ABB5
:101FD0000123013C8AEE0CABB4EECA9BF1EE10FA81
:101FE000EED422E706272DE7804635E74FF0650857
:101FF0003FE79FED2D8B6BE7B0EE4A9BB8F1650F85
:1020000014BF2146002175E74EB9002907DA079E63
:102010002E23AB550123013709F1FF391E46AB18BA
:1020200005EB070C3B444FF0300E01E00CF801EBE0
:102030009C45FBD1099B02EB070C3033A9EB020254
:1020400002F1FF3905F80C300CF10107002223E002
:10205000DBF810300797053BBB427FF654AF88EEA4
:10206000090BCDE90C200B9102F0E2FCFDEEC07BE8
:10207000DDE90B1217EE90CA6346092BA8BF0923AE
:1020800009930AF0100353EA0C0C0D98BCD1672891
:10209000BAD10029B8DA013299EE008B0139B1EEDC
:1020A000488B89EE0C9B2AE700000000000000002E
:1020B00000000000000050430000F07FE462420096
:1020C000E8624200EC624200F06242001AF0100F37
:1020D0001EBF2E23EB55013719E70B4694FBFEFC80
:1020E0000CEB8C01A4EB41013031E95464460BF157
:1020F000FF3B1DE72A5C1A54013846E767283FF486
:1021000071AF80460627A7E62C0840201C0000007F
:1021100000000000640940200B00000000000000E7
:10212000060A4020020000000100000088130000A1
:10213000A00940200C000000000000006F094020B2
:1021400001000000000000007909402001000000AB
:102150000000000085094020010000000000000090
:10216000280A402004000000010000000000C842CE
:10217000F80840201400000000000000180640206D
:102180005000000000000000880940200800000006
:1021900000000000AC094020080000000000000022
:1021A00008084020240000000000000048094020EA
:1021B000100000000000000090094020080000000E
:1021C00000000000F80940200100000000000000AD
:1021D000080740200001000000000000B409402072
:1021E0000C00000000000000160540200200000066
:1021F0000000000032094020020000000000000042
:102200001805402080000000000000000000402071
:102210000001000000000000C00940200C00000088
:1022200000000000F909402001000000000000004B
:10223000CC0940200400000000000000FA09402002
:1022400002000000000000004609402002000000DB
:1022500000000000EE094020020000000000000025
:10226000000140200001000000000000FC094020A7
:102270000100000000000000D00940200400000020
:1022800000000000F40940200200000000000000EF
:1022900080084020180000000000000020094020B5
:1022A0001200000000000000980840201800000004
:1022B000000000003409402012000000000000006F
:1022C000B00840201800000000000000F009402085
:1022D0000200000000000000C808402018000000B4
:1022E000000000007009402009000000000000000C
:1022F0007C09402009000000000000000C0940207B
:102300001400000000000000EC0940200200000062
:1023100000000000E008402018000000000000005D
:10232000980540208000000000000000F2094020D5
:1023300002000000000000007A09402002000000B6
:1023400000000000FD094020030000000000000024
:10235000860940200200000000000000000A402022
:102360000100000000000000050A402001000000FC
:102370000100000004000000010A402002000000EB
:1023800000000000D409402004000000000000000C
:10239000680640205000000000000000900440202B
:1023A0008600000000000000480840201C000000DB
:1023B00000000000030A40200100000000000000AF
:1023C000640840201C000000000000002C0A40208F
:1023D0000400000001000000010000005809402036
:1023E0000C00000000000000F60940200200000080
:1023F00000000000040A402001000000000000006E
:102400000004402090000000000000000002402076
:102410000002000000000000D80940200C0000006D
:1024200000000000B806402050000000000000003E
:10243000E40940200800000000000000080A4020D5
:102440002000000001000000010000000300000067
:10245000000000000000000000000000000000007C
:102460000000000098094020980940200800000062
:1024700000000000000000000000000066666666C4
:1024800066666666666666662DE9F047AEB0074624
:10249000164605914FF00008059D2B78002B00F0A3
:1024A000E08000244FF0FF33CDE909430EAB0C93DD
:1024B00080230B940D932B5D0BB1252B30D134B1C0
:1024C000294622463846254403F0FAFB0595059B2C
:1024D0001A78252A40F0BC8003F10109CDF8149048
:1024E0004A46002113782B2B104602F1010223D01B
:1024F0002ED8202B24D0232B26D001B105902A2BB7
:102500002ED003F01BFA059A0B90002011460132E1
:102510000B78303B092B79D9002830D005912EE07B
:102520000134C8E7099B43F0010309930121D9E76E
:10253000099B43F00203F8E7099B43F00403F4E727
:10254000099B43F00803F0E7099B43F01003ECE715
:102550002D2BE7D0302BEBD00029D2D00590D0E73F
:1025600033681A1D1B6832600130002B05900B93F5
:1025700005DA099A5B4282F0010209920B93099BEA
:10258000DA0744BF23F002030993059B1A782E2A29
:102590000FD14FF0000ACDF828A05A785D1C2A2AE6
:1025A000059535D10233059333681A1D1B683260D7
:1025B0000A9305A803F0A0FC059D0390287804F079
:1025C0005FF82528039900F0DA806138172800F2B7
:1025D000E080172800F2DD80DFE810F02B00DB0040
:1025E000B6004700A700A700A700DB004700DB00FC
:1025F000DB00DB00DB009E0065008300DB00DB000E
:10260000C700DB005600DB00DB00740001207DE723
:10261000284603F093F953460A90294601350A7873
:10262000303A092A03D9002BC3D00591C1E7012311
:10263000F3E7324606A803F03DFD002872D06B1C7C
:10264000059306AA2B7809A93846FFF79DF904449B
:102650004444A04540F3A780544B4F221A604FF0EA
:10266000FF3840462EB0BDE8F0873346012206A869
:1026700002F0C0F8002855D0013506AA09A938464D
:10268000059502F081FBE2E73346002206A802F03E
:10269000B1F8002846D0013506AA09A938460595A3
:1026A00003F038F8D3E73346002206A802F0A2F878
:1026B000002837D0013506AA09A93846059502F049
:1026C000CDFDC4E73346002206A802F093F848B3D4
:1026D0006B1C05932B7806AA09A9384601F06EFBFE
:1026E000B5E733460022F02106A802F083F8C8B10E
:1026F000DDE906320135134305950BD12C4803F073
:102700009DFE099B00932A490B9B0246384602F026
:102710002BFD9CE77823DEE7334608EB040206A88E
:1027200002F00EFE0135059592E7324606A803F049
:10273000C1FC0028F6D06B1C059306AA2B7809A9CA
:102740003846FFF709FB82E78029EBD13368013572
:102750001A1D1B6832608DF818300595012306AAF2
:1027600009A9384602F0AAFF71E78029DAD1326858
:10277000131D33600135126805950023F0E78029A9
:10278000D0D1099B009301350B9B05950949012286
:10279000BCE700234FF0FF32CDF8149009930B9360
:1027A0000A920093F2E7A04676E600BFE8094020CF
:1027B000DC624200E2624200F0B52DED028B97B080
:1027C0009E4803F0C9FC9E4C204603F0C5FC9D4882
:1027D00003F0C2FC9C4803F0BFFC204603F0BCFCA5
:1027E00002F06AF803F0C8FF03F024FF974C20467C
:1027F00003F0B2FC964803F0AFFC204603F0ACFCBB
:10280000944C9FED958A84ED008A02F0D9FF934B9A
:10281000236001F049FED4ED007A77EEC87AF5EE38
:10282000C07AF1EE10FA48BFF1EE677A9FED8C7A2C
:10283000F4EEC77AF1EE10FA4CBF0122002289496A
:10284000894803F005F9894C9FED898A84ED008A57
:1028500002F0B6FF637883F01003637001F024FE8A
:10286000D4ED007A77EEC87AF5EEC07AF1EE10FA80
:1028700048BFF1EE677A9FED7A7AF4EEC77AF1EE0F
:1028800010FA4CBF012200227A497B4803F0E0F89D
:102890007A4D0121284602F0C1FD0446784B2B6099
:1028A00002F08EFF95ED008A002C00F0B1802378B5
:1028B000DB43DBB2237001F0F7FD704BD3ED007A00
:1028C00077EEC87AF5EEC07AF1EE10FA48BFF1EE75
:1028D000677A9FED637AF4EEC77AF1EE10FA40F171
:1028E0009B802278654B1B78D2B29A4214BF00229B
:1028F00001226449644803F0ABF8644C012120468E
:1029000002F08CFD05460221204602F087FD0746B5
:102910005F4B236002F054FF03F02EFF4668AA23AA
:10292000E3705523EB7001F0BFFDE378EA78DBB28A
:10293000934273D0002403F01FFF01364368B34273
:1029400014BF002204F001025249534803F080F8FA
:102950004E4B4F4A1A6002F033FF03F00DFF05683B
:102960004E4C9FED4F8A84ED008A02F029FF01F062
:102970009BFDD4ED007A77EEC87AF5EEC07AF1EEE1
:1029800010FA48BFF1EE677A9FED357AF4EEC77A18
:10299000F1EE10FA4AD400224249434803F058F8B5
:1029A0002A4C204603F0D8FB03F0E6FE0368826859
:1029B0000192426800923D4A502102A803F0F4FCC3
:1029C00002A93B4803F026FC204603F0C5FB394B27
:1029D0001B68394A11685818384A394C002908BF11
:1029E000224601920090374A502102A803F0DCFCF5
:1029F00002A92F4803F00EFC144803F0ADFB0F486A
:102A000003F0AAFB03F016FE17B0BDEC028BF0BD7D
:102A100001F04AFD00226CE700226AE7EC78FB78BF
:102A2000E4B29C4214BF0024012484E703F0A4FE16
:102A30000268AA4214BF00220122ADE754134200EB
:102A40001812420068124200B812420008134200F5
:102A50005813420048094020A3E31A429AF97944E6
:102A600017B7D138A8134200D813420008084020F5
:102A7000C3F51C41DC1342000C14420088094020BD
:102A8000CDCC6C401014420044144200280A40206F
:102A900000009A424814420080144200AC094020D1
:102AA0000000AC4184144200B8144200BC1442003F
:102AB00000154200DC094020D809402004124200E1
:102AC000E81142000C1542002DE9F04786468C467D
:102AD0000846089E154674461946002B40F0C280F1
:102AE0008242B2FA82F245D94AB1C2F1200300FA19
:102AF00002FC2EFA03F3954043EA0C0C94404FEA93
:102B0000154EA8B2BCFBFEF8230C0EFB18CC08FB3C
:102B100000F943EA0C43994528D9EB1808F1FF372F
:102B200004D2994502D9A8F102072B44A3EB09036B
:102B3000A4B2B3FBFEFC0EFB1C330CFB00F044EA1A
:102B40000344A04214D92C190CF1FF3304D2A04243
:102B500002D9ACF102032C44241A43EA07401EB107
:102B6000D440002334607360BDE8F0874746DDE75A
:102B70006346F1E792BB431B01214FEA154EAFB20A
:102B8000B3FBFEFC200C0EFB1C330CFB07F840EAE9
:102B90000343984562D9EB180CF1FF3004D29845F5
:102BA00002D9ACF102002B44A3EB0803A4B2B3FB9F
:102BB000FEFC0EFB1C330CFB07F744EA0344A74260
:102BC0004ED92C190CF1FF3304D2A74202D9ACF133
:102BD00002032C44E41B43EA0040C0E7C2F1200397
:102BE00020FA03F1954090402EFA03F303434FEA95
:102BF000154EAFB2B1FBFEFC0EFB1C10190C0CFB0A
:102C000007F841EA0041884504FA02F422D969181C
:102C10000CF1FF3004D2884502D9ACF102002944FE
:102C2000A1EB08019BB2B1FBFEFC0EFB1C110CFBDF
:102C300007F743EA01439F420ED9EB180CF1FF312D
:102C400004D29F4202D9ACF102012B44DB1B41EAC2
:102C5000004192E76046E3E76146F7E76046A3E795
:102C60006346B7E7834206D916B9002108467BE7D9
:102C7000C6E900E0F9E7B3FA83F78FB9834201D3DD
:102C8000724508D8BEEB020460EB030301209C46AA
:102C90001EB9002168E73846FAE7C6E9004CF8E7B4
:102CA000C7F1200CBB4022FA0CF41C432EFA0CF1A5
:102CB00020FA0CF3B84001434FEA14490EFA07F525
:102CC000B3FBF9F81FFA84FE09FB18300B0C08FB64
:102CD0000EFA43EA00439A4502FA07F240D9E31894
:102CE00008F1FF3004D29A4502D9A8F1020023442A
:102CF000A3EB0A0389B2B3FBF9F809FB183308FB0D
:102D00000EFE41EA03418E452CD9611808F1FF33CC
:102D100004D28E4502D9A8F10203214443EA0040BF
:102D2000A0FB0298A1EB0E014145CE46434602D3DB
:102D300006D14D4504D2B9EB020E68EB040301380D
:102D4000002EA6D0B5EB0E0261EB030101FA0CFCDC
:102D500022FA07F34CEA0303F940C6E9003198E789
:102D60004046C5E74346D9E7F0B583B0012806D011
:102D7000824B1B78002B00F0FE8003B0F0BD804B2F
:102D80001B78002B00F0A1807E4B1A78597841EA1D
:102D900002214AF65523994238D17A4B9A78DD7848
:102DA00045EA02251A795E7946EA02264FF6FF7354
:102DB0009D4246D03446802E28BF8024724F3B78F7
:102DC00022462946714803F025FA3B78002B77D13B
:102DD0006F4B1D806F4B1C8056B16F496F4A0023AB
:102DE00011F8010F02F8010B01339BB29C42F7D896
:102DF000654B01221A70284603F0B6F8684B012291
:102E000083F84D20674B00221A70B1E71A466648D6
:102E100003F000FA5E4B1B88013364494E220A70AE
:102E2000C3F307224A70DBB28B705A4082F04E0225
:102E3000CA70524B01221A7004225D4803F070FBE5
:102E4000E0E7504B997ADA7A120442EA0162597B40
:102E50000A43187B9C79D979090441EA04615C7AB8
:102E600021431B7A42EA002241EA0321514803F040
:102E7000D1F90022424B1A70494B83F84B200122B2
:102E800083F84D20424B4FF6FF721A803446802E55
:102E900028BF80243F4B1C8056B13F493F4A002346
:102EA00011F8010F02F8010B01339BB29C42F7D8D5
:102EB000354B01221A704FF6FF7003F055F8A1E769
:102EC00029463D4803F0A6F998E701213B4803F065
:102ED000A1F92C4CE3780093A378627821783848E4
:102EE00003F098F92378112B2FD019D8002B3FF439
:102EF0003FAF102B3AD103F02DFA03F0CFFB244B58
:102F000000221A802F4803F027F901232E4A13606C
:102F10002E4A1360224A82F84B3082F84D3027E760
:102F2000202B23D1284B01221A60164B5B7807EE29
:102F3000903AF8EE677AF2EE046A87EEA67A184BBA
:102F400083ED117A00F046F812E7214803F004F906
:102F500000231E4A1360124A82F84B30012182F886
:102F60004D10074A13700F4A137001E70C4B0222F1
:102F700083F84D20FCE602F0ABF9FEE6020A4020A1
:102F8000010A402090044020FD0940202C09420005
:102F90007A094020F20940209504402098054020FD
:102FA00018064020FF094020C8084200D4094020EC
:102FB00048084020FC0842005409420078094200B9
:102FC00088094200AC094200A8094020A409402019
:102FD000E009420008B5874A2023137086490B6830
:102FE000C3F307605070C3F307409070C3F307202A
:102FF000D07013714B68C3F307615171C3F307417C
:103000009171C3F30721D17113727C4B1968C1F31D
:1030100007605072C1F307409072C1F30720D0726D
:1030200011735968C1F307605073C1F3074090737F
:10303000C1F30720D07311749968C1F3076050740D
:10304000C1F307409074C1F30720D0741175DB6899
:10305000C3F307615175C3F307419175C3F30721AA
:10306000D1751376664B1968C1F307605076C1F3CA
:1030700007409076C1F30720D07611775968C1F3E5
:1030800007605077C1F307409077C1F30720D077EE
:1030900082F820109968C1F3076082F82100C1F31B
:1030A000074082F82200C1F3072082F8230082F84B
:1030B0002410D968C1F3076082F82500C1F30740E6
:1030C00082F82600C1F3072082F8270082F8281032
:1030D0001969C1F3076082F82900C1F3074082F83B
:1030E0002A00C1F3072082F82B0082F82C105969BE
:1030F000C1F3076082F82D00C1F3074082F82E006B
:10310000C1F3072082F82F0082F830109969C1F3CB
:10311000076082F83100C1F3074082F83200C1F342
:10312000072082F8330082F83410D969C1F30760B0
:1031300082F83500C1F3074082F83600C1F307205A
:1031400082F8370082F838101B6AC3F3076182F8EF
:103150003910C3F3074182F83A10C3F3072182F80C
:103160003B1082F83C30274B1B68C3F3076182F8A1
:103170003D10C3F3074182F83E10C3F3072182F8E4
:103180003F1082F84030204B1B68C3F3076182F880
:103190004110C3F3074182F84210C3F3072182F8BC
:1031A000431082F8443019494B6CC3F3076082F82E
:1031B0004500C3F3074082F84600C3F3072082F8B6
:1031C000470082F8483091F84A3082F84930531E5F
:1031D0004932002013F8011F48409342FAD10549B3
:1031E00081F84A000A4B01221A704B22094803F069
:1031F00097F908BD6806402088094020480940200A
:1032000008084020B0094020AC09402018064020A2
:10321000020A4020480840202DE9F041CCB003F0DC
:1032200091FA002840F0BF80644B59684A1E644BF5
:103230009A4242D2082208A9624802F0B5F99DF8E4
:10324000273004939DF8263003939DF82530029390
:103250009DF8243001939DF8233000939DF822308F
:103260009DF821209DF82010574802F0D3FF082236
:103270000AA9564802F098F99DF82F3004939DF85A
:103280002E3003939DF82D3002939DF82C3001933E
:103290009DF82B3000939DF82A309DF829209DF849
:1032A00028104B4802F0B6FF444B5F68AFB34FF0B5
:1032B000FF340026DFF80C811BE0464802F0AAFF2D
:1032C000454B0C221A705CE0013295420ED910F881
:1032D000011B4C40614614F0010F14BF83EA5404F3
:1032E0006408013911F0FF01F5D1EDE72E44B74232
:1032F00015D9BD1BB5F5807F28BF4FF480752A46D0
:103300000CA906EB080002F04FF9B742EED00CA86A
:1033100000224FF0080C314BD9E74FF0FF34E14366
:10332000264B9B688B422FD0CBB20093C1F307236F
:10333000C1F30742090E2A4802F06CFF0CAC294D7C
:103340000FCD0FC42B6823600CAC11AF264E54F880
:10335000045B042207A9284602F026F99DF81F30D5
:1033600001939DF81E3000939DF81D309DF81C20A0
:103370002946304602F04EFFBC42E8D1164B0C22E3
:103380001A704CB0BDE8F081184802F043FF0B48BA
:10339000174B40F8103BF022FF2103F0A3F80E4B2F
:1033A00009221A70EDE703F0CDF90228E9D111489E
:1033B00002F0D2FE084B0C221A70E2E70000402017
:1033C00000F0DF00001010000C034200801010001D
:1033D00044034200D8024200F90940202083B8ED9E
:1033E0007C0342006C644200CC034200F8034200BC
:1033F00034CD12AB2C04420070B504460378013B77
:10340000082B73D8DFE803F005286B73405F959AAB
:10341000C00003F035F8002868D0624B1B78002B01
:1034200064D1604B01221A7003F03EF9237B43B153
:103430006078400000F0FE0002F020FF02232370BD
:1034400054E06378A07A003818BF012040EA4300B6
:10345000C0B202F013FFF1E703F01CF850B10023F3
:103460006372237B53B9A37A002B0CBF032307237A
:1034700023703BE0204602F019FA37E0E07A03F0CF
:1034800019F90523237031E003F05CF850B9A38AE1
:1034900001339BB2A382B3F57A7F27D9204602F08D
:1034A00005FA23E00023A38202F0F4FF38B160782C
:1034B00002F094FF002323730623237016E02046B6
:1034C00002F0F4F912E002F0E5FF20B1002363728C
:1034D000072323700AE0204602F0E8F906E0437A69
:1034E0004268D05C03F0E6F80423237070BD03F05B
:1034F00029F850B9A38A01339BB2A382B3F57A7F2E
:10350000F4D9204602F0D2F9F0E70023A38202F0BA
:10351000C1FF50B1637A0133DBB26372227A9A42FF
:1035200014BF032309232370E0E7204602F0BEF90D
:10353000DCE700F0D4FC08232370D7E703F00AF897
:1035400050B9A38A01339BB2A382B3F57A7FCDD958
:10355000204602F0ABF9C9E70023A382657A6668CA
:1035600003F0AEF87055637A0133DBB26372227AEE
:103570009A4204D001F0ABFE07232370B6E703F0B4
:10358000A5F809232370B1E702F052FD0023237050
:10359000A375044A13702369002BA7D00020984715
:1035A000A4E700BFFA09402030B583B00446037891
:1035B000072B00F2BA80DFE803F00B040D235F78DD
:1035C0008EA8062002F022FB0023A3820223237090
:1035D00003B030BD02F038FB10F0020F04D000231E
:1035E000A38203232370F3E7A37D0133DBB2A3752A
:1035F000022B4FF0010384BFE37507232370E7E735
:103600004378022B0DD0032B20D0012B2FD1C26881
:103610004168806801F0C8FFE368236104232370D8
:10362000D6E7C2684168806801F082F8E3682361E8
:103630004FF4802502F008FB10F0010F01D1013D8D
:10364000F8D1062323700023A382C1E781682020DC
:1036500002F040FA44F620630193019B5A1E019246
:10366000002BFAD1062323700023A382B0E70223A4
:10367000C37507230370ABE70269C3689A4207D397
:10368000002303708369002BA2D0012098479FE795
:10369000838A01339BB2838241F28732934297D966
:1036A0000323C3750723037092E70269C3689A4234
:1036B00004D3002383820623037089E7838A0133BE
:1036C0009BB2838241F28732934281D90423C3752E
:1036D000072303707CE702F0FFFF40B9002323704B
:1036E000A369002B3FF474AF0120984770E7A38AC9
:1036F00001339BB2A38241F2873293427FF668AFD7
:103700000523E3750723237062E7C17D084802F0B3
:1037100081FDA3690BB10020984700232361E3607A
:10372000A382A3756370237052E7002303704FE7F1
:10373000D80742002DE9F04186B006464D6805EBFA
:10374000450305EB83034F4CA4FB0304E4084E48F8
:10375000834225D94D4B00201860002A50D10F68B4
:10376000D1F80880E20E63011B1B62F100025202D5
:1037700042EAD3525B021B1942F10002910141EA75
:1037800093619801C01A61EB02010019404A4FF0A1
:10379000000341F1000102F033FC3E4A3E4B21E0C0
:1037A000002A4ED10F68D1F80880E20E63011B1B7E
:1037B00062F10002520242EAD3525B021B1942F14B
:1037C0000002910141EA93619801C01A61EB020184
:1037D00000192F4A4FF0000341F1000102F010FCE4
:1037E0002C4A2E4B0493039002940195CDF800804F
:1037F0003B4631462A4802F00DFD06B0BDE8F08197
:103800000F68D1F80880E20E63011B1B62F1000211
:10381000520242EAD3525B021B1942F100029101AB
:1038200041EA93619801C01A61EB02010019184A3C
:103830004FF0000341F1000102F0E2FB194A164B80
:10384000D0E70F68D1F80880E20E63011B1B62F11C
:103850000002520242EAD3525B021B1942F10002FB
:10386000910141EA93619801C01A61EB02010019CC
:10387000074A4FF0000341F1000102F0C1FB094A81
:10388000064BAFE7CDCCCCCCBFD401002C0A4020F6
:10389000001BB700400D4200440D42003C0D4200A9
:1038A0004C0D4200380D420010B582B03E4802F087
:1038B00053FC3E4C204602F04FFC3D4802F0E4FB36
:1038C0004FF47A723B493C4802F0DEFB42F6E0617D
:1038D0003A4802F0D9FB204602F03EFC4FF0E022CD
:1038E000D2F8FC3D43F08073C2F8FC3D344B354ABE
:1038F000C3F8B02F00225A601A6842F001021A6021
:103900001B6813F0010F47D02D4B5A680023019319
:10391000019B632B05DC019B01330193019B632B0E
:10392000F9DD274B5B689A423AD0274802F072FCD7
:10393000264C204602F010FC2549264802F0DEF90C
:103940002549264802F0DAF92549264802F0D6F939
:103950002549264802F0D2F9204602F0FDFB154920
:10396000234802F091FB234802F08EFB0F4802F03F
:10397000F3FB214B1968214A214B00290CBF11464A
:103980001946204802F080FB084802F0E5FB064893
:1039900002F0E2FB02B010BD1B4802F0DDFBF9E7CC
:1039A0001A4802F0D9FBF5E754134200FC0D42001F
:1039B000580E4200001BB7009C0E4200E00E420071
:1039C000001000E055CEACC57C0F4200DC0F420079
:1039D000B948420038104200C56342004810420016
:1039E000CD614200581042006D5742006410420001
:1039F00078104200BC1042002C0A4020CC0D42003E
:103A0000980D4200081142002C0F42005C0F42004A
:103A100038B50025514C06E000F062FA0135EDB2F0
:103A2000052D00F0968002F03FFD2378002B46D054
:103A30006378002B47D0A378002B48D0E378002B85
:103A400049D02379002B4AD06379002B4BD0A3793E
:103A5000002B4CD0E379002B4DD0237A002B4ED095
:103A6000637A002B4FD0A37A002B50D02378002B01
:103A7000D2D06378002BCFD0A378002BCCD0374B9B
:103A8000DB78002BC8D0354B1B79002BC4D0334BCF
:103A90005B79002BC0D0314B9B79002BBCD02F4BD6
:103AA000DB79002BB8D02D4B1B7A002BB4D02B4BDD
:103AB0005B7A002BB0D0294B9B7A83BBACE7FEF737
:103AC00049F92070B4E701F05DFF6070B3E701F0E1
:103AD00099FDA070B2E700F083FBE070B1E701F060
:103AE000A5F92071B0E702F056FE6071AFE702F071
:103AF00054FEA071AEE702F056FEE071ADE702F0B1
:103B00004EFE2072ACE702F04CFE6072ABE702F0B2
:103B10002AFEA072AAE70135EDB2052D1BD002F0F6
:103B20004CFE0028F7D002F040FE0028F3D002F04F
:103B30003EFE0028EFD002F03CFE0028EBD002F061
:103B40003AFE0028E7D002F03AFE0028E3D0012038
:103B500000E0002038BD0020FCE700BF64094020E1
:103B600030B5C1B0404802F0F7FA404C204602F0B0
:103B7000F3FA3F4802F0F0FA4FF480313D4802F08A
:103B800049FB204602F0E8FA00F02AFB4FF48031AE
:103B9000394802F03FFB062002F038F84FF480313C
:103BA000202001F097FF02F059FAA8B14FF480727B
:103BB00069464FF4803001F0F7FC6B46002113F8A2
:103BC000012BFF2A0DD10131B1F5807FF7D12B48B0
:103BD00002F0C2FA012408E00446294802F0BCFAC7
:103BE00003E0284802F016FB002400F0CFFC08B3E5
:103BF00000F070FB80B10234E4B21C4802F0ACFA71
:103C0000254603222146204802F004FB032C1ED146
:103C10001E4802F0A1FA1FE00134E4B20EE013489E
:103C200002F09AFA0134E5B203222946164802F05E
:103C3000F1FA0CE000F04EFB0028F0D10B4802F046
:103C40008BFA2546032221460F4802F0E3FAC5F11C
:103C500003010F4802F0DEFA044802F07DFA024840
:103C600002F07AFA41B030BD54134200640B4200B6
:103C70009C0B4200D80B4200100C4200A40A4200E8
:103C8000600A4200340C4200580C4200900C420082
:103C9000CC0C4200414B03B19847414B03B19847CC
:103CA000EFF31083B3FA83F35B09019372B6BFF3AA
:103CB0005F8F01994FF0E022D2F8883D43F4700302
:103CC000C2F8883DBFF34F8FBFF36F8F11B1BFF3C1
:103CD0005F8F62B6334B5B6913F4003F13D1BFF3C0
:103CE0004F8FBFF36F8F2F4B0022C3F85022BFF3CB
:103CF0004F8FBFF36F8F5A6942F400325A61BFF39E
:103D00004F8FBFF36F8F274B5B6913F4803F2BD12D
:103D1000244B0022C3F88420BFF34F8FD3F88030A8
:103D2000C3F3C904C3F34E334FEA431C43F6E07EAA
:103D30001C480CEA0E01234641EA8372C0F8602257
:103D4000013BB3F1FF3FF7D1ACF1200C1CF1200F88
:103D5000EFD1BFF34F8F134A536943F4803353615C
:103D6000BFF34F8FBFF36F8F01F036F902F016F9F2
:103D70000D4B23F07F030B4A93600C4B98470C4B81
:103D800003B198470B4B03B198470021084601F057
:103D900067FD094B03B19847FEE700BF0000000034
:103DA0000000000000ED00E000004200615642000B
:103DB0000000000000000000000000002DE9F04FAE
:103DC0008BB00D460493D1E901132F68D5F80C9000
:103DD00003900029A8BF27F002079246B8BF01212F
:103DE00017F010020592DAE9006232D056EA0200BA
:103DF0002FD0A3F1020B2C69029617F0080004F1F2
:103E0000FF3418BF0BF1FF3B9046002209F8042055
:103E100006905A46012C1EDC059A002A51D1069ABA
:103E20001AB1013C202209F804202A69039800975E
:103E3000013A121B09EB040101F096F9039B5B6840
:103E4000DB0503D56B689842B8BF18460BB0BDE8D8
:103E5000F08F9B46CFE7029850EA080008D1A1EB0B
:103E60000B001044002803DC002AD5DDB807D3D5A9
:103E70000298049E00F00F000928A6F1410CD4BF5F
:103E800030305730BCF1190F04F1FF340ED840F038
:103E9000200CACF1610CBCF1190F07D8CDE9081367
:103EA000079202F0F4FBDDE90813079A09F8040011
:103EB0000298060946EA0870013A02904FEA18187B
:103EC000A8E7DAE900210A43A9D009EB0402049922
:103ED00002F8011C023C302209F804209FE77047D9
:103EE00030B486B03F4B80221A6003F54823182275
:103EF000C3F8002E1022C3F8102E0822C3F8142E87
:103F0000092019461025002442F20F72C1F8345ED0
:103F10000194019B934205DC019B01330193019BBA
:103F20009342F9DDC1F8305E0294029B934205DCB6
:103F3000029B01330293029B9342F9DDD1F83C3E90
:103F400013F0080F01D10138E0D1274B0822C3F844
:103F5000102E1021C3F8341EC3F8342E002303930F
:103F6000039A42F20F739A4206DC1A46039B01330E
:103F70000393039B9342F9DD1B4B1022C3F8302EB1
:103F800000230493049A42F20F739A4206DC1A4605
:103F9000049B01330493049B9342F9DD124B0822E6
:103FA000C3F8302E00230593059A42F20F739A420C
:103FB00006DC1A46059B01330593059B9342F9DD08
:103FC000094B1822C3F8042EA3F5482380221A6057
:103FD00024221A601A6A4EF6ED521A6106B030BCFD
:103FE000704700BF0080014000000E4000B5A1B046
:103FF000384AD2ED006A384B93ED017AB7EEC77AB2
:104000008DED1E7B93ED007AB7EEC77A8DED1C7BAC
:10401000324B93ED007AB7EEC77A8DED1A7B304BB9
:1040200093ED007AB7EEC77A8DED187B2D4B93EDAB
:10403000087AB7EEC77A8DED167B93ED077AB7EE67
:10404000C77A8DED147B93ED067AB7EEC77A8DEDC6
:10405000127B93ED057AB7EEC77A8DED107B93ED69
:10406000047AB7EEC77A8DED0E7B93ED037AB7EE47
:10407000C77A8DED0C7B93ED027AB7EEC77A8DEDA2
:104080000A7B93ED017AB7EEC77A8DED087B93ED4D
:10409000007AB7EEC77A8DED067B92ED037AB7EE24
:1040A000C77A8DED047B92ED027AB7EEC77A8DED7B
:1040B000027B92ED017AB7EEC77A8DED007BB7EE09
:1040C000E67A53EC172B084802F0A4F821B05DF80B
:1040D00004FB00BF4809402088094020AC0940206B
:1040E000B009402008084020CC01420070B50446C9
:1040F0000378013B052B09D8DFE803F003091432EC
:104100006167407802F076F90223237070BD43683E
:1041100033B1427B985C02F03DFA03232370F5E74C
:10412000FF20F8E702F01EFA20B10023A373042356
:104130002370EBE7A37B0133DBB2A373C82BE5D974
:10414000254802F009F8607802F01CFA0023A373F6
:1041500023702369002BD9D04FF0FF309847D5E763
:1041600002F008FA90B10023A373A56825B3667B1B
:1041700002F0B8FAA855637B0133DBB26373227B8C
:104180009A428CBF022305232370BFE7A37B013330
:10419000DBB2A373C82BB9D9104801F0DDFF6078FA
:1041A00002F0F0F90023A37323702369002BADD034
:1041B0004FF0FF309847A9E702F094FADBE7407828
:1041C00002F0E0F906232370A0E703690BB1002099
:1041D00098470023237099E708084200240842000A
:1041E00082B0384B4FF40062C3F800274FF482329C
:1041F000C3F810264FF41E32C3F8042ED3F8702EE5
:1042000022F41E32C3F8702ED3F8742E22F41E321C
:10421000C3F8742E03F580534FF00042C3F8042412
:10422000D3F8702422F00042C3F87024D3F8742429
:1042300022F00042C3F87424A3F5CA2380221A6036
:10424000214A5A604FF400721A6201221A604FF438
:1042500080231E490A6912F0807F01D1013BF9D108
:104260001A4BAB225A6342F210029A639B6B4FF4D3
:10427000802316490A6912F4806F01D1013BF9D1FC
:10428000124B4FF080721A604FF4FA730193019B46
:104290005A1E0192002BFAD14FF0E0230722C3F8F7
:1042A000982D4FF00042C3F89C2D094AC3F8A02D69
:1042B0000522C3F8942DBFF34F8FBFF36F8F0120FA
:1042C00002B0704700000E401100000100C007401E
:1042D000370008132DE9F041ADF5007D062001F00F
:1042E00095FC4FF48031202001F0F4FB01F0B6FE84
:1042F00078B30DF1FF052A46002302F8013F013390
:10430000B3F5807FF9D1294801F084FF062001F040
:104310007DFC4FF480720DEB02014FF4803000F011
:1043200007FA01F09BFE0446C0B1E8464FF48072E4
:10433000FF21404602F0D6F84FF4807241464FF418
:10434000803001F031F90DF1FF340DF1FF07002647
:104350000FE00446164801F0FFFE02E0154801F0A8
:10436000FBFE20460DF5007DBDE8F0810136BC4224
:104370000FD0204614F8013F15F8012F9342F6D0D4
:10438000042EF3D8C8F1010101440B4801F042FFAB
:10439000ECE726B9094801F0DFFE0124E1E73146E8
:1043A000074801F037FF0024DBE700BFEC0A4200BA
:1043B000CC0A4200600A4200140B4200A40A4200E8
:1043C000480B420010B5044600F090FB314BD3ED92
:1043D000007A052C4DD8DFE804F0050D21283E03B6
:1043E000204610BD002846D02B4B1868003818BF57
:1043F0000120F6E7002840D0274B1B68002B3ED059
:10440000264B1B68002B3CD09FED257AF4EEC77A33
:10441000F1EE10FACCBF02202046E2E71F4B1B68EA
:10442000002B14BF20460120DBE7B2EE0E7AF4EE3B
:10443000C77AF1EE10FA26D4184B1B6833B19FED02
:10444000187AF4EEC77AF1EE10FA1EDC00280CBFE1
:1044500020460020C5E7B2EE0E7AF4EEC77AF1EE00
:1044600010FA14D50F4B1B68002B0CBF20460520FB
:10447000B7E70020B5E70320B3E70320B1E700204A
:10448000AFE72046ADE70420ABE70220A9E7032011
:10449000A7E700BF280A4020A8094020A40940201F
:1044A00000008C42A00940202DE9F047314B1B78D9
:1044B000002B56D0DFF8D0804FF000094E46DFF8D1
:1044C000B4A046E02C4B99542C4A13680133136076
:1044D0000134AA88A3B29A4231D92B6803EB040CA9
:1044E000195DC9B2EA882244BB5CDBB22248805C19
:1044F000C0B2994201D18342EAD001369942E1D05B
:10450000814208D083420CD18CF800301B4A1368DA
:1045100001331360DCE7B954184A136801331360A0
:10452000D6E78CF8003014498B54144A5368013391
:1045300053602246A968124801F06CFEC8E709F1F1
:10454000010908F10C089AF800205FFA89F39A42F1
:1045500008D94546B8F80430002BF0D00024094FA4
:10456000BBE70026054A9368013393603046BDE8F7
:10457000F08700BF040A4020000240205809402074
:104580007811420000034020000440202DE9F04152
:10459000ADF5007D0DF1FF050DF2FF102B4640F249
:1045A000011180AA891ACA1812F0010F14BF5A22E9
:1045B000A52203F8012F8342F5D1264801F02AFEF7
:1045C000062001F023FB4FF480720DEB02014FF443
:1045D000803000F0ADF801F041FD044698B1E846A6
:1045E0004FF4807422460021404601F07BFF2246B2
:1045F00041464FF4803000F0D7FF0DF1FF340DF14C
:10460000FF0700260AE0144801F0A6FD20460DF53C
:10461000007DBDE8F0810136BC420FD0204614F881
:10462000013F15F8012F9342F6D0042EF3D8C8F1BC
:1046300001010144094801F0EDFDECE726B9084805
:1046400001F08AFD0124E1E73146064801F0E2FD70
:104650000024DBE7380A4200600A4200700A420088
:10466000A40A4200B00A420010B501281FD1284B0D
:104670001988013189B219801F2907D8254B1B7869
:10468000032B41D8DFE803F00B162029214B04222D
:104690001A70214801F0BEFD00F01AFE09E01F4B20
:1046A0001B78AA2B14BF002301231A4A137000F0B1
:1046B0000FFE10BD194B1B78552B14BF002301238F
:1046C0005B00144A1370F2E7144B1B78AA2B14BF3B
:1046D000002203220F4B1A70E9E7104B1B78552B71
:1046E00003D00C4B00221A70E1E70424094B1C7024
:1046F0000B4801F031FD0B4B01221A7022460A498A
:104700000A4801F00DFFD4E7024B00221A70CEE7F1
:1047100086094020050A40206C084200000A40201B
:10472000A4084200020A4020C46742004808402012
:10473000F0B50D4614462E4B186302225A6343F21D
:10474000B0029A639B6B72B600F10041032C19D939
:10475000A608AC464FF0000E4F1B254A05E00EF1AF
:10476000010E0CF1040C76450CD9DCF8003047F84A
:104770000C304FF48023106910F0040FEFD1013B8F
:10478000F9D1ECE724F0030C14F0030F15D0AC447E
:1047900005EB040E491B164A01E0F4450DD001EB70
:1047A0000C031CF8010B18704FF48023106910F0F3
:1047B000040FF2D1013BF9D1EFE7BFF34F8F62B69F
:1047C0004FF480230A490A6912F0040F01D1013B1A
:1047D000F9D1074B4FF080721A604FF480230449DF
:1047E0000A6912F4806F01D1013BF9D1F0BD00BF1D
:1047F00000C00740902910B50FDC7F2913DD8039F8
:10480000102910D8DFE801F02B2B360F110F0F0FF6
:10481000200F0F0F0F0F0F0F3600C02944D0F029C3
:1048200042D0A02921D000200DE019682AB10A1D2C
:104830001A60B1F90030DA1702E00C1D1C600B8819
:10484000C0E90032012010BD196822B10A1D1A60AA
:1048500091F90030EFE70C1D1C600B78F0E7196848
:10486000F2B10A1D1A600B68E5E71A68111D19609C
:104870001368E0E7196852B1073121F0070101F12F
:1048800008021A60D1E90023C0E90023DAE7CA1D53
:1048900022F0070202F108011960D2E90023F3E7D0
:1048A0000C1D1C600B68CBE71A68111D196013689A
:1048B000036000234360C5E708B51F4B1B78A3B115
:1048C000FFF7F2FD01F07EFE01F084FE01F08AFEAA
:1048D00001F090FE01F09EFE01F0D4F901F092FE8D
:1048E00001F0A0FE00F06CFF08BD144A102114482E
:1048F00000F0F8F9134A2421134800F0F3F9134AA1
:104900000421134800F0EEF9124A0421124800F085
:10491000E9F9124A0821124800F0E4F9114A142179
