:020000040040BA
:1000000000004120350D4000310D4000230D40001F
:10001000310D4000150D4000310D40000000000082
:10002000000000000000000000000000310D400052
:10003000310D400000000000310D4000310D400046
:10004000310D4000310D4000310D4000310D4000B8
:10005000310D4000310D4000310D4000310D4000A8
:10006000310D4000310D4000310D4000310D400098
:10007000310D4000310D4000310D4000310D400088
:10008000310D4000310D4000310D4000310D400078
:10009000310D4000310D4000310D4000310D400068
:1000A000310D4000310D4000310D4000310D400058
:1000B000310D4000310D4000310D4000310D400048
:1000C000310D4000310D4000310D4000310D400038
:1000D000310D4000310D4000310D4000310D400028
:1000E000310D4000310D4000310D4000310D400018
:1000F000310D4000310D4000310D4000310D400008
:10010000310D4000310D4000310D4000310D4000F7
:10011000310D4000310D4000310D4000310D4000E7
:10012000310D4000310D4000310D4000310D4000D7
:10013000310D4000310D4000310D4000310D4000C7
:10014000310D4000310D4000310D4000310D4000B7
:10015000310D4000310D4000310D4000310D4000A7
:10016000310D4000310D4000000040201C05000012
:10017000000000001C0540200100000000000000FD
:1001800020054020000100000000000000000000E9
:100190000000000066666666666666666666666697
:1001A00066666666666666666666666666666666EF
:1001B00066666666666666666666666666666666DF
:1001C00066666666666666666666666666666666CF
:1001D00066666666666666666666666666666666BF
:1001E00066666666666666666666666666666666AF
:1001F000666666666666666666666666666666669F
:10020000666666666666666610B5054C237833B921
:10021000044B13B10448AFF300800123237010BDD9
:100220000000402000000000FC11400008B5034B16
:100230001BB103490348AFF3008008BD0000000074
:1002400004004020FC11400070B582B003244FF43C
:1002500080154FF48036284600F03AFD38B10196FB
:10026000019B5A1E0192002BFAD1013CF3D102B03E
:1002700070BD000010B582B04FF4820421681548AB
:1002800000F0DAFB6168144800F0D6FB6368013BBC
:1002900013F1030F03D9114800F098FBFEE7002388
:1002A00001930F4A02E0019B01330193019B9342AA
:1002B000F9D900F0E6FD4FF482034FF0E022C2F8D6
:1002C000083DBFF34F8FBFF36F8F1A685B6882F3EF
:1002D00008881847D40E4000E40E4000F80E400095
:1002E0003F0D03002DE9F84F00F01CFC20B19F48A2
:1002F00000F06CFBFFF7BEFF9D4800F067FB4FF47A
:1003000082044FF0FF3108269A489B4D02E00134E9
:10031000AC420CD023785940334641F300020240EE
:1003200082EA5101013B13F0FF03F6D1EFE7C94325
:10033000924800F081FB924A002302F8013F01330A
:10034000B3F5007FF9D14FF400714FF4820000F053
:10035000FDF901468B4800F06FFB8B4800F036FB3F
:100360004FF48204894E8A4D14F8011B304600F088
:1003700063FBAC42F8D187494FF4820000F024FAC5
:100380000146854800F058FB844800F01FFB4FF4FD
:1003900082047E4E7E4D14F8011B304600F04CFB6B
:1003A000AC42F8D14FF480727D494FF4801000F0D8
:1003B000FDFB20B17B4800F009FBFFF75BFF784CA9
:1003C0002168794800F038FB6168784800F034FB18
:1003D000A168774800F030FB2268764B9A420CD136
:1003E0006F4B59684B1EB3F5F81F0BD3724800F0E2
:1003F000EDFAFFF729FFFFF73DFF704800F0E6FA3E
:10040000FFF738FF664B9A686D4800F03FFB002805
:1004100040F091806B4800F0D9FAFFF715FF4FF4D8
:1004200082035B68013B13F1030F00D9FEE7FFF77E
:1004300021FF654B03F50071FF2203F8012F8B426A
:10044000FBD120E02946614800F0F6FA21466048D9
:1004500000F0F2FA395D5F4800F0EEFA99F800100A
:100460005D4800F0E9FA05F50075DBF80430AB42B1
:1004700071D95B1B1E46B3F5007F28BF4FF4007691
:10048000B3F5007FD5D33246394605EB0A0000F0BC
:100490008DFB00285FD105F582083946404600F003
:1004A00093F9002857D14D4B002408EB040913F8A9
:1004B000012B18F804109142C4D10134A642F4D1A2
:1004C000D1E70025DFF8D8B0444FDFF8F4A0CCE73F
:1004D0000134A6420ED004F582031B785A402B4605
:1004E00042F30001014081EA5202013B13F0FF0395
:1004F000F6D1EDE7D4432146394800F09DFA284D66
:10050000A968384800F098FAAB68A3420CD0364886
:1005100000F05CFA4FF482035B68013B13F1030FB8
:1005200000D9FEE7FFF7A6FE304800F04FFAFFF7CC
:100530008BFEFFF79FFE2E4800F048FA2D4800F092
:1005400045FA00F069FC164B59684FF4820000F040
:10055000FDF80028B5D000F076FC114B5E68002451
:100560004FF0FF3208250348B3E700BF180F4000E3
:10057000340F40002083B8EDAC4B41004C0F4000DD
:100580001B034020640F4000800F4000480F4000D4
:10059000080041001C034020A80F4000C40F400089
:1005A0001C024020001040001C1040002C10400095
:1005B0003C10400034CD12AB701040004810400099
:1005C00000101000541140001B0040209C104000FF
:1005D000BC104000C8104000D41040001C00402057
:1005E000DC104000F81040001011400038114000AD
:1005F000701140008811400080B483B000AF786073
:100600007B68A3F580035B0A18460C37BD465DF88E
:10061000047B704780B483B000AF786039603B687A
:100620001A027B681343054A43F0B443136000BFCA
:100630000C37BD465DF8047B704700BF040C0E40CC
:1006400080B483B000AF4FF480137B6007E07B6819
:10065000013B7B607B68002B01D1052316E00E4B2C
:100660001B6803F00103002BF1D00B4B1B6803F058
:100670000403002B01D0022308E0074B1B6803F0A2
:100680000E03002B01D0012300E0002318460C3795
:10069000BD465DF8047B7047080C0E4080B588B0FD
:1006A00000AF786039607A683B681344BB617B684F
:1006B000FB614FF480437B6118E07B695A42FB6920
:1006C00013401846FFF798FF386139690920FFF792
:1006D000A1FFFFF7B5FF0346FB73FB7B002B01D0A7
:1006E000FB7B08E0FA697B691344FB61FA69BB692B
:1006F0009A42E2D3002318462037BD4680BD80B51C
:1007000084B000AF78607B68C3F30C03002B01D08A
:10071000032316E07B68B3F5820F01D2042310E0B7
:100720007868FFF769FFF860FB6823F0030343F084
:100730000103BB60B9680720FFF76CFFFFF780FF7C
:10074000034618461037BD4680BD000080B588B00E
:1007500000AF786039607A681A4B1340BB617A68E1
:100760003B6813447B617B6941F6FF721A44154B69
:1007700013403B613A69BB69D31A1946B869FFF760
:100780008DFF0346FB73FB7B002B01D0FB7B15E049
:10079000BB69FB610DE0F869FFF7B1FF0346FB732E
:1007A000FB7B002B01D0FB7B08E0FB6903F50053CA
:1007B000FB61FA693B699A42EDD300231846203762
:1007C000BD4680BD00E0FFFF80B58CB000AF786013
:1007D00039607B68C3F30803002B01D0032387E053
:1007E0007B68B3F5820F01D2042381E00023FB6212
:1007F0007AE07B68FB618023BB610023BB622AE057
:10080000BB6A9B003A6813441B781946BB6A9B007D
:1008100001333A6813441B781B0241EA0302BB6AA6
:100820009B00023339680B441B781B041A43BB6AD4
:100830009B00033339680B441B781B061343BB60D2
:10084000BB6A9B00FA691344BA681A60BFF34F8F02
:10085000BB6A0133BB62BA6ABB699A42D0D3BFF3A9
:100860004F8F7868FFF7C8FE786179690320FFF73A
:10087000D1FE214B1B681946204800F0DDF8FFF738
:10088000DFFE0346FB741C4B1B6819461C4800F036
:10089000D3F8FB7C002B01D0FB7C29E07B68FB605C
:1008A000012387F8273000233B6210E0FA683B6A97
:1008B00013441A7839683B6A0B441B789A4203D078
:1008C000002387F8273006E03B6A01333B623B6A2E
:1008D000B3F5007FEAD397F82730002B01D000232F
:1008E00006E0FB6A0133FB62FB6A022B81D901231C
:1008F00018463037BD4680BD080C0E40A80E40009B
:10090000BC0E40004FF4801305494A6912F0020FF3
:1009100002D1013BF9D17047014BD861704700BF4C
:10092000008002401C4B4FF40042C3F854281B497E
:10093000D1F8142142F01002C1F81421184A4FF4E2
:100940009841C2F810164FF40011C2F8041ED2F8F4
:10095000701E21F40011C2F8701ED2F8741E21F42A
:100960000011C2F8741E10225A601A6F42F0100271
:100970001A675A6F42F010025A67A3F539230C2206
:100980001A604FF40C625A604E221A6250221A60AA
:10099000044B01221A70704700100E40008008407E
:1009A00000000E401C054020074B1B785BB110B5C2
:1009B00004460A2803D02046FFF7A4FF10BD0D20EF
:1009C000FFF7A0FFF7E770471C05402038B50A4B3A
:1009D0001B7883B1044603786BB10D2508E02846E7
:1009E000FFF7E2FF2078FFF7DFFF14F8013F13B1B4
:1009F0000A2BF7D1F3E738BD1C05402000B583B0C2
:100A0000FFF790FF0A48FFF7E1FF00230193019AE7
:100A1000084B9A4206D81A46019B01330193019B69
:100A20009342F9D900F0B6F9FFF75CFCFEE700BF8E
:100A3000B41140003F0D030010B584B00C46FFF721
:100A4000C5FF30238DF8043078238DF805300DF183
:100A500005001C230B4924FA03F202F00F028A5C02
:100A600000F8012F043B13F1040FF4D100238DF89B
:100A70000E3001A8FFF7AAFF0348FFF7A7FF04B055
:100A800010BD00BFD0114000B01140002DE9F0476B
:100A9000924689B380460F4600264FF0FF34DFF8B8
:100AA000789014E001318D420ED910F8013B5C4082
:100AB000634614F0010F14BF82EA54046408013B3A
:100AC00013F0FF03F5D1EDE72E44B74216D9BD1B55
:100AD000B5F5807F28BF4FF480752A46494608EB5C
:100AE000060000F063F8A0B9B742EDD00A48002133
:100AF0004FF0080C094AD8E74FF0FF34E443214691
:100B00000748FFF799FF544514BF00200120BDE8B6
:100B1000F0870020FBE700BF200540202083B8EDD0
:100B2000E41140001D4B4FF41E32C3F8042ED3F8DD
:100B3000702E22F41E32C3F8702ED3F8742E22F4D5
:100B40001E32C3F8742EA3F5C82380221A60144AFB
:100B50005A604FF400721A6201221A604FF40013B7
:100B600010490A6912F0807F03D1013BF9D10120BD
:100B700070474FF0E0230722C3F8982D4FF0004252
:100B8000C3F89C2D084AC3F8A02D0522C3F8942D64
:100B9000BFF34F8FBFF36F8F0020704700000E40F0
:100BA0001100000100C007403700081310B4144BB7
:100BB00018630B245C63134C9C639B6B62B194467B
:100BC0004B1E8C440CF1FF3C401A0F490144CA5C97
:100BD00003F8012F6345FAD1094B4FF080721A6078
:100BE0004FF4001306490A6912F4806F03D1013BE8
:100BF000F9D1012000E000205DF8044B704700BFF0
:100C000000C00740B010080001000080F0B583B0BC
:100C100003251C4C062742F210066763A663A36BEC
:100C20004FF40013226912F4806F03D1013BF9D114
:100C3000012023E000208DF8070002460DF1070196
:100C4000FFF7B4FF052363639023A363A36B4FF007
:100C500000431B78D9B24FF0807323604FF4001328
:100C6000226912F4806F03D1013BF9D1012005E024
:100C700011F0020F04D1013DCFD1022003B0F0BD2D
:100C80000020FBE700C0074070B54FF4001C0F497F
:100C9000052690254FF0004E4FF0807405E010F0CF
:100CA000010012D0BCF1010C0FD04E638D638B6B31
:100CB0009EF80000C0B20C604FF400130A6912F4F1
:100CC000806FECD1013BF9D1012070BD00C007401D
:100CD00010B50446FFF79AFFC8B96FF30B040C4B2D
:100CE0001C6320225A6342F230029A639A6B4FF0DF
:100CF00080721A604FF4001305490A6912F4806F7C
:100D000003D1013BF9D1012001E0FFF7BDFF10BD88
:100D100000C007404FF482000168426881F30888F0
:100D200010474FF482000168426881F30888104739
:100D3000FEE70000114A124B9A420CD2581E801A4C
:100D400020F0030004300F4B184453F8041B42F802
:100D5000041B8342F9D10C4A0C4B9A420BD2134626
:100D60000B4AD21A22F0030204321A44002143F83B
:100D7000041B9342FBD1FFF741FEFEE70000402039
:100D8000000040201C1240000000402020064020AF
:100D90001F0640201C4B4FF48332C3F8002CBFF3D6
:100DA0004F8FBFF36F8FD3F8083C13F0010F09D1B9
:100DB000164B1549013BD1F8082C12F0010F01D157
:100DC000002BF7D1104B124AC3F8042CD3F8083C7F
:100DD00013F0010F09D10D4B0B49013BD1F8082C41
:100DE00012F0010F01D1002BF7D10A4B4FF4004252
:100DF000C3F85428C3F80429A3F580534FF40062C4
:100E0000C3F80027704700BF00000E4080841E001A
:100E10000B01005A00100E40BFF34F8FBFF36F8FCE
:100E20004FF0E023D3F8142D22F40032C3F8142D30
:100E3000D3F8142D22F48032C3F8142DBFF34F8F52
:100E4000BFF36F8F7047BFF34F8F00234FF0E02247
:100E5000C2F8503FC2F8603F43F08041C2F8601FC3
:100E600043F00041C2F8601F43F04041C2F8601FE8
:100E70002033B3F5805FEDD1BFF34F8FBFF36F8F9A
:100E800070474FF0E02300221A614FF0FF32C3F8A1
:100E90008021C3F88421C3F88821C3F88C21BFF3D3
:100EA0004F8FBFF36F8F70475B424F4F545D2046AB
:100EB000535220706F732D4557503D005B424F4F8A
:100EC000545D2046535220706F732D776169743DD5
:100ED000000000005B424F4F545D206A756D70202A
:100EE00053503D005B424F4F545D206A756D70203A
:100EF00072657365743D00005B424F4F545D206125
:100F0000707020494E56414C494441202D3E206C82
:100F10006F6F700A000000005B424F4F545D2071FC
:100F20007370695F696E69742046414C484F550A79
:100F3000000000005B424F4F545D20717370695F89
:100F4000696E6974204F4B0A000000005B424F4FEE
:100F5000545D204352432061707020617475616C50
:100F60003D0000005B424F4F545D20746573742058
:100F7000657261736520726573756C743D00000065
:100F80005B424F4F545D20706F732D6572617365C6
:100F90002028657370657261646F2046462046465E
:100FA0002E2E2E293A2000005B424F4F545D2074B4
:100FB00065737420777269746520726573756C74DB
:100FC0003D0000005B424F4F545D207465737420F8
:100FD000726561646261636B20286573706572611C
:100FE000646F2030302030312030322030332030D8
:100FF00034203035203036203037293A20000000A8
:101000005B424F4F545D2072656164206D65746171
:101010002046414C484F550A000000005B424F4FAC
:10102000545D206D616769633D0000005B424F4F76
:10103000545D2073697A653D000000005B424F4FAC
:10104000545D206372633D005B424F4F545D2073DB
:10105000656D204F54412070656E64656E74652027
:101060002D3E2061707020616E746967610A000016
:101070005B424F4F545D2073697A6520696E7661DB
:101080006C69646F202D3E206C696D706120652055
:1010900061707020616E746967610A005B424F4F36
:1010A000545D204D49534D41544348206E6120709A
:1010B0006167696E61206F66663D0000202062797D
:1010C0007465206B3D0000002020657363726974B5
:1010D0006F3D000020206C69646F3D005B424F4F04
:1010E000545D2043524320666C61736820696E74BE
:1010F00065726E613D0000005B424F4F545D2043BE
:10110000524320657370657261646F3D000000009A
:101110005B424F4F545D20636F7069612046414CC4
:10112000484F55202D3E206170702065786973749A
:10113000656E74650A0000005B424F4F545D20638A
:101140006F706961207665726966696361646120A8
:101150004F4B0A005B424F4F545D20435243206582
:10116000787465726E61204641494C0A00000000A7
:101170005B424F4F545D2043524320657874657243
:101180006E61204F4B0A00005B424F4F545D20615F
:1011900020636F70696172206677207061726120D0
:1011A000666C61736820696E7465726E612E2E2E96
:1011B0000A0000000A5B424F4F545D20746573744F
:1011C00020626F6F74207072696E740A00000000F4
:1011D000303132333435363738394142434445466D
:1011E000000000005B424F4F545D20637263206338
:1011F0006F6D70757465643D00000000F8B500BF48
:10120000F8BC08BC9E467047F8B500BFF8BC08BCE7
:0C1210009E4670472D024000090240007D
:020000040041B9
:10000000F8FF4520092741006F4141006F41410041
:100010006F4141006F4141006F414100000000000D
:100020000000000000000000000000006F414100DF
:100030006F414100000000006F414100BD49410097
:100040006F4141006F4141006F4141006F414100EC
:100050006F4141006F4141006F4141006F414100DC
:100060006F414100000000006F4141006F414100BD
:100070006F414100E13941006F4141006F41410052
:100080006F4141006F4141006F4141006F414100AC
:100090006F4141006F4141006F4141006F4141009C
:1000A0006F4141006F4141006F4141006F4141008C
:1000B0006F4141006F4141006F4141006F4141007C
:1000C0006F4141006F4141006F4141006F4141006C
:1000D0006F4141006F4141006F4141006F4141005C
:1000E0006F4141006F4141006F4141006F4141004C
:1000F0006F4141006F4141006F4141006F4141003C
:100100006F4141006F4141006F4141006F4141002B
:100110006F4141006F4141000000000000000000FD
:100120006F4141006F414100454541006F41410031
:100130006F4141006F414100000000006F414100EC
:100140006F4141006F4141006F4141006F414100EB
:100150006F4141006F4141006F4141006F414100DB
:100160006F4141006F414100F8B500BFF8BC08BCC9
:100170009E467047693F4100F8B500BFF8BC08BC17
:100180009E467047453F4100401B000001000000B3
:10019000627573207265636F7665727920666F721F
:1001A00020616464723D3078253032580A000000C6
:1001B0000D0A5B51535049204452495645525D2027
:1001C00046534D2061626F72746F752120657272A3
:1001D0006F725F636F6465203D2025750A00000023
:1001E0005B5350495D204552524F523A205458209B
:1001F00054696D656F757421000000005B535049B0
:100200005D204552524F523A2052582054696D6534
:100210006F757421000000007072657373757265EC
:1002200020646F6E65207374617475733A20256461
:100230000000000066696E616C2074656D703A2084
:10024000256600005B5454435D2053796E6320742F
:10025000696D656F757420282575206279746573E2
:100260002920E28094206D6F646F206E6F726D6143
:100270006C206469726563746F0A00005B545443B8
:100280005D2053796E63204F4B20E28094206120E3
:10029000656E766961722052454144590000000044
:1002A0005B4F54412052585D2073796E6320696E14
:1002B00076616C69646F3A20307825303458202894
:1002C000657370657261646F203078253034582909
:1002D0000A0000005B4F54412052585D20454E44B7
:1002E000206D61726B657220E280942073697A657B
:1002F0003D256C75206372633D30782530386C582D
:100300000A0000005B4F54412052585D20706B740E
:10031000207365713D2575206C656E3D25752072D5
:10032000656164793D25750A000000005B4F54410A
:100330002052585D2044726F70207365713D2575A1
:100340002028466C6173682062757379290A000061
:10035000726573756C7420747463202564000000EA
:1003600070617273653A20307825303258203078C9
:1003700025303258203078253032582030782530DA
:1003800032580A00636D6431000000005B5454432E
:100390005D2053544152545F4F5441207265636550
:1003A0006269646F20E280942061207072657061E0
:1003B000726172206D656D6F7269612E2E2E000064
:1003C000636D643320E28094204F5441206D6F644C
:1003D00065204F4646000000636D64350000000054
:1003E0000D0A2020202020202D3E205B4445425530
:1003F000475D2054494D454F555421205374617435
:1004000075732052656720626C6F71756561646FEA
:1004100020656D3A203078253032582000000000E9
:1004200020205B54325D20457363726974612070D3
:10043000616472616F20307841352F30783541200A
:100440002E2E2E200000000054494D454F555420BB
:100450005B4641494C5D0D000D0A20205B54325D26
:10046000202020627974655B256C755D3A20657388
:10047000637269746F3D307825303258206C69643E
:100480006F3D307825303258000000004F4B205B24
:10049000504153535D0D00000D0A20205B54325D26
:1004A00020256C75206572726F73205B4641494C44
:1004B0005D0D0A0020205B54335D20457261736539
:1004C0002054494D454F5554205B4641494C5D0DE4
:1004D0000000000020205B54335D20457363726987
:1004E000746120636F6E7461646F72203078303095
:1004F0002E2E30784646202E2E2E20000D0A20204B
:100500005B54335D202020627974655B256C755DDA
:100510003A206573637269746F3D307825303258C4
:10052000206C69646F3D307825303258000000003F
:100530000D0A20205B54335D20256C752065727296
:100540006F73205B4641494C5D0D0A000D000000B1
:1005500020202B2D2D2D2D2D2D2D2D2D2D2D2D2DE7
:100560002D2D2D2D2D2D2D2D2D2D2D2D2D2D2D2DBB
:100570002D2D2D2D2D2D2D2D2D2D2D2D2D2D2D2DAB
:100580002D2D2D2D2D2B0D0020207C20205445536A
:10059000544520515350493A20533235464C31315D
:1005A000364B20E28094204C454954555241202F2F
:1005B0002045534352495441202020202020207CB4
:1005C0000D00000020207C2020536563746F722092
:1005D00064652074657374653A2030782530366C14
:1005E0005820202872656769616F206C6F677329D6
:1005F00020202020202020207C0D0A0020205B5479
:10060000315D20457261736520736563746F72207C
:1006100030782530366C58202E2E2E200000000019
:10062000627974655B256C755D3D30782530325894
:1006300020213D2030784646205B4641494C5D0DE7
:100640000A00000020207C2020526573756C7461C4
:10065000646F3A2025752F25752074657374657352
:1006600020706173736172616D2020202020202032
:1006700020202020202020207C0D0A0020207C200B
:100680002051535049204F4B20E2809420666C61EA
:100690007368206F7065726163696F6E616C202092
:1006A000202020202020202020205B504153535D1B
:1006B00020207C0D0000000020207C202046414CA2
:1006C000484120656D202575207465737465287315
:1006D0002920E280942076657269666963617220E0
:1006E00068772020205B4641494C5D20207C0D0A24
:1006F000000000000A203D3D3D204F424320424F74
:100700004F54203D3D3D2046572076332E39310051
:1007100077652061726520746865206368616D701B
:10072000696F6E732C20666F72206F6C6120646538
:10073000206E6F766F206F6C613F3F3F00000000BE
:100740005B4F54415D206669726D776172655F73BE
:10075000697A6520696E76616C69646F2028256C02
:10076000752920E2809420612061626F7274617249
:100770000A0000005B4F54415D2046575B305D3AF4
:10078000202530325820253032582025303258204C
:100790002530325820253032582025303258202537
:1007A00030325820253032580A0000005B4F544147
:1007B0005D2046575B3132385D3A20253032582073
:1007C0002530325820253032582025303258202507
:1007D00030325820253032582025303258202530EC
:1007E00032580A005B44454255475D204120636F03
:1007F0006D7061726172206F73207072696D6569CE
:10080000726F73203420627974657320646F206383
:100810006F6D7075746564204352433A2025303201
:100820005820253032582025303258202530325873
:100830000A0000005B4F54415D20466C6173685BA9
:1008400030782530356C585D3A20253032582025D7
:10085000303258202530325820253032580A0000D6
:100860005B4F54415D20435243204F4B202830784A
:100870002530386C582920E280942061206573630C
:100880007265766572206D6574616461646F730A68
:10089000000000005B4F54415D204552524F206ED6
:1008A0006F20657261736520646F73206D6574617C
:1008B0006461646F730000005B4F54415D205352CC
:1008C000313D30782530325820E280942061206C10
:1008D000696D7061722077726974652D70726F74C2
:1008E000656374696F6E2E2E2E0A00005B4F5441B3
:1008F0005D205352312061706F7320575253523D27
:1009000030782530325820E2809420496E6963693E
:100910006F204F54410A00005B4F54415D20496EE7
:100920006963696F20E28094206120617061676172
:100930007220736563746F72206465206D657461E5
:1009400064617461000000005B4F54415D205741B9
:1009500049545F45524153452023256C75206164FD
:1009600064723D3078256C58207374617475733DE2
:1009700025640A005B4F54415D204D6574616461DC
:100980007461206170616761646120E2809420611C
:100990002061706167617220736563746F72206695
:1009A00077203078256C580A000000005B4F5441D6
:1009B0005D204572617365206E616F20636F6E66A6
:1009C00069726D61646F20616464723D3078256C7A
:1009D000582076616C3D30782530325820E2809482
:1009E00020612061677561726461720A0000000015
:1009F0005B4F54415D204572617365204F4B20630E
:100A00006F6E6669726D61646F20E2809420612070
:100A10006167756172646172207061636F74657380
:100A2000000000005B4F54415D204552524F206E44
:100A30006F2065726173652028616464723D30784F
:100A4000256C58290A0000005B4F54415D20574136
:100A500049545F504B5420E2809420726561647960
:100A60003D25642062797465735F7772697474657B
:100A70006E3D256C750A00005B4F54415D20466950
:100A80006D206461207472616E73666572656E6359
:100A900069613A20256C752062797465732C204356
:100AA00052433D30782530386C582C2076256C75B3
:100AB0000A0000005B4F54415D20417669736F3A34
:100AC000205061636F74652066616E7461736D613F
:100AD00020286C656E3D30292069676E6F726164F5
:100AE0006F2E00005B4F54415D204552524F206EE7
:100AF0006F20657261736520646F20736563746F26
:100B000072206465206669726D776172650000000D
:100B10005B4F54415D204552524F206E61206573FA
:100B2000637269746120646F207061636F74652003
:100B30007365713D25750A005B4F54415D204D651D
:100B400074616461646F73206772617661646F734E
:100B50002E2041207265696E69636961722E2E2EA6
:100B6000000000005B4F54415D204552524F206E03
:100B700061206573637269746120646F73206D65B1
:100B800074616461646F73005B4F54415D20416226
:100B90006F727461646F20706F72206572726F2E55
:100BA00020566F6C74616E646F20616F206D6F648E
:0F0BB0006F20636F6D756E69636163616F2E00F7
:100BC00010B582B003F020FDA44B1B780C2B00F273
:100BD000E581DFE813F00D00E3013E00A8003101DC
:100BE00082019501E301AF01B201BD01D201D8013B
:100BF0009B4B1B68002B00F07E8103F099FF0028BF
:100C000040F0798103F03CFA0146964803F020FD5C
:100C100002F0B0FE03F034FA0146934803F018FDE9
:100C2000924803F0B7FC924B00221A60914B924A13
:100C30001A604FF48072FF21904803F057FE4FF482
:100C400080108F4B186003F091FC844B02221A70C5
:100C500051E103F06DFF04468A4B196841B18A4A9D
:100C6000A2FB0132120B41F2883303FB12122AB9A4
:100C70002346834A1268854803F0EAFC814A1368D8
:100C800001331360002C42D1134600221A607C4BC2
:100C90001868B0F5801F11D07D4B984240F22B812F
:100CA000012201A902F0FEFE9DF80420FF2A25D0B2
:100CB000734B1968774803F0CBFC1CE16C4B1B6845
:100CC000002B40F018816C49734803F0C1FC0023ED
:100CD0000193019A714B9A4206DC1A46019B01333B
:100CE0000193019B9342F9DD6348654B186003F063
:100CF0003DFC604B4FF481121A60FCE0684803F041
:100D000049FC03F0DBF8554B03221A70F3E0022C88
:100D100040F0F1805A4B1968624803F099FC4F4B40
:100D20000C221A70E7E0604B1B6801335B4A934268
:100D30002CD85D4A136003F0E3FE002800F0DB804E
:100D4000594B00221A6003F0E1FE584C208003F05A
:100D5000E3FE574B188022884FF6FF739A4221D04A
:100D6000002855D0434B186842F220031344B0EBDF
:100D7000C31F53D8424B186000F580523D4B1A6098
:100D800003F0F4FB354B04221A70B4E0464B00220A
:100D90001A6003F0B5FE0146354B1A68454803F06A
:100DA00057FCC8E703F0DAFE344C027843781B04A2
:100DB00043EA0263C2781343827843EA0223636002
:100DC000027943791B0443EA0263C27913438279AF
:100DD00043EA0223A360027A437A1B0443EA0263D4
:100DE000C27A1343827A43EA0223E36003F09AFE55
:100DF000E368A2686168304803F02AFC4FF4801071
:100E00001F4B186003F0B2FB144B08221A7072E0FB
:100E10002A4803F0BFFB03F085FE6CE003F09EFE62
:100E20000146234B1A88264803F000FD03F07AFEA2
:100E30000A4B05221A705EE003F07AFE002841D1C9
:100E400003F08CFE01461A4B1A881D4803F0EEFC95
:100E500003F068FE014B05221A704CE00F0640209B
:100E6000C0054020B8084100EC08410018094100C5
:100E7000E0054020E4054020001010000001402063
:100E8000E8054020DC0540205917B7D1480941004A
:100E9000FF0F1000AC094100740941009F8601005A
:100EA000F0094100240A4100D8054020AA0540204D
:100EB0009E054020480A4100780A4100B40A4100DA
:100EC0000803402003F034FE022814D1354803F013
:100ED00061FB354B0C221A700DE0344B1B8842F23B
:100EE00020001844324B1A883249C00102F05AFFE0
:100EF0002D4B06221A70022001F0A8FF02B010BD8F
:100F000003F016FE48B92C4A294B1B8811680B4484
:100F10001360254B03221A70EDE703F009FE022847
:100F2000E9D1224B1988254803F092FB1E4B0C2275
:100F30001A70E0E701F018F8DDE74FF480722049FD
:100F40004FF4801002F02EFF174B0A221A70D2E7DE
:100F500003F0EEFD30B91B4803F01CFB124B0B22D3
:100F60001A70C8E703F0E4FD0228C4D1164803F064
:100F700011FB0D4B0C221A70BDE7144B00221A60B6
:100F800003F048FCB7E70023104A1360064A1370C9
:100F900003F0FEFB0E4803F0FDFAACE7024B002223
:100FA0001A70A8E7E40A41000F064020AA05402075
:100FB0009E05402008034020E0054020100B410022
:100FC00000014020380B4100640B4100C005402067
:100FD000880B4100012070472DE9F04F2DED0A8B61
:100FE00092ED009B8FB0B5EEC09B05938B68049388
:100FF000F1EE10FA0B69CD680690D1E900A78B4697
:10100000089308D41AF0040F34D11AF0080303939C
:1010100032D0202302E02D23B1EE499B2B70049B9C
:1010200003F1FF390123039319EE903A19EE101AD8
:1010300023F00042C04B00249A4208BFA1421ED1B7
:10104000059B0398413B192B94BFBC49BC492844DC
:1010500003F074FD284603F0F5FB049BCDF800A0D7
:1010600002462946069802F09BFB0FB0BDEC0A8BA6
:10107000BDE8F08F2B23D1E7DDF81090D4E78C4248
:10108000934108D2059B0398413B192B94BFAD496E
:10109000AD492844DCE7B5EE409BF1EE10FAB2EE24
:1010A00004CBB7EE00AB40F0C080059803F0E4FC41
:1010B000002FC0B2C0F26281672840F0D580002FB7
:1010C00008BF0127231DC0F2D180BC4280F2CE8030
:1010D000002C4FF066080CDAB8F1660F07F1010733
:1010E00007D1002C02DAB7EE00AB0024672800D04D
:1010F00027440023B0EE4A8BB0EE49BB8BEE080BC1
:101100000993079002F0A8F8099B90EE08BB013301
:101110009F420798B1EE4BBB88EE0C8BEED1B1EE3F
:10112000047B28EE078BB4EECB8BF1EE10FA00F3C4
:10113000A080B4EE4B8BF1EE10FA09D1BDEEC00BDE
:101140009FED796B10EE103A13F0010F06FE088B3D
:1011500039EE088B2AEE0C9BB4EEC89BF1EE10FA28
:1011600000F28A80B8F1660F04F1010440F0868035
:1011700001372146CB1B0022039F0A9316460A9B88
:10118000994240F0A5803346002E00F0DF80E81938
:101190000022B8F1650F027029D1089B013B9442EF
:1011A000EA54BCBF644201224FF0020B4FF00A0E1A
:1011B000591E002C40F0D180BBF1000F00F3CD8010
:1011C000002A0CBF2B222D226A54059A023B413A79
:1011D000192A05EB030198BF4FF045089F4281F89B
:1011E000008001DA03F0AAFCCB44ABF104090AF059
:1011F0000303022B7FF42EAFB9F1000F7FF72AAF64
:10120000284603F01FFB05EB0903039A824240F3D3
:10121000B18003984A463021284403F067FB00233D
:10122000049317E70134B0EE47AB2AEE0C7BB4EE23
:10123000C79BF1EE10FAF5D59FED3D7B00230BE047
:1012400014F5967F05DA23B929EE079B2AEE07AB42
:101250000123013C8AEE0CABB4EECA9BF1EE10FA0E
:10126000EED422E706272DE7804635E74FF06508E4
:101270003FE79FED2D8B6BE7B0EE4A9BB8F1650F12
:1012800014BF2146002175E74EB9002907DA079EF1
:101290002E23AB550123013709F1FF391E46AB1848
:1012A00005EB070C3B444FF0300E01E00CF801EB6E
:1012B0009C45FBD1099B02EB070C3033A9EB0202E2
:1012C00002F1FF3905F80C300CF10107002223E090
:1012D000DBF810300797053BBB427FF654AF88EE32
:1012E000090BCDE90C200B9101F0B6FFFDEEC07BA0
:1012F000DDE90B1217EE90CA6346092BA8BF09233C
:1013000009930AF0100353EA0C0C0D98BCD167281E
:10131000BAD10029B8DA013299EE008B0139B1EE69
:10132000488B89EE0C9B2AE70000000000000000BB
:1013300000000000000050430000F07F184741000B
:101340001C47410020474100244741001AF0100F7C
:101350001EBF2E23EB55013719E70B4694FBFEFC0D
:101360000CEB8C01A4EB41013031E95464460BF1E4
:10137000FF3B1DE72A5C1A54013846E767283FF413
:1013800071AF80460627A7E62DE9F047AEB00746C5
:10139000164605914FF00008059D2B78002B00F0B4
:1013A000E08000244FF0FF33CDE909430EAB0C93EE
:1013B00080230B940D932B5D0BB1252B30D134B1D1
:1013C000294622463846254402F096FE0595059B9F
:1013D0001A78252A40F0BC8003F10109CDF8149059
:1013E0004A46002113782B2B104602F1010223D02C
:1013F0002ED8202B24D0232B26D001B105902A2BC8
:101400002ED002F0F3FC059A0B9000201146013219
:101410000B78303B092B79D9002830D005912EE08C
:101420000134C8E7099B43F0010309930121D9E77F
:10143000099B43F00203F8E7099B43F00403F4E738
:10144000099B43F00803F0E7099B43F01003ECE726
:101450002D2BE7D0302BEBD00029D2D00590D0E750
:1014600033681A1D1B6832600130002B05900B9306
:1014700005DA099A5B4282F0010209920B93099BFB
:10148000DA0744BF23F002030993059B1A782E2A3A
:101490000FD14FF0000ACDF828A05A785D1C2A2AF7
:1014A000059535D10233059333681A1D1B683260E8
:1014B0000A9305A802F020FF059D0390287803F009
:1014C000DBFA2528039900F0DA806138172800F24A
:1014D000E080172800F2DD80DFE810F02B00DB0051
:1014E000B6004700A700A700A700DB004700DB000D
:1014F000DB00DB00DB009E0065008300DB00DB001F
:10150000C700DB005600DB00DB00740001207DE734
:10151000284602F06BFC53460A90294601350A78AA
:10152000303A092A03D9002BC3D00591C1E7012322
:10153000F3E7324606A802F0DBFF002872D06B1CEE
:10154000059306AA2B7809A9384603F031FB044419
:101550004444A04540F3A780544B4F221A604FF0FB
:10156000FF3840462EB0BDE8F0873346012206A87A
:1015700001F0B0FD002855D0013506AA09A938466A
:10158000059501F01DFFE2E73346002206A801F0B1
:10159000A1FD002846D0013506AA09A938460595BF
:1015A00002F036FBD3E73346002206A801F092FD95
:1015B000002837D0013506AA09A93846059503F059
:1015C000F5FAC4E73346002206A801F083FD48B3CC
:1015D0006B1C05932B7806AA09A9384601F028F957
:1015E000B5E733460022F02106A801F073FDC8B12B
:1015F000DDE906320135134305950BD12C4803F084
:1016000021F9099B00932A490B9B0246384602F0B8
:10161000C7F89CE77823DEE7334608EB040206A808
:1016200002F070F90135059592E7324606A802F0FE
:101630005FFF0028F6D06B1C059306AA2B7809A93A
:101640003846FFF7C9FC82E78029EBD133680135C2
:101650001A1D1B6832608DF818300595012306AA03
:1016600009A9384602F0A8FA71E78029DAD1326870
:10167000131D33600135126805950023F0E78029BA
:10168000D0D1099B009301350B9B05950949012297
:10169000BCE700234FF0FF32CDF8149009930B9371
:1016A0000A920093F2E7A04676E600BFF8054020D4
:1016B0002F47410035474100F0B583B0012806D0DF
:1016C000A94B1B78002B00F04B8103B0F0BDA74B5A
:1016D0001B78002B00F0A180A54B1A78597841EABD
:1016E00002214AF65523994238D1A14B9A78DD78E8
:1016F00045EA02251A795E7946EA02264FF6FF731B
:101700009D4246D03446802E28BF8024994F3B7896
:1017100022462946984802F09BFF3B78002B77D160
:10172000964B1D80964B1C8056B19649964A0023D5
:1017300011F8010F02F8010B01339BB29C42F7D85C
:101740008C4B01221A70284602F00EFE8F4B0122AC
:1017500083F84D208E4B00221A70B1E71A468D484F
:1017600002F076FF854B1B8801338B494E220A70AD
:10177000C3F307224A70DBB28B705A4082F04E02EC
:10178000CA70794B01221A700422844803F0CCF805
:10179000E0E7774B997ADA7A120442EA0162597BE0
:1017A0000A43187B9C79D979090441EA04615C7A7F
:1017B00021431B7A42EA002241EA0321784802F0E1
:1017C00047FF0022694B1A70704B83F84B200122AF
:1017D00083F84D20694B4FF6FF721A803446802EF5
:1017E00028BF8024664B1C8056B16649664A002398
:1017F00011F8010F02F8010B01339BB29C42F7D89C
:101800005C4B01221A704FF6FF7002F0ADFDA1E7AC
:101810002946644802F01CFF98E70121624802F063
:1018200017FF534CE3780093A378627821785F48E0
:1018300002F00EFF2378202B00F28D8001A252F8D7
:1018400023F000BFC1164100EF18410047194100C5
:1018500057194100571941005719410057194100C4
:1018600057194100571941005719410057194100B4
:1018700057194100571941005719410057194100A4
:1018800057194100FF18410025194100571941001F
:101890005719410057194100571941005719410084
:1018A0005719410057194100571941005719410074
:1018B0005719410057194100571941005719410064
:1018C00057194100C9184100394B01221A60284BB1
:1018D0005B7807EE903AF8EE677AF2EE046A87EEEC
:1018E000A67A2A4B83ED117A01F034F8E8E6314804
:1018F00002F050FE254B012283F84D20E0E602F075
:1019000047FF1E4B00221A802B4802F043FE0123A2
:10191000274A1360294A13601C4A82F84B3082F828
:101920004D30CDE6264802F035FE0023234A1360F1
:10193000164A82F84B30012182F84D100B4A137081
:10194000134A1370BCE61F4802F024FE0F4B01221D
:1019500083F84D20B4E60D4B022283F84D20AFE60C
:1019600001F098FFB1E600BF0D0640200C064020B4
:10197000000240200806402004034100FE054020EC
:101980006605402005024020880240208803402050
:101990000A064020A0024100D405402068044020EF
:1019A000D40241002C034100500341006003410078
:1019B000C4054020840341008C034100C005402041
:1019C000C0034100D80341004C0440201C0000002B
:1019D00000000000880540200B000000000000000F
:1019E00034064020020000000100000088130000BF
:1019F000BC0540200C0000000000000093054020C2
:101A000001000000000000009D05402001000000D2
:101A1000000000003006402004000000010000002B
:101A20000000C8421805402014000000000000001B
:101A3000880340205000000000000000AC0540205A
:101A40000800000000000000C80540200800000059
:101A500000000000280440202400000000000000D6
:101A6000680540201000000000000000A90540208B
:101A700001000000000000000606402001000000F8
:101A8000000000008602402002000000000000006C
:101A9000520540200200000000000000000040202D
:101AA00000010000000000000706402001000000C7
:101AB00000000000D00540200400000000000000ED
:101AC000040640200200000000000000A0044020A6
:101AD0001800000000000000400540201200000037
:101AE00000000000B80440201800000000000000C2
:101AF000540540201200000000000000D0044020E7
:101B00001800000000000000000640200200000055
:101B100000000000E8044020180000000000000061
:101B2000940540200900000000000000A0054020AE
:101B300009000000000000002C05402014000000F7
:101B400000000000FC054020020000000000000032
:101B5000000540201800000000000000880240201E
:101B60008000000000000000660540200200000028
:101B700000000000FE054020020000000000000000
:101B8000080640200300000000000000020640207C
:101B900002000000000000000B06402001000000D1
:101BA0000000000036064020010000000100000097
:101BB000040000000C0640200200000000000000AD
:101BC000D4054020040000000000000078054020FB
:101BD000100000000000000000024020860000000D
:101BE00000000000680440201C000000000000000D
:101BF0000E06402001000000000000008404402088
:101C00001C00000000000000D80540200800000073
:101C1000000000009E0540200200000000000000BF
:101C2000AA05402002000000000000000803402038
:101C300080000000000000000001402000010000C2
:101C400000000000E00540200C0000000000000043
:101C50000F0640200100000000000000EC054020BD
:101C60000800000000000000D803402050000000E1
:101C700000000000100640202000000001000000CD
:101C80000100000003000000000000000000000050
:101C9000000000000000000000000000B40540202B
:101CA000B40540200800000000000000F4054020BA
:101CB000080000000000000000000000000000001C
:101CC00066666666666666662DE9F04786468C46F9
:101CD0000846089E154674461946002B40F0C280FF
:101CE0008242B2FA82F245D94AB1C2F1200300FA27
:101CF00002FC2EFA03F3954043EA0C0C94404FEAA1
:101D0000154EA8B2BCFBFEF8230C0EFB18CC08FB4A
:101D100000F943EA0C43994528D9EB1808F1FF373D
:101D200004D2994502D9A8F102072B44A3EB090379
:101D3000A4B2B3FBFEFC0EFB1C330CFB00F044EA28
:101D40000344A04214D92C190CF1FF3304D2A04251
:101D500002D9ACF102032C44241A43EA07401EB115
:101D6000D440002334607360BDE8F0874746DDE768
:101D70006346F1E792BB431B01214FEA154EAFB218
:101D8000B3FBFEFC200C0EFB1C330CFB07F840EAF7
:101D90000343984562D9EB180CF1FF3004D2984503
:101DA00002D9ACF102002B44A3EB0803A4B2B3FBAD
:101DB000FEFC0EFB1C330CFB07F744EA0344A7426E
:101DC0004ED92C190CF1FF3304D2A74202D9ACF141
:101DD00002032C44E41B43EA0040C0E7C2F12003A5
:101DE00020FA03F1954090402EFA03F303434FEAA3
:101DF000154EAFB2B1FBFEFC0EFB1C10190C0CFB18
:101E000007F841EA0041884504FA02F422D969182A
:101E10000CF1FF3004D2884502D9ACF1020029440C
:101E2000A1EB08019BB2B1FBFEFC0EFB1C110CFBED
:101E300007F743EA01439F420ED9EB180CF1FF313B
:101E400004D29F4202D9ACF102012B44DB1B41EAD0
:101E5000004192E76046E3E76146F7E76046A3E7A3
:101E60006346B7E7834206D916B9002108467BE7E7
:101E7000C6E900E0F9E7B3FA83F78FB9834201D3EB
:101E8000724508D8BEEB020460EB030301209C46B8
:101E90001EB9002168E73846FAE7C6E9004CF8E7C2
:101EA000C7F1200CBB4022FA0CF41C432EFA0CF1B3
:101EB00020FA0CF3B84001434FEA14490EFA07F533
:101EC000B3FBF9F81FFA84FE09FB18300B0C08FB72
:101ED0000EFA43EA00439A4502FA07F240D9E318A2
:101EE00008F1FF3004D29A4502D9A8F10200234438
:101EF000A3EB0A0389B2B3FBF9F809FB183308FB1B
:101F00000EFE41EA03418E452CD9611808F1FF33DA
:101F100004D28E4502D9A8F10203214443EA0040CD
:101F2000A0FB0298A1EB0E014145CE46434602D3E9
:101F300006D14D4504D2B9EB020E68EB040301381B
:101F4000002EA6D0B5EB0E0261EB030101FA0CFCEA
:101F500022FA07F34CEA0303F940C6E9003198E797
:101F60004046C5E74346D9E72DE9F041CCB002F041
:101F7000DFFD002840F0BF80644B59684A1E644B67
:101F80009A4242D2082208A9624801F08BFD9DF8CE
:101F9000273004939DF8263003939DF82530029353
:101FA0009DF8243001939DF8233000939DF8223052
:101FB0009DF821209DF82010574802F049FB082287
:101FC0000AA9564801F06EFD9DF82F3004939DF844
:101FD0002E3003939DF82D3002939DF82C30019301
:101FE0009DF82B3000939DF82A309DF829209DF80C
:101FF00028104B4802F02CFB444B5F68AFB34FF006
:10200000FF340026DFF80C811BE0464802F020FB7D
:10201000454B0C221A705CE0013295420ED910F843
:10202000011B4C40614614F0010F14BF83EA5404B5
:102030006408013911F0FF01F5D1EDE72E44B742F4
:1020400015D9BD1BB5F5807F28BF4FF480752A4692
:102050000CA906EB080001F025FDB742EED00CA854
:1020600000224FF0080C314BD9E74FF0FF34E14329
:10207000264B9B688B422FD0CBB20093C1F3072332
:10208000C1F30742090E2A4802F0E2FA0CAC294DCE
:102090000FCD0FC42B6823600CAC11AF264E54F843
:1020A000045B042207A9284601F0FCFC9DF81F30C0
:1020B00001939DF81E3000939DF81D309DF81C2063
:1020C0002946304602F0C4FABC42E8D1164B0C2235
:1020D0001A704CB0BDE8F081184802F0B9FA0B480C
:1020E000174B40F8103BF022FF2102F0FFFB0E4B94
:1020F00009221A70EDE702F01BFD0228E9D1114810
:1021000002F048FA084B0C221A70E2E70001402066
:1021100000F0DF0000101000740741008010100074
:10212000AC074100400741000F0640202083B8ED76
:10213000E4074100C4484100340841006008410000
:1021400034CD12AB9408410070B504460378013BCE
:10215000082B73D8DFE803F005286B73405F959A6E
:10216000C00002F087FB002868D0624B1B78002B70
:1021700064D1604B01221A7002F08CFC237B43B1C6
:102180006078400000F0FE0002F096FA022323700F
:1021900054E06378A07A003818BF012040EA430079
:1021A000C0B202F089FAF1E702F06EFB50B10023F1
:1021B0006372237B53B9A37A002B0CBF032307233D
:1021C00023703BE0204601F0C9FD37E0E07A02F0E1
:1021D00067FC0523237031E002F0B8FB50B9A38AF5
:1021E00001339BB2A382B3F57A7F27D9204601F051
:1021F000B5FD23E00023A38202F046FB38B16078EE
:1022000002F0F0FA002323730623237016E0204621
:1022100001F0A4FD12E002F037FB20B1002363724D
:10222000072323700AE0204601F098FD06E0437A78
:102230004268D05C02F034FC0423237070BD02F0CD
:1022400085FB50B9A38A01339BB2A382B3F57A7F91
:10225000F4D9204601F082FDF0E70023A38202F0CA
:1022600013FB50B1637A0133DBB26372227A9A4274
:1022700014BF032309232370E0E7204601F06EFD1D
:10228000DCE700F066FB08232370D7E702F066FB6B
:1022900050B9A38A01339BB2A382B3F57A7FCDD91B
:1022A000204601F05BFDC9E70023A382657A6668DA
:1022B00002F0FCFB7055637A0133DBB26372227A61
:1022C0009A4204D001F0CFFC07232370B6E702F056
:1022D000F3FB09232370B1E702F0DEF8002323703B
:1022E000A375044A13702369002BA7D000209847D8
:1022F000A4E700BFA905402030B583B004460378A9
:10230000072B00F2BA80DFE803F00B040D235F789F
:102310008EA8062001F096FE0023A38202232370DC
:1023200003B030BD01F0ACFE10F0020F04D000236A
:10233000A38203232370F3E7A37D0133DBB2A375EC
:10234000022B4FF0010384BFE37507232370E7E7F7
:102350004378022B0DD0032B20D0012B2FD1C26844
:102360004168806801F09EFBE368236104232370C9
:10237000D6E7C2684168806801F0A0FCE368236189
:102380004FF4802501F07CFE10F0010F01D1013DDA
:10239000F8D1062323700023A382C1E7816820209F
:1023A00001F0F0FD44F620630193019B5A1E019257
:1023B000002BFAD1062323700023A382B0E7022367
:1023C000C37507230370ABE70269C3689A4207D35A
:1023D000002303708369002BA2D0012098479FE758
:1023E000838A01339BB2838241F28732934297D929
:1023F0000323C3750723037092E70269C3689A42F7
:1024000004D3002383820623037089E7838A013380
:102410009BB2838241F28732934281D90423C375F0
:10242000072303707CE702F04DFB40B900232370C3
:10243000A369002B3FF474AF0120984770E7A38A8B
:1024400001339BB2A38241F2873293427FF668AF99
:102450000523E3750723237062E7C17D084802F076
:10246000F7F8A3690BB10020984700232361E360CC
:10247000A382A3756370237052E7002303704FE7B4
:10248000B001410038B50025514C06E000F0ECFAEF
:102490000135EDB2052D00F0968002F0FFF92378AA
:1024A000002B46D06378002B47D0A378002B48D070
:1024B000E378002B49D02379002B4AD06379002B95
:1024C0004BD0A379002B4CD0E379002B4DD0237A4D
:1024D000002B4ED0637A002B4FD0A37A002B50D024
:1024E0002378002BD2D06378002BCFD0A378002B99
:1024F000CCD0374BDB78002BC8D0354B1B79002B69
:10250000C4D0334B5B79002BC0D0314B9B79002B6F
:10251000BCD02F4BDB79002BB8D02D4B1B7A002B76
:10252000B4D02B4B5B7A002BB0D0294B9B7A83BB6A
:10253000ACE7FEF74FFD2070B4E701F07BFC607064
:10254000B3E701F0DDFAA070B2E700F08DFBE070B8
:10255000B1E700F087FF2071B0E700F07BFE60710B
:10256000AFE702F00AFBA071AEE702F00CFBE071EE
:10257000ADE702F004FB2072ACE702F002FB6072F0
:10258000ABE702F0E6FAA072AAE70135EDB2052D3D
:102590001BD002F002FB0028F7D002F0F6FA002868
:1025A000F3D002F0F4FA0028EFD002F0F2FA00289B
:1025B000EBD002F0F0FA0028E7D002F0F0FA0028A1
:1025C000E3D0012000E0002038BD0020FCE700BF80
:1025D0008805402030B5C1B0404801F0DBFF404CD9
:1025E000204601F0D7FF3F4801F0D4FF4FF480317F
:1025F0003D4802F02DF8204601F0CCFF00F034FBFE
:102600004FF48031394802F023F8062001F01AFD1A
:102610004FF48031202001F0B5FC01F053FFA8B148
:102620004FF4807269464FF4803001F03BFA6B46FC
:10263000002113F8012BFF2A0DD10131B1F5807F64
:10264000F7D12B4801F0A6FF012408E004462948F1
:1026500001F0A0FF03E0284801F0FAFF002400F099
:1026600067FC08B300F07AFB80B10234E4B21C4886
:1026700001F090FF254603222146204801F0E8FFA3
:10268000032C1ED11E4801F085FF1FE00134E4B287
:102690000EE0134801F07EFF0134E5B20322294623
:1026A000164801F0D5FF0CE000F058FB0028F0D1EF
:1026B0000B4801F06FFF2546032221460F4801F029
:1026C000C7FFC5F103010F4801F0C2FF044801F044
:1026D00061FF024801F05EFF41B030BD4C05410092
:1026E0005005410088054100C4054100FC0541003A
:1026F0008C0441004804410020064100440641008A
:102700007C064100B8064100414B03B19847414B5C
:1027100003B19847EFF31083B3FA83F35B09019396
:1027200072B6BFF35F8F01994FF0E022D2F8883D77
:1027300043F47003C2F8883DBFF34F8FBFF36F8F30
:1027400011B1BFF35F8F62B6334B5B6913F4003F87
:1027500013D1BFF34F8FBFF36F8F2F4B0022C3F8FE
:102760005022BFF34F8FBFF36F8F5A6942F400328C
:102770005A61BFF34F8FBFF36F8F274B5B6913F421
:10278000803F2BD1244B0022C3F88420BFF34F8F0E
:10279000D3F88030C3F3C904C3F34E334FEA431C6C
:1027A00043F6E07E1C480CEA0E01234641EA8372A0
:1027B000C0F86022013BB3F1FF3FF7D1ACF1200C30
:1027C0001CF1200FEFD1BFF34F8F134A536943F42D
:1027D00080335361BFF34F8FBFF36F8F00F018FF4B
:1027E00001F010FE0D4B23F07F030B4A93600C4B5E
:1027F00098470C4B03B198470B4B03B19847002106
:10280000084601F07DFB094B03B19847FEE700BF86
:10281000000000000000000000ED00E000004100AA
:102820005D3B4100000000000000000000000000CF
:102830002DE9F04F8BB00D460493D1E901132F68B9
:10284000D5F80C9003900029A8BF27F00207924604
:10285000B8BF012117F010020592DAE9006232D008
:1028600056EA02002FD0A3F1020B2C69029617F052
:10287000080004F1FF3418BF0BF1FF3B9046002223
:1028800009F8042006905A46012C1EDC059A002AFD
:1028900051D1069A1AB1013C202209F804202A6974
:1028A00003980097013A121B09EB040100F078FF2E
:1028B000039B5B68DB0503D56B689842B8BF18467D
:1028C0000BB0BDE8F08F9B46CFE7029850EA0800B6
:1028D00008D1A1EB0B001044002803DC002AD5DD51
:1028E000B807D3D50298049E00F00F000928A6F17E
:1028F000410CD4BF30305730BCF1190F04F1FF3414
:102900000ED840F0200CACF1610CBCF1190F07D8C7
:10291000CDE90813079202F0B6F8DDE90813079A2B
:1029200009F804000298060946EA0870013A029084
:102930004FEA1818A8E7DAE900210A43A9D009EB01
:102940000402049902F8011C023C302209F8042018
:102950009FE7704700B583B03A4A202313703A4985
:10296000D1ED007AB2EE047A67EE877AFCEEE77A70
:1029700017EE903A5370D1ED017ADFED346A67EECD
:10298000A67AFCEEE77A17EE903A93703049D1EDD3
:10299000007ABCEEE77A8DED017A9DF80430D370B1
:1029A00007EE103AB8EEC77A77EEC77A67EEA67AE6
:1029B000FCEEE77A17EE903A1371D1ED017ABCEE96
:1029C000E77A8DED017A9DF80430537107EE103AE5
:1029D000B8EEC77A77EEC77A67EEA67AFCEEE77AAA
:1029E00017EE903A93711B4BD3ED007AFCEEE77A29
:1029F00017EE903AC3F30721D1711372164BD3ED42
:102A0000007AFCEEE77A17EE903AC3F30721517291
:102A10009372124B93F84A30D37213460C32002053
:102A200013F8011B48409342FAD1064908730C4B36
:102A300001221A700D220B4801F076FF03B05DF8F9
:102A400004FB00BF78054020AC0540200000C842D0
:102A500068054020CC054020C80540208803402060
:102A60000D0640206804402030B486B03F4B8022E1
:102A70001A6003F548231822C3F8002E1022C3F869
:102A8000102E0822C3F8142E092019461025002400
:102A900042F20F72C1F8345E0194019B934205DC4F
:102AA000019B01330193019B9342F9DDC1F8305E34
:102AB0000294029B934205DC029B01330293029B2A
:102AC0009342F9DDD1F83C3E13F0080F01D10138F3
:102AD000E0D1274B0822C3F8102E1021C3F8341E72
:102AE000C3F8342E00230393039A42F20F739A42E1
:102AF00006DC1A46039B01330393039B9342F9DDE3
:102B00001B4B1022C3F8302E00230493049A42F288
:102B10000F739A4206DC1A46049B01330493049B0C
:102B20009342F9DD124B0822C3F8302E002305939F
:102B3000059A42F20F739A4206DC1A46059B01334E
:102B40000593059B9342F9DD094B1822C3F8042E27
:102B5000A3F5482380221A6024221A601A6A49F6D3
:102B60009D521A6106B030BC704700BF0080014022
:102B700000000E4070B504460378013B052B09D8D0
:102B8000DFE803F0030914326167407801F036FE94
:102B90000223237070BD436833B1427B985C01F01F
:102BA000FDFE03232370F5E7FF20F8E701F0DEFECA
:102BB00020B10023A37304232370EBE7A37B01332D
:102BC000DBB2A373C82BE5D9254801F0E3FC60789C
:102BD00001F0DCFE0023A37323702369002BD9D0FE
:102BE0004FF0FF309847D5E701F0C8FE90B10023C1
:102BF000A373A56825B3667B01F06AFFA855637BC4
:102C00000133DBB26373227B9A428CBF022305231C
:102C10002370BFE7A37B0133DBB2A373C82BB9D901
:102C2000104801F0B7FC607801F0B0FE0023A373F8
:102C300023702369002BADD04FF0FF309847A9E7F0
:102C400001F046FFDBE7407801F0A0FE0623237089
:102C5000A0E703690BB1002098470023237099E790
:102C6000E0014100FC01410082B0384B4FF40062AA
:102C7000C3F800274FF48232C3F810264FF41E32F7
:102C8000C3F8042ED3F8702E22F41E32C3F8702E2F
:102C9000D3F8742E22F41E32C3F8742E03F5805339
:102CA0004FF00042C3F80424D3F8702422F000420D
:102CB000C3F87024D3F8742422F00042C3F87424BB
:102CC000A3F5CA2380221A60214A5A604FF4007289
:102CD0001A6201221A604FF480231E490A6912F019
:102CE000807F01D1013BF9D11A4BAB225A6342F2EA
:102CF00010029A639B6B4FF4802316490A6912F401
:102D0000806F01D1013BF9D1124B4FF080721A60F4
:102D10004FF4FA730193019B5A1E0192002BFAD1D2
:102D20004FF0E0230722C3F8982D4FF00042C3F87C
:102D30009C2D094AC3F8A02D0522C3F8942DBFF39A
:102D40004F8FBFF36F8F012002B0704700000E401D
:102D50001100000100C00740370008132DE9F041C1
:102D6000ADF5007D062001F06DF94FF48031202093
:102D700001F008F901F0A6FB78B30DF1FF052A4632
:102D8000002302F8013F0133B3F5807FF9D12948D0
:102D900001F05EFC062001F055F94FF480720DEB56
:102DA00002014FF4803000F089FF01F08BFB0446F4
:102DB000C0B1E8464FF48072FF21404601F096FD15
:102DC0004FF4807241464FF4803000F06BFE0DF1FD
:102DD000FF340DF1FF0700260FE00446164801F00E
:102DE000D9FB02E0154801F0D5FB20460DF5007D2A
:102DF000BDE8F0810136BC420FD0204614F8013FF7
:102E000015F8012F9342F6D0042EF3D8C8F1010132
:102E100001440B4801F01CFCECE726B9094801F01D
:102E2000B9FB0124E1E73146074801F011FC002419
:102E3000DBE700BFD4044100B40441004804410072
:102E4000FC0441008C0441003005410010B50446EB
:102E500000F060FA314BD3ED007A052C4DD8DFE855
:102E600004F0050D21283E03204610BD002846D061
:102E70002B4B1868003818BF0120F6E7002840D017
:102E8000274B1B68002B3ED0264B1B68002B3CD0E9
:102E90009FED257AF4EEC77AF1EE10FACCBF02204E
:102EA0002046E2E71F4B1B68002B14BF2046012081
:102EB000DBE7B2EE0E7AF4EEC77AF1EE10FA26D422
:102EC000184B1B6833B19FED187AF4EEC77AF1EE18
:102ED00010FA1EDC00280CBF20460020C5E7B2EE29
:102EE0000E7AF4EEC77AF1EE10FA14D50F4B1B6888
:102EF000002B0CBF20460520B7E70020B5E70320D4
:102F0000B3E70320B1E70020AFE72046ADE7042098
:102F1000ABE70220A9E70320A7E700BF3006402067
:102F2000C4054020C005402000008C42BC05402064
:102F30002DE9F041ADF5007D0DF1FF050DF2FF101B
:102F40002B4640F2011180AA891ACA1812F0010F0B
:102F500014BF5A22A52203F8012F8342F5D1264837
:102F600001F076FB062001F06DF84FF480720DEB56
:102F700002014FF4803000F0A1FE01F0A3FA0446F4
:102F800098B1E8464FF4807422460021404601F093
:102F9000ADFC224641464FF4803000F083FD0DF138
:102FA000FF340DF1FF0700260AE0144801F0F2FAA1
:102FB00020460DF5007DBDE8F0810136BC420FD002
:102FC000204614F8013F15F8012F9342F6D0042E45
:102FD000F3D8C8F101010144094801F039FBECE7DD
:102FE00026B9084801F0D6FA0124E1E7314606483F
:102FF00001F02EFB0024DBE72004410048044100DF
:10300000580441008C0441009804410010B5012887
:103010001FD1284B1988013189B219801F2907D87F
:10302000254B1B78032B41D8DFE803F00B16202932
:10303000214B04221A70214801F00AFB00F02AFCFF
:1030400009E01F4B1B78AA2B14BF002301231A4A47
:10305000137000F01FFC10BD194B1B78552B14BFCB
:10306000002301235B00144A1370F2E7144B1B7812
:10307000AA2B14BF002203220F4B1A70E9E7104B52
:103080001B78552B03D00C4B00221A70E1E7042467
:10309000094B1C700B4801F07DFA0B4B01221A7092
:1030A00022460A490A4801F03FFCD4E7024B0022BD
:1030B0001A70CEE702064020360640204402410046
:1030C0000B0640207C0241000D064020A44B41002D
:1030D00068044020902910B50FDC7F2913DD80396A
:1030E000102910D8DFE801F02B2B360F110F0F0F2E
:1030F000200F0F0F0F0F0F0F3600C02944D0F029FB
:1031000042D0A02921D000200DE019682AB10A1D63
:103110001A60B1F90030DA1702E00C1D1C600B8850
:10312000C0E90032012010BD196822B10A1D1A60E1
:1031300091F90030EFE70C1D1C600B78F0E719687F
:10314000F2B10A1D1A600B68E5E71A68111D1960D3
:103150001368E0E7196852B1073121F0070101F166
:1031600008021A60D1E90023C0E90023DAE7CA1D8A
:1031700022F0070202F108011960D2E90023F3E707
:103180000C1D1C600B68CBE71A68111D19601368D1
:10319000036000234360C5E700B170472A4B2B4A08
:1031A000117807EE101AB8EE477ADFED297AC7EEEC
:1031B000276AC3ED006A517807EE101AB8EE477A15
:1031C000C7EE276AC3ED016A917807EE101AB8EED0
:1031D000477AC7EE276AC3ED026AD17807EE101A64
:1031E000B8EE477AC7EE276AC3ED036A117907EE96
:1031F000101AB8EE477AC7EE276AC3ED046A517910
:1032000007EE101AB8EE477AC7EE276AC3ED056AD3
:10321000917907EE101AB8EE477AC7EE276AC3ED28
:10322000066AD17907EE101AB8EE477AC7EE276A18
:10323000C3ED076A127A07EE102AB8EE477AC7EE96
:10324000276AC3ED086AA8E72804402054054020F7
:103250000000C8420120704753EC102BC3F30A5101
:103260002DE9F04140F2FD704C1E84429E4640D84C
:10327000A1F2FF30002833DB33282DDC244C4FF043
:10328000FF3CC0F120061546A1F21F4104FA06F2E8
:103290002CFA00FC4CEA020C24FA01F24CEA020C73
:1032A000C44003EA040805EA0C0757EA080725EAC0
:1032B0000C0223EA04030FD0002B0DDA4FF4801424
:1032C00004FA06F624FA01F10E43B61824FA00F4C3
:1032D00044EB03043246234643EC102BBDE8F08157
:1032E0009FED090BBFEE007B002B20FE070BBDE816
:1032F000F0810029F0D10A4603F0004343EC102B83
:10330000ECE700BFAFF30080000000000000000009
:10331000FFFF0F00254BD3ED007AB1EE0A7AF4EEF1
:10332000C77AF1EE10FA34DC9FED217AF4EEC77A19
:10333000F1EE10FA2FD4D3ED017AB0EE007AF4EE6C
:10334000C77AF1EE10FA28DCB7EE007AF4EEC77A0D
:10335000F1EE10FA23D4174BD3ED007A9FED167AD5
:10336000F4EEC77AF1EE10FA1BDCBAEE047AF4EE52
:10337000C77AF1EE10FA16D4104B93ED007AF3EE03
:103380000E7AB4EEE77AF1EE10FA54BF0120002075
:1033900070470020704700207047002070470020D1
:1033A0007047002070470020704700BFAC054020E8
:1033B00066664640C8054020000070423006402046
:1033C0002DE9F041D2E900230C4686B005465FEABC
:1033D000D378D1E901060968E76805913FD05242E8
:1033E00063EB4303002808DB21F002010591B8F1EB
:1033F000000F02D10599480722D5711E05A8029039
:103400000A20CDE90010204600F008FAB8F1000FBC
:103410001AD001382D233B542269059B0093013AB1
:103420003346121A3918284600F0BAF96B68DB05E2
:1034300003D563689842B8BF184606B0BDE8F0816E
:103440000807DAD43146D9E7059B590702D5013878
:103450002B23E0E71A07DFD501382023DBE700281C
:10346000C2DAC7E7214B4FF42052C3F8102603F508
:10347000805303225A601A6F22F003021A675A6FB0
:1034800042F003025A67A3F53D23AC221A604FF4C1
:103490000C625A604E221A6250221A604FF48072F7
:1034A0001A605B6913F0010F05D0114B9A695A69D4
:1034B00012F0010FFAD100230E4A13800E4A138036
:1034C00001200B4B98604FF0E0224FF40053C2F8FC
:1034D00000310649D1F8003743F08063C1F8003766
:1034E0004FF08063C2F80431704700BF00000E4007
:1034F00000400240520540208602402070B504463C
:103500000378012B0DD0022B2ED0002B36D101F0E9
:1035100031F9002831D000236382636101232370D5
:103520002BE001F027F950B9638A33B363690133A3
:103530006361144A934220D9022323701DE0658AF7
:10354000E66800F015FE7055638A01339BB2638212
:1035500000226261228A9A420FD800232370A36955
:103560005BB10120984708E083690BB100209847C0
:103570000023638223826361237070BD0023037084
:10358000FBE700BF3F420F0000B170471D4B03F146
:103590000800002213F8011F4A408342FAD1194B58
:1035A0005B7A9342F1D1184A164B5978117098788A
:1035B000D97841EA002107EE901AF8EEE77ADFEDBC
:1035C000136A87EEA67A82ED017A1879597941EA71
:1035D000002107EE901AF8EEE77AB2EE047AC7EE11
:1035E000876AC2ED026A9879D97941EA002107EE2B
:1035F000901AF8EEE77AC7EE876AC2ED036A1B7A83
:103600001374C2E794054020180540200000C8420A
:103610001A4B1B4A5A601A46936813F0010FFBD0ED
:10362000164BDB6813F4C07F12D0144B154A5A6056
:103630001A46936813F0010FFBD0104B124A5A60E0
:103640001A46936813F0010FFBD0104B104A1A6012
:10365000BFF34F8FBFF36F8F0E4BD3F8902222F042
:103660000102C3F89022D3F8942222F00102C3F899
:103670009422BFF34F8FBFF36F8F7047000C0E4043
:103680000D00005A0C08005A0C07005A00180E4092
:10369000010000A500ED00E01C4B4FF40042C3F810
:1036A00054281B49D1F8142142F01002C1F814210A
:1036B000184A4FF49841C2F810164FF40011C2F89E
:1036C000041ED2F8701E21F40011C2F8701ED2F848
:1036D000741E21F40011C2F8741E10225A601A6F71
:1036E00042F010021A675A6F42F010025A67A3F5AF
:1036F00039230C221A604FF40C625A604E221A626F
:1037000050221A60044B01221A70704700100E40BC
:103710000080084000000E400706402008B5012840
:1037200003D0194B1B785BB308BD184B1B782BB12A
:10373000012B0BD0154B00221A70F2E7144B1B78AB
:10374000AA2BEED1114B01221A70EAE7104B1B781D
:10375000552B06D0AA2B14BF002301230B4A13704C
:10376000DFE70A4B02221A700A49AA230B7055237D
:103770004B70094B84220231084800F0ECFFD3E77C
:1037800000F088F8D0E700BF0D0640200A06402070
:103790000906402000024020B9164100680440207C
:1037A0002DE9FF471D460C9B13F0010806460F4606
:1037B000144601D195420BD822463946304600F0D6
:1037C0009BFCA54204D82546284604B0BDE8F087F6
:1037D000A5EB04094A46102A28BF1022202168467A
:1037E000CA4601F083F800BFBAF10F0F0ED809F0F6
:1037F0000F026946304600F07FFCB8F1000FE3D1BC
:1038000022463946304600F077FCDDE71022694653
:10381000304600F071FCAAF1100AE5E72DE9F84FF7
:103820000446DDE90A9A6668D4F80C8024690C9F86
:10383000013C1946002E4FF00003D7F800B008F8FD
:1038400004301046B8BF01264D460123002C03DC8E
:10385000DBB12046BDE8F88F50EA010209D1A6EBA2
:1038600009022A44002A04DC002DF1DD1BF0020FBE
:10387000EED052464FEAEA7300F0F6FD013C1346E3
:10388000303208F80420013DE0E73B6823F01003E4
:103890003B60DEE708B5114B1B7883B9104B1A78F3
:1038A000042A0DD10F4B1B7823B10F4B1B78022B31
:1038B0000DD186220D4B0E49084800F04CFF08BD83
:1038C0000C4B01220C49054800F045FFF7E70B4B74
:1038D00001220B49014800F03EFFF0E76804402058
:1038E000360640200C0640200A064020B91641004A
:1038F000000240200D3041000B0640201D374100E2
:1039000009064020902910B50FDC7F2911DD803990
:1039100010290ED8DFE801F00F0F250D170D0D0D42
:103920001E0D0D0D0D0D0D0D2500A02903D0C02974
:1039300001D0002006E019680C1D1C600B680360B4
:103940001A60012010BD19680C1D1C600B68036013
:103950001A80F6E719680C1D1C600B6803601A706A
:10396000EFE719680C1D1C600B680360D117C3E9F1
:103970000021E6E710B582B0062000F063FB4FF4AB
:10398000FA630193019B5A1E0192002BFAD1124B4C
:1039900001225A6342F290029A639A6B4FF00042FE
:1039A00000211170BFF34F8FBFF34F8F4FF0807224
:1039B0001A604FF4802308490A6912F4806F03D11A
:1039C000013BF9D1054C00E0044C01F07BF808B153
:1039D000013CFAD102B010BD00C0074020A1070091
:1039E000144B5A6912F0010F1AD09869124B1B88B8
:1039F0000133DBB21149098889B2994210D030B441
:103A00000D4C218889B2C0B20D4D6854238012F04C
:103A1000E00F03D0074B4FF480721A6030BC704740
:103A200012F0E00F04D0034B4FF480721A6070471D
:103A3000704700BF004002405205402086024020EF
:103A40000000402010B504464378012B05D0022B1E
:103A500020D023B30023437021E000F0A7FF40B93A
:103A60006369013363610E4A934218D9022363707C
:103A700015E0637A6268D05C01F036F8637A01334E
:103A8000DBB2637200226261227A9A4207D8002375
:103A9000637004E00023437203724361437010BDFE
:103AA0003F420F0030B583B005460846124B1D63F8
:103AB0000B215963114999639B6B64230193019B0B
:103AC0005C1E0194002BFAD172B605F1004100F0A2
:103AD000ADFEBFF34F8F62B6074B4FF080721A6096
:103AE0004FF4802304490A6912F4806F01D1013B2D
:103AF000F9D103B030BD00BF00C00740B0100800CE
:103B0000154B4FF40412C3F8102603F580534FF4FD
:103B1000E002C3F80424D3F8702442F4E002C3F8AE
:103B20007024D3F8742422F4E002C3F874244FF014
:103B30000072C3F80024C3F81024C3F83024A3F59E
:103B4000592380221A6011225A604FF47F421A636F
:103B500001201860704700BF00000E400E4A38B5C3
:103B6000002313600D4A0E4C13600E4A0E4D136075
:103B70000E4A13600E4A13600E4A5362136101230A
:103B8000936000F063FF00F096FDAC4200D338BDB7
:103B900054F8043B9847F8E7F4054020E40340203C
:103BA00074014100E003402078014100D803402027
:103BB000DC034020E80340202DE9FF41134ED1F8FB
:103BC0000080B788ADF80C7005463068029002ACF2
:103BD000B0798DF80E00002A18BF1446D1E90167AC
:103BE0001A461BB9204600F02DFE0246002E02DBCD
:103BF000B24228BF3246CDF800803B4621462846D7
:103C0000FFF7CEFD04B0BDE8F08100BF28474100BA
:103C1000F0B50C46D1E9011687B023680593002959
:103C2000A4BF23F00203059305ABE76802930A23C0
:103C3000CDE900630546D2E900232046FFF7EEFDFB
:103C40002269059B0093013A3346121A3918284617
:103C5000FFF7A6FD6B68DB0503D563689842B8BF24
:103C6000184607B0F0BD704708B5134B1B78052BFD
:103C700008D8DFE803F003080D12171C00F08EFBD4
:103C80000D4B187008BD00F0E9FE0B4B1870F9E7FA
:103C9000FCF796FF084B1870F4E700F099FB064B11
:103CA0001870EFE700F0E1FE034B1870EAE700F050
:103CB0004BFF014B1870E5E79305402010B5134BFF
:103CC000186302245C6343F2B0049C639B6B72B67E
:103CD00000F1004000F0AAFDBFF34F8F62B64FF431
:103CE00080230A490A6912F0040F01D1013BF9D17E
:103CF000064B4FF080721A604FF4802303490A6923
:103D000012F4806F01D1013BF9D110BD00C0074012
:103D10000E4B1B78CBB900B583B00D4A012313704D
:103D2000002353709370D370137153719371D371D7
:103D30001372084B019309230093074B1921034881
:103D400000F03CFC03B05DF804FB70472C054020FC
:103D5000A0054020893541009405402010B5044657
:103D600000F09AFB00232370A382A37D0133DBB212
:103D7000A375022B08D8094B00221A70236913B1CE
:103D80004FF0FF30984710BD6178054800F060FCA7
:103D9000FEF76AFE0023A375EDE700BFA9054020EA
:103DA000900141000E4B1B78C3B9531EFF2B03D962
:103DB0000B4B02221A70704700B583B0084B4FF0CE
:103DC000010C83F800C0074B009313460A460146D6
:103DD000054800F0A2FB03B05DF804FB704700BF8C
:103DE0000E064020B1484100840440200278202A79
:103DF000034600F10100F9D0A2F109010429F5D927
:103E00002B2A06D02D2A13D101210133013B00209A
:103E100006E00021F9E700BF00EB8000C2EB4000A4
:103E200013F8012F303A092AF6D901B940427047F8
:103E30000021EBE70F4B4FF40022C3F810261822A5
:103E4000C3F8042ED3F8702E22F01802C3F8702E97
:103E5000D3F8742E22F01802C3F8742EA3F5482369
:103E600080221A6024221A601A6A49F69D521A6149
:103E70000120704700000E4000B170470C4B0D4A06
:103E8000117807EE901AF8EE677AF2EE046A87EE80
:103E9000A67A83ED007A527807EE902AF8EE677AD8
:103EA000DFED056A87EEA67A83ED017AE5E700BFCC
:103EB000AC054020040640200000C84208B50B486D
:103EC0000022027001230A490B700A490A700A494C
:103ED00010220A70AC224A704B228A70F722CA70F4
:103EE000064A1370042200F01FFD08BD680440203C
:103EF0000C0640200A064020D40540200D06402034
:103F000038B5FFF7C9FB0D4800F044FB0C4800F042
:103F10009FFB0A242546284600F090FD013CFAD17B
:103F2000FEF7B0FA30B1FEF755FBFFF7B3FCFFF731
:103F30009BFEFCE700F06EFCF5E700BFF4064100D5
:103F40001007410010B5054C237833B9044B13B169
:103F50000448AFF300800123237010BD4C044020BF
:103F6000000000000000000008B5034B1BB103492E
:103F70000348AFF3008008BD00000000500440205B
:103F80000000000082B00E4B1963586330229A6320
:103F90009A6B4FF080721A604FF4802308490A69C7
:103FA00012F4806F01D1013BF9D142F210730193F9
:103FB000019B5A1E0192002BFAD102B0704700BF3C
:103FC00000C0074000B1704738B50C4D284600F0DE
:103FD00093FB0B4C84ED000A281D00F08DFB84ED53
:103FE000010A05F1080000F087FB84ED020A05F1E3
:103FF0000C0000F081FB84ED030A38BD4005402031
:104000006805402000B1704708B50B4B1A785B7803
:1040100043EA022343F30B131BB207EE903AFAEE86
:10402000CE7A064BC3ED007AB7EEE77A53EC172B46
:10403000034800F00DFB08BDFC054020C8054020EA
:104040003402410082B00D4B586310229A639B6B7F
:104050004FF4802309490A6912F4806F01D1013BB2
:10406000F9D1064B4FF080721A6096230193019BA1
:104070005A1E0192002BFAD102B0704700C00740CF
:104080000D4B05225A6390229A639A6BBFF34F8FB0
:104090004FF000421078C0B2BFF34F8F4FF08072E4
:1040A0001A604FF4802304490A6912F4806F01D129
:1040B000013BF9D1704700BF00C0074010B50C4C60
:1040C0002046FFF7BFFC2046FFF718FA094B1B7884
:1040D0003BB163782BB9237A013B627ADBB29A4217
:1040E00000D810BD034B00221A70FFF7D3FBF8E78E
:1040F000680440200D06402038B5436813F4807FE3
:104100000446154611D003699A4228BF1D465DB189
:104110002A46406900F08AFB636922692B44521BDE
:104120002261002263611A7038BDDB06FCD400F006
:1041300021FDF9E707B54A680346DBB2D205084618
:104140008DF8073007D54A69511C41611370184634
:1041500003B05DF804FB01220DF1070100F00AFD38
:1041600010B19DF80700F3E74FF0FF30F0E7FEE7EE
:104170000A4B1A8892B20A4B1B889BB29A420AD009
:10418000074A13889BB20749C85CC0B21388013341
:10419000DBB2138070470020704700BF52054020FB
:1041A00086024020000040200A4B1B788BB9094B47
:1041B00060225A70084A5A6002221A7201229A72C8
:1041C0000921D9721A730021597299820349196120
:1041D0001A707047A004402004064020793E410038
:1041E0000A4B1B788BB9094B42225A70084A5A6015
:1041F00012221A7201229A72FF21D9721A730021B7
:1042000059729982034919611A707047B8044020A5
:1042100040054020C53F41000A4B1B788BB9094B34
:1042200068225A70084A5A6006221A7201229A724B
:104230003B21D9721A73002159729982034919617D
:104240001A707047D0044020540540209931410035
:1042500010B504460146094800F0FAF904B110BD52
:10426000074B1A785B7843EA022307EE903AF8EEA0
:10427000E77A044BC3ED007AF1E700BF1802410072
:1042800000064020CC0540200A4B1B788BB9094B17
:1042900077225A70084A5A6002221A7201229A72D0
:1042A000F721D9721A730021597299820349196151
:1042B0001A707047E8044020000640205142410037
:1042C0000A4B1B7883B9094B48225A70084A5A6036
:1042D00002221A7201229A720021D9721A7359723B
:1042E0009982044919611A70704700BF0005402087
:1042F000FC0540200540410030B50C4A0146002035
:1043000012F810301BB902EB4002507830BD0C6837
:1043100025789D4209BF02EB4003431C58780134C5
:1043200014BFD8B20C600A28EAD9EFE75C48410014
:1043300070B514460D4699B13AB1022805D8094B1B
:104340002BB111462846AFF30080204609E00E4607
:1043500016F8010B00F06AF92B199E42F8D1F4E728
:10436000084670BD0000000008B50949AC230B7079
:10437000030A4B70C0B28870434083F0AC03CB702B
:10438000044B01221A700422034800F0CDFA08BD44
:10439000D40540200D0640206804402010B500F0F0
:1043A00033F900F0A7FB084B1B68C31A074A1288B1
:1043B000934203D20020FEF749FD10BD044600F0F1
:1043C0003BF8014B1C60F5E7EC054020340640202B
:1043D00010B500F019F900F08DFB084B1B68C31AEB
:1043E000074A1288934203D20320FEF72FFD10BD27
:1043F000044600F021F8014B1C60F5E7EC05402075
:104400003406402038B50A480A4D016821B943688E
:1044100013B900F096F838BD0389426855F8233087
:1044200000F10C042046984704EB8000EDE700BF44
:10443000C8194100D848410008B50A4B1B782BB178
:10444000FFF766FC0022074B1A7008BDFFF7ACFEB1
:10445000FFF7C6FEFFF7E0FEFFF716FFFFF730FF9E
:104460000122F0E79D05402053B94AB9002908BF51
:1044700000281CBF4FF0FF314FF0FF3000F09ABB17
:10448000ADF1080C6DE904CEFDF71EFCDDF804E08B
:10449000DDE9022304B07047084B02221A60084B82
:1044A00006490A6A12F0010F07D1013BF9D1034B0B
:1044B00080221A6024221A607047704700800140F1
:1044C000A086010010B5084CFFF7DAFD10F0010FCF
:1044D00007D0013CF8D10146044800F0B9F80020AB
:1044E00000E0012010BD00BF80969800E00341006D
:1044F000812903DC7F2903DC002070478329FBD15D
:104500001368073323F0070303F108011160D3E9AF
:104510000023C0E900230120704710B404786CB96F
:104520000224447081604260C3600023036183827F
:104530008375C375019B8361012303705DF8044B90
:1045400070477047074B9B6913F0010F08D0054A6D
:10455000D36D01231362A2F5A8229360024A13705F
:10456000704700BF008007400606402008B5064B94
:104570001B7803B108BD044B01221A70034A01469F
:10458000034800F088F8F5E70E064020B1484100E6
:104590008404402010B5084C2368196800F06AF8BC
:1045A000002807DB23680A20196800F0DFFAC00F33
:1045B000404210BD0120FBE72C06402010B40478D7
:1045C00064B94170426083609DF804300373002336
:1045D00043738373029B0361012303705DF8044BF3
:1045E000704770B502FB01F6144600290D463246AD
:1045F0000146184608BF002400F0BCFA864218BFE6
:10460000B0FBF5F4204670BD08B500F0DFF900F00E
:10461000E5F900F0EBF900F0F1F900F0FFF9FFF730
:104620004DFD00F0F3F900F001FA08BD074B1B78CF
:104630005BB110B504460A2803D0204600F04CF8C0
:1046400010BD0D2000F048F8F7E77047070640203E
:104650000FB407B5064B04AA1B6852F8041B186870
:10466000019200F0B1F803B05DF804EB04B07047BC
:104670002C06402070B50E46054600F0E3F83346A0
:104680000446024601212846FFF7ABFF001B18BF76
:104690004FF0FF3070BD037863B90323437081602E
:1046A00000234360C360036183828375C3758261A5
:1046B0000123037070477047430810F001004FEA70
:1046C000003040EA0340034B586001D001221A60D9
:1046D000704700BF008001404FF4801305494A69CC
:1046E00012F0020F02D1013BF9D17047014BD861A2
:1046F000704700BF008002400278002362F31F630E
:10470000427862F31743827862F30F23C27862F330
:10471000070300EE103A7047494E4600696E660086
:104720004E414E006E616E00286E756C6C2900283B
:074730006E696C29002500F1
:1047380010B50023934206D113F0030018BF0120DF
:1047480000EB930010BDC45CCC540133F2E710B405
:1047580004783CB9C16002820022428242618361CE
:10476800012303705DF8044B70477047044B1888A9
:1047780080B2044B1B889BB2C01A18BF0120704737
:1047880052054020860240200023034A1370034A42
:104798001370034A137070470C0640200A06402025
:1047A8000806402008B5FEF75BFA034A0023137099
:1047B8005370024A137008BD840440200E0640203E
:1047C80013B50446019201AAFCF7DAFD636813F0F9
:1047D800100F18BF4FF0FF3002B010BD044B1A6B1A
:1047E800000440F48050586001221A60704700BFEE
:1047F8000080014008B500F06DF9034B4FF00072DE
:10480800C3F8342408BD00BF00100E404FF0E02369
:10481800034AC3F80C2DBFF34F8FBFF36F8FFEE72A
:104828000400FA054AB1431E84460A4411F8010BF4
:1048380003F8010F9142F9D16046704703783BB104
:10484800034600BF13F8012F002AFBD1181A70473E
:104858001846704768076C094C836A9074A07AC040
:0A4868000080688800846C820081E3
:10487400034B1B6A13F0050F14BF0120002070477F
:1048840000800140034B186A80F48070C0F300205C
:10489400704700BF008001404FF0E02341F66902F9
:1048A4005A6100229A6107221A617047013818BFC1
