:020000040000fa
:020000040040ba
:1000000000004120a5074000a107400093074000e1
:10001000a107400085074000a10740000000000044
:10002000000000000000000000000000a1074000e8
:10003000a107400000000000a1074000a107400008
:10004000a1074000a1074000a1074000a107400010
:10005000a1074000a1074000a1074000a107400000
:10006000a1074000a1074000a1074000a1074000f0
:10007000a1074000a1074000a1074000a1074000e0
:10008000a1074000a1074000a1074000a1074000d0
:10009000a1074000a1074000a1074000a1074000c0
:1000a000a1074000a1074000a1074000a1074000b0
:1000b000a1074000a1074000a1074000a1074000a0
:1000c000a1074000a1074000a1074000a107400090
:1000d000a1074000a1074000a1074000a107400080
:1000e000a1074000a1074000a1074000a107400070
:1000f000a1074000a1074000a1074000a107400060
:10010000a1074000a1074000a1074000a10740004f
:10011000a1074000a1074000a1074000a10740003f
:10012000a1074000a1074000a1074000a10740002f
:10013000a1074000a1074000a1074000a10740001f
:10014000a1074000a1074000a1074000a10740000f
:10015000a1074000a1074000a1074000a1074000ff
:08016000a1074000a1074000c7
:020000040000fa
:020000040040ba
:10016800000040201c040000000000000000000007
:1001780000000000666666666666666666666666af
:100188006666666666666666666666666666666607
:1001980066666666666666666666666666666666f7
:1001a80066666666666666666666666666666666e7
:1001b80066666666666666666666666666666666d7
:1001c80066666666666666666666666666666666c7
:1001d80066666666666666666666666666666666b7
:020000040000fa
:020000040040ba
:1001e80010b5054c237833b9044b13b10448aff369
:1001f80000800123237010bd000040200000000093
:10020800ac0c400008b5034b1bb103490348aff3de
:10021800008008bd0000000004004020ac0c400035
:1002280008b54ff482035b68013b13f1030f00d953
:10023800fee700f023fb4ff482034ff0e022c2f800
:10024800083dbff34f8fbff36f8f1a685b6882f367
:100258000888184710b500f0aff908b1fff7e0ffbc
:100268004ff4807228494ff4801000f0d5f980b916
:10027800254b1a68254b9a420dd1234b59684b1ec2
:10028800b3f5f81f09d34ff4801000f057fafff7c1
:10029800c7fffff7c5fffff7c3ff1b4b9a681c4852
:1002a80000f05af968b94ff4801000f047fa4ff49b
:1002b80082035b68013b13f1030f00d9fee7fff7e8
:1002c800afff144c124b23630b236363124ba363de
:1002d800a36b0d4b5a6811494ff4820000f0c8f81f
:1002e8004ff08073236048b14ff482035b68013b91
:1002f80013f1030f00d9fee7fff792ff4ff48010c8
:1003080000f01cfafff78cff1c00402034cd12ab24
:100318000010100000c00740b01008000010108046
:100328004ff480130d49d1f8082c12f0010f03d1b6
:10033800013bf8d105207047084bd3f8083c13f06f
:10034800040f08d1054bd3f8083c13f00e0f14bf67
:100358000120002070470220704700bf00000e40b7
:10036800f8b54518a84215d204460b4f0b4e04eabf
:100378000703a3f5800346ea5303094ac2f8043c7d
:10038800fff7ceff034618b904f58044a542eed81e
:100398001846f8bd0023fbe700c0ffff0900005a1c
:1003a80000000e4008b5c0f30c0373b9b0f5820f16
:1003b8000dd3a0f58000400a064b43ea0023064a05
:1003c800c2f8043cfff7acff08bd0320fce704209b
:1003d800fae700bf0701005a00000e4038b50d4b80
:1003e80000ea030441f6ff750d4405441d40291b2e
:1003f8002046fff7b5ff034650b9ac4208d2204665
:10040800fff7d0ff034618b904f50054a542f6d803
:10041800184638bd00e0ffff08b5c0f30803f3b97c
:10042800b0f5820f1dd30b1f01f5fe7e00f1040c01
:10043800aceb010c0ceb030253f8041f116073457d
:10044800f8d1bff34f8fa0f580035b0a064a42ea52
:100458000323064ac2f8043cfff762ff08bd0320e5
:10046800fce70420fae700bf0100005a00000e4034
:100478002de9f843b0f5820f1ad306468846174689
:10048800531eb3f5f81f16d2c0f30804b4b900f030
:10049800c9f939463046fff7a1ff814658b300f045
:1004a800d7f90de000f0d4f90ae000f0d1f907e03f
:1004b8004ff0040904e04ff0040901e04ff003098c
:1004c8004846bde8f8834ff4007508eb0403124a68
:1004d800581913f8011b02f8011b8342f9d10e4980
:1004e8003046fff799ff81460028dbd106f50076f4
:1004f8002c44a742d9d93d1bb5f5007fe3d8e4d2f7
:10050800064b03f50071ff2203f8012f8b42fbd144
:10051800002de4d0d9e700bf1c0140201b0140207a
:1005280008b500f06bf9fff795fefee782b110b44d
:1005380001398a18074c11f8013f4340dbb254f8df
:10054800233083ea10209142f5d15df8044b7047bf
:10055800704700bfac0840002de9f047914619b339
:1005680082460f4600254ff0ff36dff848807c1b97
:10057800b4f5807f28bf4ff48074224641460aebc9
:10058800050000f049f890b9224641463046fff789
:10059800cdff06462544af42e9d8f043484514bf8d
:1005a80000200120bde8f0874ff0ff36f5e7002076
:1005b800f8e700bf1c034020144b4ff41e32c3f869
:1005c800042ed3f8702e22f41e32c3f8702ed3f8fe
:1005d800742e22f41e32c3f8742ea3f5c823802289
:1005e8001a600b4a5a604ff400721a6201221a60ac
:1005f8004ff4001307490a6912f0807f03d1013bc9
:10060800f9d1012070470020704700bf00000e405c
:100618001100000100c0074010b4144b18630b24ec
:100628005c63134c9c639b6b62b194464b1e8c4479
:100638000cf1ff3c401a0f490144ca5c03f8012f32
:100648006345fad1094b4ff080721a604ff40013da
:1006580006490a6912f4806f03d1013bf9d10120e0
:1006680000e000205df8044b704700bf00c0074061
:10067800b010080001000080f0b583b003251c4cc1
:10068800062742f210066763a663a36b4ff40013b4
:10069800226912f4806f03d1013bf9d1012023e0d4
:1006a80000208df8070002460df10701fff7b4ff9f
:1006b800052363639023a363a36b4ff000431b7868
:1006c800d9b24ff0807323604ff40013226912f4fb
:1006d800806f03d1013bf9d1012005e011f0020f31
:1006e80004d1013dcfd1022003b0f0bd0020fbe7cb
:1006f80000c0074070b54ff4001c0f49052690252f
:100708004ff0004e4ff0807405e010f0010012d059
:10071800bcf1010c0fd04e638d638b6b9ef800000b
:10072800c0b20c604ff400130a6912f4806fecd168
:10073800013bf9d1012070bd00c0074010b5044647
:10074800fff79affb0b96ff30b040b4b1c63202221
:100758005a6342f230029a639b6b4ff400130649c6
:100768000a6912f4806f03d1013bf9d1012001e03d
:10077800fff7c0ff10bd00bf00c007404ff4820064
:100788000168426881f3088810474ff482000168c5
:10079800426881f308881047fee70000114a124baf
:1007a8009a420cd2581e801a20f0030004300f4bd6
:1007b800184453f8041b42f8041b8342f9d10c4a2d
:1007c8000c4b9a420bd213460b4ad21a22f0030260
:1007d80004321a44002143f8041b9342fbd1fff76b
:1007e8009ffefee70000402000004020cc0c4000a7
:1007f800000040201c0440201b044020084b4ff4fc
:100808000042c3f85428c3f80429a3f580534ff4d1
:100818008032c3f8002c4ff40062c3f800277047f9
:1008280000100e404ff0e023d3f8143d13f4003fbe
:100838000dd0bff34f8fbff36f8f4ff0e022d2f888
:10084800143d23f40033c2f8143dbff36f8f704793
:10085800bff34f8f4ff0e0230022c3f8502fbff3b0
:100868004f8fbff36f8fd3f8142d42f40032c3f8c3
:10087800142dbff34f8fbff36f8f70474ff0e023f6
:1008880000221a614ff0ff32c3f88021c3f8842197
:10089800c3f88821c3f88c21bff34f8fbff36f8f44
:1008a8007047000000000000963007772c610eeebc
:1008b800ba51099919c46d078ff46a7035a563e9af
:1008c800a395649e3288db0ea4b8dc791be9d5e0d9
:1008d80088d9d2972b4cb609bd7cb17e092db8e7d3
:1008e800bf1cbf906410b71df220b06a4871b9f3fd
:1008f800de41be847dd4da1aebe4dd6d51b5d4f463
:10090800c785d38356986c13c0a86b647af962fdc7
:10091800ecc9658a4f5c0114d96c0663633d0ffa14
:10092800f50d088dc8206e3b5e10694ce44160d51a
:10093800727167a2d1e4033c47d4044bfd850dd204
:100948006bb50aa5faa8b5356c98b242d6c9bbdb17
:1009580040f9bcace36cd832755cdf45cf0dd6dc12
:10096800593dd1abac30d9263a00de518051d7c8b9
:100978001661d0bf27f9b421b1c9b3560b98bacfc5
:100988000ba5bdb89eb802280888055fb2d90cc669
:1009980024e90bb1877c6f2f114c6858ab1d61c1de
:1009a8003d2d66b69041dc760671db01bc20d298fd
:1009b8002a10d5ef8985b1711fb5b606a5e4bf9f8a
:1009c80033d4b8e8a2c9077834f9000f8ea809967d
:1009d80018980ee1bb0d6a7f2d3d6d08976c6491e8
:1009e800015c63e6f4516b6b62616c1cd830658501
:1009f8004e0062f2ed95066c7ba5011bc1f40882de
:100a080057c40ff5c6d9b06550e9b712eab8be8b1e
:100a18007c88b9fcdf1ddd62492dda15f37cd38ca7
:100a2800654cd4fb5861b24dce51b53a7400bca3a5
:100a3800e230bbd441a5df4ad795d83d6dc4d1a4d7
:100a4800fbf4d6d36ae96943fcd96e34468867adae
:100a5800d0b860da732d0444e51d03335f4c0aaa4d
:100a6800c97c0ddd3c710550aa41022710100bbe50
:100a780086200cc925b56857b3856f2009d466b997
:100a88009fe461ce0ef9de5e98c9d9292298d0b0cc
:100a9800b4a8d7c7173db359810db42e3b5cbdb779
:100aa800ad6cbac02083b8edb6b3bf9a0ce2b603fa
:100ab8009ad2b1743947d5eaaf77d29d1526db04af
:100ac8008316dc73120b63e3843b64943e6a6d0dfa
:100ad800a85a6a7a0bcf0ee49dff099327ae000a45
:100ae800b19e077d44930ff0d2a3088768f2011ed8
:100af800fec206695d5762f7cb67658071366c196f
:100b0800e7066b6e761bd4fee02bd3895a7ada108f
:100b1800cc4add676fdfb9f9f9efbe8e43beb71770
:100b2800d58eb060e8a3d6d67e93d1a1c4c2d838fa
:100b380052f2df4ff167bbd16757bca6dd06b53f60
:100b48004b36b248da2b0dd84c1b0aaff64a03369f
:100b5800607a0441c3ef60df550967a8ef58663132
:100b6800796861468cb361cb1a8366bca0d26f25c5
:100b780036e2685295770ccc03470bbbb9160222b4
:100b88002f260555be3bbac5280bbdb2925ab42bc9
:100b9800046ab35ca7ffd7c231cfd0b58b9ed92cde
:100ba8001daede5bb0c2649b26f263ec9ca36a7543
:100bb8000a936d02a906099c3f360eeb85670772fa
:100bc80013570005824abf95147ab8e2ae2bb17b61
:100bd800381bb60c9b8ed2920dbed5e5b7efdc7ce8
:100be80021dfdb0bd4d2d38642e2d4f1f8b3dd683f
:100bf8006e83da1fcd16be815b26b9f6e177b06f3a
:100c08007747b718e65a0888706a0fffca3b066626
:100c18005c0b0111ff9e658f69ae62f8d3ff6b61b3
:100c280045cf6c1678e20aa0eed20dd75483044e55
:100c3800c2b30339612667a7f71660d04d476949e3
:100c4800db776e3e4a6ad1aedc5ad6d9660bdf40f6
:100c5800f03bd83753aebca9c59ebbde7fcfb247a9
:100c6800e9ffb5301cf2bdbd8ac2baca3093b3538e
:100c7800a6a3b4240536d0ba9306d7cd2957de5497
:100c8800bf67d9232e7a66b3b84a61c4021b685d70
:100c9800942b6f2a37be0bb4a18e0cc31bdf055ae9
:100ca8008def022df8b500bff8bc08bc9e46704712
:0c0cb800f8b500bff8bc08bc9e467047b1
:020000040000fa
:020000040040ba
:040cc4000d024000dd
:020000040000fa
:020000040040ba
:040cc800e9014000fe
:00000001FF
