:020000040040BA
:1000000000004120D9074000D5074000C707400045
:10001000D5074000B9074000D507400000000000A8
:10002000000000000000000000000000D5074000B4
:10003000D507400000000000D5074000D50740006C
:10004000D5074000D5074000D5074000D507400040
:10005000D5074000D5074000D5074000D507400030
:10006000D5074000D5074000D5074000D507400020
:10007000D5074000D5074000D5074000D507400010
:10008000D5074000D5074000D5074000D507400000
:10009000D5074000D5074000D5074000D5074000F0
:1000A000D5074000D5074000D5074000D5074000E0
:1000B000D5074000D5074000D5074000D5074000D0
:1000C000D5074000D5074000D5074000D5074000C0
:1000D000D5074000D5074000D5074000D5074000B0
:1000E000D5074000D5074000D5074000D5074000A0
:1000F000D5074000D5074000D5074000D507400090
:10010000D5074000D5074000D5074000D50740007F
:10011000D5074000D5074000D5074000D50740006F
:10012000D5074000D5074000D5074000D50740005F
:10013000D5074000D5074000D5074000D50740004F
:10014000D5074000D5074000D5074000D50740003F
:10015000D5074000D5074000D5074000D50740002F
:10016000D5074000D5074000000040201C040000D7
:1001700000000000000000000000000066666666E7
:10018000666666666666666666666666666666660F
:1001900066666666666666666666666666666666FF
:1001A00066666666666666666666666666666666EF
:1001B00066666666666666666666666666666666DF
:1001C00066666666666666666666666666666666CF
:1001D00066666666666666666666666666666666BF
:1001E000666666666666666610B5054C237833B942
:1001F000044B13B10448AFF300800123237010BDFA
:100200000000402000000000340D400008B5034B02
:100210001BB103490348AFF3008008BD0000000094
:1002200004004020340D400070B582B003244FF428
:1002300080154FF48036284600F09CFA38B10196BC
:10024000019B5A1E0192002BFAD1013CF3D102B05E
:1002500070BD08B54FF482035B68013B13F1030FD7
:1002600000D9FEE700F052FB4FF482034FF0E0228A
:10027000C2F8083DBFF34F8FBFF36F8F1A685B68FA
:1002800082F308881847000010B500F0B1F908B1F2
:10029000FFF7DFFF4FF4807229494FF4801000F020
:1002A000D7F970B9264B1A68264B9A420BD1244BCA
:1002B00059684B1EB3F5F81F07D3FFF7B5FFFFF7DB
:1002C000C8FFFFF7C6FFFFF7C4FF1D4B9A681E4823
:1002D00000F05EF958B9FFF7A7FF4FF482035B689F
:1002E000013B13F1030F00D9FEE7FFF7B2FF174CF4
:1002F000154B23630B236363154BA363A36B104B55
:100300005A6814494FF4820000F0CEF84FF0807321
:100310002360DB0821460A6912F4806F01D1013B9A
:10032000F9D148B14FF482035B68013B13F1030F2D
:1003300000D9FEE7FFF78DFFFFF776FFFFF789FF94
:100340001C00402034CD12AB0010100000C007404C
:10035000B0100800001010804FF480130D49D1F840
:10036000082C12F0010F03D1013BF8D10520704792
:10037000084BD3F8083C13F0040F08D1054BD3F811
:10038000083C13F00E0F14BF01200020704702201C
:10039000704700BF00000E40F8B54518A84215D2BE
:1003A00004460B4F0B4E04EA0703A3F5800346EA0D
:1003B0005303094AC2F8043CFFF7CEFF034618B9BD
:1003C00004F58044A542EED81846F8BD0023FBE7AB
:1003D00000C0FFFF0900005A00000E4008B5C0F33E
:1003E0000C0373B9B0F5820F0DD3A0F58000400A5D
:1003F000064B43EA0023064AC2F8043CFFF7ACFF71
:1004000008BD0320FCE70420FAE700BF0701005AFB
:1004100000000E4038B50D4B00EA030441F6FF75AD
:100420000D4405441D40291B2046FFF7B5FF034638
:1004300050B9AC4208D22046FFF7D0FF034618B9A6
:1004400004F50054A542F6D8184638BD00E0FFFF79
:1004500008B5C0F30803F3B9B0F5820F1DD30B1F25
:1004600001F5FE7E00F1040CACEB010C0CEB030279
:1004700053F8041F11607345F8D1BFF34F8FA0F5F7
:1004800080035B0A064A42EA0323064AC2F8043C98
:10049000FFF762FF08BD0320FCE70420FAE700BF76
:1004A0000100005A00000E402DE9F843B0F5820F1C
:1004B0001AD3064688461746531EB3F5F81F16D2C0
:1004C000C0F30804B4B900F0F5F939463046FFF737
:1004D000A1FF814658B300F003FA0DE000F000FAE6
:1004E0000AE000F0FDF907E04FF0040904E04FF0E6
:1004F000040901E04FF003094846BDE8F8834FF4D2
:10050000007508EB0403124A581913F8011B02F88E
:10051000011B8342F9D10E493046FFF799FF81460E
:100520000028DBD106F500762C44A742D9D93D1B23
:10053000B5F5007FE3D8E4D2064B03F50071FF2246
:1005400003F8012F8B42FBD1002DE4D0D9E700BF87
:100550001C0140201B01402008B500F06DF9FFF799
:1005600093FEFEE782B110B401398A18074C11F8E6
:10057000013F4340DBB254F8233083EA102091421C
:10058000F5D15DF8044B7047704700BF3409400057
:100590002DE9F047914619B382460F4600254FF0EA
:1005A000FF36DFF848807C1BB4F5807F28BF4FF40E
:1005B0008074224641460AEB050000F049F890B9E4
:1005C000224641463046FFF7CDFF06462544AF425E
:1005D000E9D8F043484514BF00200120BDE8F0876A
:1005E0004FF0FF36F5E70020F8E700BF1C0340207E
:1005F000144B4FF41E32C3F8042ED3F8702E22F49D
:100600001E32C3F8702ED3F8742E22F41E32C3F8B3
:10061000742EA3F5C82380221A600B4A5A604FF447
:1006200000721A6201221A604FF4001307490A6926
:1006300012F0807F03D1013BF9D1012070470020E7
:10064000704700BF00000E401100000100C00740CD
:1006500010B4144B18630B245C63134C9C639B6BAA
:1006600062B194464B1E8C440CF1FF3C401A0F497A
:100670000144CA5C03F8012F6345FAD1094B4FF0DE
:1006800080721A604FF4001306490A6912F4806FF1
:1006900003D1013BF9D1012000E000205DF8044BBB
:1006A000704700BF00C00740B01008000100008084
:1006B000F0B583B003251C4C062742F21006676391
:1006C000A663A36B4FF40013226912F4806F03D169
:1006D000013BF9D1012023E000208DF807000246FC
:1006E0000DF10701FFF7B4FF052363639023A363B4
:1006F000A36B4FF000431B78D9B24FF08073236097
:100700004FF40013226912F4806F03D1013BF9D139
:10071000012005E011F0020F04D1013DCFD10220EC
:1007200003B0F0BD0020FBE700C0074070B54FF4F8
:10073000001C0F49052690254FF0004E4FF08074A5
:1007400005E010F0010012D0BCF1010C0FD04E6397
:100750008D638B6B9EF80000C0B20C604FF40013E9
:100760000A6912F4806FECD1013BF9D1012070BD10
:1007700000C0074010B50446FFF79AFFC8B96FF3F1
:100780000B040C4B1C6320225A6342F230029A6322
:100790009A6B4FF080721A604FF4001305490A6992
:1007A00012F4806F03D1013BF9D1012001E0FFF782
:1007B000BDFF10BD00C007404FF4820001684268D1
:1007C00081F3088810474FF482000168426881F382
:1007D00008881047FEE70000114A124B9A420CD2DB
:1007E000581E801A20F0030004300F4B184453F8B1
:1007F000041B42F8041B8342F9D10C4A0C4B9A4269
:100800000BD213460B4AD21A22F0030204321A44C6
:10081000002143F8041B9342FBD1FFF79DFEFEE746
:100820000000402000004020540D40000000402007
:100830001C0440201B0440201A4BD3F8083C13F042
:10084000010F09D1184B1749013BD1F8082C12F0C0
:10085000010F01D1002BF7D1124B144AC3F8042C1D
:10086000D3F8083C13F0010F09D10F4B0D49013BA0
:10087000D1F8082C12F0010F01D1002BF7D10C4B4D
:100880004FF40042C3F85428C3F80429A3F5805359
:100890004FF48032C3F8002C4FF40062C3F80027F5
:1008A000704700BF00000E4080841E000B01005AFC
:1008B00000100E404FF0E023D3F8143D13F4003F36
:1008C0000DD0BFF34F8FBFF36F8F4FF0E022D2F800
:1008D000143D23F40033C2F8143DBFF36F8F70470B
:1008E000BFF34F8F4FF0E0230022C3F8502FBFF328
:1008F0004F8FBFF36F8FD3F8142D42F40032C3F83B
:10090000142DBFF34F8FBFF36F8F70474FF0E0236D
:1009100000221A614FF0FF32C3F88021C3F884210E
:10092000C3F88821C3F88C21BFF34F8FBFF36F8FBB
:100930007047000000000000963007772C610EEE33
:10094000BA51099919C46D078FF46A7035A563E926
:10095000A395649E3288DB0EA4B8DC791BE9D5E050
:1009600088D9D2972B4CB609BD7CB17E092DB8E74A
:10097000BF1CBF906410B71DF220B06A4871B9F374
:10098000DE41BE847DD4DA1AEBE4DD6D51B5D4F4DA
:10099000C785D38356986C13C0A86B647AF962FD3F
:1009A000ECC9658A4F5C0114D96C0663633D0FFA8C
:1009B000F50D088DC8206E3B5E10694CE44160D592
:1009C000727167A2D1E4033C47D4044BFD850DD27C
:1009D0006BB50AA5FAA8B5356C98B242D6C9BBDB8F
:1009E00040F9BCACE36CD832755CDF45CF0DD6DC8A
:1009F000593DD1ABAC30D9263A00DE518051D7C831
:100A00001661D0BF27F9B421B1C9B3560B98BACF3C
:100A10000BA5BDB89EB802280888055FB2D90CC6E0
:100A200024E90BB1877C6F2F114C6858AB1D61C155
:100A30003D2D66B69041DC760671DB01BC20D29874
:100A40002A10D5EF8985B1711FB5B606A5E4BF9F01
:100A500033D4B8E8A2C9077834F9000F8EA80996F4
:100A600018980EE1BB0D6A7F2D3D6D08976C64915F
:100A7000015C63E6F4516B6B62616C1CD830658578
:100A80004E0062F2ED95066C7BA5011BC1F4088255
:100A900057C40FF5C6D9B06550E9B712EAB8BE8B96
:100AA0007C88B9FCDF1DDD62492DDA15F37CD38C1F
:100AB000654CD4FB5861B24DCE51B53A7400BCA31D
:100AC000E230BBD441A5DF4AD795D83D6DC4D1A44F
:100AD000FBF4D6D36AE96943FCD96E34468867AD26
:100AE000D0B860DA732D0444E51D03335F4C0AAAC5
:100AF000C97C0DDD3C710550AA41022710100BBEC8
:100B000086200CC925B56857B3856F2009D466B90E
:100B10009FE461CE0EF9DE5E98C9D9292298D0B043
:100B2000B4A8D7C7173DB359810DB42E3B5CBDB7F0
:100B3000AD6CBAC02083B8EDB6B3BF9A0CE2B60371
:100B40009AD2B1743947D5EAAF77D29D1526DB0426
:100B50008316DC73120B63E3843B64943E6A6D0D71
:100B6000A85A6A7A0BCF0EE49DFF099327AE000ABC
:100B7000B19E077D44930FF0D2A3088768F2011E4F
:100B8000FEC206695D5762F7CB67658071366C19E6
:100B9000E7066B6E761BD4FEE02BD3895A7ADA1007
:100BA000CC4ADD676FDFB9F9F9EFBE8E43BEB717E8
:100BB000D58EB060E8A3D6D67E93D1A1C4C2D83872
:100BC00052F2DF4FF167BBD16757BCA6DD06B53FD8
:100BD0004B36B248DA2B0DD84C1B0AAFF64A033617
:100BE000607A0441C3EF60DF550967A8EF586631AA
:100BF000796861468CB361CB1A8366BCA0D26F253D
:100C000036E2685295770CCC03470BBBB91602222B
:100C10002F260555BE3BBAC5280BBDB2925AB42B40
:100C2000046AB35CA7FFD7C231CFD0B58B9ED92C55
:100C30001DAEDE5BB0C2649B26F263EC9CA36A75BA
:100C40000A936D02A906099C3F360EEB8567077271
:100C500013570005824ABF95147AB8E2AE2BB17BD8
:100C6000381BB60C9B8ED2920DBED5E5B7EFDC7C5F
:100C700021DFDB0BD4D2D38642E2D4F1F8B3DD68B6
:100C80006E83DA1FCD16BE815B26B9F6E177B06FB1
:100C90007747B718E65A0888706A0FFFCA3B06669E
:100CA0005C0B0111FF9E658F69AE62F8D3FF6B612B
:100CB00045CF6C1678E20AA0EED20DD75483044ECD
:100CC000C2B30339612667A7F71660D04D4769495B
:100CD000DB776E3E4A6AD1AEDC5AD6D9660BDF406E
:100CE000F03BD83753AEBCA9C59EBBDE7FCFB24721
:100CF000E9FFB5301CF2BDBD8AC2BACA3093B35306
:100D0000A6A3B4240536D0BA9306D7CD2957DE540E
:100D1000BF67D9232E7A66B3B84A61C4021B685DE7
:100D2000942B6F2A37BE0BB4A18E0CC31BDF055A60
:100D30008DEF022DF8B500BFF8BC08BC9E46704789
:100D4000F8B500BFF8BC08BC9E4670470D024000D5
:040D5000E901400075
:020000040041B9
:10000000F8FF4520D9264100FB404100FB4041005C
:10001000FB404100FB404100FB404100000000006C
:10002000000000000000000000000000FB40410054
:10003000FB40410000000000FB40410081494100BD
:10004000FB404100FB404100FB404100FB404100C0
:10005000FB404100FB404100FB404100FB404100B0
:10006000FB40410000000000FB404100FB4041001C
:10007000FB404100B1394100FB404100FB404100E1
:10008000FB404100FB404100FB404100FB40410080
:10009000FB404100FB404100FB404100FB40410070
:1000A000FB404100FB404100FB404100FB40410060
:1000B000FB404100FB404100FB404100FB40410050
:1000C000FB404100FB404100FB404100FB40410040
:1000D000FB404100FB404100FB404100FB40410030
:1000E000FB404100FB404100FB404100FB40410020
:1000F000FB404100FB404100FB404100FB40410010
:10010000FB404100FB404100FB404100FB404100FF
:10011000FB404100FB4041000000000000000000E7
:10012000FB404100FB40410009454100FB404100CC
:10013000FB404100FB40410000000000FB4041004B
:10014000FB404100FB404100FB404100FB404100BF
:10015000FB404100FB404100FB404100FB404100AF
:10016000FB404100FB404100F8B500BFF8BC08BCB3
:100170009E467047F53E4100F8B500BFF8BC08BC8C
:100180009E467047D13E4100101B00000100000058
:10019000627573207265636F7665727920666F721F
:1001A00020616464723D3078253032580A000000C6
:1001B0000D0A5B51535049204452495645525D2027
:1001C00046534D2061626F72746F752120657272A3
:1001D0006F725F636F6465203D2025750A00000023
:1001E0005B5350495D204552524F523A205458209B
:1001F00054696D656F757421000000005B535049B0
:100200005D204552524F523A2052582054696D6534
:100210006F757421000000007072657373757265EC
:1002200020646F6E65207374617475733A20256461
:100230000000000066696E616C2074656D703A2084
:10024000256600005B5454435D2053796E6320742F
:10025000696D656F757420282575206279746573E2
:100260002920E28094206D6F646F206E6F726D6143
:100270006C206469726563746F0A00005B545443B8
:100280005D2053796E63204F4B20E28094206120E3
:10029000656E766961722052454144590000000044
:1002A0005B4F54412052585D2073796E6320696E14
:1002B00076616C69646F3A20307825303458202894
:1002C000657370657261646F203078253034582909
:1002D0000A0000005B4F54412052585D20454E44B7
:1002E000206D61726B657220E280942073697A657B
:1002F0003D256C75206372633D30782530386C582D
:100300000A0000005B4F54412052585D20706B740E
:10031000207365713D2575206C656E3D25752072D5
:10032000656164793D25750A000000005B4F54410A
:100330002052585D2044726F70207365713D2575A1
:100340002028466C6173682062757379290A000061
:10035000726573756C7420747463202564000000EA
:1003600070617273653A20307825303258203078C9
:1003700025303258203078253032582030782530DA
:1003800032580A00636D6431000000005B5454432E
:100390005D2053544152545F4F5441207265636550
:1003A0006269646F20E280942061207072657061E0
:1003B000726172206D656D6F7269612E2E2E000064
:1003C000636D643320E28094204F5441206D6F644C
:1003D00065204F4646000000636D64350000000054
:1003E0000D0A2020202020202D3E205B4445425530
:1003F000475D2054494D454F555421205374617435
:1004000075732052656720626C6F71756561646FEA
:1004100020656D3A203078253032582000000000E9
:1004200020205B54325D20457363726974612070D3
:10043000616472616F20307841352F30783541200A
:100440002E2E2E200000000054494D454F555420BB
:100450005B4641494C5D0D000D0A20205B54325D26
:10046000202020627974655B256C755D3A20657388
:10047000637269746F3D307825303258206C69643E
:100480006F3D307825303258000000004F4B205B24
:10049000504153535D0D00000D0A20205B54325D26
:1004A00020256C75206572726F73205B4641494C44
:1004B0005D0D0A0020205B54335D20457261736539
:1004C0002054494D454F5554205B4641494C5D0DE4
:1004D0000000000020205B54335D20457363726987
:1004E000746120636F6E7461646F72203078303095
:1004F0002E2E30784646202E2E2E20000D0A20204B
:100500005B54335D202020627974655B256C755DDA
:100510003A206573637269746F3D307825303258C4
:10052000206C69646F3D307825303258000000003F
:100530000D0A20205B54335D20256C752065727296
:100540006F73205B4641494C5D0D0A000D000000B1
:1005500020202B2D2D2D2D2D2D2D2D2D2D2D2D2DE7
:100560002D2D2D2D2D2D2D2D2D2D2D2D2D2D2D2DBB
:100570002D2D2D2D2D2D2D2D2D2D2D2D2D2D2D2DAB
:100580002D2D2D2D2D2B0D0020207C20205445536A
:10059000544520515350493A20533235464C31315D
:1005A000364B20E28094204C454954555241202F2F
:1005B0002045534352495441202020202020207CB4
:1005C0000D00000020207C2020536563746F722092
:1005D00064652074657374653A2030782530366C14
:1005E0005820202872656769616F206C6F677329D6
:1005F00020202020202020207C0D0A0020205B5479
:10060000315D20457261736520736563746F72207C
:1006100030782530366C58202E2E2E200000000019
:10062000627974655B256C755D3D30782530325894
:1006300020213D2030784646205B4641494C5D0DE7
:100640000A00000020207C2020526573756C7461C4
:10065000646F3A2025752F25752074657374657352
:1006600020706173736172616D2020202020202032
:1006700020202020202020207C0D0A0020207C200B
:100680002051535049204F4B20E2809420666C61EA
:100690007368206F7065726163696F6E616C202092
:1006A000202020202020202020205B504153535D1B
:1006B00020207C0D0000000020207C202046414CA2
:1006C000484120656D202575207465737465287315
:1006D0002920E280942076657269666963617220E0
:1006E00068772020205B4641494C5D20207C0D0A24
:1006F000000000000A203D3D3D204F424320424F74
:100700004F54203D3D3D2046572076332E35000086
:100710005B4F54415D206669726D776172655F73EE
:10072000697A6520696E76616C69646F2028256C32
:10073000752920E2809420612061626F7274617279
:100740000A0000005B4F54415D2046575B305D3A24
:10075000202530325820253032582025303258207C
:100760002530325820253032582025303258202567
:1007700030325820253032580A0000005B4F544177
:100780005D2046575B3132385D3A202530325820A3
:100790002530325820253032582025303258202537
:1007A000303258202530325820253032582025301C
:1007B00032580A005B44454255475D204120636F33
:1007C0006D7061726172206F73207072696D6569FE
:1007D000726F73203420627974657320646F2063B4
:1007E0006F6D7075746564204352433A2025303232
:1007F00058202530325820253032582025303258A4
:100800000A0000005B4F54415D20466C6173685BD9
:1008100030782530356C585D3A2025303258202507
:10082000303258202530325820253032580A000006
:100830005B4F54415D20435243204F4B202830787A
:100840002530386C582920E280942061206573633C
:100850007265766572206D6574616461646F730A98
:10086000000000005B4F54415D204552524F206E06
:100870006F20657261736520646F73206D657461AC
:100880006461646F730000005B4F54415D205352FC
:10089000313D30782530325820E280942061206C40
:1008A000696D7061722077726974652D70726F74F2
:1008B000656374696F6E2E2E2E0A00005B4F5441E3
:1008C0005D205352312061706F7320575253523D57
:1008D00030782530325820E2809420496E6963696F
:1008E0006F204F54410A00005B4F54415D20496E18
:1008F0006963696F20E280942061206170616761A3
:100900007220736563746F72206465206D65746115
:1009100064617461000000005B4F54415D205741E9
:1009200049545F45524153452023256C752061642D
:1009300064723D3078256C58207374617475733D12
:1009400025640A005B4F54415D204D65746164610C
:100950007461206170616761646120E2809420614C
:100960002061706167617220736563746F722066C5
:1009700077203078256C580A000000005B4F544106
:100980005D204572617365206E616F20636F6E66D6
:1009900069726D61646F20616464723D3078256CAA
:1009A000582076616C3D30782530325820E28094B2
:1009B00020612061677561726461720A0000000045
:1009C0005B4F54415D204572617365204F4B20633E
:1009D0006F6E6669726D61646F20E28094206120A1
:1009E0006167756172646172207061636F746573B1
:1009F000000000005B4F54415D204552524F206E75
:100A00006F2065726173652028616464723D30787F
:100A1000256C58290A0000005B4F54415D20574166
:100A200049545F504B5420E2809420726561647990
:100A30003D25642062797465735F777269747465AB
:100A40006E3D256C750A00005B4F54415D20466980
:100A50006D206461207472616E73666572656E6389
:100A600069613A20256C752062797465732C204386
:100A700052433D30782530386C582C2076256C75E3
:100A80000A0000005B4F54415D20417669736F3A64
:100A9000205061636F74652066616E7461736D616F
:100AA00020286C656E3D30292069676E6F72616425
:100AB0006F2E00005B4F54415D204552524F206E17
:100AC0006F20657261736520646F20736563746F56
:100AD00072206465206669726D776172650000003E
:100AE0005B4F54415D204552524F206E612065732B
:100AF000637269746120646F207061636F74652034
:100B00007365713D25750A005B4F54415D204D654D
:100B100074616461646F73206772617661646F737E
:100B20002E2041207265696E69636961722E2E2ED6
:100B3000000000005B4F54415D204552524F206E33
:100B400061206573637269746120646F73206D65E1
:100B500074616461646F73005B4F54415D20416256
:100B60006F727461646F20706F72206572726F2E85
:100B700020566F6C74616E646F20616F206D6F64BE
:0F0B80006F20636F6D756E69636163616F2E0027
:100B900010B582B003F01AFDA44B1B780C2B00F2A9
:100BA000E581DFE813F00D00E3013E00A80031010C
:100BB00082019501E301AF01B201BD01D201D8016B
:100BC0009B4B1B68002B00F07E8103F093FF0028F5
:100BD00040F0798103F01AFA0146964803F01AFDB5
:100BE00002F0B0FE03F012FA0146934803F012FD42
:100BF000924803F0B1FC924B00221A60914B924A4A
:100C00001A604FF48072FF21904803F051FE4FF4B8
:100C100080108F4B186003F08BFC844B02221A70FB
:100C200051E103F067FF04468A4B196841B18A4AD3
:100C3000A2FB0132120B41F2883303FB12122AB9D4
:100C40002346834A1268854803F0E4FC814A13680E
:100C500001331360002C42D1134600221A607C4BF2
:100C60001868B0F5801F11D07D4B984240F22B815F
:100C7000012201A902F0FEFE9DF80420FF2A25D0E2
:100C8000734B1968774803F0C5FC1CE16C4B1B687B
:100C9000002B40F018816C49734803F0BBFC002323
:100CA0000193019A714B9A4206DC1A46019B01336B
:100CB0000193019B9342F9DD6348654B186003F093
:100CC00037FC604B4FF481121A60FCE0684803F077
:100CD00043FC03F0DBF8554B03221A70F3E0022CBF
:100CE00040F0F1805A4B1968624803F093FC4F4B77
:100CF0000C221A70E7E0604B1B6801335B4A934299
:100D00002CD85D4A136003F0DDFE002800F0DB8084
:100D1000594B00221A6003F0DBFE584C208003F090
:100D2000DDFE574B188022884FF6FF739A4221D080
:100D3000002855D0434B186842F220031344B0EB0F
:100D4000C31F53D8424B186000F580523D4B1A60C8
:100D500003F0EEFB354B04221A70B4E0464B002240
:100D60001A6003F0AFFE0146354B1A68454803F0A0
:100D700051FCC8E703F0D4FE344C027843781B04DE
:100D800043EA0263C2781343827843EA0223636032
:100D9000027943791B0443EA0263C27913438279DF
:100DA00043EA0223A360027A437A1B0443EA026304
:100DB000C27A1343827A43EA0223E36003F094FE8B
:100DC000E368A2686168304803F024FC4FF48010A7
:100DD0001F4B186003F0ACFB144B08221A7072E032
:100DE0002A4803F0B9FB03F07FFE6CE003F098FEA5
:100DF0000146234B1A88264803F0FAFC03F074FEE0
:100E00000A4B05221A705EE003F074FE002841D1FF
:100E100003F086FE01461A4B1A881D4803F0E8FCD1
:100E200003F062FE014B05221A704CE00F064020D1
:100E3000C005402088084100BC084100E808410086
:100E4000E0054020E4054020001010000001402093
:100E5000E8054020DC0540205917B7D118094100AA
:100E6000FF0F10007C094100440941009F860100EA
:100E7000C0094100F4094100D8054020AA054020DE
:100E80009E054020180A4100480A4100840A41009A
:100E90000803402003F02EFE022814D1354803F049
:100EA0005BFB354B0C221A700DE0344B1B8842F271
:100EB00020001844324B1A883249C00102F05AFF10
:100EC0002D4B06221A70022001F0A8FF02B010BDBF
:100ED00003F010FE48B92C4A294B1B8811680B44BB
:100EE0001360254B03221A70EDE703F003FE02287E
:100EF000E9D1224B1988254803F08CFB1E4B0C22AC
:100F00001A70E0E701F018F8DDE74FF4807220492D
:100F10004FF4801002F02EFF174B0A221A70D2E70E
:100F200003F0E8FD30B91B4803F016FB124B0B220F
:100F30001A70C8E703F0DEFD0228C4D1164803F09A
:100F40000BFB0D4B0C221A70BDE7144B00221A60EC
:100F500003F042FCB7E70023104A1360064A1370FF
:100F600003F0F8FB0E4803F0F7FAACE7024B00225F
:100F70001A70A8E7B40A41000F064020AA054020D5
:100F80009E05402008034020E0054020E00A410083
:100F900000014020080B4100340B4100C0054020F7
:100FA000580B4100012070472DE9F04F2DED0A8BC1
:100FB00092ED009B8FB0B5EEC09B05938B680493B8
:100FC000F1EE10FA0B69CD680690D1E900A78B46C7
:100FD000089308D41AF0040F34D11AF008030393CD
:100FE00032D0202302E02D23B1EE499B2B70049BCD
:100FF00003F1FF390123039319EE903A19EE101A09
:1010000023F00042C04B00249A4208BFA1421ED1E7
:10101000059B0398413B192B94BFBC49BC4928440C
:1010200003F06EFD284603F0EFFB049BCDF800A013
:1010300002462946069802F09BFB0FB0BDEC0A8BD6
:10104000BDE8F08F2B23D1E7DDF81090D4E78C4278
:10105000934108D2059B0398413B192B94BFAD499E
:10106000AD492844DCE7B5EE409BF1EE10FAB2EE54
:1010700004CBB7EE00AB40F0C080059803F0DEFC77
:10108000002FC0B2C0F26281672840F0D580002FE7
:1010900008BF0127231DC0F2D180BC4280F2CE8060
:1010A000002C4FF066080CDAB8F1660F07F1010763
:1010B00007D1002C02DAB7EE00AB0024672800D07D
:1010C00027440023B0EE4A8BB0EE49BB8BEE080BF1
:1010D0000993079002F0A8F8099B90EE08BB013332
:1010E0009F420798B1EE4BBB88EE0C8BEED1B1EE70
:1010F000047B28EE078BB4EECB8BF1EE10FA00F3F5
:10110000A080B4EE4B8BF1EE10FA09D1BDEEC00B0E
:101110009FED796B10EE103A13F0010F06FE088B6D
:1011200039EE088B2AEE0C9BB4EEC89BF1EE10FA58
:1011300000F28A80B8F1660F04F1010440F0868065
:1011400001372146CB1B0022039F0A9316460A9BB8
:10115000994240F0A5803346002E00F0DF80E81968
:101160000022B8F1650F027029D1089B013B94421F
:10117000EA54BCBF644201224FF0020B4FF00A0E4A
:10118000591E002C40F0D180BBF1000F00F3CD8040
:10119000002A0CBF2B222D226A54059A023B413AA9
:1011A000192A05EB030198BF4FF045089F4281F8CB
:1011B000008001DA03F0A4FCCB44ABF104090AF08F
:1011C0000303022B7FF42EAFB9F1000F7FF72AAF94
:1011D000284603F019FB05EB0903039A824240F30A
:1011E000B18003984A463021284403F061FB002374
:1011F000049317E70134B0EE47AB2AEE0C7BB4EE54
:10120000C79BF1EE10FAF5D59FED3D7B00230BE077
:1012100014F5967F05DA23B929EE079B2AEE07AB72
:101220000123013C8AEE0CABB4EECA9BF1EE10FA3E
:10123000EED422E706272DE7804635E74FF0650814
:101240003FE79FED2D8B6BE7B0EE4A9BB8F1650F42
:1012500014BF2146002175E74EB9002907DA079E21
:101260002E23AB550123013709F1FF391E46AB1878
:1012700005EB070C3B444FF0300E01E00CF801EB9E
:101280009C45FBD1099B02EB070C3033A9EB020212
:1012900002F1FF3905F80C300CF10107002223E0C0
:1012A000DBF810300797053BBB427FF654AF88EE62
:1012B000090BCDE90C200B9101F0B6FFFDEEC07BD0
:1012C000DDE90B1217EE90CA6346092BA8BF09236C
:1012D00009930AF0100353EA0C0C0D98BCD167284F
:1012E000BAD10029B8DA013299EE008B0139B1EE9A
:1012F000488B89EE0C9B2AE70000000000000000EC
:1013000000000000000050430000F07FDC46410078
:10131000E0464100E4464100E84641001AF0100F63
:101320001EBF2E23EB55013719E70B4694FBFEFC3D
:101330000CEB8C01A4EB41013031E95464460BF114
:10134000FF3B1DE72A5C1A54013846E767283FF443
:1013500071AF80460627A7E62DE9F047AEB00746F5
:10136000164605914FF00008059D2B78002B00F0E4
:10137000E08000244FF0FF33CDE909430EAB0C931E
:1013800080230B940D932B5D0BB1252B30D134B101
:10139000294622463846254402F074FE0595059BF1
:1013A0001A78252A40F0BC8003F10109CDF8149089
:1013B0004A46002113782B2B104602F1010223D05C
:1013C0002ED8202B24D0232B26D001B105902A2BF8
:1013D0002ED002F0F3FC059A0B900020114601324A
:1013E0000B78303B092B79D9002830D005912EE0BD
:1013F0000134C8E7099B43F0010309930121D9E7B0
:10140000099B43F00203F8E7099B43F00403F4E768
:10141000099B43F00803F0E7099B43F01003ECE756
:101420002D2BE7D0302BEBD00029D2D00590D0E780
:1014300033681A1D1B6832600130002B05900B9336
:1014400005DA099A5B4282F0010209920B93099B2B
:10145000DA0744BF23F002030993059B1A782E2A6A
:101460000FD14FF0000ACDF828A05A785D1C2A2A27
:10147000059535D10233059333681A1D1B68326018
:101480000A9305A802F01AFF059D0390287803F03F
:10149000D5FA2528039900F0DA806138172800F280
:1014A000E080172800F2DD80DFE810F02B00DB0081
:1014B000B6004700A700A700A700DB004700DB003D
:1014C000DB00DB00DB009E0065008300DB00DB004F
:1014D000C700DB005600DB00DB00740001207DE765
:1014E000284602F06BFC53460A90294601350A78DB
:1014F000303A092A03D9002BC3D00591C1E7012353
:10150000F3E7324606A802F0D5FF002872D06B1C24
:10151000059306AA2B7809A9384603F02BFB04444F
:101520004444A04540F3A780544B4F221A604FF02B
:10153000FF3840462EB0BDE8F0873346012206A8AA
:1015400001F0B0FD002855D0013506AA09A938469A
:10155000059501F01DFFE2E73346002206A801F0E1
:10156000A1FD002846D0013506AA09A938460595EF
:1015700002F036FBD3E73346002206A801F092FDC5
:10158000002837D0013506AA09A93846059503F089
:10159000EFFAC4E73346002206A801F083FD48B302
:1015A0006B1C05932B7806AA09A9384601F028F987
:1015B000B5E733460022F02106A801F073FDC8B15B
:1015C000DDE906320135134305950BD12C4803F0B4
:1015D0001BF9099B00932A490B9B0246384602F0EF
:1015E000C7F89CE77823DEE7334608EB040206A839
:1015F00002F070F90135059592E7324606A802F02F
:1016000059FF0028F6D06B1C059306AA2B7809A970
:101610003846FFF7C9FC82E78029EBD133680135F2
:101620001A1D1B6832608DF818300595012306AA33
:1016300009A9384602F0A8FA71E78029DAD13268A0
:10164000131D33600135126805950023F0E78029EA
:10165000D0D1099B009301350B9B059509490122C7
:10166000BCE700234FF0FF32CDF8149009930B93A1
:101670000A920093F2E7A04676E600BFF805402004
:10168000F3464100F9464100F0B583B0012806D089
:10169000A94B1B78002B00F04B8103B0F0BDA74B8A
:1016A0001B78002B00F0A180A54B1A78597841EAED
:1016B00002214AF65523994238D1A14B9A78DD7818
:1016C00045EA02251A795E7946EA02264FF6FF734B
:1016D0009D4246D03446802E28BF8024994F3B78C7
:1016E00022462946984802F095FF3B78002B77D197
:1016F000964B1D80964B1C8056B19649964A002306
:1017000011F8010F02F8010B01339BB29C42F7D88C
:101710008C4B01221A70284602F008FE8F4B0122E2
:1017200083F84D208E4B00221A70B1E71A468D487F
:1017300002F070FF854B1B8801338B494E220A70E3
:10174000C3F307224A70DBB28B705A4082F04E021C
:10175000CA70794B01221A700422844803F0C6F83B
:10176000E0E7774B997ADA7A120442EA0162597B10
:101770000A43187B9C79D979090441EA04615C7AAF
:1017800021431B7A42EA002241EA0321784802F011
:1017900041FF0022694B1A70704B83F84B200122E5
:1017A00083F84D20694B4FF6FF721A803446802E25
:1017B00028BF8024664B1C8056B16649664A0023C8
:1017C00011F8010F02F8010B01339BB29C42F7D8CC
:1017D0005C4B01221A704FF6FF7002F0A7FDA1E7E3
:1017E0002946644802F016FF98E70121624802F09A
:1017F00011FF534CE3780093A378627821785F4817
:1018000002F008FF2378202B00F28D8001A252F80D
:1018100023F000BF91164100BF1841001719410085
:1018200027194100271941002719410027194100B4
:1018300027194100271941002719410027194100A4
:101840002719410027194100271941002719410094
:1018500027194100CF184100F51841002719410010
:101860002719410027194100271941002719410074
:101870002719410027194100271941002719410064
:101880002719410027194100271941002719410054
:101890002719410099184100394B01221A60284B41
:1018A0005B7807EE903AF8EE677AF2EE046A87EE1C
:1018B000A67A2A4B83ED117A01F034F8E8E6314834
:1018C00002F04AFE254B012283F84D20E0E602F0AB
:1018D00041FF1E4B00221A802B4802F03DFE0123DF
:1018E000274A1360294A13601C4A82F84B3082F859
:1018F0004D30CDE6264802F02FFE0023234A136028
:10190000164A82F84B30012182F84D100B4A1370B1
:10191000134A1370BCE61F4802F01EFE0F4B012253
:1019200083F84D20B4E60D4B022283F84D20AFE63C
:1019300001F098FFB1E600BF0D0640200C064020E4
:10194000000240200806402004034100FE0540201C
:101950006605402005024020880240208803402080
:101960000A064020A0024100D4054020680440201F
:10197000D40241002C0341005003410060034100A8
:10198000C4054020840341008C034100C005402071
:10199000C0034100D80341004C0440201C0000005B
:1019A00000000000880540200B000000000000003F
:1019B00034064020020000000100000088130000EF
:1019C000BC0540200C0000000000000093054020F2
:1019D00001000000000000009D0540200100000003
:1019E000000000003006402004000000010000005C
:1019F0000000C8421805402014000000000000004C
:101A0000880340205000000000000000AC0540208A
:101A10000800000000000000C80540200800000089
:101A20000000000028044020240000000000000006
:101A3000680540201000000000000000A9054020BB
:101A40000100000000000000060640200100000028
:101A5000000000008602402002000000000000009C
:101A6000520540200200000000000000000040205D
:101A700000010000000000000706402001000000F7
:101A800000000000D005402004000000000000001D
:101A9000040640200200000000000000A0044020D6
:101AA0001800000000000000400540201200000067
:101AB00000000000B80440201800000000000000F2
:101AC000540540201200000000000000D004402017
:101AD0001800000000000000000640200200000086
:101AE00000000000E8044020180000000000000092
:101AF000940540200900000000000000A0054020DF
:101B000009000000000000002C0540201400000027
:101B100000000000FC054020020000000000000062
:101B2000000540201800000000000000880240204E
:101B30008000000000000000660540200200000058
:101B400000000000FE054020020000000000000030
:101B500008064020030000000000000002064020AC
:101B600002000000000000000B0640200100000001
:101B700000000000360640200100000001000000C7
:101B8000040000000C0640200200000000000000DD
:101B9000D40540200400000000000000780540202B
:101BA000100000000000000000024020860000003D
:101BB00000000000680440201C000000000000003D
:101BC0000E064020010000000000000084044020B8
:101BD0001C00000000000000D805402008000000A4
:101BE000000000009E0540200200000000000000F0
:101BF000AA05402002000000000000000803402069
:101C000080000000000000000001402000010000F2
:101C100000000000E00540200C0000000000000073
:101C20000F0640200100000000000000EC054020ED
:101C30000800000000000000D80340205000000011
:101C400000000000100640202000000001000000FD
:101C50000100000003000000000000000000000080
:101C6000000000000000000000000000B40540205B
:101C7000B40540200800000000000000F4054020EA
:101C8000080000000000000000000000000000004C
:101C900066666666666666662DE9F04786468C4629
:101CA0000846089E154674461946002B40F0C2802F
:101CB0008242B2FA82F245D94AB1C2F1200300FA57
:101CC00002FC2EFA03F3954043EA0C0C94404FEAD1
:101CD000154EA8B2BCFBFEF8230C0EFB18CC08FB7B
:101CE00000F943EA0C43994528D9EB1808F1FF376E
:101CF00004D2994502D9A8F102072B44A3EB0903AA
:101D0000A4B2B3FBFEFC0EFB1C330CFB00F044EA58
:101D10000344A04214D92C190CF1FF3304D2A04281
:101D200002D9ACF102032C44241A43EA07401EB145
:101D3000D440002334607360BDE8F0874746DDE798
:101D40006346F1E792BB431B01214FEA154EAFB248
:101D5000B3FBFEFC200C0EFB1C330CFB07F840EA27
:101D60000343984562D9EB180CF1FF3004D2984533
:101D700002D9ACF102002B44A3EB0803A4B2B3FBDD
:101D8000FEFC0EFB1C330CFB07F744EA0344A7429E
:101D90004ED92C190CF1FF3304D2A74202D9ACF171
:101DA00002032C44E41B43EA0040C0E7C2F12003D5
:101DB00020FA03F1954090402EFA03F303434FEAD3
:101DC000154EAFB2B1FBFEFC0EFB1C10190C0CFB48
:101DD00007F841EA0041884504FA02F422D969185B
:101DE0000CF1FF3004D2884502D9ACF1020029443D
:101DF000A1EB08019BB2B1FBFEFC0EFB1C110CFB1E
:101E000007F743EA01439F420ED9EB180CF1FF316B
:101E100004D29F4202D9ACF102012B44DB1B41EA00
:101E2000004192E76046E3E76146F7E76046A3E7D3
:101E30006346B7E7834206D916B9002108467BE717
:101E4000C6E900E0F9E7B3FA83F78FB9834201D31B
:101E5000724508D8BEEB020460EB030301209C46E8
:101E60001EB9002168E73846FAE7C6E9004CF8E7F2
:101E7000C7F1200CBB4022FA0CF41C432EFA0CF1E3
:101E800020FA0CF3B84001434FEA14490EFA07F563
:101E9000B3FBF9F81FFA84FE09FB18300B0C08FBA2
:101EA0000EFA43EA00439A4502FA07F240D9E318D2
:101EB00008F1FF3004D29A4502D9A8F10200234468
:101EC000A3EB0A0389B2B3FBF9F809FB183308FB4B
:101ED0000EFE41EA03418E452CD9611808F1FF330B
:101EE00004D28E4502D9A8F10203214443EA0040FE
:101EF000A0FB0298A1EB0E014145CE46434602D31A
:101F000006D14D4504D2B9EB020E68EB040301384B
:101F1000002EA6D0B5EB0E0261EB030101FA0CFC1A
:101F200022FA07F34CEA0303F940C6E9003198E7C7
:101F30004046C5E74346D9E72DE9F041CCB002F071
:101F4000D9FD002840F0BF80644B59684A1E644B9D
:101F50009A4242D2082208A9624801F08BFD9DF8FE
:101F6000273004939DF8263003939DF82530029383
:101F70009DF8243001939DF8233000939DF8223082
:101F80009DF821209DF82010574802F043FB0822BD
:101F90000AA9564801F06EFD9DF82F3004939DF874
:101FA0002E3003939DF82D3002939DF82C30019331
:101FB0009DF82B3000939DF82A309DF829209DF83C
:101FC00028104B4802F026FB444B5F68AFB34FF03C
:101FD000FF340026DFF80C811BE0464802F01AFBB4
:101FE000454B0C221A705CE0013295420ED910F874
:101FF000011B4C40614614F0010F14BF83EA5404E6
:102000006408013911F0FF01F5D1EDE72E44B74224
:1020100015D9BD1BB5F5807F28BF4FF480752A46C2
:102020000CA906EB080001F025FDB742EED00CA884
:1020300000224FF0080C314BD9E74FF0FF34E14359
:10204000264B9B688B422FD0CBB20093C1F3072362
:10205000C1F30742090E2A4802F0DCFA0CAC294D04
:102060000FCD0FC42B6823600CAC11AF264E54F873
:10207000045B042207A9284601F0FCFC9DF81F30F0
:1020800001939DF81E3000939DF81D309DF81C2093
:102090002946304602F0BEFABC42E8D1164B0C226B
:1020A0001A704CB0BDE8F081184802F0B3FA0B4842
:1020B000174B40F8103BF022FF2102F0F9FB0E4BCA
:1020C00009221A70EDE702F015FD0228E9D1114846
:1020D00002F042FA084B0C221A70E2E7000140209D
:1020E00000F0DF00001010004407410080101000D5
:1020F0007C074100100741000F0640202083B8ED07
:10210000B4074100884841000408410030084100FC
:1021100034CD12AB6408410070B504460378013B2E
:10212000082B73D8DFE803F005286B73405F959A9E
:10213000C00002F081FB002868D0624B1B78002BA6
:1021400064D1604B01221A7002F086FC237B43B1FC
:102150006078400000F0FE0002F090FA0223237045
:1021600054E06378A07A003818BF012040EA4300A9
:10217000C0B202F083FAF1E702F068FB50B100232D
:102180006372237B53B9A37A002B0CBF032307236D
:1021900023703BE0204601F0C9FD37E0E07A02F011
:1021A00061FC0523237031E002F0B2FB50B9A38A31
:1021B00001339BB2A382B3F57A7F27D9204601F081
:1021C000B5FD23E00023A38202F040FB38B1607824
:1021D00002F0EAFA002323730623237016E0204658
:1021E00001F0A4FD12E002F031FB20B10023637284
:1021F000072323700AE0204601F098FD06E0437AA9
:102200004268D05C02F02EFC0423237070BD02F003
:102210007FFB50B9A38A01339BB2A382B3F57A7FC7
:10222000F4D9204601F082FDF0E70023A38202F0FA
:102230000DFB50B1637A0133DBB26372227A9A42AA
:1022400014BF032309232370E0E7204601F06EFD4D
:10225000DCE700F066FB08232370D7E702F060FBA1
:1022600050B9A38A01339BB2A382B3F57A7FCDD94B
:10227000204601F05BFDC9E70023A382657A66680A
:1022800002F0F6FB7055637A0133DBB26372227A97
:102290009A4204D001F0CFFC07232370B6E702F086
:1022A000EDFB09232370B1E702F0D8F80023237077
:1022B000A375044A13702369002BA7D00020984708
:1022C000A4E700BFA905402030B583B004460378D9
:1022D000072B00F2BA80DFE803F00B040D235F78D0
:1022E0008EA8062001F074FE0023A382022323702F
:1022F00003B030BD01F08AFE10F0020F04D00023BD
:10230000A38203232370F3E7A37D0133DBB2A3751C
:10231000022B4FF0010384BFE37507232370E7E727
:102320004378022B0DD0032B20D0012B2FD1C26874
:102330004168806801F09EFBE368236104232370F9
:10234000D6E7C2684168806801F0A0FCE3682361B9
:102350004FF4802501F05AFE10F0010F01D1013D2C
:10236000F8D1062323700023A382C1E781682020CF
:1023700001F0CEFD44F620630193019B5A1E0192A9
:10238000002BFAD1062323700023A382B0E7022397
:10239000C37507230370ABE70269C3689A4207D38A
:1023A000002303708369002BA2D0012098479FE788
:1023B000838A01339BB2838241F28732934297D959
:1023C0000323C3750723037092E70269C3689A4227
:1023D00004D3002383820623037089E7838A0133B1
:1023E0009BB2838241F28732934281D90423C37521
:1023F000072303707CE702F047FB40B900232370FA
:10240000A369002B3FF474AF0120984770E7A38ABB
:1024100001339BB2A38241F2873293427FF668AFC9
:102420000523E3750723237062E7C17D084802F0A6
:10243000F1F8A3690BB10020984700232361E36002
:10244000A382A3756370237052E7002303704FE7E4
:10245000B001410038B50025514C06E000F0ECFA1F
:102460000135EDB2052D00F0968002F0F9F92378E0
:10247000002B46D06378002B47D0A378002B48D0A0
:10248000E378002B49D02379002B4AD06379002BC5
:102490004BD0A379002B4CD0E379002B4DD0237A7D
:1024A000002B4ED0637A002B4FD0A37A002B50D054
:1024B0002378002BD2D06378002BCFD0A378002BC9
:1024C000CCD0374BDB78002BC8D0354B1B79002B99
:1024D000C4D0334B5B79002BC0D0314B9B79002BA0
:1024E000BCD02F4BDB79002BB8D02D4B1B7A002BA7
:1024F000B4D02B4B5B7A002BB0D0294B9B7A83BB9B
:10250000ACE7FEF74FFD2070B4E701F07BFC607094
:10251000B3E701F0DDFAA070B2E700F08DFBE070E8
:10252000B1E700F087FF2071B0E700F07BFE60713B
:10253000AFE702F004FBA071AEE702F006FBE0712A
:10254000ADE702F0FEFA2072ACE702F0FCFA60722E
:10255000ABE702F0E0FAA072AAE70135EDB2052D73
:102560001BD002F0FCFA0028F7D002F0F0FA0028A5
:10257000F3D002F0EEFA0028EFD002F0ECFA0028D7
:10258000EBD002F0EAFA0028E7D002F0EAFA0028DD
:10259000E3D0012000E0002038BD0020FCE700BFB0
:1025A0008805402030B5C1B0404801F0D5FF404C0F
:1025B000204601F0D1FF3F4801F0CEFF4FF48031BB
:1025C0003D4802F027F8204601F0C6FF00F034FB3A
:1025D0004FF48031394802F01DF8062001F0F8FC74
:1025E0004FF48031202001F093FC01F04DFFA8B1A1
:1025F0004FF4807269464FF4803001F03BFA6B462D
:10260000002113F8012BFF2A0DD10131B1F5807F94
:10261000F7D12B4801F0A0FF012408E00446294827
:1026200001F09AFF03E0284801F0F4FF002400F0D5
:1026300067FC08B300F07AFB80B10234E4B21C48B6
:1026400001F08AFF254603222146204801F0E2FFDF
:10265000032C1ED11E4801F07FFF1FE00134E4B2BD
:102660000EE0134801F078FF0134E5B20322294659
:10267000164801F0CFFF0CE000F058FB0028F0D125
:102680000B4801F069FF2546032221460F4801F05F
:10269000C1FFC5F103010F4801F0BCFF044801F080
:1026A0005BFF024801F058FF41B030BD4C054100CE
:1026B0005005410088054100C4054100FC0541006A
:1026C0008C044100480441002006410044064100BA
:1026D0007C064100B8064100414B03B19847414B8D
:1026E00003B19847EFF31083B3FA83F35B090193C7
:1026F00072B6BFF35F8F01994FF0E022D2F8883DA8
:1027000043F47003C2F8883DBFF34F8FBFF36F8F60
:1027100011B1BFF35F8F62B6334B5B6913F4003FB7
:1027200013D1BFF34F8FBFF36F8F2F4B0022C3F82E
:102730005022BFF34F8FBFF36F8F5A6942F40032BC
:102740005A61BFF34F8FBFF36F8F274B5B6913F451
:10275000803F2BD1244B0022C3F88420BFF34F8F3E
:10276000D3F88030C3F3C904C3F34E334FEA431C9C
:1027700043F6E07E1C480CEA0E01234641EA8372D0
:10278000C0F86022013BB3F1FF3FF7D1ACF1200C60
:102790001CF1200FEFD1BFF34F8F134A536943F45D
:1027A00080335361BFF34F8FBFF36F8F00F018FF7B
:1027B00001F00AFE0D4B23F07F030B4A93600C4B94
:1027C00098470C4B03B198470B4B03B19847002136
:1027D000084601F057FD094B03B19847FEE700BFDB
:1027E000000000000000000000ED00E000004100DB
:1027F0002D3B410000000000000000000000000030
:102800002DE9F04F8BB00D460493D1E901132F68E9
:10281000D5F80C9003900029A8BF27F00207924634
:10282000B8BF012117F010020592DAE9006232D038
:1028300056EA02002FD0A3F1020B2C69029617F082
:10284000080004F1FF3418BF0BF1FF3B9046002253
:1028500009F8042006905A46012C1EDC059A002A2D
:1028600051D1069A1AB1013C202209F804202A69A4
:1028700003980097013A121B09EB040100F078FF5E
:10288000039B5B68DB0503D56B689842B8BF1846AD
:102890000BB0BDE8F08F9B46CFE7029850EA0800E6
:1028A00008D1A1EB0B001044002803DC002AD5DD81
:1028B000B807D3D50298049E00F00F000928A6F1AE
:1028C000410CD4BF30305730BCF1190F04F1FF3444
:1028D0000ED840F0200CACF1610CBCF1190F07D8F8
:1028E000CDE90813079202F0B0F8DDE90813079A62
:1028F00009F804000298060946EA0870013A0290B5
:102900004FEA1818A8E7DAE900210A43A9D009EB31
:102910000402049902F8011C023C302209F8042048
:102920009FE7704700B583B03A4A202313703A49B5
:10293000D1ED007AB2EE047A67EE877AFCEEE77AA0
:1029400017EE903A5370D1ED017ADFED346A67EEFD
:10295000A67AFCEEE77A17EE903A93703049D1ED03
:10296000007ABCEEE77A8DED017A9DF80430D370E1
:1029700007EE103AB8EEC77A77EEC77A67EEA67A16
:10298000FCEEE77A17EE903A1371D1ED017ABCEEC6
:10299000E77A8DED017A9DF80430537107EE103A15
:1029A000B8EEC77A77EEC77A67EEA67AFCEEE77ADA
:1029B00017EE903A93711B4BD3ED007AFCEEE77A59
:1029C00017EE903AC3F30721D1711372164BD3ED72
:1029D000007AFCEEE77A17EE903AC3F307215172C2
:1029E0009372124B93F84A30D37213460C32002084
:1029F00013F8011B48409342FAD1064908730C4B67
:102A000001221A700D220B4801F070FF03B05DF82F
:102A100004FB00BF78054020AC0540200000C84200
:102A200068054020CC054020C80540208803402090
:102A30000D0640206804402030B486B03F4B802211
:102A40001A6003F548231822C3F8002E1022C3F899
:102A5000102E0822C3F8142E092019461025002430
:102A600042F20F72C1F8345E0194019B934205DC7F
:102A7000019B01330193019B9342F9DDC1F8305E64
:102A80000294029B934205DC029B01330293029B5A
:102A90009342F9DDD1F83C3E13F0080F01D1013823
:102AA000E0D1274B0822C3F8102E1021C3F8341EA2
:102AB000C3F8342E00230393039A42F20F739A4211
:102AC00006DC1A46039B01330393039B9342F9DD13
:102AD0001B4B1022C3F8302E00230493049A42F2B9
:102AE0000F739A4206DC1A46049B01330493049B3D
:102AF0009342F9DD124B0822C3F8302E00230593D0
:102B0000059A42F20F739A4206DC1A46059B01337E
:102B10000593059B9342F9DD094B1822C3F8042E57
:102B2000A3F5482380221A6024221A601A6A49F603
:102B30009D521A6106B030BC704700BF0080014052
:102B400000000E4070B504460378013B052B09D800
:102B5000DFE803F0030914326167407801F030FECA
:102B60000223237070BD436833B1427B985C01F04F
:102B7000F7FE03232370F5E7FF20F8E701F0D8FE06
:102B800020B10023A37304232370EBE7A37B01335D
:102B9000DBB2A373C82BE5D9254801F0DDFC6078D2
:102BA00001F0D6FE0023A37323702369002BD9D034
:102BB0004FF0FF309847D5E701F0C2FE90B10023F7
:102BC000A373A56825B3667B01F064FFA855637BFA
:102BD0000133DBB26373227B9A428CBF022305234D
:102BE0002370BFE7A37B0133DBB2A373C82BB9D932
:102BF000104801F0B1FC607801F0AAFE0023A37335
:102C000023702369002BADD04FF0FF309847A9E720
:102C100001F040FFDBE7407801F09AFE06232370C5
:102C2000A0E703690BB1002098470023237099E7C0
:102C3000E0014100FC01410082B0384B4FF40062DA
:102C4000C3F800274FF48232C3F810264FF41E3227
:102C5000C3F8042ED3F8702E22F41E32C3F8702E5F
:102C6000D3F8742E22F41E32C3F8742E03F5805369
:102C70004FF00042C3F80424D3F8702422F000423D
:102C8000C3F87024D3F8742422F00042C3F87424EB
:102C9000A3F5CA2380221A60214A5A604FF40072B9
:102CA0001A6201221A604FF480231E490A6912F049
:102CB000807F01D1013BF9D11A4BAB225A6342F21A
:102CC00010029A639B6B4FF4802316490A6912F431
:102CD000806F01D1013BF9D1124B4FF080721A6025
:102CE0004FF4FA730193019B5A1E0192002BFAD103
:102CF0004FF0E0230722C3F8982D4FF00042C3F8AD
:102D00009C2D094AC3F8A02D0522C3F8942DBFF3CA
:102D10004F8FBFF36F8F012002B0704700000E404D
:102D20001100000100C00740370008132DE9F041F1
:102D3000ADF5007D062001F04BF94FF480312020E5
:102D400001F0E6F801F0A0FB78B30DF1FF052A468B
:102D5000002302F8013F0133B3F5807FF9D1294800
:102D600001F058FC062001F033F94FF480720DEBAE
:102D700002014FF4803000F089FF01F085FB04462A
:102D8000C0B1E8464FF48072FF21404601F090FD4B
:102D90004FF4807241464FF4803000F06BFE0DF12D
:102DA000FF340DF1FF0700260FE00446164801F03E
:102DB000D3FB02E0154801F0CFFB20460DF5007D66
:102DC000BDE8F0810136BC420FD0204614F8013F27
:102DD00015F8012F9342F6D0042EF3D8C8F1010163
:102DE00001440B4801F016FCECE726B9094801F054
:102DF000B3FB0124E1E73146074801F00BFC002456
:102E0000DBE700BFD4044100B404410048044100A2
:102E1000FC0441008C0441003005410010B504461B
:102E200000F060FA314BD3ED007A052C4DD8DFE885
:102E300004F0050D21283E03204610BD002846D091
:102E40002B4B1868003818BF0120F6E7002840D047
:102E5000274B1B68002B3ED0264B1B68002B3CD019
:102E60009FED257AF4EEC77AF1EE10FACCBF02207E
:102E70002046E2E71F4B1B68002B14BF20460120B1
:102E8000DBE7B2EE0E7AF4EEC77AF1EE10FA26D452
:102E9000184B1B6833B19FED187AF4EEC77AF1EE48
:102EA00010FA1EDC00280CBF20460020C5E7B2EE59
:102EB0000E7AF4EEC77AF1EE10FA14D50F4B1B68B8
:102EC000002B0CBF20460520B7E70020B5E7032004
:102ED000B3E70320B1E70020AFE72046ADE70420C9
:102EE000ABE70220A9E70320A7E700BF3006402098
:102EF000C4054020C005402000008C42BC05402095
:102F00002DE9F041ADF5007D0DF1FF050DF2FF104B
:102F10002B4640F2011180AA891ACA1812F0010F3B
:102F200014BF5A22A52203F8012F8342F5D1264867
:102F300001F070FB062001F04BF84FF480720DEBAE
:102F400002014FF4803000F0A1FE01F09DFA04462A
:102F500098B1E8464FF4807422460021404601F0C3
:102F6000A7FC224641464FF4803000F083FD0DF16E
:102F7000FF340DF1FF0700260AE0144801F0ECFAD7
:102F800020460DF5007DBDE8F0810136BC420FD032
:102F9000204614F8013F15F8012F9342F6D0042E75
:102FA000F3D8C8F101010144094801F033FBECE713
:102FB00026B9084801F0D0FA0124E1E73146064875
:102FC00001F028FB0024DBE7200441004804410015
:102FD000580441008C0441009804410010B50128B8
:102FE0001FD1284B1988013189B219801F2907D8B0
:102FF000254B1B78032B41D8DFE803F00B16202963
:10300000214B04221A70214801F004FB00F02AFC35
:1030100009E01F4B1B78AA2B14BF002301231A4A77
:10302000137000F01FFC10BD194B1B78552B14BFFB
:10303000002301235B00144A1370F2E7144B1B7842
:10304000AA2B14BF002203220F4B1A70E9E7104B82
:103050001B78552B03D00C4B00221A70E1E7042497
:10306000094B1C700B4801F077FA0B4B01221A70C8
:1030700022460A490A4801F039FCD4E7024B0022F3
:103080001A70CEE702064020360640204402410076
:103090000B0640207C0241000D064020684B410099
:1030A00068044020902910B50FDC7F2913DD80399A
:1030B000102910D8DFE801F02B2B360F110F0F0F5E
:1030C000200F0F0F0F0F0F0F3600C02944D0F0292B
:1030D00042D0A02921D000200DE019682AB10A1D94
:1030E0001A60B1F90030DA1702E00C1D1C600B8881
:1030F000C0E90032012010BD196822B10A1D1A6012
:1031000091F90030EFE70C1D1C600B78F0E71968AF
:10311000F2B10A1D1A600B68E5E71A68111D196003
:103120001368E0E7196852B1073121F0070101F196
:1031300008021A60D1E90023C0E90023DAE7CA1DBA
:1031400022F0070202F108011960D2E90023F3E737
:103150000C1D1C600B68CBE71A68111D1960136801
:10316000036000234360C5E700B170472A4B2B4A38
:10317000117807EE101AB8EE477ADFED297AC7EE1C
:10318000276AC3ED006A517807EE101AB8EE477A45
:10319000C7EE276AC3ED016A917807EE101AB8EE00
:1031A000477AC7EE276AC3ED026AD17807EE101A94
:1031B000B8EE477AC7EE276AC3ED036A117907EEC6
:1031C000101AB8EE477AC7EE276AC3ED046A517940
:1031D00007EE101AB8EE477AC7EE276AC3ED056A04
:1031E000917907EE101AB8EE477AC7EE276AC3ED59
:1031F000066AD17907EE101AB8EE477AC7EE276A49
:10320000C3ED076A127A07EE102AB8EE477AC7EEC6
:10321000276AC3ED086AA8E7280440205405402027
:103220000000C8420120704753EC102BC3F30A5131
:103230002DE9F04140F2FD704C1E84429E4640D87C
:10324000A1F2FF30002833DB33282DDC244C4FF073
:10325000FF3CC0F120061546A1F21F4104FA06F218
:103260002CFA00FC4CEA020C24FA01F24CEA020CA3
:10327000C44003EA040805EA0C0757EA080725EAF0
:103280000C0223EA04030FD0002B0DDA4FF4801454
:1032900004FA06F624FA01F10E43B61824FA00F4F3
:1032A00044EB03043246234643EC102BBDE8F08187
:1032B0009FED090BBFEE007B002B20FE070BBDE846
:1032C000F0810029F0D10A4603F0004343EC102BB3
:1032D000ECE700BFAFF3008000000000000000003A
:1032E000FFFF0F00254BD3ED007AB1EE0A7AF4EE22
:1032F000C77AF1EE10FA34DC9FED217AF4EEC77A4A
:10330000F1EE10FA2FD4D3ED017AB0EE007AF4EE9C
:10331000C77AF1EE10FA28DCB7EE007AF4EEC77A3D
:10332000F1EE10FA23D4174BD3ED007A9FED167A05
:10333000F4EEC77AF1EE10FA1BDCBAEE047AF4EE82
:10334000C77AF1EE10FA16D4104B93ED007AF3EE33
:103350000E7AB4EEE77AF1EE10FA54BF01200020A5
:103360007047002070470020704700207047002001
:103370007047002070470020704700BFAC05402018
:1033800066664640C8054020000070423006402076
:103390002DE9F041D2E900230C4686B005465FEAEC
:1033A000D378D1E901060968E76805913FD0524218
:1033B00063EB4303002808DB21F002010591B8F11B
:1033C000000F02D10599480722D5711E05A8029069
:1033D0000A20CDE90010204600F008FAB8F1000FED
:1033E0001AD001382D233B542269059B0093013AE2
:1033F0003346121A3918284600F0BAF96B68DB0513
:1034000003D563689842B8BF184606B0BDE8F0819E
:103410000807DAD43146D9E7059B590702D50138A8
:103420002B23E0E71A07DFD501382023DBE700284C
:10343000C2DAC7E7214B4FF42052C3F8102603F538
:10344000805303225A601A6F22F003021A675A6FE0
:1034500042F003025A67A3F53D23AC221A604FF4F1
:103460000C625A604E221A6250221A604FF4807227
:103470001A605B6913F0010F05D0114B9A695A6904
:1034800012F0010FFAD100230E4A13800E4A138066
:1034900001200B4B98604FF0E0224FF40053C2F82C
:1034A00000310649D1F8003743F08063C1F8003796
:1034B0004FF08063C2F80431704700BF00000E4037
:1034C00000400240520540208602402070B504466C
:1034D0000378012B0DD0022B2ED0002B36D101F01A
:1034E0002BF9002831D0002363826361012323700C
:1034F0002BE001F021F950B9638A33B363690133DA
:103500006361144A934220D9022323701DE0658A27
:10351000E66800F0F3FD7055638A01339BB2638265
:1035200000226261228A9A420FD800232370A36985
:103530005BB10120984708E083690BB100209847F0
:103540000023638223826361237070BD00230370B4
:10355000FBE700BF3F420F0000B170471D4B03F176
:103560000800002213F8011F4A408342FAD1194B88
:103570005B7A9342F1D1184A164B597811709878BA
:10358000D97841EA002107EE901AF8EEE77ADFEDEC
:10359000136A87EEA67A82ED017A1879597941EAA1
:1035A000002107EE901AF8EEE77AB2EE047AC7EE41
:1035B000876AC2ED026A9879D97941EA002107EE5B
:1035C000901AF8EEE77AC7EE876AC2ED036A1B7AB3
:1035D0001374C2E794054020180540200000C8423B
:1035E0001A4B1B4A5A601A46936813F0010FFBD01E
:1035F000164BDB6813F4C07F12D0144B154A5A6087
:103600001A46936813F0010FFBD0104B124A5A6010
:103610001A46936813F0010FFBD0104B104A1A6042
:10362000BFF34F8FBFF36F8F0E4BD3F8902222F072
:103630000102C3F89022D3F8942222F00102C3F8C9
:103640009422BFF34F8FBFF36F8F7047000C0E4073
:103650000D00005A0C08005A0C07005A00180E40C2
:10366000010000A500ED00E01C4B4FF40042C3F840
:1036700054281B49D1F8142142F01002C1F814213A
:10368000184A4FF49841C2F810164FF40011C2F8CE
:10369000041ED2F8701E21F40011C2F8701ED2F878
:1036A000741E21F40011C2F8741E10225A601A6FA1
:1036B00042F010021A675A6F42F010025A67A3F5DF
:1036C00039230C221A604FF40C625A604E221A629F
:1036D00050221A60044B01221A70704700100E40ED
:1036E0000080084000000E400706402008B5012871
:1036F00003D0194B1B785BB308BD184B1B782BB15B
:10370000012B0BD0154B00221A70F2E7144B1B78DB
:10371000AA2BEED1114B01221A70EAE7104B1B784D
:10372000552B06D0AA2B14BF002301230B4A13707C
:10373000DFE70A4B02221A700A49AA230B705523AD
:103740004B70094B84220231084800F0E6FFD3E7B2
:1037500000F088F8D0E700BF0D0640200A064020A0
:1037600009064020000240208916410068044020DC
:103770002DE9FF471D460C9B13F0010806460F4636
:10378000144601D195420BD822463946304600F006
:1037900079FCA54204D82546284604B0BDE8F08748
:1037A000A5EB04094A46102A28BF102220216846AA
:1037B000CA4601F07DF800BFBAF10F0F0ED809F02C
:1037C0000F026946304600F05DFCB8F1000FE3D10E
:1037D00022463946304600F055FCDDE710226946A6
:1037E000304600F04FFCAAF1100AE5E72DE9F84F4A
:1037F0000446DDE90A9A6668D4F80C8024690C9FB7
:10380000013C1946002E4FF00003D7F800B008F82D
:1038100004301046B8BF01264D460123002C03DCBE
:10382000DBB12046BDE8F88F50EA010209D1A6EBD2
:1038300009022A44002A04DC002DF1DD1BF0020FEE
:10384000EED052464FEAEA7300F0F0FD013C134619
:10385000303208F80420013DE0E73B6823F0100314
:103860003B60DEE708B5114B1B7883B9104B1A7823
:10387000042A0DD10F4B1B7823B10F4B1B78022B61
:103880000DD186220D4B0E49084800F046FF08BDB9
:103890000C4B01220C49054800F03FFFF7E70B4BAA
:1038A00001220B49014800F038FFF0E7680440208E
:1038B000360640200C0640200A06402089164100AA
:1038C00000024020DD2F41000B064020ED36410074
:1038D00009064020902910B50FDC7F2911DD8039C1
:1038E00010290ED8DFE801F00F0F250D170D0D0D73
:1038F0001E0D0D0D0D0D0D0D2500A02903D0C029A5
:1039000001D0002006E019680C1D1C600B680360E4
:103910001A60012010BD19680C1D1C600B68036043
:103920001A80F6E719680C1D1C600B6803601A709A
:10393000EFE719680C1D1C600B680360D117C3E921
:103940000021E6E710B582B0062000F041FB4FF4FD
:10395000FA630193019B5A1E0192002BFAD1124B7C
:1039600001225A6342F290029A639A6B4FF000422E
:1039700000211170BFF34F8FBFF34F8F4FF0807254
:103980001A604FF4802308490A6912F4806F03D14A
:10399000013BF9D1054C00E0044C01F075F808B189
:1039A000013CFAD102B010BD00C0074020A10700C1
:1039B000144B5A6912F0010F1AD09869124B1B88E8
:1039C0000133DBB21149098889B2994210D030B471
:1039D0000D4C218889B2C0B20D4D6854238012F07D
:1039E000E00F03D0074B4FF480721A6030BC704771
:1039F00012F0E00F04D0034B4FF480721A6070474E
:103A0000704700BF0040024052054020860240201F
:103A10000000402010B504464378012B05D0022B4E
:103A200020D023B30023437021E000F0A1FF40B970
:103A30006369013363610E4A934218D902236370AC
:103A400015E0637A6268D05C01F030F8637A013384
:103A5000DBB2637200226261227A9A4207D80023A5
:103A6000637004E00023437203724361437010BD2E
:103A70003F420F0030B583B005460846124B1D6328
:103A80000B215963114999639B6B64230193019B3B
:103A90005C1E0194002BFAD172B605F1004100F0D2
:103AA000A7FEBFF34F8F62B6074B4FF080721A60CC
:103AB0004FF4802304490A6912F4806F01D1013B5D
:103AC000F9D103B030BD00BF00C00740B0100800FE
:103AD000154B4FF40412C3F8102603F580534FF42E
:103AE000E002C3F80424D3F8702442F4E002C3F8DF
:103AF0007024D3F8742422F4E002C3F874244FF045
:103B00000072C3F80024C3F81024C3F83024A3F5CE
:103B1000592380221A6011225A604FF47F421A639F
:103B200001201860704700BF00000E400E4A38B5F3
:103B3000002313600D4A0E4C13600E4A0E4D1360A5
:103B40000E4A13600E4A13600E4A5362136101233A
:103B5000936000F05DFF00F090FDAC4200D338BDF3
:103B600054F8043B9847F8E7F4054020E40340206C
:103B700074014100E003402078014100D803402057
:103B8000DC034020E80340202DE9FF41134ED1F82B
:103B90000080B788ADF80C7005463068029002AC22
:103BA000B0798DF80E00002A18BF1446D1E90167DC
:103BB0001A461BB9204600F027FE0246002E02DB03
:103BC000B24228BF3246CDF800803B462146284607
:103BD000FFF7CEFD04B0BDE8F08100BFEC46410028
:103BE000F0B50C46D1E9011687B02368059300298A
:103BF000A4BF23F00203059305ABE76802930A23F1
:103C0000CDE900630546D2E900232046FFF7EEFD2B
:103C10002269059B0093013A3346121A3918284647
:103C2000FFF7A6FD6B68DB0503D563689842B8BF54
:103C3000184607B0F0BD704708B5134B1B78052B2D
:103C400008D8DFE803F003080D12171C00F088FB0A
:103C50000D4B187008BD00F0E3FE0B4B1870F9E730
:103C6000FCF796FF084B1870F4E700F093FB064B47
:103C70001870EFE700F0DBFE034B1870EAE700F086
:103C800045FF014B1870E5E79305402010B5134B35
:103C9000186302245C6343F2B0049C639B6B72B6AE
:103CA00000F1004000F0A4FDBFF34F8F62B64FF467
:103CB00080230A490A6912F0040F01D1013BF9D1AE
:103CC000064B4FF080721A604FF4802303490A6953
:103CD00012F4806F01D1013BF9D110BD00C0074043
:103CE0000E4B1B78CBB900B583B00D4A012313707E
:103CF000002353709370D370137153719371D37108
:103D00001372084B019309230093074B19210348B1
:103D100000F036FC03B05DF804FB70472C05402032
:103D2000A0054020593541009405402010B50446B7
:103D300000F094FB00232370A382A37D0133DBB248
:103D4000A375022B08D8094B00221A70236913B1FE
:103D50004FF0FF30984710BD6178054800F05AFCDD
:103D6000FEF76AFE0023A375EDE700BFA90540201A
:103D7000900141000E4B1B78C3B9531EFF2B03D992
:103D80000B4B02221A70704700B583B0084B4FF0FE
:103D9000010C83F800C0074B009313460A46014606
:103DA000054800F09CFB03B05DF804FB704700BFC2
:103DB0000E06402075484100840440200278202AE5
:103DC000034600F10100F9D0A2F109010429F5D957
:103DD0002B2A06D02D2A13D101210133013B0020CB
:103DE00006E00021F9E700BF00EB8000C2EB4000D5
:103DF00013F8012F303A092AF6D901B94042704729
:103E00000021EBE70F4B4FF40022C3F810261822D5
:103E1000C3F8042ED3F8702E22F01802C3F8702EC7
:103E2000D3F8742E22F01802C3F8742EA3F5482399
:103E300080221A6024221A601A6A49F69D521A6179
:103E40000120704700000E4000B170470C4B0D4A36
:103E5000117807EE901AF8EE677AF2EE046A87EEB0
:103E6000A67A83ED007A527807EE902AF8EE677A08
:103E7000DFED056A87EEA67A83ED017AE5E700BFFC
:103E8000AC054020040640200000C84208B50B489D
:103E90000022027001230A490B700A490A700A497C
:103EA00010220A70AC224A704B228A70F722CA7024
:103EB000064A1370042200F019FD08BD6804402072
:103EC0000C0640200A064020D40540200D06402064
:103ED00010B5054C237833B9044B13B10448AFF344
:103EE00000800123237010BD4C044020000000001E
:103EF0000000000008B5034B1BB103490348AFF3B2
:103F0000008008BD000000005004402000000000B8
:103F100082B00E4B1963586330229A639A6B4FF04C
:103F200080721A604FF4802308490A6912F4806F86
:103F300001D1013BF9D142F210730193019B5A1E4A
:103F40000192002BFAD102B0704700BF00C00740B9
:103F500000B1704738B50C4D284600F0AFFB0B4C54
:103F600084ED000A281D00F0A9FB84ED010A05F18B
:103F7000080000F0A3FB84ED020A05F10C0000F03C
:103F80009DFB84ED030A38BD4005402068054020B4
:103F900000B1704708B50B4B1A785B7843EA0223EF
:103FA00043F30B131BB207EE903AFAEECE7A064BB0
:103FB000C3ED007AB7EEE77A53EC172B034800F015
:103FC00029FB08BDFC054020C80540203402410003
:103FD00082B00D4B586310229A639B6B4FF4802381
:103FE00009490A6912F4806F01D1013BF9D1064BEE
:103FF0004FF080721A6096230193019B5A1E019222
:10400000002BFAD102B0704700C007400D4B0522CB
:104010005A6390229A639A6BBFF34F8F4FF000421E
:104020001078C0B2BFF34F8F4FF080721A604FF418
:10403000802304490A6912F4806F01D1013BF9D150
:10404000704700BF00C0074010B50C4C2046FFF77A
:10405000E1FC2046FFF73AFA094B1B783BB1637845
:104060002BB9237A013B627ADBB29A4200D810BDA9
:10407000034B00221A70FFF7F5FBF8E768044020B5
:104080000D06402038B5436813F4807F044615467A
:1040900011D003699A4228BF1D465DB12A46406986
:1040A00000F0A6FB636922692B44521B22610022A7
:1040B00063611A7038BDDB06FCD400F03DFDF9E702
:1040C00007B54A680346DBB2D20508468DF80730CB
:1040D00007D54A69511C41611370184603B05DF859
:1040E00004FB01220DF1070100F026FD10B19DF83F
:1040F0000700F3E74FF0FF30F0E7FEE70A4B1A88BE
:1041000092B20A4B1B889BB29A420AD0074A138884
:104110009BB20749C85CC0B213880133DBB213807D
:1041200070470020704700BF5205402086024020A3
:10413000000040200A4B1B788BB9094B60225A7053
:10414000084A5A6002221A7201229A720921D9720F
:104150001A73002159729982034919611A707047C4
:10416000A004402004064020493E41000A4B1B7831
:104170008BB9094B42225A70084A5A6012221A72AD
:1041800001229A72FF21D9721A7300215972998201
:10419000034919611A707047B80440204005402057
:1041A000513F41000A4B1B788BB9094B68225A706A
:1041B000084A5A6006221A7201229A723B21D97269
:1041C0001A73002159729982034919611A70704754
:1041D000D0044020540540206931410010B5044608
:1041E0000146094800F016FA04B110BD074B1A78D1
:1041F0005B7843EA022307EE903AF8EEE77A044B45
:10420000C3ED007AF1E700BF18024100000640202C
:10421000CC0540200A4B1B788BB9094B77225A708A
:10422000084A5A6002221A7201229A72F721D97240
:104230001A73002159729982034919611A707047E3
:10424000E804402000064020DD4141000A4B1B7875
:1042500083B9094B48225A70084A5A6002221A72DE
:1042600001229A720021D9721A73597299820449F3
:1042700019611A70704700BF00054020FC054020FE
:10428000913F410038B5FFF7EFF90B4800F064F9B2
:104290000A242546284600F0B3FB013CFAD1FEF77C
:1042A000D9F830B1FEF77EF9FFF7DCFAFFF7C4FC6E
:1042B000FCE700F091FAF5E7F406410030B50C4A4E
:1042C0000146002012F810301BB902EB4002507872
:1042D00030BD0C6825789D4209BF02EB4003431CAA
:1042E0005878013414BFD8B20C600A28EAD9EFE735
:1042F0002048410070B514460D4699B13AB10228E4
:1043000005D8094B2BB111462846AFF30080204653
:1043100009E00E4616F8010B00F06AF92B199E42CF
:10432000F8D1F4E7084670BD0000000008B509495F
:10433000AC230B70030A4B70C0B28870434083F00B
:10434000AC03CB70044B01221A700422034800F026
:10435000CDFA08BDD40540200D0640206804402059
:1043600010B500F033F900F0A7FB084B1B68C31A27
:10437000074A1288934203D20020FEF74FFD10BD7A
:10438000044600F03BF8014B1C60F5E7EC054020CB
:104390003406402010B500F019F900F08DFB084BF1
:1043A0001B68C31A074A1288934203D20320FEF700
:1043B00035FD10BD044600F021F8014B1C60F5E707
:1043C000EC0540203406402038B50A480A4D016803
:1043D00021B9436813B900F096F838BD03894268E3
:1043E00055F8233000F10C042046984704EB800078
:1043F000EDE700BF981941009C48410008B50A4B01
:104400001B782BB1FFF76CFC0022074B1A7008BD1C
:10441000FFF790FEFFF7AAFEFFF7C4FEFFF7FAFED4
:10442000FFF714FF0122F0E79D05402053B94AB978
:10443000002908BF00281CBF4FF0FF314FF0FF30AC
:1044400000F09ABBADF1080C6DE904CEFDF724FC39
:10445000DDF804E0DDE9022304B07047084B0222D6
:104460001A60084B06490A6A12F0010F07D1013B96
:10447000F9D1034B80221A6024221A6070477047DA
:1044800000800140A086010010B5084CFFF7BEFD7A
:1044900010F0010F07D0013CF8D10146044800F0AC
:1044A000B9F8002000E0012010BD00BF8096980000
:1044B000E0034100812903DC7F2903DC00207047F1
:1044C0008329FBD11368073323F0070303F10801A5
:1044D0001160D3E90023C0E900230120704710B424
:1044E00004786CB90224447081604260C360002388
:1044F000036183828375C375019B8361012303700C
:104500005DF8044B70477047074B9B6913F0010F30
:1045100008D0054AD36D01231362A2F5A822936047
:10452000024A1370704700BF008007400606402013
:1045300008B5064B1B7803B108BD044B01221A7065
:10454000034A0146034800F088F8F5E70E064020CC
:10455000754841008404402010B5084C2368196850
:1045600000F06AF8002807DB23680A20196800F0C9
:10457000DFFAC00F404210BD0120FBE72C064020AF
:1045800010B4047864B94170426083609DF80430CF
:104590000373002343738373029B0361012303703E
:1045A0005DF8044B704770B502FB01F61446002914
:1045B0000D4632460146184608BF002400F0BCFAFA
:1045C000864218BFB0FBF5F4204670BD08B500F078
:1045D000DFF900F0E5F900F0EBF900F0F1F900F097
:1045E000FFF9FFF731FD00F0F3F900F001FA08BD23
:1045F000074B1B785BB110B504460A2803D0204650
:1046000000F04CF810BD0D2000F048F8F7E77047B7
:10461000070640200FB407B5064B04AA1B6852F8E2
:10462000041B1868019200F0B1F803B05DF804EBC8
:1046300004B070472C06402070B50E46054600F0C9
:10464000E3F833460446024601212846FFF7ABFF54
:10465000001B18BF4FF0FF3070BD037863B9032310
:104660004370816000234360C3600361838283756C
:10467000C37582610123037070477047430810F0CF
:1046800001004FEA003040EA0340034B586001D07C
:1046900001221A60704700BF008001404FF4801370
:1046A00005494A6912F0020F02D1013BF9D1704766
:1046B000014BD861704700BF0080024002780023A0
:1046C00062F31F63427862F31743827862F30F2329
:1046D000C27862F3070300EE103A7047494E460075
:1046E000696E66004E414E006E616E00286E756CFC
:0B46F0006C2900286E696C2900250071
:1046FC0010B50023934206D113F0030018BF01201C
:10470C0000EB930010BDC45CCC540133F2E710B441
:10471C0004783CB9C160028200224282426183610A
:10472C00012303705DF8044B70477047044B1888E5
:10473C0080B2044B1B889BB2C01A18BF0120704773
:10474C0052054020860240200023034A1370034A7E
:10475C001370034A137070470C0640200A06402061
:10476C000806402008B5FEF761FA034A00231370CF
:10477C005370024A137008BD840440200E0640207A
:10478C0013B50446019201AAFCF7E0FD636813F02F
:10479C00100F18BF4FF0FF3002B010BD044B1A6B56
:1047AC00000440F48050586001221A60704700BF2A
:1047BC000080014008B500F06DF9034B4FF000721A
:1047CC00C3F8342408BD00BF00100E404FF0E023A6
:1047DC00034AC3F80C2DBFF34F8FBFF36F8FFEE767
:1047EC000400FA054AB1431E84460A4411F8010B31
:1047FC0003F8010F9142F9D16046704703783BB141
:10480C00034600BF13F8012F002AFBD1181A70477A
:10481C001846704768076C094C836A9074A07AC07C
:0A482C000080688800846C8200811F
:10483800034B1B6A13F0050F14BF012000207047BB
:1048480000800140034B186A80F48070C0F3002098
:10485800704700BF008001404FF0E02341F6690235
:104868005A6100229A6107221A617047013818BFFD
:1048780001204000014B1870704700BF0E06402011
:104888000010100000201000003010000040100040
:1048980000501000FF484100FD4641006D4B4100AB
:1048A8006D4B41006D4B410032B1C9B20244034621
:1048B80003F8011B9A42FBD1704700BF08B500F00E
:1048C8002FF9024B1860586008BD00BFB40540209E
:1048D800034600BF11F8012B184603F8012B002AE4
:1048E800F8D1704743782BB9416002724372436133
:1048F8000123437070470A440023914201D10020EC
:10490800704701F8013BF8E7024B186AC0F38000D2
:10491800704700BF00800140024B186AC0F3400096
:10492800704700BF00800140024B1869C0F3400087
:10493800704700BF00800040024B186900F001007A
:10494800704700BF00800040024B4FF00072C3F870
:104958003024704700100E4040F46020014BD860AE
:10496800704700BF00800040024B5869C0F3400008
:10497800704700BF00400240024A136801331360C9
:10498800704700BFD005402008B50248FDF7C0FBBE
:1049980008BD00BFA004402008B50248FDF7B8FBD9
:1049A80008BD00BFB804402008B50248FDF7B0FBB9
:1049B80008BD00BFD004402008B50248FDF7A8FB99
:1049C80008BD00BFE804402008B50248FEF7B6F865
:1049D80008BD00BF2C05402008B50248FDF798FB2C
:1049E80008BD00BF0005402008B50248FDF768FC77
:1049F80008BD00BF84044020024B1B68196800F002
:104A080093B800BF2C06402008B5FFF757FFFFF703
:104A18008EFEFFF78CFE08BD08B5FFF7D3FD012019
:104A2800FEF7F8F908BD08B5FFF7CCFD0420FEF73E
:104A3800F1F908BDA0F14103192B98BF40F02000FF
:104A48007047A0F16103192B98BF00F05F00704711
:104A5800014B1A6B1B6A704700800140014B586379
:104A6800704700BF00800140014B186BC0B270470F
:104A780000800140014B02221A607047008001400B
:104A880008B5FFF7BFFA00F0010008BD014B9868B0
:104A9800C0B2704700800040014B1A699B6870479C
:104AA80000800040014BD861704700BF00400240C1
:104AB800014B1868704700BFD0054020014B18789B
:104AC800704700BF08064020014B1888704700BF98
:104AD800FE054020014B1888704700BF660540203E
:104AE800014B00221A70704708064020014B1878C5
:104AF800704700BF0E06402010B50446FFF7E8FED9
:104B0800204610BD08B50520FEF784F908BD08B594
:064B1800FFF72AFE08BDB4
:104B20000048704788024020004870471006402027
:104B300008B5FFF7C5FA08BD0068FFF7DBBB012029
:104B40007047012070470120704701207047012005
:104B500070470120704701207047012070470120F5
:064B6000704701207047C0
:104B680055AA55AA002070470020704700207047BA
:044B7800704700BFC3
:00000001FF
